:080F80005837040000000000D6
:080FC800741304000000000096
:080FE000D81504000000000018
:1010000058140400000000001C130400000000003D
:10102000BC12040000000000621204000000000076
:08104800621704000000000023
:08106000BC13040000000000B5
:081378003220EF00839C2000ED
:10138000008041001040BA000160EF00000006003C
:101390000A0D000046530000534400002070000076
:1013A000726F0000636500006475000072650000E4
:1013B0002068000061730000206200006565000085
:1013C0006E200000496E0000697400006961000031
:1013D00074650000640000003220EF00839F20004D
:1013E000008041001040BA000160EF0000000600DC
:1013F0000A0D000046530000534400002070000016
:10140000726F000063650000647500007265000083
:101410002068000061730000206200006565000024
:101420006E200000436F00006D7000006C650000CE
:1014300074650000640000003220EF0043102000BB
:10144000830150000500310083A32000008041008B
:101450001040BA000160EF000000060080A32000E9
:1014600083814100808141001380BA0000000600A2
:101470004046400041434100544F4400525931001E
:10148000000000000000000000000000000000005C
:10149000000000000000000040560000455200001F
:1014A000534900004F4E0000000000000000000003
:1014B000000000000000000000000000000000002C
:1014C0004053400054414100545544005300320001
:1014D000000000000000000000000000000000000C
:1014E0000000000000000000404100004E540000D9
:1014F0004D5000000000000000000000000000004F
:1015000000000000000000000000000000000000DB
:10151000405040004D0042000000450000004500E2
:10152000000050000000000000000000000000006B
:101530000000000000000000405200005049000080
:10154000000000000000000000000000000000009B
:10155000000000000000000000000000000000008B
:101560004042400041545200000045000000440049
:101570000000200000004F0000004E0000000000AE
:101580000000000000000000405000005752000022
:10159000494E0000464F0000204F00004E00000062
:1015A000000000000000000000000000000000003B
:1015B0004050400057525200494E4500464F4400AB
:1015C000204F200046464F00000046000000460025
:1015D0000000000000000000404C000050520000DD
:1015E0005354000041000000000000000000000013
:1015F00000000000000000000000000000000000EB
:1016000040544000494D420045004C000000550048
:10161000000045000000200000004F0000004E00C8
:1016200000000000000000004044000041540000A1
:101630004500000000000000000000000000000065
:10164000000000000000000000000000000000009A
:10165000405240005443420043464C0000005500B5
:10166000000045000000200000004F000000460080
:1016700000004600000000003220EF0083B420008C
:10168000008041001040BA000160EF000000060039
:101690000A0D000055500000532000005049000082
:1016A000636F00002046000061630000746F00005B
:1016B000727900002053000065740000757000000E
:1016C0002052000065710000756500007374000011
:1016D000656400000A0D0000000000003220EF00E9
:1016E000A3B72000008041001040BA000160EF0065
:1016F000000006000A0D0000426500006570000051
:101700000A0D0000000000003220EF0003B92000A5
:10171000008041001040BA000160EF0000000600A8
:101720000A0D00004261000064200000436F0000C9
:101730006D6D0000616E0000643A000025730000CA
:10174000000000003220EF00E3BA200000804100DA
:101750001040BA000160EF00000006000A0D000012
:10176000555000005320000050490000636F0000F6
:1017700020530000747200007563000074200000A4
:10178000546900006D6500003A2500003032000009
:10179000783A000025300000327800003A25000039
:1017A00030320000780A00000D0000003220EF0007
:1017B00023BE2000008041001040BA000160EF000D
:1017C000000006000A0D000053650000747400005C
:1017D000696E000067200000757000002050000056
:1017E000496300006F200000525400004343000092
:1017F000207400006F200000646500006661000036
:10180000756C000074200000766100006C750000AB
:1018100065730000000000003220EF0083C120004B
:10182000008041001040BA000160EF000000060097
:101830000A0D0000584200004D4300002046000001
:10184000756E000063740000696F00006E61000037
:101850006C6900007479000020680000617300006A
:1018600020620000656500006E20000064690000D1
:1018700073610000626C00006564000000000000FD
:101880003220EF00C3C42000008041001040BA00A5
:101890000160EF00000006000A0D00004641000054
:1018A0004E200000537000006565000064200000B9
:1018B0007365000074200000746F00002035000084
:1018C000300000003220EF00E3C62000008041001D
:1018D0001040BA000160EF00000006000A0D000091
:1018E000464100004E200000736500007420000097
:1018F0004F460000460000003220EF004302200067
:10190000830150000500310083C9200000804100A0
:101910001040BA000160EF000000060080C92000FE
:1019200083814100808141001380BA0000000600DD
:101930000A0D6100527575006E6E6C00696E740060
:10194000672020006F6E3600204230006174200056
:10195000746573007279650020546300696D6F00CF
:1019600065206E007365640074207300746F00005E
:1019700020640000656600003220EF00A303200011
:10198000830150000500310083CD2000008041001C
:101990001040BA000160EF000000060080CD20007A
:1019A00083814100808141001380BA00000006005D
:1019B0000A0D7200546820006520520050496100F1
:1019C000636F730020537000657262006961650087
:1019D0006C207200506F72007274790020692000D0
:1019E00073205000656E6900616220006C656100C3
:1019F00064207000284E70004F546C002061690014
:101A000076616300696C6100616274006C656900F5
:101A100029206F00666F6E00722073006F740000E3
:101A2000686500003220EF000302200083015000AF
:101A300005003100E3D22000008041001040BA00D0
:101A40000160EF0000000600E0D220008381410029
:101A5000808141001380BA00000006000A0D650075
:101A60005365720074206E005570610020686C0030
:101A70006173200020624500656545006E205000BE
:101A80007772520069744F0074654D006E200A0031
:101A9000746F0D00206900006E7400003220EF00AA
:101AA000A3D52000008041001040BA000160EF0083
:101AB000000006000A0D00005550000053200000F1
:101AC00050490000636F000020530000797300004C
:101AD000746500006D200000456E00007465000014
:101AE000726900006E670000204C00005052000038
:101AF000204D00006F640000650000003220EF0000
:101B0000E30220008301500005003100A3D920002A
:101B1000008041001040BA000160EF0000000600A4
:101B2000A0D9200083814100808141001380BA0048
:101B3000000006000A0D72005550690053206E0027
:101B400050496700636F20002053630079736F0072
:101B500074656E006D2064005175690069747400CD
:101B6000696E690067206F004C506E005220730050
:101B70004D6F200064656300206468007565610036
:101B800020746E006F206700706F6500776500003D
:101B90003220EF0043DD2000008041001040BA00F9
:101BA0000160EF00000006000A0D0000486100001F
:101BB000726400007761000072650000205200002E
:101BC000544300004320000052650000736500008C
:101BD00074200000746F000020640000656600003F
:101BE000617500006C74000020760000616C0000DC
:101BF00075650000730000003220EF0063022000D2
:101C0000830150000500310083E120000080410085
:101C10001040BA000160EF000000060080E12000E3
:101C200083814100808141001380BA0000000600DA
:101C30000A0D4C0055506F0053206100504964005C
:101C4000636F650020487200563320002E30560026
:101C50000A0D65005043720042207300566569000A
:101C600072736F00696F6E006E3A3A00254325006B
:101C70000A0D4300426F00006F7400003220EF0035
:101C8000A3E42000008041001040BA000160EF0092
:101C9000000006000A0D00004465000061660000B7
:101CA000756C000074200000426100007474000034
:101CB0006572000079200000547900007065000012
:101CC0003A0000003220EF00E301200083015000C1
:101CD00005003100E3E72000008041001040BA0019
:101CE0000160EF0000000600E0E720008381410072
:101CF000808141001380BA00000006000A0D200018
:101D00004C6F460077205300283253002E39440090
:101D1000562920002042550061745000746553001C
:101D200072792000202850004C6949004665630004
:101D3000504F6F00342900003220EF0023022000B2
:101D4000830150000500310083EB2000008041003A
:101D50001040BA000160EF000000060080EB200098
:101D600083814100808141001380BA000000060099
:101D70000A0D740055502000532072005049650030
:101D8000636F730020437400616261006C657200D0
:101D9000206374006F6E69006E656E006374670087
:101DA000696F20006E735200206450006574490012
:101DB000656300003220EF00C30120008301500062
:101DC0000500310063EF2000008041001040BA00A0
:101DD0000160EF000000060060EF200083814100F9
:101DE000808141001380BA00000006000A0D460001
:101DF0004C6F530077205300283344002E342000CA
:101E0000562955002042500061745300746520002B
:101E100072795000202849004C696300504F6F00D0
:101E2000292000003220EF00E3F120000080410073
:101E30001040BA000160EF00000006000A0D00002B
:101E4000546900006D6500006420000046530000E6
:101E5000534400002046000053530000442000007B
:101E6000555000005320000050490000636F0000EF
:101E7000203A0000254C000055200000736500004A
:101E8000636F00006E640000730000003220EF00FA
:101E900023F52000008041001040BA000160EF00EF
:101EA000000006000A0D00004653000053440000E5
:101EB000204B000065790000205000007265000092
:101EC0007373000065640000000000003220EF0022
:101ED00023F72000008041001040BA000160EF00AD
:101EE000000006000A0D000052610000737000003F
:101EF00062650000727200007920000050690000E5
:101F000020690000732000006E6F00007420000044
:101F1000727500006E6E0000696E000067000000C0
:101F20003220EF00C3F92000008041001040BA00C9
:101F30000160EF00000006000A0D0000555000008F
:101F40005320000050490000636F0000206900002A
:101F5000732000006261000074740000657200006C
:101F600079200000506F0000776500007265000066
:101F7000640000003220EF0063FC2000008041007C
:101F80001040BA000160EF00000006000A0D0000DA
:101F9000555000005320000050490000636F0000BE
:101FA000206900007320000063610000626C000083
:101FB00065200000506F000077650000726500002A
:101FC000640000003220EF00E3FE200000804100AA
:101FD0001040BA000160EF00000006000A0D00008A
:101FE000464100004E2000005365000074200000B0
:101FF0004F460000460000003220EF008300210021
:10200000008041001040BA000160EF0000000600AF
:102010000A0D0000464100004E20000053650000FC
:10202000742000004F4E0000000000003220EF003E
:1020300023022100008041001040BA000160EF003F
:10204000000006000A0D0000426900005374000001
:10205000616200006C6500002052000065610000B4
:102060006C7900002053000065740000000000003F
:102070003220EF0043042100008041001040BA00EC
:102080000160EF00000006000A0D00004269000038
:1020900053740000616200006C6500002052000073
:1020A000656100006C79000020520000657300003B
:1020B00065740000000000003220EF0003022000E1
:1020C000830150000500310083072100008041009A
:1020D0001040BA000160EF000000060080072100F8
:1020E00083814100808141001380BA000000060016
:1020F0000A0D6F004261200074743A006572250079
:1021000079207500527520006E6E7300696E65004F
:102110006720630074696F006D656E002075640050
:102120007064730061740000656400002074000036
:102130003220EF00A303200083015000050031008E
:10214000430B2100008041001040BA000160EF0005
:1021500000000600400B2100838141008081410086
:102160001380BA00000006000A0D6C0042612000D6
:1021700074746900657273007920200052756C00D8
:102180006E6E6F00696E770067206500746972007B
:102190006D652000207574007064680061746100D2
:1021A00065646E00207420006F203300756E2E0071
:1021B0006C6935006D6956007465200064206F00FD
:1021C0002D207200626120007474320065722E004E
:1021D000792038006C655600766500003220EF00EB
:1021E000A30F2100008041001040BA000160EF0001
:1021F000000006000A0D0000536F0000756E00001D
:1022000064200000447500007261000074690000E1
:102210006F6E00003A25000055300000206D000070
:10222000730000003220EF00E31121000080410024
:102230001040BA000160EF00000006000A0D000027
:10224000536F0000756E00006420000046720000AD
:1022500065710000756500006E630000793A00004A
:10226000254C000055200000487A00000A0D0000AF
:10227000000000003220EF00C30120008301500065
:102280000500310063152100008041001040BA00B4
:102290000160EF000000060060152100838141000D
:1022A000808141001380BA00000006000A0D44003E
:1022B000555020005320520050496500636F710053
:1022C000205575006E6365006F6E7300646974005D
:1022D000746965006F6E6400616C0A0020460D0031
:1022E000535300003220EF00E3012000830150002F
:1022F00005003100E3182100008041001040BA00C1
:102300000160EF0000000600E01821008381410019
:10231000808141001380BA00000006000A0D2000F1
:10232000555052005320650050497100636F75008D
:1023300020486500563373002E3074002046650037
:1023400061636400746F0A0072790D00205300000D
:1023500065740000757000003220EF00831B2100BF
:10236000008041001040BA000160EF00000006004C
:10237000555000005320000050490000636F0000DA
:1023800020480000563300002E300000205200008C
:102390006573000065740000205200006571000044
:1023A0007565000073740000656400000A0D00008C
:1023B000000000003220EF00631E21000080410079
:1023C0001040BA000160EF00000006005550000008
:1023D0005320000050490000636F000020480000B7
:1023E000563300002E300000204200006F6F0000C6
:1023F000746C00006F6100006465000072200000D2
:10240000526500007175000065730000746500007E
:10241000643A0000000000003220EF00A303200017
:10242000830150000500310083222100008041001B
:102430001040BA000160EF00000006008022210079
:1024400083814100808141001380BA0000000600B2
:102450000A0D650055506600532061005049750013
:10246000636F6C0020487400563320002E30420009
:10247000205061004342740020567400657265006C
:10248000736972006F6E79003A4120000A0D5400A2
:10249000426F79006F7470004C6F650061643A00A0
:1024A00065724C00205669006572500073694F00D8
:1024B0006F6E0A003A500D006C750000730A000040
:1024C0000D4400008580A9004200F8003600F800A5
:1024D0003200F800801F7800200020000C00090066
:1024E000B01F7800BAC9BF00BB49E3001300320037
:1024F000D44D80004822DE00A39820000300420053
:1025000090427800054078002302AE00FEFF3700BD
:1025100024E2B7002562EF00D44D80004822DE009F
:10252000E1024200050278000303200011000900C7
:102530000382D80001407800BBE9B700A001200069
:102540000C0009004F1078004F0078003200F900AD
:102550003600F9004200F900004006002202AE00F9
:10256000FEFF37002202F8000008F9003011800059
:102570002222A900000006004200F8003600F80000
:102580003200F800801F7800200020000C000900B5
:10259000B01F7800644F80000960EF00C39B2000EB
:1025A00083024200AE12020000000000804A780060
:1025B000ECC9BF0082EBB700644F80000960EF00F8
:1025C000E102420005027800030320001100090027
:1025D0000382D80001407800ECE9B700ECC9BF00E5
:1025E000ED49E30002003A0082CBBF00ECE9B700FE
:1025F0008560A900A00120000C0009004F107800A0
:102600004F0078003200F9003600F9004200F9006E
:1026100000400600114AE20002003200116AED009B
:1026200004003700114AE20002003A0080FF2F0048
:102630009A21B600000006004200F8003600F800BB
:102640003200F800801F7800200020000C000900F4
:10265000B01F78000A13020000000000D74AE20011
:1026600002003200D76AED0016003700D56AEC0090
:10267000D60AAF0004003700C942A900CD42A80025
:10268000D60AA80005003700D60AAE0003003700BE
:10269000C942A900CD42A900D60AA900D5CABF00E7
:1026A0000000FB00040420000020E10003003D00C6
:1026B000D56AEF00C962A900CD62A80040C1B3008D
:1026C000D7EAB7008500A900A00120000C0009008E
:1026D0004F1078004F0078003200F9003600F90002
:1026E0004200F900004006004200F8003600F80001
:1026F0003200F800801F7800200020000C00090044
:10270000B01F7800F40F2000145C8800820BE200F8
:1027100002003200822BED00FCFF3700C8E2A80067
:10272000CAE2AE00010037000A003700144C8000F6
:102730006124E10002003A008269EF0005003700E1
:102740008689AF000300370086E9AE00010037003C
:102750008689A8008400A900A00120000C000900BF
:102760004F1078004F0078003200F9003600F90071
:102770004200F900004006004200F8003600F80070
:102780003200F800801F7800200020000C000900B3
:10279000B01F7800F40F2000145C8800820BE20068
:1027A00002003200822BED00FCFF37007D6AEC0056
:1027B000D45380004822DE006224E1000C00320085
:1027C00040C0B300D3EAB7007FEAAF000300370090
:1027D0007FEAA8008489A800040037007FEAAE00E1
:1027E000020037007FEAA9008489A9000E003700A3
:1027F000D45380004822DE006224E1000A003A003F
:10280000D34AE20001003200D36AED00D34AE2006D
:1028100004003A0040C0B300D3EAB7008489A8009E
:10282000010037008489A9008660A900A00120006A
:102830000C0009004F1078004F0078003200F900BA
:102840003600F9004200F90000400600851F7800BC
:10285000A45680006724E10001003600D46AEF002E
:10286000D4CABF00D46AEC000160EF004100DD0073
:1028700024A5200084024000C453800084029800F4
:10288000CF0278000000060085A0A9004003A9003F
:102890004023A80085A0AE00FEFF37004003AE0035
:1028A000FEFF37000083BF0000A0B7000000060055
:1028B0004200F8003600F8003200F800801F78006F
:1028C000200020000C000900B01F78002614020030
:1028D000000000007F0AAE00010037007B003700D7
:1028E0004823EF00441402000000000062AAB70071
:1028F00014002000441A8800441402000000000064
:1029000064AAB70064002000441A8800441402003E
:102910000000000066AAB700D062A900D462A90036
:1029200074002000441A88004414020000000000D3
:1029300068AAB700D062A900D462A8007400200081
:10294000441A880044140200000000006AAAB7007C
:10295000D062A900D462A90084002000441A880033
:1029600044140200000000006CAAB700D062A90065
:10297000D462A80084002000441A88004414020095
:10298000000000006EAAB700D062A900D462A800BF
:10299000D4002000441A8800441402000000000003
:1029A00072AAB700D062A900D462A900D4002000A6
:1029B000441A8800441402000000000074AAB70002
:1029C00094002000441A8800441402000000000013
:1029D00076AAB700E4002000441A880044140200DC
:1029E0000000000078AAB700A4002000441A880064
:1029F000441402000000000070AAB70086A9AE00CF
:102A000010003700C122A900C522A8007F6AA800D3
:102A1000D0A2A900D4A2A8007F8AA800C102A90060
:102A2000C502A8007FAAA800D082A900D482A8006D
:102A30007FCAA800C8A2A900CCA2A8007F4AA9000A
:102A400022003700708ABF00445280000020E1005D
:102A50001E003900D45380004822DE006224E100C9
:102A60001A00320086E9AE0018003700C122A90022
:102A7000C522A8007F6AA800D0A2A900D4A2A800FD
:102A80007F8AA800C102A900C502A8007FAAA800E9
:102A9000C8A2A900CCA2A8007F4AA90020C0B30008
:102AA0007BEAB7007BCABF00F2E8B70030C0B300D2
:102AB0008CEAB700842AEF00862AEF00843E2000CB
:102AC000545488008D6AEF000000370000000000B9
:102AD00084E0A900A00120000C0009004F1078003C
:102AE0004F0078003200F9003600F9004200F9008A
:102AF00000400600D45380004822DE006224E1003A
:102B00002A003A007F0AA800047D2000745488003F
:102B1000A4002000441A8800C102A900C502A9002F
:102B20007FAAA9008E0AE200110032008E2AED0071
:102B30000060FE00441402000000000070AAB7000C
:102B4000708ABF00445280000020E1000700360078
:102B5000C102A900C502A8007FAAA8007F0AA90097
:102B60007E3E09000000000010003700EDFF370036
:102B7000702AEF0050C0B3008DEAB70010C0B30058
:102B80007BEAB7007BCABF00F2E8B700842AEF00F7
:102B9000862AEF00C102A900C502A9007FAAA900E8
:102BA0007F0AA9007E3E0900000000000000060028
:102BB0004200F8003600F8003200F800801F78006C
:102BC000200020000C000900B01F7800836BEF008C
:102BD000836BEC002706A8002726A8002406F8002F
:102BE0008C0BF9008CCBBF00DEEAB7008DCBBF00A9
:102BF00082EBB7002406F8008C0BF9008CCBBF00E9
:102C0000DCEAB7008DCBBF00DDEAB7002406F80090
:102C10008C0BF9008CCBBF00DAEAB7008DCBBF007C
:102C2000DBEAB7002406F8008C0BF9008CCBBF0060
:102C3000D8EAB7008DCBBF00D9EAB7002706A800B5
:102C40002726A8002406F8008C0BF9008CCBBF00C7
:102C50008AEBB7008DCBBF0082EBB7002406F800EB
:102C60008C0BF9008CCBBF0088EBB7008DCBBF007D
:102C700089EBB7002406F8008C0BF9008CCBBF0061
:102C800086EBB7008DCBBF0087EBB7002406F800BA
:102C90008C0BF9008CCBBF0084EBB7008DCBBF0051
:102CA00085EBB700145C80004822DE006324E1005D
:102CB00001003900220037008ACBBF00DE4AE30062
:102CC00002003200C2FF37001D00370088CBBF0072
:102CD000DC4AE30002003200BDFF37001800370075
:102CE00089CBBF00DD4AE30002003200B8FF3700A5
:102CF0001300370086CBBF00DA4AE300020032003F
:102D0000B3FF37000E00370087CBBF00DB4AE3007C
:102D100002003200AEFF37000900370084CBBF004D
:102D2000D84AE30002003200A9FF37000400370050
:102D300085CBBF00D94AE30001003200A4FF370071
:102D4000D62AAF0002003700D62AA80003003700B9
:102D5000D62AAE0001003700D62AA9007DCABF00DE
:102D60007E4AE30003003A0086E9A9007D6AEF008D
:102D7000090037007DCABF007E4AE300060032002A
:102D800086E9A8007D6AEF00882AEF00802AEC001F
:102D90004220AF00822AEC007DCABF007EEAB70065
:102DA00086E9AE0007003700D45380004822DE00D9
:102DB0006224E10003003A00842AEC004220AF00C4
:102DC000862AEC0086E9AF0001003700882AEC0073
:102DD0008C4AE200020032008C6AED0006003700E7
:102DE0008C4AE20004003A0030C0B3008CEAB7001D
:102DF0007A150200000000008D4AE2000100320056
:102E00008D6AED007A4AE200010032007A6AED0034
:102E10007C49E200010032007C69ED008349E20058
:102E20000300320086E9AF00010037008369ED003E
:102E30008460A900A00120000C0009004F10780058
:102E40004F0078003200F9003600F9004200F90026
:102E500000400600F0FF2F000862AE00FEFF3700C2
:102E60000922AF00040037000742AE00020037001D
:102E70000902AE00F8FF37000822AE00FEFF37005F
:102E80000082BF0008C2AF0008C2A9000782A800E4
:102E900000000600F0FF2F000862AE0008003700B7
:102EA0000842AE00060037000742AE0002003700BD
:102EB0000902AE0002003700111088000782A80046
:102EC000000006004200F8003600F8003200F8006A
:102ED000801F7800200020000C000900B01F78003F
:102EE00008A2AF0004003700E66AEF000842AE0017
:102EF00001003700E6EAA800E6CABF000160EF0063
:102F0000E66AEC0085EBB700FE0009000000000057
:102F1000245C80004822DE0003082000041CE1003D
:102F2000D8003900245C80004822DE0004C8B200CA
:102F300003003A0000C2BF0084EBB7000600370070
:102F400011002000811F7800CF0078002A170200AE
:102F50000000000084EBB700854BE2000400320063
:102F6000245C80004822DE0004C8B20003003A005E
:102F700084CBBF00E5EAB700C2003700245C8000C4
:102F80004822DE006124E10003003A0084CBBF0048
:102F9000E2EAB700BB003700245C80004822DE0074
:102FA0006224E100B7003900245C80004822DE0082
:102FB00004C8B200B3003200245780004822DE006B
:102FC00004CDB2005B003A00145780006724E10092
:102FD0002C003E00E2CABF00E26AEC000080FB0069
:102FE00084AD200084024000848BBF0080429800A2
:102FF0002966A9002946A9002706A8002726A800B7
:10300000871F7800881F78000500FC005705200006
:10301000373B8800A80A2000383B880027A6A80074
:103020004F047800CF037800DECABF0086EBB700FC
:10303000876BEF00860BF8002406F900DCCABF009E
:1030400086EBB700DDCABF0087EBB700860BF80040
:103050002406F900DACABF0086EBB700DBCABF005E
:1030600087EBB700860BF8002406F900D8CABF002A
:1030700086EBB700D9CABF0087EBB700860BF80014
:103080002406F900145780006724E10029003A0063
:103090002966A9002946A9002706A8002726A80016
:1030A000871F7800881F78000500FC005705200066
:1030B000373B8800A80A2000383B880027A6A800D4
:1030C0004F047800CF037800DECABF0086EBB7005C
:1030D000876BEF00860BF8002406F900DCCABF00FE
:1030E00086EBB700DDCABF0087EBB700860BF800A0
:1030F0002406F900DACABF0086EBB700DBCABF00BE
:1031000087EBB700860BF8002406F900D8CABF0089
:1031100086EBB700D9CABF0087EBB700860BF80073
:103120002406F90010C0B300E4EAB70020C0B300E1
:10313000E3EAB700245780004822DE0024CDB20025
:103140000C003A001457800073022000041CE100B8
:1031500007003900E2CABF00E26AEC000080FB0011
:10316000248F200084024000848BBF00804298009E
:1031700044003700245780004822DE0044CDB200CE
:1031800030003A00145780006824E1002C003E0013
:10319000E2CABF00E26AEC000080FB0084AD2000C0
:1031A00084024000848BBF00804298002966A900F9
:1031B0002946A9002706A8002726A800871F78000F
:1031C000881F78000500FC0057052000373B880069
:1031D000A80A2000383B880027A6A8004F047800E2
:1031E000CF037800DECABF0086EBB700876BEF0025
:1031F000860BF8002406F900DCCABF0086EBB70096
:10320000DDCABF0087EBB700860BF8002406F90083
:10321000DACABF0086EBB700DBCABF0087EBB70096
:10322000860BF8002406F900D8CABF0086EBB70069
:10323000D9CABF0087EBB700860BF8002406F90057
:1032400010003700245780004822DE0064CDB20011
:103250000B003A00145780007724E10007003E007D
:10326000E2CABF00E26AEC000080FB00A4912000EB
:1032700084024000848BBF00804298000100370028
:1032800000000000245C80004822DE0003082000CB
:10329000041CE1008E003E00245C80004822DE0019
:1032A00004C8B20002003A0000C2BF0084EBB700BD
:1032B000245780004822DE0014CDB20014003A00EA
:1032C000145780006824E1000A003E00E2CABF00F3
:1032D000E26AEC000080FB0084AD200004004000A6
:1032E00090427800854078004A17020000000000F4
:1032F00007003700145780006824E10004003600FE
:1033000080C0EB004A17020000000000000000002F
:10331000245780004822DE0034CDB20017003A0066
:103320001457800073022000041CE1000A003900D9
:10333000E2CABF00E26AEC000080FB00248F20009C
:103340000400400090427800854078004A1702004F
:1033500000000000080037001457800073022000AE
:10336000041CE1000400310080C0EB004A17020099
:1033700000000000000000005500370024578000C6
:103380004822DE0054CDB20015003A0014578000E8
:103390006824E1000A003E00E2CABF00E26AEC00D5
:1033A0000080FB0084AD20000400400090427800C3
:1033B000854078004A17020000000000070037002F
:1033C000145780006824E1000400360080C0EB0040
:1033D0004A17020000000000000000003C00370017
:1033E000245780004822DE0074CDB20015003A0058
:1033F000145780007724E1000A003E00E2CABF00B3
:10340000E26AEC000080FB00A49120000400400070
:1034100090427800854078004A17020000000000C2
:1034200007003700145780007724E10004003600BD
:1034300080C0EB004A1702000000000000000000FE
:1034400023003700245780004822DE0094CDB200CC
:1034500005003A0080C0EB004A170200000000009F
:10346000000000001A003700245780004822DE00C8
:10347000B4CDB20005003A0080C0EB004A1702004C
:1034800000000000000000001100370024578000F9
:103490004822DE00D4CDB20005003A0080C0EB0027
:1034A0004A1702000000000000000000080037007A
:1034B000245780004822DE00F4CDB20004003A0018
:1034C00080C0EB004A17020000000000000000006E
:1034D000000000008600A900A00120000C000900E7
:1034E0004F1078004F0078003200F9003600F900E4
:1034F0004200F90000400600E70160004300DE00E2
:10350000020040000000A700E88141000000A10087
:103510000104E0001098AD0000000600851F78004F
:10352000D122A900D522A900C8C2A900CCC2A900F5
:1035300010C0B30054EBB700A45A80006824E10027
:1035400013003E00528BBF00904278000508B20085
:103550000500E00003003A00C162A900C562A900AD
:1035600002003700C162A900C562A800915A80001C
:103570004200A90091D8D200D122A900D522A800EA
:10358000D122A900D522A900546BEC00EAFF370034
:10359000C8C2A900CCC2A800C8C2A900CCC2A90058
:1035A000CF02780000000600228020004ECBBF0032
:1035B0000160EF00110020007C1A020000000000F2
:1035C00002C8BF004FEBB700F4B42000945A880043
:1035D0008E1A0200000000000000060010C0B300B8
:1035E0004EEBB700D41A02000000000020C0B30068
:1035F0004EEBB700D41A02000000000030C0B30048
:103600004EEBB700D41A02000000000000000600D4
:10361000228020004ECBBF000160EF00010020009F
:103620007C1A02000000000002C8BF004FEBB70088
:10363000F4B42000945A88008E1A020000000000A2
:1036400000000600851F78008489AE000400370062
:103650004E6BEF00D41A0200000000000500370096
:103660008489AF00030037004E6BEF00081B020097
:103670000000000084A9AE000500370050C0B30070
:103680004EEBB700D41A020000000000060037001D
:1036900084A9AF000400370050C0B3004EEBB70060
:1036A000081B02000000000084C9AE0005003700BE
:1036B00040C0B3004EEBB700D41A02000000000077
:1036C0000600370084C9AF000400370040C0B300D3
:1036D0004EEBB700081B020000000000CF0278008C
:1036E000000006000000E0004220AF0004003700A8
:1036F0007B3E0900000000000000E900FCFF3A00EA
:103700000000060001E02F0083814000F107200047
:10371000E0804800910188000500A1000500E0005C
:1037200003003200331ABA008582E900FCFF3A0038
:1037300000000600851F78004A2BEF004C6BEF005D
:103740004A2BEF00545A8000030320000418E100C4
:103750001B0039000060FE00535A80000400200066
:1037600025002000821B0200000000004EABB700C5
:103770004CCBBF004C6BEC000080FB00C4942000DD
:10378000840240004E8BBF00804298004CCBBF00AB
:103790004C6BEC000080FB00C494200084024000CD
:1037A0004FCBBF00804A78007E3E09000000000039
:1037B000545A8000620042004AABB700E1FF370074
:1037C000CF02780000000600861F7800871F78006F
:1037D000881F7800891F78000002EB008002EB0050
:1037E0000003EB008003EB000304690011003200CA
:1037F000080220004200A9000080D2008180D2008F
:103800000482D2008582D2000328E10001003A0040
:1038100002A0E100030039000202520083825A0034
:103820004200A8000683D2008783D2000804E90082
:10383000F0FF3A008700780006007800CF04780097
:103840004F047800CF0378004F0378000000060093
:10385000821F7800831F7800851F78004300A9002D
:103860003200200003002000E41B020000000000E2
:103870004200A9000080D2008180D200910188001E
:10388000CF027800CF0178004F0178000300E000FC
:1038900013003200E3006200050032000000E8007F
:1038A0008100E900070032000000E900080037004D
:1038B0000300E0000A0032003059BA008301E90039
:1038C000070032002059BA008301E90004003200E9
:1038D00030D9BA000000E8008301E900F4FF3700A6
:1038E00000000600851F7800BAC9BF00BB49E3008D
:1038F000020032000040EB000100370010C0B300AE
:103900005BEBB700D44D80000960EF00A398200066
:10391000830242005A8BBF0080429800D44D800041
:103920000960EF00E1024200050278000303200075
:10393000110009000382D800010078005CABB700D9
:10394000BBC9BF000160EF005C0BE300FCFF32006D
:103950005CCBBF00BAE9B7005B4BE200010032006C
:103960008580A800CF02780000000600851F78003F
:10397000861F7800871F7800881F780050CBBF0013
:103980000160EF004100DD00A48B200084024000B4
:103990000500780090037800851F78000700780004
:1039A000010020000201200013002000281C02005A
:1039B00000000000CF02780010C0BF000040B3003C
:1039C0004220AF00070037008703E8005A0BF800D9
:1039D000E8FF9F005A0BF900721C02000000000073
:1039E000EDFF37004F047800CF0378004F037800D5
:1039F000CF027800000006004ECBBF000160EF0050
:103A00000000E0001B0032006100E1001B003200FA
:103A10006400E1001C0032006600E1001D0032007D
:103A20006700E1001E0032006E00E1001F0032005E
:103A30006F00E100200032007000E1002100320040
:103A4000040420000400E1002100320004082000EA
:103A50000400E10021003200041020000400E10015
:103A600021003200040021000400E10021003200A6
:103A7000230037004F6BEF002400370010C0B30065
:103A80004FEBB7002100370020C0B3004FEBB70069
:103A90001E00370030C0B3004FEBB7001B003700EB
:103AA00040C0B3004FEBB7001800370050C0B30060
:103AB0004FEBB7001500370060C0B3004FEBB70005
:103AC0001200370070C0B3004FEBB7000F00370093
:103AD00080C0B3004FEBB7000C00370090C0B300BC
:103AE0004FEBB70009003700A0C0B3004FEBB700A1
:103AF00006003700B0C0B3004FEBB700030037003B
:103B0000C0C0B3004FEBB70000003700D0C0B30017
:103B100050EBB700B61C0200000000004FCBBF0006
:103B200050EBB700B61C02000000000000000600C9
:103B30004C2BEF004E6BEF00745A80006724E100BD
:103B40000A003E004ECBBF000160EF004100DD00E7
:103B500024A5200004004000000278001400780032
:103B60004C2BB4004E6BEC00F3FF37004C0BF8000D
:103B70004A0BF9004A2BD5004A2BD5004A2BD50019
:103B8000545A8000837020000418E10004003600BD
:103B900030C0B30000E0B7001F0037001E00370040
:103BA000545A8000837020000418E10008003E0091
:103BB000545A8000638620000418E1000400390094
:103BC00020C0B30000E0B700130037001200370038
:103BD000545A8000638620000418E10008003E006B
:103BE000545A8000239920000418E1000400390091
:103BF00010C0B30000E0B700070037000600370030
:103C0000545A8000239920000418E100020031007A
:103C10000060EF0000003700000006000600FC0016
:103C2000617620005205200082087800A30A200057
:103C30008308780027A6A8002174200062042000D1
:103C40007305200082487800834878004227A80046
:103C50000400280034318800FC22A90027A6A9000E
:103C6000DE6AEF0010C0B300DDEAB70010C0B30099
:103C7000DCEAB70010C0B300DBEAB700DA6AEF0095
:103C8000D96AEF00D86AEF002966A9002946A90081
:103C90002706A8002726A800871F7800881F78001D
:103CA0000500FC0057052000373B8800A80A2000CB
:103CB000383B880027A6A8004F047800CF0378007F
:103CC000DECABF0086EBB700876BEF00860BF800FB
:103CD0002406F900DCCABF0086EBB700DDCABF00CE
:103CE00087EBB700860BF8002406F900DACABF009C
:103CF00086EBB700DBCABF0087EBB700860BF80086
:103D00002406F900D8CABF0086EBB700D9CABF00A5
:103D100087EBB700860BF8002406F90000000600C8
:103D20004200F800801F780014028000040EB300E7
:103D300014028800013B880054052000343B8800B1
:103D4000A40A2000343B880061E7A80000000000BE
:103D50000000000061E7AF00FEFF37004F00780071
:103D60004200F900000006004200F800801F7800C1
:103D700014028000040EB30014028800013B880086
:103D800054052000343B8800A40A2000343B8800FE
:103D900061E7A80000000000000000004F0078006C
:103DA0004200F90000000600811F780001E02F00AA
:103DB000008040008000EB00F1072000E080480018
:103DC00091018800CF0078000200A1000200E0000D
:103DD000110032001108BB00811F78000100200093
:103DE000901E020000000000CF0078003108BB00E8
:103DF0000080E80001003A003220EC00811F7800CA
:103E000041002400B41E020000000000CF00780032
:103E10000281E900EFFF3A0000000600851F7800EC
:103E2000C500200003000900B51F7800090020002C
:103E30004300AF0019002000891F78000002EB004A
:103E40008002EB000003EB008003EB000304690039
:103E500011003200080220004200A9000080D200B8
:103E60008180D2000482D2008582D2000328E10042
:103E700001003A0002A0E1000300390002025200F2
:103E800083825A004200A8000683D2008783D200B2
:103E90000804E900F0FF3A00870078000600780087
:103EA000CF0478000900E000010032000400BE00E9
:103EB0002501200003000900CF127800CF0278000E
:103EC00000000600851F7800C500200003000900DF
:103ED000B51F78000202B8000303B8004200A90031
:103EE0008502430060844B00020BB80085024B0042
:103EF00008844B00030BB800080443000780B0009F
:103F000087017800080178008500780004007800B7
:103F10002501200003000900CF127800CF027800AD
:103F200000000600E55A80004300A900588BBF003E
:103F3000D15A8000A25A8000B35A80000E1F02009E
:103F4000000000000100E00013003A000000E00063
:103F5000110032000500E0000E003200823E200019
:103F600003002000621F0200000000000100E000CA
:103F700002003A000000E00062003A004300A9009D
:103F8000823E2000030020000E1F020000000000FF
:103F9000010037005B0037004300A90082002000C9
:103FA000030020000E1F0200000000000100E000DE
:103FB00013003A000000E000110032000500E000AC
:103FC0000E003200823E200003002000621F02002B
:103FD000000000000100E00002003A000000E000E4
:103FE00044003A004300A900823E20000300200064
:103FF0000E1F020000000000010037003D003700E6
:104000004300A90082002000030020000E1F0200D0
:10401000000000000100E00013003A000000E00092
:10402000110032000500E0000E003200823E200048
:1040300003002000621F0200000000000100E000F9
:1040400002003A000000E00026003A004300A90008
:10405000823E2000030020000E1F0200000000002E
:10406000010037001F0037004300A9004200200074
:10407000030020000E1F0200000000000100E0000D
:1040800013003A000000E000110032000500E000DB
:104090000E003200823E200003002000621F02005A
:1040A000000000000100E00002003A000000E00013
:1040B00008003A004300A900823E200003002000CF
:1040C0000E1F020000000000010037000100370051
:1040D000000020008000780004032800F408880015
:1040E0000B0037008000780004022800F4088800E4
:1040F000070037008000780004012800F4088800D9
:10410000030037008000780004002800F4088800CD
:104110008100E900D10888000000060001002000AD
:104120001A81BF000000E8004220AF008100E800D3
:10413000A25A800003002000621F0200000000005D
:10414000823E2000030020000E1F0200000000003D
:10415000AAA1B700000006004E4BE20003003A009F
:1041600080FF2F00A421B60030003700745A800071
:104170007924E1000200310090C1B3004EEBB7009A
:10418000502BEF00745A80000960EF006A20B800DD
:10419000845A80000020E10017003E002403200024
:1041A000A45A8800562BEF0004402200C45A88000D
:1041B000440F2000D45A88005C2BEF00921F0200AD
:1041C00000000000500BF800540BF9008E20020094
:1041D0000000000060002000A421B7003E1F09007D
:1041E000000000000060FE00845A80006D00420064
:1041F00050ABB700E3FF3700845A8000633B2000D8
:104200000418E10008003E00843E2000845A880023
:10421000843E2000A45A88008E2002000000000086
:1042200060002000A421B7008609A8000000060055
:1042300080FF2F00A421B6008609A9000000060017
:10424000851F7800506BEF004E2BEF00745A8000F2
:10425000030320000418E1001D0039000060FE0087
:1042600050CBBF00506BEC000080FB00C4942000DA
:1042700004004000945A800000429000945A880044
:1042800050CBBF00506BEC000080FB00C4942000BA
:1042900004004000801F78001040780053EBB70006
:1042A0004F0078004E8BBF0021B520002200200077
:1042B000D41E0200000000007E3E09000000000045
:1042C000745A8000620042004EABB700DFFF370037
:1042D000CF0278000000060010C0B3004EEBB7001C
:1042E000081B02000000000020C0B3004EEBB70026
:1042F000081B02000000000030C0B3004EEBB70006
:10430000081B02000000000000000600EE1A020078
:1043100000000000E0C0B30050EBB700B61C020084
:104320000000000050C1B30050EBB700B61C020003
:104330000000000060C1B30050EBB700B61C0200E3
:10434000000000004A2BEF00545A80000320200098
:104350000418E1000E0039000060FE004C6BEF0015
:104360004D6BEF004A8BBF00C1B42000220020003B
:10437000D41E0200000000007E3E09000000000084
:10438000545A8000620042004AABB700EEFF37008B
:1043900070C1B30050EBB700B61C02000000000073
:1043A00080C1B30050EBB700B61C02000000000053
:1043B00020E9EF0001002000010078000160EF001B
:1043C000D60B0200000000008100E800811F780089
:1043D0005AEBB700721C020000000000CF0078000A
:1043E000700220000008E600F3FF37000E1E0200F6
:1043F0000000000001002000010078000160EF00D3
:104400000C0C0200000000008100E800811F780011
:104410005AEBB700721C020000000000CF007800C9
:10442000500220000008E600F3FF37003069EF007B
:1044300030C9BF005AE9B700010020000100780030
:104440000160EF00400C0200000000008100E80065
:10445000811F78005AEBB700721C020000000000B8
:10446000CF007800400120000008E600F3FF37008D
:1044700020C3B30088E9B70088C9BF002CE9B700A2
:104480002CC9BF004EEBB700AC20020000000000BA
:1044900010C0B30087E9B70087C9BF002BE9B70098
:1044A00001002000010078000160EF00620C0200B2
:1044B000000000008100E800811F78005AEBB7007F
:1044C000721C020000000000CF007800C000200035
:1044D0000008E600F3FF370018210200000000008A
:1044E00001002000010078000160EF007C0C020058
:1044F000000000008100E800811F78005AEBB7003F
:10450000721C020000000000CF0078002003200091
:104510000008E600F3FF37001B69EF001BC9BF006E
:104520004FE9B70001002000010078000160EF00B2
:10453000BC0C0200000000008100E800811F780030
:104540005AEBB700721C020000000000CF00780098
:10455000400520000008E600F3FF37001B69EF006C
:104560001BC9BF004FE9B70001002000010078001F
:104570000160EF00120D0200000000008100E80061
:10458000811F78005AEBB700721C02000000000087
:10459000CF007800D00220000008E600F3FF3700CB
:1045A0002021020000000000A00F2000721B02006A
:1045B000000000006C21020000000000E0C0B30019
:1045C00050EBB700B61C020000000000000006001F
:1045D000C162A900C562A8003E06090000000000F3
:1045E000C842A900CC42A9003E0609000000000014
:1045F000C162A900C562A9003E06090000000000D2
:104600004A6BEF00545A8000F4CFB2000A00320027
:10461000C162A900C562A8003E06090000000000B2
:10462000C162A900C562A9003E06090000000000A1
:104630004A6BEC00F3FF3700C162A900C562A80015
:104640003E06090000000000C842A900CC42A800B4
:104650003E06090000000000F0C3B30003E8B70005
:1046600000000600A55A80004300A900508BBF003F
:10467000915A8000625A8000735A80000E1F020017
:10468000000000000100E00013003A000000E0001C
:10469000110032000500E0000E003200823E2000D2
:1046A00003002000621F0200000000000100E00083
:1046B00002003A000000E00062003A004300A90056
:1046C000823E2000030020000E1F020000000000B8
:1046D000010037005B0037004300A9008200200082
:1046E000030020000E1F0200000000000100E00097
:1046F00013003A000000E000110032000500E00065
:104700000E003200823E200003002000621F0200E3
:10471000000000000100E00002003A000000E0009C
:1047200044003A004300A900823E2000030020001C
:104730000E1F020000000000010037003D0037009E
:104740004300A90082002000030020000E1F020089
:10475000000000000100E00013003A000000E0004B
:10476000110032000500E0000E003200823E200001
:1047700003002000621F0200000000000100E000B2
:1047800002003A000000E00026003A004300A900C1
:10479000823E2000030020000E1F020000000000E7
:1047A000010037001F0037004300A900420020002D
:1047B000030020000E1F0200000000000100E000C6
:1047C00013003A000000E000110032000500E00094
:1047D0000E003200823E200003002000621F020013
:1047E000000000000100E00002003A000000E000CC
:1047F00008003A004300A900823E20000300200088
:104800000E1F020000000000010037000100370009
:1048100000002000800078000403280004098800BC
:104820000B0037008000780004022800040988008B
:104830000700370080007800040128000409880080
:104840000300370080007800040028000409880075
:104850008100E900E108880000000600D2CABF001C
:104860000160EF000080B200150032001080B2003D
:104870002C0032003080B200430032001080B200C1
:104880005A0032007080B200710032001080B20015
:10489000880032003080B2009F0032001080B200E9
:1048A000B6003200F080B200CD0032001080B200BD
:1048B000E80032003080B200FF00320017013700FC
:1048C000BC0AE20008003200BC2AED00908ABF005A
:1048D000620AB40090AAB7009454800060004A00B5
:1048E00092AAB7000E003700BC0AE2000C003A00A2
:1048F000F40F2000E45588004300A900908ABF000F
:1049000091548000E2558000030020000E1F020039
:104910000000000016AAB700902AEF00922AEF00CC
:10492000FF003700BE0AE20008003200BE2AED0098
:10493000948ABF00640AB40094AAB700B4548000FB
:1049400060004A0096AAB7000E003700BE0AE200D7
:104950000C003A00F40F2000F45588004300A90031
:10496000948ABF00B1548000F255800003002000FB
:104970000E1F02000000000018AAB700942AEF00E2
:10498000962AEF00E6003700C00AE2000800320075
:10499000C02AED00988ABF00660AB40098AAB70042
:1049A000D454800060004A009AAAB7000E00370075
:1049B000C00AE2000C003A00F40F20000456880000
:1049C0004300A900988ABF00D1548000025680009D
:1049D000030020000E1F0200000000001AAAB7000A
:1049E000982AEF009A2AEF00CD003700C20AE200B1
:1049F00008003200C22AED009C8ABF00680AB40099
:104A00009CAAB700F454800060004A009EAAB70038
:104A10000E003700C20AE2000C003A00F40F20003A
:104A2000145688004300A9009C8ABF00F1548000FE
:104A300012568000030020000E1F0200000000003C
:104A40001CAAB7009C2AEF009E2AEF00B400370092
:104A5000C40AE20008003200C42AED00A08ABF00A8
:104A60006A0AB400A0AAB7001455800060004A008A
:104A7000A2AAB7000E003700C40AE2000C003A00F8
:104A8000F40F2000245688004300A900A08ABF002C
:104A90001155800022568000030020000E1F0200E6
:104AA000000000001EAAB700A02AEF00A22AEF0013
:104AB0009B003700C60AE20008003200C62AED005B
:104AC000A48ABF006C0AB400A4AAB70034558000C1
:104AD00060004A00A6AAB7000E003700C60AE2002E
:104AE0000C003A00F40F2000345688004300A9005F
:104AF000A48ABF0031558000325680000300200098
:104B00000E1F02000000000020AAB700A42AEF0038
:104B1000A62AEF0082003700C80AE200080032002F
:104B2000C82AED00A88ABF006E0AB400A8AAB70080
:104B30005455800060004A00AAAAB7000E00370052
:104B4000C80AE2000C003A00F40F20004456880026
:104B50004300A900A88ABF0051558000425680003A
:104B6000030020000E1F02000000000022AAB70070
:104B7000A82AEF00AA2AEF0069003700CA0AE2005B
:104B800008003200CA2AED00AC8ABF00720AB400E5
:104B9000ACAAB7007455800060004A00AEAAB70006
:104BA0000E003700CA0AE2000C003A00F40F2000A1
:104BB000545688004300A900AC8ABF00715580009C
:104BC00052568000030020000E1F0200000000006B
:104BD00026AAB700AC2AEF00AE2AEF00500037003B
:104BE000740AF8004A0BF9004A0BE2000A0032008E
:104BF000CC0AE20007003200CC2AED00B08ABF00E8
:104C00004A0BB400B0AAB7009455800060004A0077
:104C1000B2AAB7000E003700CC0AE2000C003A003E
:104C2000F40F2000645688004300A900B08ABF003A
:104C30009155800062568000030020000E1F020084
:104C40000000000028AAB700B02AEF00B22AEF0047
:104C500033003700CE0AE20008003200CE2AED0011
:104C6000B48ABF00760AB400B4AAB700B455800075
:104C700060004A00B6AAB7000E003700CE0AE20074
:104C80000C003A00F40F2000745688004300A9007D
:104C9000B48ABF00B1558000725680000300200026
:104CA0000E1F0200000000002AAAB700B42AEF007D
:104CB000B62AEF001A003700D00AE20008003200DE
:104CC000D02AED00B88ABF00700AB400B8AAB700B5
:104CD000D455800060004A00BAAAB7000E00370021
:104CE000D00AE2000C003A00F40F2000845688003D
:104CF0004300A900B88ABF00D155800082568000C9
:104D0000030020000E1F02000000000024AAB700CC
:104D1000B82AEF00BA2AEF00010037000000370080
:104D2000945680006A24E10002003100D26AEC004F
:104D300001003700D26AEF000000060001002000E9
:104D4000010078000160EF00BC09020000000000D3
:104D50008100E800811F78005AEBB700721C020046
:104D600000000000CF007800200220000008E600CC
:104D7000F3FF3700C962A900CD62A900E0C1B3000A
:104D80007AEAB70086A9A80040062000721B02003C
:104D9000000000007A4AE200070032008489A8007F
:104DA000221B0200000000000060FE007E3E0900A1
:104DB00000000000F7FF3700C962A900CD62A8001B
:104DC000C962A80086C9A80086A9A9007A6AEF006E
:104DD00001002000010078000160EF00EC090200F2
:104DE000000000008100E800811F78005AEBB70046
:104DF000721C020000000000CF007800200220009A
:104E00000008E600F3FF37008689A90000000600CD
:104E10007F0AA800047D200074548800A4002000AC
:104E2000441A8800C102A900C502A9007FAAA900EE
:104E30008E0AE200150032008E2AED000060FE00AE
:104E4000441402000000000070AAB700708ABF007E
:104E5000445280000020E1000B003600C102A9008E
:104E6000C502A8007FAAA8007F0AA9007E3E09000B
:104E7000000000004A0BA9000000EB004A0BAF0045
:104E80000000E80014003700E9FF3700702AEF0047
:104E900050C0B3008DEAB70010C0B3007BEAB70082
:104EA0007BCABF00F2E8B700842AEF00862AEF0031
:104EB000C102A900C502A9007FAAA9007F0AA90012
:104EC0007E3E0900000000004A0BA8000000EB0035
:104ED0004A0BAF000000E8000000060060C0B3000D
:104EE0004EEBB700D41A020000000000400620007C
:104EF000721B02000000000060C0B3004EEBB70060
:104F0000081B020000000000C082A900C482A800A3
:104F1000C082A800401F2000721B02000000000099
:104F200060C0B3004EEBB700D41A020000000000CE
:104F300000000600B4392000645A88004E2BEF00B0
:104F400004402200845A8800440F2000945A8800AC
:104F5000542BEF00322302000000000090C1B30088
:104F600011EAB700600020009A21B7004006200037
:104F7000721B02000000000074492000645A88007F
:104F80004E2BEF0004402200845A8800440F20007A
:104F9000945A8800542BEF003223020000000000D6
:104FA00090C1B30011EAB700600020009A21B70059
:104FB00040062000721B02000000000094742000D4
:104FC000645A88004E2BEF0004402200845A880067
:104FD000440F2000945A8800542BEF003223020023
:104FE0000000000090C1B30011EAB700600020008B
:104FF0009A21B70040062000721B0200000000004A
:105000004C2BEF004E2BEF0004402200845A880006
:10501000440F2000945A8800542BEF0032230200E2
:105020000000000090C1B30011EAB70000000600C4
:1050300094002000441A880044140200000000007C
:1050400076AAB700A4002000441A88004414020085
:105050000000000070AAB7004A8ABF008453800095
:105060000020E10004003E00508ABF00B4538000DD
:105070000020E100020036004C0BA80001003700C0
:105080004C0BA9000000EB004C0BAF000000E80047
:1050900000000600851F7800010020000100780054
:1050A0000160EF004E0D0200000000008100E800EA
:1050B000811F78005AEBB700721C0200000000004C
:1050C000CF007800200220000008E600F3FF370040
:1050D0006C210200000000008489A90084A9A900B5
:1050E00084C9A900221B020000000000A00F2000BC
:1050F000721B0200000000009560A9009580A900C5
:1051000094E0A9009500A9009600A900C102A90099
:10511000C502A9007FAAA900D0A2A900D4A2A90013
:105120007F8AA900D082A900D482A9007FCAA900E1
:10513000A00F2000721B02000000000018280200CF
:10514000000000007DE9B70010C0B30082E9B7009D
:10515000C102A900C502A9007FAAA900D0A2A90086
:10516000D4A2A9007F8AA900D082A900D482A90074
:105170007FCAA90018280200000000007DE9B700DE
:105180000060FE0060C0B3007CE9B7001021EF00B2
:105190008425200064088800040128008408880011
:1051A0001221EF000427200074088800040328005F
:1051B000940888001E21EF00840C2000D408880089
:1051C00004022800F40888002021EF00840C20004D
:1051D000E40888000401280004098800C102A9002D
:1051E000C502A9007FAAA900D0A2A900D4A2A90043
:1051F0007F8AA900D082A900D482A9007FCAA90011
:10520000C0E2A900C4E2A900C142A900C542A900A8
:10521000C102A900C502A900D062A900D462A900F8
:10522000C8A2A900CCA2A900C162A900C562A900B8
:10523000C8C2A900CCC2A900D082A900D482A9000A
:10524000D0A2A900D4A2A900D102A900D502A90028
:10525000D122A900D522A900C9A2A900CDA2A900E6
:10526000C982A900CD82A900C802A900CC02A90068
:10527000C822A900CC22A900D0E2A900D4E2A9004A
:10528000D0C2A900D4C2A900C922A900CD22A90078
:10529000C902A900CD02A900C842A900CC42A900B8
:1052A000C862A900CC62A900C062A900C462A900BA
:1052B000C042A900C442A900D042A900D442A9001A
:1052C000D022A900D422A900D002A900D402A900AA
:1052D000C022A900C422A900C002A900C402A900DA
:1052E00004402000243A88000E00FC0060102000DA
:1052F0003174200082072000A30920008248780032
:105300008348780043E7B7004800DE00217420009E
:1053100062042000730520008248780083487800EA
:10532000804878007C49E200070032000040FE001F
:10533000000000000060FE008249E20001003A0027
:1053400034003700F7FF3700D8CABF0085E9B7003F
:10535000D8CABF008549E3002E003A00D56AEC00A8
:10536000D60AAF0004003700C942A900CD42A80008
:10537000D60AA80005003700D60AAE0003003700A1
:10538000C942A900CD42A900D60AA900D5CABF00CA
:105390000000FB00040420000020E10003003D00A9
:1053A000D56AEF00C962A900CD62A800FE07090016
:1053B00000000000D56AEC00D60AAF0004003700F8
:1053C000C942A900CD42A800D60AA80005003700AE
:1053D000D60AAE0003003700C942A900CD42A90099
:1053E000D60AA900D5CABF000000FB0004042000B3
:1053F0000020E10003003D00D56AEF00C962A9006A
:10540000CD62A8000040FE00000000000060FE0029
:10541000CFFF37000060FE008249E2000200320048
:1054200086E9AE00520037004427EF000E00FC0072
:10543000101020003174200082072000A3092000F2
:10544000824878008348780043E7B7004800DE00D0
:105450002174200062042000730520008248780037
:10546000834878008048780010C0B30082E9B70014
:1054700086A9A8000060FE00C122A900C522A800DC
:105480007F6AA800D0A2A900D4A2A8007F8AA800A1
:10549000C102A900C502A8007FAAA800D082A90065
:1054A000D482A8007FCAA8001021EF008425200024
:1054B0006408880004012800840888001221EF0095
:1054C000042720007408880004032800940888003A
:1054D0001E21EF00840C2000D4088800040228005C
:1054E000F40888002021EF00840C2000E4088800E4
:1054F00004012800040988009560A8009580A80090
:1055000094E0A8009500A8009600A800400620009E
:10551000721B0200000000006E2702000000000065
:105520009A27020000000000F0C0B30050EBB70063
:10553000B61C0200000000008609AE00040037001F
:105540002CC9BF004EEBB700AC20020000000000E9
:105550008609AF00020037002CC9BF0088E9B700F8
:1055600086A9A800882AEF008269EF008000370032
:10557000E44B80004822DE006124E10006003A008E
:1055800018280200000000006104E10002003A0057
:10559000EFFE3700740037007D49E20061003A00F9
:1055A00018280200000000006104E1005D003A00DC
:1055B0004427EF000E00FC00101020003174200082
:1055C00082072000A30920008248780083487800E1
:1055D00043E7B7004800DE00217420006204200089
:1055E000730520008248780083487800804878005E
:1055F00010C0B30082E9B70086A9A8000060FE00D1
:10560000C122A900C522A8007F6AA800D0A2A900D3
:10561000D4A2A8007F8AA800C102A900C502A800E0
:105620007FAAA800D082A900D482A8007FCAA800BF
:105630001021EF0084252000640888000401280060
:10564000840888001221EF000427200074088800D5
:1056500004032800940888001E21EF00840C200019
:10566000D408880004022800F40888002021EF00F4
:10567000840C2000E4088800040128000409880044
:105680009560A8009580A80094E0A8009500A80067
:105690009600A800A00F2000721B0200000000006E
:1056A0006E270200000000009A27020000000000A0
:1056B00001002000010078000160EF007E0D020073
:1056C000000000008100E800811F78005AEBB7005D
:1056D000721C020000000000CF007800300420009F
:1056E0000008E600F3FF37008609AE00040037002B
:1056F0002CC9BF004EEBB700AC2002000000000038
:105700008609AF00020037002CC9BF0088E9B70046
:1057100086A9A800882AEF008269EF0014003700EC
:1057200011003700E44B80004822DE006124E100D4
:1057300006003A0018280200000000000004E00003
:1057400002003A0082FE3700070037007D49E20080
:1057500005003A0018280200000000000004E000E4
:1057600001003A007AFE370085FE370078FE3700E8
:10577000CF02780000000600851F7800C5002000D9
:1057800003000900B51F78008003780084047800C6
:1057900004F0A1000400E00006003A0009F0A700B0
:1057A000020037000500200015003700050020002A
:1057B00013003700E64252001000390000032000B9
:1057C00009F0A60000022000801F7800811F7800E9
:1057D000829FBE005AEBB700721C0200000000005E
:1057E0004F01BE00CF0078004F0078008502E9002D
:1057F000F5FF3B00550020000100370084027800CF
:105800006400200005E0A00009F0A70005F0A0005A
:1058100008712200110009008883D8004A2C020078
:105820000000000081037800883E2000110009007C
:105830008883D8004A2C0200000000008103780011
:1058400048062000110009008883D8004A2C020075
:105850000000000081037800A8002000110009006A
:105860008883D8004A2C02000000000000032000BA
:1058700000C04000811F7800829FBE005AEBB70035
:10588000721C0200000000004F01BE00CF00780033
:1058900019003700060320000000E0000E003A0067
:1058A00005E0A6000D0037000402E9000524E10030
:1058B000020032004200AF00000006000000E000DD
:1058C00005003A0005E0A6000400370005F0A60038
:1058D000060220000100370005E0A100004043005F
:1058E000811F78005AEBB700721C02000000000014
:1058F000CF00780000000600250120000300090009
:10590000CF127800CF0278000000060094742000C7
:10591000645A88004E2BEF0004402200845A88000D
:10592000440F2000945A8800542BEF0032230200C9
:105930000000000090C1B30011EAB7006000200031
:105940009A21B70040062000721B020000000000F0
:1059500074492000645A88004E2BEF000440220056
:10596000845A8800440F2000945A8800542BEF007A
:10597000322302000000000090C1B30011EAB7001A
:10598000600020009A21B70040062000721B020030
:1059900000000000B4392000645A88004E2BEF004C
:1059A00004402200845A8800440F2000945A880042
:1059B000542BEF00322302000000000090C1B3001E
:1059C00011EAB700600020009A21B70040062000CD
:1059D000721B0200000000004C2BEF004E2BEF006A
:1059E00004402200845A8800440F2000945A880002
:1059F000542BEF00322302000000000090C1B300DE
:105A000011EAB70000000600800178000180FD0067
:105A100054C0B3000360ED000860ED0019003200CF
:105A200003007800C419DD004C00DE00F000B20075
:105A300004003A006124E1000200320003E0AE00FD
:105A4000F4FF37000003B000A20320000200E100D1
:105A5000010039000240B400811F7800831F7800E4
:105A6000841F78005AEBB700721C0200000000008F
:105A70004F027800CF017800CF00780003E0A80043
:105A8000E4FF37000000060001002000010078005C
:105A90000160EF00A20B0200000000008100E8009E
:105AA000811F78005AEBB700721C02000000000052
:105AB000CF007800600120000008E600F3FF370007
:105AC000DACABF000160EF0021702200042D02003D
:105AD00000000000A0C3B3005AEBB700721C020024
:105AE00000000000D9CABF000160EF002170220051
:105AF000042D020000000000A0C3B3005AEBB70061
:105B0000721C020000000000D8CABF000160EF0054
:105B100021702200042D020000000000A0C0B3008C
:105B20005AEBB700721C020000000000D0C0B300A6
:105B30005AEBB700721C02000000000000000600D3
:105B4000851F7800C500200003000900B51F7800FC
:105B50000002780081027800020378008303780055
:105B60000000EB008000EB000001EB008001EB0087
:105B70000800A10007F0A600080037000800A000F8
:105B80008783EA000683EA008582EA000402EA00CD
:105B9000E0824A0060034B00E0834B008504720002
:105BA00002003A00870473001500320039472000D4
:105BB0000340A7000B0037004200A9000482D20076
:105BC0008582D2000683D2008783D2000080D20073
:105BD0008180D2000281D2008381D2008904E90051
:105BE000F3FF3A00C44CDD004200A90009F0A10017
:105BF0000340A10083816C000800A70003F0A0000F
:105C00002501200003000900CF127800CF027800A0
:105C100000000600881F7800280120000400090009
:105C2000B81F78008005EB006066B80003047800B8
:105C300087047800FA7F20004200A9004220A900D2
:105C400044C4DE00080465000800E0007100320072
:105C50004200A9004220A900C4CCDE0089046500EE
:105C60000900E0006B0032000884440009B0A7007E
:105C700004003700F83FB1006600320065003900CB
:105C8000030037001A4020008542450061003100C2
:105C9000878669004200A9004220A900F300B200F3
:105CA0000340A000F700B2000740A000881F780062
:105CB0000124B800002DB8000A0544008B854C0073
:105CC0000C80B0000224B8008B0544000C864C0008
:105CD000012CB8000005EB008B0544000C864C003D
:105CE0000A80B0000034B8008B0544000C864C00DC
:105CF0000A80B0008005EB000324B8000C064400C5
:105D00000A854C000B80B000022CB8000C06440041
:105D10000A854C000B80B0000134B8000C0644002A
:105D20000A854C000B80B000003CB8000C06440013
:105D30000A854C000B80B0000C0078000006EB00D8
:105D4000032CB8000A0544008B854C000C80B00081
:105D50000234B8000A0544008B854C000C80B0006A
:105D60000334B8008B0544000C864C00013CB8009D
:105D70000A0544008B854C000C80B000023CB80042
:105D80008B0544000C864C00033CB8000C06440014
:105D90008A0078000B0178008C0178005400200004
:105DA0004200A9008381D3000281D3008180D30007
:105DB0000080D3000402E900F9FF3A004F047800A4
:105DC0000804E800010370000100320002003700FF
:105DD00003037100080032000340A70006003700EB
:105DE0004200A9000080D2008180D2000281D2004E
:105DF0008381D2000804E9004444DD0003F0A100DF
:105E00000DF0A70003F0A0000340A10083016C0087
:105E1000030037006000B8006001B80000003700E0
:105E2000A8012000040009004F1478004F047800F6
:105E300000000600851F7800861F780003027800A6
:105E4000030378004200A90044A2DE00F57F200091
:105E50000482620003003A006000B8000001EB0019
:105E6000130037000438B100F300B20037002000FF
:105E70004200A9000080D2008180D2000281D200BD
:105E80008381D2008703E900F9FF3A00010078001E
:105E9000820078000370A1000480FD004200A90088
:105EA0000482D30006F0A70004F0A00003016A00FA
:105EB0004F037800CF02780000000600851F7800AD
:105EC0008102780000017800640B20008180D200FC
:105ED0000180FD00F10FB2000142520085417800BF
:105EE0000370A000F30FB2000000EB008000EB0095
:105EF0007820E1000F0033004200A9008381D30025
:105F00000281D3008180D3000080D3000402E90025
:105F1000F9FF3A0005F0A600060037000000EA008D
:105F2000020032008180EA00020037008100EA00AE
:105F300000003700CF0278000000060050ABEF00F1
:105F40004A0BF8004C0BF9004E2BEF00500BE2000F
:105F50002E003200502BED00645A8000F3702200B6
:105F60000418E1000200310000A0EF002900370012
:105F7000645A8000833E20000418E10008003E00BF
:105F8000645A8000843EB100645A880004002100F5
:105F9000735A8000048041004EABB7001A003700EE
:105FA000645A8000430620000418E10008003E0007
:105FB000645A80004406B100645A8800041020002E
:105FC000735A8000048041004EABB7000E003700CA
:105FD000645A80006A20E10007003900645A80009A
:105FE0006A0052004CABB700745A80007000420047
:105FF0004EABB700040037004E8BBF004C0BB40013
:106000004EABB70001003700D0FF37004E0BF80051
:106010000000F90000000600851F7800861F780048
:10602000E10820000000E0001200320000F0A700AC
:10603000040037004200A9000080D2008100E9007E
:10604000FAFF37000180FD004200A9008180D300E3
:1060500000F0A1000080FD00814068000040B20017
:1060600007003700014078000170A0000140B20035
:10607000030037000000EB008000EB000000370059
:106080004F037800CF02780000000600851F7800DB
:10609000C500200004000900B51F78000002780048
:1060A0008102780083037800020378004200A9008F
:1060B0004220A9008180D2000180FD00F10FB200D2
:1060C0000100E0004B0032004200A9004220A9007C
:1060D0008381D2000380FD00F30FB2000300E000D3
:1060E000440032000080FB0001C041000400310088
:1060F000F007B1003F0032003E00390002003700D7
:106100001048B0003B00310007856A004200A9003A
:106110004220A900F50FB2000570A0004200A900BE
:10612000F70FB2000770A0000621B800062CB800D7
:1061300083014C00890078004200AF008100E80034
:106140004200A900043CB80083014C0081804C004F
:10615000072CB80081004C000000E8000100E000BE
:106160004220AF0001003700030037000300E000C9
:106170004220AF000500370001F0A7000300370000
:106180008381D2008180D2000000E9000101780003
:106190004200A9000370A6000900370007F02F0095
:1061A000878161000310B000600149000200E00037
:1061B00003003A000300E00001003A000000E8009C
:1061C0000080FD004200A9004220A9008080D30089
:1061D0000AF0A70001F0A00002F0A1000280FD007B
:1061E000814069000380FD000341780002007800CF
:1061F00003003700000020000100200000003700ED
:106200004501200004000900CF127800CF02780079
:1062100000000600851F7800C5002000030009006B
:10622000B51F78008004EB00080028004300AF0091
:1062300083016C000000E00003003A00FAFF270031
:106240000A8560004220AE00010578008A85690059
:106250000103780083037800030678004220A90038
:106260004200A9000683D2000680FD00F60FB200AE
:106270000600E000A10032004220A9004200A9006F
:106280008783D2000780FD00F70FB2000700E0000F
:106290009F0032004220A9004200A9000638E10018
:1062A0009C003200A30033000900A1000910A000E7
:1062B0000684530007037800F10FB2000170A000BC
:1062C000F30FB2000370A000870220000838E1003D
:1062D000110033004220A9004200A9008180D300B0
:1062E0000080D3000804E900FAFF3A000D003700EF
:1062F000870220000838E100090033004220A9008D
:106300004200A9008381D3000281D3000804E90080
:10631000FAFF3A000F00370002007800830078008F
:10632000430037000BF0A600110037000940A7001A
:106330008C0578000000EA000200320081C0EA000B
:10634000010037008100EA000940A7002B00370058
:10635000070037000BF0A600050037000201EA0035
:106360000200320083C1EA00010037008301EA0025
:10637000F50FB2004220A9004200A900020040002F
:1063800083C048004200AF000930A0000900A70008
:10639000090037000910A700010037000B00370083
:1063A0000BF0A700150037000930A70029003700BF
:1063B0000960A0001E0037000BF0A7000F00370097
:1063C0000930A70023003700190037000920A10079
:1063D0000BF0A700040037008A0578000930A700F9
:1063E0001C003700360037000940A00001C8B20089
:1063F0000170A700CDFF37008A057800F10FB200C9
:10640000810370000A0032000170A7000800370005
:106410004220A9004200A9000080D2008180D20061
:106420000603E9004220AF0031003700F6FF3700D5
:106430000900A7008A0578000910A7008C057800DC
:106440000950A6001A0037000AF0A7000080A0003B
:106450001B0037004200A80081C0D3000080D30099
:106460004200AF000950A0000603E80020003200FF
:106470000950A600080037000000E80006003A00B6
:106480008140E80004003A0081C0D3000080D300BE
:106490000603E800160032000900A7008A0578000C
:1064A0000910A7008C0578004220AF0010003700CB
:1064B0000960A7008A0578000970A7008C0578009C
:1064C00001017000230032000170A1000680FD0070
:1064D0004220A9004200A9000683D30081006B007E
:1064E00001F0A0000BF0A60001F0A1001900370098
:1064F0000000200001002000160037000AF0A7006D
:1065000083016C00020078008300780011003700DE
:1065100010003700F30FB2000370A000F10FB200BB
:106520000170A0000BF0A7000370A1000920A000DB
:1065300088FF370007045300F10FB2000170A0007C
:10654000F30FB2000370A0000910A1000900A00021
:1065500067FF37002501200003000900CF127800F3
:10656000CF02780000000600851F7800C5002000DB
:1065700004000900B51F78008004EB0083846800E4
:106580000103780080027800030478008203780019
:106590008180D2000180FD008180FB000100E000CD
:1065A0004E0032008381D2000380FD008381FB0016
:1065B0000300E000490032000000EB0003C050007F
:1065C00003003900F047B0004400310003003700F9
:1065D0001048B100410039004000320085007800C9
:1065E000060178000270A000F20FB200F80FB200AE
:1065F0000870A0009A0120008001EB000002EB006F
:106600008780500008015900020033000400310067
:1066100004003A008780400008014900010037006B
:106620000400A0000A05E900070032004200A900AA
:106630008180D2000281D2004200A9000482D200EF
:106640008381D200EEFF37000005EB000380A70036
:1066500001003700060037004200A9008381D30003
:106660000370A1000482D3000A85D2000200370023
:106670000000E900190032000AF0A7000500390007
:106680008180D2000281D200878050000801590029
:10669000090039000402E80007003A008301E8001D
:1066A00005003A000000E8000C003200020037004C
:1066B0000000E900090032000080FD008080D30066
:1066C00001F0A00009F0A60001F0A1000370A100F4
:1066D00081C069000400780003003700000020003A
:1066E00001002000000037004501200004000900DF
:1066F000CF127800CF02780000000600F0CFB30080
:106700004DEBB7004ACBBF004BEBB7004C6BEF0033
:106710004D4BE200120032004D6BED00545A8000E8
:106720004822DE006A24E10008003900545A800043
:106730004822DE006A4052004BEBB700645A8000EA
:10674000704042004CEBB700040037004CCBBF0058
:106750004B4BB4004CEBB70001003700ECFF3700A7
:106760004CCBBF0000E0B70000000600851F78009A
:10677000C500200007000900B51F7800000378005D
:10678000810378000406780004F0A1000400E00012
:1067900002003A000500200015003700EB425200CD
:1067A00012003900000320000CF0A60000022000B7
:1067B000801F7800811F7800829FBE00841F7800B0
:1067C0005AEBB700721C0200000000004F02780074
:1067D0004F01BE00CF0078004F0078008502E9002D
:1067E000F3FF3B00A5002000010037008402780081
:1067F00008012000090020001000FA000C377C007E
:106800000884E900FDFF3B00A400200005E0A00093
:106810000CF0A70005F0A000040F78001507980001
:10682000060078008700780002A02C00A3B923009E
:10683000087122000DF0A1000DF0A200E41B02007F
:10684000000000000DF0A700070037004007980087
:106850005107980000017800810178002E00900017
:10686000BE009000F4FF37004207980053079800DD
:1068700024079800350798001E0278009E029000B9
:10688000060320000000E00011003A0005E0A60029
:10689000110037000402E900040F78000400E00052
:1068A0000D0032000524E1004200AF000E00370069
:1068B000060320000000E00005003A0005E0A60005
:1068C0000500370005F0A600060220000200370090
:1068D00005E0A10015079800004043005AEBB700FF
:1068E000721C0200000000004E009000DE009000CC
:1068F000A20020008001EB006100E10001003200F5
:10690000CDFF37000080FA00A50120000700090034
:10691000CF127800CF02780000000600851F7800B3
:106920004B6BEF00ECC9BF00ED49E30008003A00F3
:106930004B6BEC00545A80004822DE006A24E100D0
:1069400003003E007E3E090000000000F5FF370016
:10695000644F80004822DE00C39B200003004200F9
:10696000545A800000429000545A8800644F8000BE
:106970004822DE00E1024200050278000303200005
:10698000110009000382D80001407800EDE9B7004A
:106990004ACBBF0000E0B700CF027800000006003D
:1069A000851F78004A6BEF00545A80007F24E10075
:1069B00007003E00545A80000960EF0083AE2000BB
:1069C00083024200804AEB004A6BEC00F6FF37007E
:1069D000CF02780000000600851F78006A8BBF0098
:1069E0001004E000190032006A0BF8006E0BF90089
:1069F0006C0BF800700BF900708BBF001004E00006
:106A00000A0032006E8BBF0090427800708BBF008E
:106A10000002780014407800002CE10003003A00E6
:106A20006E2BEC00702BEC00F3FF3700708BBF0077
:106A30001004E00003003A006A0BF8000000F900BF
:106A4000030037006A2BEC00E4FF37000020EF0062
:106A5000CF02780000000600851F780034578000C0
:106A60004822DE007420B80080027800050178001A
:106A7000A1B42000020078001C0A020000000000FF
:106A8000805878000201E8000004E0004220AE00D7
:106A9000F8FF3700E49E2000545B8800A4B4200077
:106AA000645B8800EC340200000000008002780083
:106AB0000500E0000400320010C0B30000E0B700A1
:106AC00003003700020037000060EF0000003700CD
:106AD000CF02780000000600851F78004A6BEF00A7
:106AE000545A80007F24E10007003100545A80008E
:106AF0000960EF00E39E200083024200804AEB0021
:106B00004A6BEC00F6FF37008629A9000E6AEF00F9
:106B1000CF0278000000060000000600A0C0B3000D
:106B20005AEBB700721C020000000000D0C0B30096
:106B30005AEBB700721C02000000000000000600C3
:106B4000851F7800D034020000000000E76AEF00E3
:106B50002C350200000000006104E1001A003A0038
:106B600001002000010078000160EF003C0B0200F2
:106B7000000000008100E800811F78005AEBB70098
:106B8000721C020000000000CF00780030022000DC
:106B90000008E600F3FF3700A00F2000721B020080
:106BA0000000000084C9A80040062000721B0200FB
:106BB0000000000084C9A9006C350200000000003C
:106BC0000000FE00B800370010C0B300E7EAB700CD
:106BD0002C350200000000006104E10003003A00CF
:106BE0006C35020000000000AF00370020C0B30089
:106BF000E7EAB7002C350200000000006104E10064
:106C000005003A008C350200000000006C350200DF
:106C100000000000A400370040C0B300E7EAB7005E
:106C20002C350200000000006104E10003003A007E
:106C30006C350200000000009B003700D0C0B3009C
:106C4000E7EAB7002C350200000000006104E10013
:106C500003003A006C35020000000000920037008B
:106C6000E0C0B300E7EAB7002C35020000000000E6
:106C70006104E10005003A008E35020000000000CA
:106C80006C350200000000008700370060C0B300D0
:106C9000E7EAB7002C350200000000006104E100C3
:106CA00003003A006C350200000000007E0037004F
:106CB00050C0B300E7EAB7002C3502000000000026
:106CC0006104E10005003A008E350200000000007A
:106CD0006C3502000000000073003700A0C0B30054
:106CE000E7EAB7002C350200000000006104E10073
:106CF00005003A008E350200000000006C350200ED
:106D00000000000068003700B0C0B300E7EAB70039
:106D10002C350200000000006104E10005003A008B
:106D20008E350200000000006C35020000000000FB
:106D30005D003700F0C0B300E7EAB7002C35020071
:106D4000000000006104E10014003A004006200049
:106D5000721B02000000000001002000010078000A
:106D60000160EF006E0B0200000000008100E800EF
:106D7000811F78005AEBB700721C0200000000006F
:106D8000CF007800700020000008E600F3FF370015
:106D90006C350200000000004300370000C1B30062
:106DA000E7EAB7002C350200000000006104E100B2
:106DB00003003A006C350200000000003A00370082
:106DC00010C1B300E7EAB7002C3502000000000054
:106DD0006104E10003003A006C350200000000008D
:106DE0003100370020C1B300E7EAB7002C350200BC
:106DF000000000006104E10004003A006C3502006C
