:080F8000DC3504000000000054
:080FC800960F04000000000078
:080FE000D6120400000000001D
:10100000DA10040000000000420F0400000000009D
:10102000C00E040000000000660E04000000000076
:08104800B614040000000000D2
:08106000021004000000000072
:0811B8000E0F0400000000000E
:081378003220EF00839C2000ED
:10138000008041001040BA000160EF00000006003C
:101390000A0D000046530000534400002070000076
:1013A000726F0000636500006475000072650000E4
:1013B0002068000061730000206200006565000085
:1013C0006E200000496E0000697400006961000031
:1013D00074650000640000003220EF00839F20004D
:1013E000008041001040BA000160EF0000000600DC
:1013F0000A0D000046530000534400002070000016
:10140000726F000063650000647500007265000083
:101410002068000061730000206200006565000024
:101420006E200000436F00006D7000006C650000CE
:1014300074650000640000003220EF0043102000BB
:10144000830150000500310083A32000008041008B
:101450001040BA000160EF000000060080A32000E9
:1014600083814100808141001380BA0000000600A2
:101470004046400041434100544F4400525931001E
:10148000000000000000000000000000000000005C
:10149000000000000000000040560000455200001F
:1014A000534900004F4E0000000000000000000003
:1014B000000000000000000000000000000000002C
:1014C0004053400054414100545544005300320001
:1014D000000000000000000000000000000000000C
:1014E0000000000000000000404100004E540000D9
:1014F0004D5000000000000000000000000000004F
:1015000000000000000000000000000000000000DB
:10151000405040004D0042000000450000004500E2
:10152000000050000000000000000000000000006B
:101530000000000000000000405200005049000080
:10154000000000000000000000000000000000009B
:10155000000000000000000000000000000000008B
:101560004042400041545200000045000000440049
:101570000000200000004F0000004E0000000000AE
:101580000000000000000000405000005752000022
:10159000494E0000464F0000204F00004E00000062
:1015A000000000000000000000000000000000003B
:1015B0004050400057525200494E4500464F4400AB
:1015C000204F200046464F00000046000000460025
:1015D0000000000000000000404C000050520000DD
:1015E0005354000041000000000000000000000013
:1015F00000000000000000000000000000000000EB
:1016000040544000494D420045004C000000550048
:10161000000045000000200000004F0000004E00C8
:1016200000000000000000004044000041540000A1
:101630004500000000000000000000000000000065
:10164000000000000000000000000000000000009A
:10165000405240005443420043464C0000005500B5
:10166000000045000000200000004F000000460080
:1016700000004600000000003220EF0083B420008C
:10168000008041001040BA000160EF000000060039
:101690000A0D000055500000532000005049000082
:1016A000636F00002046000061630000746F00005B
:1016B000727900002053000065740000757000000E
:1016C0002052000065710000756500007374000011
:1016D000656400000A0D0000000000003220EF00E9
:1016E000E30120008301500005003100A3B8200071
:1016F000008041001040BA000160EF0000000600C9
:10170000A0B8200083814100808141001380BA008D
:10171000000006000A0D20005550520053206500BD
:1017200050497100636F750020486500563373009F
:101730002E3074002046650061636400746F0A00F7
:1017400072790D0020530000657400007570000070
:101750003220EF0043BB2000008041001040BA005F
:101760000160EF00000006000A0D00004265000065
:10177000657000000A0D0000000000003220EF003C
:10178000A3BC2000008041001040BA000160EF00BF
:10179000000006000A0D0000426100006420000005
:1017A000436F00006D6D0000616E0000643A000040
:1017B00025730000000000003220EF00A30220008B
:1017C000830150000500310083BF200000804100EC
:1017D0001040BA000160EF000000060080BF20004A
:1017E00083814100808141001380BA00000006001F
:1017F0000A0D780055503A0053202500504930001A
:10180000636F32002053780074613A0072742500CF
:1018100020543000696D32006520780053743A001E
:10182000616D2500703A300025783200202D780057
:101830003E200A0025300D00327800003A250000D5
:10184000303200003220EF00E3C22000008041006F
:101850001040BA000160EF00000006000A0D000011
:10186000555000005320000050490000636F0000F5
:1018700020530000747200007563000074200000A3
:10188000546900006D6500003A2500003032000008
:10189000783A000025300000327800003A25000038
:1018A00030320000780A00000D0000003220EF0006
:1018B00023C62000008041001040BA000160EF0004
:1018C000000006000A0D00005550000053200000E3
:1018D00050490000636F000020530000797300003E
:1018E000746500006D200000456E00007465000006
:1018F000726900006E670000204C0000505200002A
:10190000204D00006F640000650000003220EF00F1
:10191000E3022000830150000500310023CA2000AB
:10192000008041001040BA000160EF000000060096
:1019300020CA200083814100808141001380BA00C9
:10194000000006000A0D72005550690053206E0019
:1019500050496700636F20002053630079736F0064
:1019600074656E006D2064005175690069747400BF
:10197000696E690067206F004C506E005220730042
:101980004D6F200064656300206468007565610028
:1019900020746E006F206700706F6500776500002F
:1019A0003220EF0063022000830150000500310067
:1019B000C3CE2000008041001040BA000160EF005B
:1019C00000000600C0CE20008381410080814100DC
:1019D0001380BA00000006000A0D4C0055506F003D
:1019E0005320610050496400636F65002048720015
:1019F000563320002E3056000A0D65005043720009
:101A0000422073005665690072736F00696F6E0043
:101A10006E3A3A00254325000A0D4300426F00004C
:101A20006F7400003220EF00E3D1200000804100FD
:101A30001040BA000160EF00000006000A0D00002F
:101A4000546900006D6500006420000046530000EA
:101A5000534400002046000053530000442000007F
:101A6000555000005320000050490000636F0000F3
:101A7000203A0000254C000055200000736500004E
:101A8000636F00006E640000730000003220EF00FE
:101A900003022000830150000500310023D62000FE
:101AA000008041001040BA000160EF000000060015
:101AB00020D6200083814100808141001380BA003C
:101AC000000006000A0D6F004261200074743A00A5
:101AD0006572250079207500527520006E6E7300C6
:101AE000696E65006720630074696F006D656E0044
:101AF0002075640070647300617400006564000008
:101B0000207400003220EF00E3D820000080410064
:101B10001040BA000160EF00000006000A0D00004E
:101B2000536F0000756E00006420000044750000D3
:101B300072610000746900006F6E00003A250000B9
:101B400055300000206D0000730000003220EF00CF
:101B500023DB2000008041001040BA000160EF004C
:101B6000000006000A0D0000536F0000756E0000B3
:101B70006420000046720000657100007565000079
:101B80006E630000793A0000254C000055200000EB
:101B9000487A00000A0D0000000000003220EF002B
:101BA000C30120008301500005003100A3DE2000A6
:101BB000008041001040BA000160EF000000060004
:101BC000A0DE200083814100808141001380BA00A3
:101BD000000006000A0D440055502000532052001A
:101BE00050496500636F7100205575006E63650094
:101BF0006F6E730064697400746965006F6E6400D1
:101C0000616C0A0020460D00535300003220EF00A3
:101C100023E12000008041001040BA000160EF0085
:101C200000000600555000005320000050490000FD
:101C3000636F000020480000563300002E30000083
:101C400020520000657300006574000020520000FF
:101C50006571000075650000737400006564000024
:101C60000A0D0000000000003220EF0003E4200015
:101C7000008041001040BA000160EF000000060043
:101C8000555000005320000050490000636F0000D1
:101C900020480000563300002E3000002042000093
:101CA0006F6F0000746C00006F61000064650000DD
:101CB000722000005265000071750000657300001D
:101CC00074650000643A0000000000008580A900EF
:101CD0004200F8003600F8003200F800801F78005B
:101CE000200020000C000900B01F7800B3C9BF001D
:101CF000E449E30013003200244F80000960EF0044
:101D0000439B200003004200904278000540780089
:101D10002302AE00FEFF370024E2B7002562EF0089
:101D2000244F80000960EF00E102420005027800C4
:101D300003032000110009000382D800014078004D
:101D4000E4E9B700A00120000C0009004F10780062
:101D50004F0078003200F9003600F9004200F90027
:101D6000004006002202AE00FEFF37002202F8000B
:101D70000008F900301180002222A90000000600AE
:101D80004200F8003600F8003200F800801F7800AA
:101D9000200020000C000900B01F7800244F8000B4
:101DA0004822DE00639E200083024200B20E020041
:101DB00000000000804A7800E5C9BF00A4EBB7002E
:101DC000244F80004822DE00E10242000502780034
:101DD00003032000110009000382D80001407800AD
:101DE000E5E9B700E5C9BF00164AE30002003A0082
:101DF000A4CBBF00E5E9B7008560A900A0012000E1
:101E00000C0009004F1078004F0078003200F900F4
:101E10003600F9004200F900004006004200F800D8
:101E20003600F8003200F800801F78002000200003
:101E30000C000900B01F7800000000008BC0A90052
:101E4000A00120000C0009004F1078004F0078001E
:101E50003200F9003600F9004200F90000400600A7
:101E60003E4AE200020032003E6AED000400370004
:101E70003E4AE20002003A0080FF2F009A21B6009D
:101E8000000006004200F8003600F8003200F800BA
:101E9000801F7800200020000C000900B01F78008F
:101EA000300F020000000000F94AE2000200320098
:101EB000F96AED0014003700F86AEC00F62AAF006A
:101EC00004003700C942A900CD42A800F62AA800A4
:101ED00005003700F62AAE0003003700C942A9000A
:101EE000CD42A900F62AA900F8CABF000000FB00F5
:101EF000040420000020E10001003D00F86AEF002A
:101F000040C1B300F9EAB7008500A900A001200094
:101F10000C0009004F1078004F0078003200F900E3
:101F20003600F9004200F900004006004200F800C7
:101F30003600F8003200F800801F780020002000F2
:101F40000C000900B01F7800F40F2000245D880009
:101F5000A40BE20002003200A42BED00FCFF3700CE
:101F6000C8E2A800CAE2AE00010037000A0037004C
:101F7000644D80006124E10002003A00AC69EF008A
:101F800005003700386AAF000300370038CAAE00DA
:101F900001003700386AA8008400A900A0012000D1
:101FA0000C0009004F1078004F0078003200F90053
:101FB0003600F9004200F90000400600851F780055
:101FC0005CC9BF000160EF00E10260006128E10030
:101FD00001003A00AE89A800CF0278000000060098
:101FE000851F78005CC9BF000160EF00E10260005E
:101FF0006128E10001003A00AE89A900CF02780013
:10200000000006004200F8003600F8003200F80038
:10201000801F7800200020000C000900B01F78000D
:10202000F40F2000245D8800A40BE20002003200BF
:10203000A42BED00FCFF3700A06AEC00F4548000F4
:102040006224E1001000320040C0B300F5EAB7009E
:10205000F60AAF0005003700F60AA800AE49A8004E
:10206000DE0F02000000000006003700F60AAE0096
:1020700004003700F60AA900AE49A900F00F0200DB
:102080000000000011003700F45480006224E100D9
:102090000E003A00F54AE20001003200F56AED0058
:1020A000F54AE20006003A0040C0B300F5EAB70086
:1020B000AE49A800DE0F0200000000000300370058
:1020C000AE49A900F00F0200000000008660A900E0
:1020D000A00120000C0009004F1078004F0078008C
:1020E0003200F9003600F9004200F9000040060015
:1020F000851F7800B45780004822DE006724E10085
:1021000001003600F76AEF00F7CABF00F76AEC007B
:102110000160EF004100DD0064A720008402400060
:10212000E454800084029800CF027800000006008A
:1021300085A0A9004003A9004023A80085A0AE0007
:10214000FEFF37004003AE00FEFF37000083BF00F4
:1021500000A0B70000000600C122A900C522A80007
:102160000348A80000000600D0A2A900D4A2A8003D
:102170000368A80000000600C102A900C502A8006B
:102180000388A80000000600D082A900D482A8001D
:1021900003A8A800000006007160A8000000090064
:1021A00000000000C8A2A900CCA2A8000328A90032
:1021B000000006004200F8003600F8003200F80087
:1021C000801F7800200020000C000900B01F78005C
:1021D000781002000000000038EAAE00010037006D
:1021E000710037004823EF00981002000000000043
:1021F00086AAB70014002000441A88009810020034
:102200000000000088AAB70064002000441A88007B
:1022100098100200000000008AAAB700D062A9004E
:10222000D462A90074002000441A880098100200AB
:10223000000000008CAAB700D062A900D462A800F8
:1022400074002000441A880098100200000000006A
:102250008EAAB700D062A900D462A9008400200031
:10226000441A8800981002000000000090AAB700ED
:10227000D062A900D462A80084002000441A88001B
:10228000981002000000000092AAB700D062A900D6
:10229000D462A800D4002000441A880098100200DC
:1022A0000000000096AAB700D062A900D462A9007D
:1022B000D4002000441A880098100200000000009A
:1022C00098AAB70094002000441A880098100200D1
:1022D000000000009AAAB700E4002000441A880019
:1022E00098100200000000009CAAB700A400200083
:1022F000441A8800981002000000000094AAB70059
:10230000388AAE000B003700AC100200000000005D
:10231000B410020000000000BC1002000000000029
:10232000C410020000000000CC10020000000000F9
:102330001D003700948ABF00645380000020E10034
:1023400019003900F45480006224E10016003200C4
:1023500038CAAE0014003700AC10020000000000C4
:10236000B410020000000000BC10020000000000D9
:10237000CC1002000000000020C0B3009EEAB700AD
:102380009ECABF001CE9B70030C0B300AEEAB70078
:10239000A62AEF00A82AEF00843E2000645588009A
:1023A000AF6AEF00000037000000000084E0A900E1
:1023B000A00120000C0009004F1078004F007800A9
:1023C0003200F9003600F9004200F9000040060032
:1023D000C102A900C502A9000388A90000000600E7
:1023E000F45480006224E10027003A0038EAA80093
:1023F000047D200084558800A4002000441A880031
:10240000E811020000000000B00AE20010003200F3
:10241000B02AED000060FE009810020000000000ED
:1024200094AAB700948ABF00645380000020E100A2
:1024300006003600BC1002000000000038EAA900C7
:102440007E3E0900000000000F003700EEFF37005D
:10245000942AEF0050C0B300AFEAB70010C0B30039
:102460009EEAB7009ECABF001CE9B700A62AEF008B
:10247000A82AEF00E81102000000000038EAA900D5
:102480007E3E09000000000000000600C162A900B5
:10249000C562A8003E06090000000000C162A90054
:1024A000C562A9003E060900000000000000060009
:1024B000C45180004822DE006A24E100010031009E
:1024C0001B003700396AED0010C0B300A4EBB70061
:1024D000C162A900C562A900C842A900CC42A800F7
:1024E0003E06090000000000C842A900CC42A90035
:1024F0003E06090000000000A44BE2000400320088
:102500004612020000000000A46BED00FAFF370045
:10251000C162A900C562A9003E06090000000000D2
:10252000C842A900CC42A8003E06090000000000F5
:1025300000000600C45180004822DE00F3032000A2
:10254000041CE10001003E0017003700396AEC006E
:1025500010C0B300A4EBB700C162A900C562A80017
:102560003E06090000000000C842A900CC42A900B4
:102570003E06090000000000A44BE2000400320007
:102580004612020000000000A46BED00FAFF3700C5
:10259000C842A900CC42A8003E0609000000000085
:1025A000C162A900C562A800000006004200F80050
:1025B0003600F8003200F800801F7800200020006C
:1025C0000C000900B01F7800A56BEF00A56BEC00B4
:1025D0002706A8002726A8002406F800AE0BF9005D
:1025E000AECBBF0000EBB700AFCBBF00A4EBB70092
:1025F0002406F800AE0BF900AECBBF00FEEAB70030
:10260000AFCBBF00FFEAB7002406F800AE0BF9001D
:10261000AECBBF00FCEAB700AFCBBF00FDEAB7000E
:102620002406F800AE0BF900AECBBF00FAEAB70003
:10263000AFCBBF00FBEAB7002706A8002726A800FB
:102640002406F800AE0BF900AECBBF00ACEBB70030
:10265000AFCBBF00A4EBB7002406F800AE0BF90027
:10266000AECBBF00AAEBB700AFCBBF00ABEBB70060
:102670002406F800AE0BF900AECBBF00A8EBB70004
:10268000AFCBBF00A9EBB7002406F800AE0BF900F2
:10269000AECBBF00A6EBB700AFCBBF00A7EBB70038
:1026A000245D80004822DE006324E100010039003F
:1026B00022003700ACCBBF00004BE3000200320029
:1026C000C2FF37001D003700AACBBF00FE4AE3005F
:1026D00002003200BDFF370018003700ABCBBF004F
:1026E000FF4AE30002003200B8FF37001300370052
:1026F000A8CBBF00FC4AE30002003200B3FF370062
:102700000E003700A9CBBF00FD4AE30002003200F3
:10271000AEFF370009003700A6CBBF00FA4AE3003E
:1027200002003200A9FF370004003700A7CBBF002A
:10273000FB4AE30001003200A4FF3700F64AAF0075
:1027400002003700F64AA80003003700F64AAE0040
:1027500001003700F64AA900A0CABF00A14AE30061
:1027600003003A0038CAA900A06AEF000900370048
:10277000A0CABF00A14AE3000600320038CAA80080
:10278000A06AEF00AA2AEF00A22AEC004220AF00C4
:10279000A42AEC00A0CABF00A1EAB70038CAAE0064
:1027A00006003700F45480006224E10003003A0080
:1027B000A62AEC004220AF00A82AEC0038CAAF00DD
:1027C00001003700AA2AEC00AE4AE2000200320003
:1027D000AE6AED0006003700AE4AE20004003A009F
:1027E00030C0B300AEEAB700F011020000000000F4
:1027F000AF4AE20001003200AF6AED003F4AE2005A
:10280000010032003F6AED00A649E20004003200F8
:10281000644D80006124E10001003A00A669ED00EA
:10282000AD49E2000300320038CAAF0001003700B2
:10283000AD69ED009A8ABF00945380000020E1004A
:10284000130039000328AE0010003700F454800054
:102850006224E1000D0032006A8ABF00A4548000A7
:102860000020E100030036005812020000000000C2
:1028700006003700948ABF00545380000020E10016
:10288000020039009A120200000000001200370016
:102890000328AE0010003700F45480006224E100E9
:1028A0000D003200748ABF00D45480000020E10083
:1028B0000300360058120200000000000600370036
:1028C0009A8ABF00A45380000020E1000200390072
:1028D0009A120200000000008460A900A0012000FC
:1028E0000C0009004F1078004F0078003200F9000A
:1028F0003600F9004200F90000400600F0FF2F000A
:102900000862AE00FEFF37000922AF000400370066
:102910000742AE00020037000902AE00F8FF3700A0
:102920000822AE00FEFF37000082BF0008C2AF00E1
:1029300008C2A9000782A80000000600F0FF2F00CF
:102940000862AE00080037000842AE0006003700FB
:102950000742AE00020037000902AE000200370055
:10296000111088000782A800000006004200F8004D
:102970003600F8003200F800801F780020002000A8
:102980000C000900B01F780008A2AF000400370057
:10299000086BEF000842AE000100370008EBA8000A
:1029A00008CBBF000160EF00086BEC00A5EBB7009F
:1029B000FE00090000000000245D80004822DE00C7
:1029C00003082000041CE100E7003900245D8000BA
:1029D0004822DE0004C8B20003003A0000C2BF0073
:1029E000A4EBB7000600370011002000811F78001B
:1029F000CF0078007E14020000000000A4EBB700B6
:102A0000A54BE20004003200245D80004822DE0075
:102A100004C8B20003003A00A4CBBF0007EBB70024
:102A2000D1003700245D80004822DE006124E100EF
:102A300003003A00A4CBBF0004EBB700CA00370084
:102A4000245D80004822DE006224E100C6003900D7
:102A5000245D80004822DE0004C8B200C2003200BB
:102A6000345880004822DE0004CDB2005B003A00FA
:102A7000245880006724E1002C003E0004CBBF00F6
:102A8000046BEC000080FB00A4AF20008402400037
:102A9000A48BBF00804298002966A9002946A9009E
:102AA0002706A8002726A800871F7800881F78001F
:102AB0000500FC0057052000373B8800A80A2000CD
:102AC000383B880027A6A8004F047800CF03780081
:102AD00000CBBF00A6EBB700A76BEF00A60BF8007A
:102AE0002406F900FECABF00A6EBB700FFCABF006C
:102AF000A7EBB700A60BF8002406F900FCCABF003C
:102B0000A6EBB700FDCABF00A7EBB700A60BF80005
:102B10002406F900FACABF00A6EBB700FBCABF0043
:102B2000A7EBB700A60BF8002406F9002458800094
:102B30006724E10029003A002966A9002946A90076
:102B40002706A8002726A800871F7800881F78007E
:102B50000500FC0057052000373B8800A80A20002C
:102B6000383B880027A6A8004F047800CF037800E0
:102B700000CBBF00A6EBB700A76BEF00A60BF800D9
:102B80002406F900FECABF00A6EBB700FFCABF00CB
:102B9000A7EBB700A60BF8002406F900FCCABF009B
:102BA000A6EBB700FDCABF00A7EBB700A60BF80065
:102BB0002406F900FACABF00A6EBB700FBCABF00A3
:102BC000A7EBB700A60BF8002406F90010C0B3006D
:102BD00006EBB70020C0B30005EBB7003458800007
:102BE0004822DE0024CDB2000C003A0024588000B8
:102BF00073022000041CE1000700390004CBBF0071
:102C0000046BEC000080FB00C491200084024000B3
:102C1000A48BBF00804298005300370034588000D6
:102C20004822DE0044CDB20030003A002458800033
:102C30006824E1002C003E0004CBBF00046BEC00D4
:102C40000080FB00A4AF200084024000A48BBF00E2
:102C5000804298002966A9002946A9002706A800F5
:102C60002726A800871F7800881F78000500FC0031
:102C700057052000373B8800A80A2000383B880011
:102C800027A6A8004F047800CF03780000CBBF0030
:102C9000A6EBB700A76BEF00A60BF8002406F9001F
:102CA000FECABF00A6EBB700FFCABF00A7EBB70084
:102CB000A60BF8002406F900FCCABF00A6EBB7007B
:102CC000FDCABF00A7EBB700A60BF8002406F90069
:102CD000FACABF00A6EBB700FBCABF00A7EBB7005C
:102CE000A60BF8002406F9001F00370034588000B6
:102CF0004822DE0064CDB2000B003A002458800068
:102D00007724E10007003E0004CBBF00046BEC0019
:102D10000080FB004494200084024000A48BBF008C
:102D20008042980010003700345880004822DE00AE
:102D300084CDB2000B003A00245880007724E100D3
:102D400007003E0004CBBF00046BEC000080FB00DA
:102D5000C495200084024000A48BBF0080429800EC
:102D60000100370000000000245D80004822DE00E2
:102D700003082000041CE1009E003E00245D80004A
:102D80004822DE0004C8B20002003A0000C2BF00C0
:102D9000A4EBB700345880004822DE0014CDB20006
:102DA00014003A00245880006824E1000A003E0024
:102DB00004CBBF00046BEC000080FB00A4AF20003C
:102DC0000400400090427800854078009E14020084
:102DD0000000000007003700245880006824E1004C
:102DE0000400360080C0EB009E14020000000000CA
:102DF00000000000345880004822DE0034CDB200CC
:102E000017003A002458800073022000041CE100DF
:102E10000A00390004CBBF00046BEC000080FB000B
:102E2000C491200004004000904278008540780062
:102E30009E140200000000000800370024588000A3
:102E400073022000041CE1000400310080C0EB008C
:102E50009E14020000000000000000006500370022
:102E6000345880004822DE0054CDB20015003A00EC
:102E7000245880006824E1000A003E0004CBBF0013
:102E8000046BEC000080FB00A4AF200004004000B5
:102E900090427800854078009E14020000000000F7
:102EA00007003700245880006824E1000400360041
:102EB00080C0EB009E140200000000000000000033
:102EC0004C003700345880004822DE0074CDB20038
:102ED00015003A00245880007724E1000A003E00E3
:102EE00004CBBF00046BEC000080FB004494200086
:102EF0000400400090427800854078009E14020053
:102F00000000000007003700245880007724E1000B
:102F10000400360080C0EB009E1402000000000098
:102F20000000000033003700345880004822DE00E3
:102F300094CDB20015003A00245880006624E100C8
:102F40000A003E0004CBBF00046BEC000080FB00D5
:102F5000C49520000400400090427800854078002D
:102F60009E14020000000000070037002458800073
:102F70006624E1000400360080C0EB009E140200CD
:102F800000000000000000001A00370034588000E4
:102F90004822DE00B4CDB20005003A0080C0EB004C
:102FA0009E14020000000000000000001100370025
:102FB000345880004822DE00D4CDB20005003A002B
:102FC00080C0EB009E140200000000000000000022
:102FD00008003700345880004822DE00F4CDB200EB
:102FE00004003A0080C0EB009E14020000000000C4
:102FF00000000000000000008600A900A0012000E1
:103000000C0009004F1078004F0078003200F900E2
:103010003600F9004200F90000400600C122A90074
:10302000C522A9000348A90000000600E7016000CE
:103030004300DE00020040000000A700E8814100DC
:103040000000A1000104E0001098AD00000006009F
:10305000851F7800D122A900D522A900C8C2A900E5
:10306000CCC2A90010C0B30074EBB700A45B800011
:103070006824E10013003E00728BBF00904278008C
:103080000508B2000500E00003003A00C162A90093
:10309000C562A90002003700C162A900C562A8008C
:1030A000915B80004200A90091D8D200D122A900F2
:1030B000D522A800D122A900D522A900746BEC006A
:1030C000EAFF3700C8C2A900CCC2A800C8C2A90044
:1030D000CCC2A900CF0278000000060022802000A8
:1030E0006ECBBF000160EF00110020001618020037
:1030F0000000000002C8BF006FEBB700F4B620006C
:10310000945B880028180200000000000000060000
:1031100060C0B3006EEBB7006E1802000000000044
:1031200000000600228020006ECBBF000160EF008F
:1031300001002000161802000000000002C8BF00B5
:103140006FEBB700F4B62000945B880028180200EB
:103150000000000000000600851F7800AE49AE00A8
:10316000040037006E6BEF006E18020000000000D4
:1031700005003700AE49AF00030037006E6BEF006B
:103180009218020000000000AE69AE000500370092
:1031900050C0B3006EEBB7006E18020000000000D4
:1031A00006003700AE69AF000400370050C0B3001E
:1031B0006EEBB7009218020000000000AE89AE006E
:1031C0000500370040C0B3006EEBB7006E18020078
:1031D0000000000006003700AE89AF000400370091
:1031E00040C0B3006EEBB700921802000000000070
:1031F0005CC9BF000160EF00E10260000500E00073
:1032000001003A00AE89A900CF0278000000060054
:1032100010C0B3006EEBB7006E1802000000000093
:103220000000060020C0B3006EEBB7006E1802006D
:10323000000000000000060030C0B3006EEBB700D5
:103240006E180200000000000000060008190200CD
:103250000000000012190200000000001C1902000A
:103260000000000000000600D0A2A900D4A2A9001E
:103270000368A900000006000000E0004220AF0043
:10328000040037007B3E0900000000000000E90058
:10329000FCFF3A000000060001E02F00838140009F
:1032A000F1072000E0804800910188000500A1009E
:1032B0000500E00003003200331ABA008582E900FD
:1032C000FCFF3A0000000600851F78006A2BEF0023
:1032D0006C6BEF006A2BEF00545B800063032000EF
:1032E0000418E1001B0039000060FE00535B800001
:1032F00004002000250020004C19020000000000FE
:103300006EABB7006CCBBF006C6BEC000080FB00B9
:1033100004972000840240006E8BBF00804298001A
:103320006CCBBF006C6BEC000080FB0004972000AE
:10333000840240006FCBBF00804A78007E3E0900C7
:1033400000000000545B8000620042006AABB700DE
:10335000E1FF3700CF02780000000600861F7800EA
:10336000871F7800881F7800891F78000002EB0013
:103370008002EB000003EB008003EB000304690014
:1033800011003200080220004200A9000080D20093
:103390008180D2000482D2008582D2000328E1001D
:1033A00001003A0002A0E1000300390002025200CD
:1033B00083825A004200A8000683D2008783D2008D
:1033C0000804E900F0FF3A00870078000600780062
:1033D000CF0478004F047800CF0378004F037800C3
:1033E00000000600821F7800831F7800851F780088
:1033F0004300A9003200200003002000AE190200A3
:10340000000000004200A9000080D2008180D200AC
:1034100091018800CF027800CF0178004F01780039
:103420000300E00013003200E300620005003200F8
:103430000000E8008100E900070032000000E90018
:10344000080037000300E0000A0032003059BA00DB
:103450008301E900070032002059BA008301E90026
:103460000400320030D9BA000000E8008301E9000E
:10347000F4FF370000000600851F7800B3C9BF00C5
:10348000E449E300020032000040EB000100370095
:1034900010C0B3007BEBB700944D80004822DE00E3
:1034A000439B2000830242007A8BBF008042980039
:1034B000944D80004822DE00E102420005027800BF
:1034C00003032000110009000382D80001007800E6
:1034D0007CABB7007C8BBF00244F80000960EF00FD
:1034E0000800E300FBFF32007CCBBF00B3E9B7006C
:1034F0007B4BE200010032008580A800CF027800FB
:1035000000000600851F7800861F7800871F78005E
:10351000881F780070CBBF000160EF004100DD0024
:10352000A48B2000840240000500780090037800FE
:10353000851F7800070078000100200002012000AC
:1035400013002000F219020000000000CF027800F2
:1035500010C0BF000040B3004220AF00070037009A
:103560008703E8007A0BF800E8FF9F007A0BF90068
:103570003C1A020000000000EDFF37004F04780005
:10358000CF0378004F037800CF02780000000600D8
:103590006ECBBF000160EF000000E0001B003200B6
:1035A0006100E1001B0032006400E1001C003200F9
:1035B0006600E1001D0032006700E1001E003200DD
:1035C0006E00E1001F0032006F00E10020003200B9
:1035D0007000E10021003200040420000400E1003A
:1035E00021003200040820000400E1002100320024
:1035F000041020000400E10021003200040021003A
:103600000400E10021003200230037006F6BEF005F
:103610002400370010C0B3006FEBB7002100370063
:1036200020C0B3006FEBB7001E00370030C0B300FE
:103630006FEBB7001B00370040C0B3006FEBB70063
:103640001800370050C0B3006FEBB700150037000B
:1036500060C0B3006FEBB7001200370070C0B3005A
:103660006FEBB7000F00370080C0B3006FEBB700FF
:103670000C00370090C0B3006FEBB70009003700B3
:10368000A0C0B3006FEBB70006003700B0C0B300B6
:103690006FEBB70003003700C0C0B3006FEBB7009B
:1036A00000003700D0C0B30070EBB700821A0200F0
:1036B000000000006FCBBF0070EBB700821A020061
:1036C00000000000000006006C2BEF006E6BEF00A6
:1036D000745B80006724E1000A003E006ECBBF00EF
:1036E0000160EF004100DD0064A7200004004000FD
:1036F00000027800140078006C2BB4006E6BEC00B4
:10370000F3FF37006C0BF8006A0BF9006A2BD50049
:103710006A2BD5006A2BD500545B80008370200093
:103720000418E1000400360030C0B30000E0B70028
:103730001F0037001E003700545B8000837020009C
:103740000418E10008003E00545B800063862000FE
:103750000418E1000400390020C0B30000E0B70005
:103760001300370012003700545B8000638620008E
:103770000418E10008003E00545B800023992000FB
:103780000418E1000400390010C0B30000E0B700E5
:103790000700370006003700545B800023992000A3
:1037A0000418E100020031000060EF000000370063
:1037B000000006000600FC00617620005205200093
:1037C00082087800A30A20008308780027A6A800B2
:1037D00021742000620420007305200082487800D4
:1037E000834878004227A80004002800343188006C
:1037F000FC22A90027A6A900006BEF0010C0B300AF
:10380000FFEAB70010C0B300FEEAB70010C0B30073
:10381000FDEAB700FC6AEF00FB6AEF00FA6AEF000E
:103820002966A9002946A9002706A8002726A8007E
:10383000871F7800881F78000500FC0057052000CE
:10384000373B8800A80A2000383B880027A6A8003C
:103850004F047800CF03780000CBBF00A6EBB70081
:10386000A76BEF00A60BF8002406F900FECABF0004
:10387000A6EBB700FFCABF00A7EBB700A60BF80086
:103880002406F900FCCABF00A6EBB700FDCABF00C2
:10389000A7EBB700A60BF8002406F900FACABF0090
:1038A000A6EBB700FBCABF00A7EBB700A60BF8005A
:1038B0002406F900000006004200F800801F78008E
:1038C00014028000040EB30014028800013B88003B
:1038D00054052000343B8800A40A2000343B8800B3
:1038E00061E7A800000000000000000061E7AF00F1
:1038F000FEFF37004F0078004200F900000006008C
:103900004200F800801F780014028000040EB3000B
:1039100014028800013B880054052000343B8800D5
:10392000A40A2000343B880061E7A80000000000E2
:10393000000000004F0078004200F900000006007F
:10394000811F780001E02F00008040008000EB0024
:10395000F1072000E080480091018800CF00780046
:103960000200A1000200E000110032001108BB00BB
:10397000811F7800010020005C1C02000000000094
:10398000CF0078003108BB000080E80001003A0059
:103990003220EC00811F780041002400801C0200CE
:1039A00000000000CF0078000281E900EFFF3A003C
:1039B00000000600851F7800C500200003000900F4
:1039C000B51F7800090020004300AF001900200057
:1039D000891F78000002EB008002EB000003EB007F
:1039E0008003EB000304690011003200080220008C
:1039F0004200A9000080D2008180D2000482D2005F
:103A00008582D2000328E10001003A0002A0E10013
:103A1000030039000202520083825A004200A800CB
:103A20000683D2008783D2000804E900F0FF3A0041
:103A30008700780006007800CF0478000900E000D5
:103A4000010032000400BE0025012000030009002F
:103A5000CF127800CF02780000000600851F7800A2
:103A6000C500200003000900B51F78000202B8005D
:103A70000303B8004200A9008502430060844B00A4
:103A8000020BB80085024B0008844B00030BB80002
:103A9000080443000780B00087017800080178001F
:103AA000850078000400780025012000030009004B
:103AB000CF127800CF02780000000600E55B80009E
:103AC0004300A900788BBF00D15B8000A25B80001F
:103AD000B35B8000DA1C0200000000000100E0007F
:103AE00013003A000000E000110032000500E00081
:103AF0000E003200823E2000030020002E1D020036
:103B0000000000000100E00002003A000000E000B8
:103B100062003A004300A900823E2000030020001A
:103B2000DA1C020000000000010037005B003700D3
:103B30004300A9008200200003002000DA1C0200DC
:103B4000000000000100E00013003A000000E00067
:103B5000110032000500E0000E003200823E20001D
:103B6000030020002E1D0200000000000100E00004
:103B700002003A000000E00044003A004300A900BF
:103B8000823E200003002000DA1C0200000000003A
:103B9000010037003D0037004300A90082002000EB
:103BA00003002000DA1C0200000000000100E00019
:103BB00013003A000000E000110032000500E000B0
:103BC0000E003200823E2000030020002E1D020065
:103BD000000000000100E00002003A000000E000E8
:103BE00026003A004300A900823E20000300200086
:103BF000DA1C020000000000010037001F0037003F
:103C00004300A9004200200003002000DA1C02004B
:103C1000000000000100E00013003A000000E00096
:103C2000110032000500E0000E003200823E20004C
:103C3000030020002E1D0200000000000100E00033
:103C400002003A000000E00008003A004300A9002A
:103C5000823E200003002000DA1C02000000000069
:103C600001003700010037000000200080007800CC
:103C700004032800F40888000B0037008000780057
:103C800004022800F408880007003700800078004C
:103C900004012800F4088800030037008000780041
:103CA00004002800F40888008100E900D108880099
:103CB00000000600010020001A81BF000000E8009B
:103CC0004220AF008100E800A25B800003002000DA
:103CD0002E1D020000000000823E20000300200094
:103CE000DA1C020000000000AAA1B70000000600D4
:103CF0006E4BE20003003A0080FF2F00A421B600C3
:103D000030003700745B80007924E100020031004C
:103D100090C1B3006EEBB700702BEF00745B8000B6
:103D20000960EF006A20B800845B80000020E10099
:103D300017003E0024032000A45B8800762BEF00D0
:103D400004402200C45B8800440F2000D45B88003C
:103D50007C2BEF005E1D020000000000700BF800DD
:103D6000740BF9005A1E02000000000060002000E1
:103D7000A421B7003E1F0900000000000060FE0003
:103D8000845B80006D00420070ABB700E3FF37003A
:103D9000845B8000633B20000418E10008003E00C3
:103DA000843E2000845B8800843E2000A45B880061
:103DB0005A1E02000000000060002000A421B7008D
:103DC000AEC9A8000000060080FF2F00A421B600A5
:103DD000AEC9A90000000600851F7800706BEF00D7
:103DE0006E2BEF00745B8000630320000418E10079
:103DF0001D0039000060FE0070CBBF00706BEC004E
:103E00000080FB000497200004004000945B8000C9
:103E100000429000945B880070CBBF00706BEC0098
:103E20000080FB000497200004004000801F780001
:103E30001040780073EBB7004F0078006E8BBF0026
:103E400021B7200022002000A01C0200000000007A
:103E50007E3E090000000000745B800062004200AA
:103E60006EABB700DFFF3700CF027800000006001E
:103E700010C0B3006EEBB700921802000000000003
:103E80000000060020C0B3006EEBB70092180200DD
:103E9000000000000000060030C0B3006EEBB70069
:103EA000921802000000000000000600381F020007
:103EB00000000000421F0200000000004C1F020032
:103EC00000000000000006002619020000000000AB
:103ED000E0C0B30070EBB700821A020000000000DF
:103EE00050C1B30070EBB700821A0200000000005E
:103EF00060C1B30070EBB700821A0200000000003E
:103F00006A2BEF00545B8000032020000418E100BE
:103F10000E0039000060FE006C6BEF006D6BEF006F
:103F20006A8BBF00C1B6200022002000A01C020046
:103F3000000000007E3E090000000000545B80008D
:103F4000620042006AABB700EEFF370070C1B300F9
:103F500070EBB700821A02000000000080C1B300BD
:103F600070EBB700821A0200000000004AE9EF007F
:103F7000D0C1B30070EBB700821A0200000000004D
:103F8000DA1B020000000000D0C2B30070EBB700E3
:103F9000821A0200000000005969EF0059C9BF00F1
:103FA0007EE9B700E0C2B30070EBB700821A0200EE
:103FB0000000000020C3B300B1E9B700B1C9BF00E1
:103FC00056E9B70056C9BF006EEBB700781E020075
:103FD0000000000010C0B300B0E9B700B0C9BF00D6
:103FE00055E9B70080C2B30070EBB700821A020037
:103FF00000000000E41E020000000000F0C2B30058
:1040000070EBB700821A0200000000004569EF0063
:1040100045C9BF0073E9B70000C3B30070EBB70038
:10402000821A02000000000046E9EF0046C9BF0006
:1040300074E9B7004569EF0045C9BF0073E9B700EF
:1040400040C1B30070EBB700821A0200000000000C
:10405000EC1E020000000000A00F20003C1902002E
:1040600000000000561F020000000000E0C0B30086
:1040700070EBB700821A020000000000000006008A
:10408000C162A900C562A800C842A900CC42A8002C
:104090003E06090000000000C842A900CC42A90069
:1040A0003E060900000000006A6BEF00545B8000D0
:1040B00003042000041CE100040036004612020044
:1040C000000000006A6BEC00F8FF3700C162A90035
:1040D000C562A8003E06090000000000C842A90011
:1040E000CC42A8003E06090000000000F0C3B30067
:1040F00039EAB70000000600A55B80004300A90074
:10410000708BBF00915B8000625B8000735B8000FE
:10411000DA1C0200000000000100E00013003A0079
:104120000000E000110032000500E0000E00320047
:10413000823E2000030020002E1D0200000000002F
:104140000100E00002003A000000E00062003A00D6
:104150004300A900823E200003002000DA1C020078
:1041600000000000010037005B0037004300A90099
:104170008200200003002000DA1C02000000000082
:104180000100E00013003A000000E00011003200DE
:104190000500E0000E003200823E200003002000F7
:1041A0002E1D0200000000000100E00002003A00A5
:1041B0000000E00044003A004300A900823E2000D5
:1041C00003002000DA1C020000000000010037009C
:1041D0003D0037004300A9008200200003002000BA
:1041E000DA1C0200000000000100E00013003A00A9
:1041F0000000E000110032000500E0000E00320077
:10420000823E2000030020002E1D0200000000005E
:104210000100E00002003A000000E00026003A0041
:104220004300A900823E200003002000DA1C0200A7
:1042300000000000010037001F0037004300A90004
:104240004200200003002000DA1C020000000000F1
:104250000100E00013003A000000E000110032000D
:104260000500E0000E003200823E20000300200026
:104270002E1D0200000000000100E00002003A00D4
:104280000000E00008003A004300A900823E200040
:1042900003002000DA1C02000000000001003700CB
:1042A000010037000000200080007800040328008F
:1042B000040988000B003700800078000402280001
:1042C00004098800070037008000780004012800F6
:1042D00004098800030037008000780004002800EB
:1042E000040988008100E900E10888000000060058
:1042F000F4CABF000160EF000080B2001500320078
:104300001080B2002C0032003080B2004300320036
:104310001080B2005A0032007080B200710032008A
:104320001080B200880032003080B2009F0032005E
:104330001080B200B6003200F080B200CD00320032
:104340001080B200E80032003080B200FF0032007E
:1043500017013700DE0AE20008003200DE2AED0015
:10436000B28ABF00860AB400B2AAB700A455800082
:1043700060004A00B4AAB7000E003700DE0AE2006F
:104380000C003A00F40F2000F45688004300A90006
:10439000B28ABF00A1558000F256800003002000C1
:1043A000DA1C02000000000044AAB700B22AEF00A5
:1043B000B42AEF00FF003700E00AE20008003200F4
:1043C000E02AED00B68ABF00880AB400B6AAB7009A
:1043D000C455800060004A00B8AAB7000E0037003C
:1043E000E00AE2000C003A00F40F200004578800B5
:1043F0004300A900B68ABF00C15580000257800063
:1044000003002000DA1C02000000000046AAB700EA
:10441000B62AEF00B82AEF00E6003700E20AE20011
:1044200008003200E22AED00BA8ABF008A0AB4000E
:10443000BAAAB700E455800060004A00BCAAB700E1
:104440000E003700E20AE2000C003A00F40F2000F0
:10445000145788004300A900BA8ABF00E1558000C4
:104460001257800003002000DA1C02000000000048
:1044700048AAB700BA2AEF00BC2AEF00CD003700E7
:10448000E40AE20008003200E42AED00BE8ABF0020
:104490008C0AB400BEAAB7000456800060004A002F
:1044A000C0AAB7000E003700E40AE2000C003A0090
:1044B000F40F2000245788004300A900BE8ABF00E3
:1044C000015680002257800003002000DA1C020001
:1044D000000000004AAAB700BE2AEF00C02AEF0081
:1044E000B4003700E60AE20008003200E62AED00D8
:1044F000C28ABF008E0AB400C2AAB7002456800048
:1045000060004A00C4AAB7000E003700E60AE200C5
:104510000C003A00F40F2000345788004300A90033
:10452000C28ABF002156800032578000030020005D
:10453000DA1C0200000000004CAAB700C22AEF00FB
:10454000C42AEF009B003700E80AE20008003200AE
:10455000E82AED00C68ABF00900AB400C6AAB700D8
:104560004456800060004A00C8AAB7000E00370019
:10457000E80AE2000C003A00F40F200044578800DB
:104580004300A900C68ABF00415680004257800000
:1045900003002000DA1C0200000000004EAAB70051
:1045A000C62AEF00C82AEF0082003700EA0AE200BC
:1045B00008003200EA2AED00CA8ABF00920AB4005D
:1045C000CAAAB7006456800060004A00CCAAB700AF
:1045D0000E003700EA0AE2000C003A00F40F200057
:1045E000545788004300A900CA8ABF006156800062
:1045F0005257800003002000DA1C02000000000077
:1046000050AAB700CA2AEF00CC2AEF006900370091
:10461000EC0AE20008003200EC2AED00CE8ABF006E
:10462000960AB400CEAAB7008456800060004A0003
:10463000D0AAB7000E003700EC0AE2000C003A00E6
:10464000F40F2000645788004300A900CE8ABF0001
:10465000815680006257800003002000DA1C0200AF
:104660000000000054AAB700CE2AEF00D02AEF00C5
:1046700050003700980AF8006A0BF9006A0BE20054
:104680000A003200EE0AE20007003200EE2AED00D6
:10469000D28ABF006A0BB400D2AAB700A456800029
:1046A00060004A00D4AAB7000E003700EE0AE2000C
:1046B0000C003A00F40F2000745788004300A90052
:1046C000D28ABF00A15680007257800003002000EC
:1046D000DA1C02000000000056AAB700D22AEF0040
:1046E000D42AEF0033003700F00AE200080032005D
:1046F000F02AED00D68ABF009A0AB400D6AAB70005
:10470000C456800060004A00D8AAB7000E003700E7
:10471000F00AE2000C003A00F40F200084578800F1
:104720004300A900D68ABF00C1568000825780008E
:1047300003002000DA1C02000000000058AAB700A5
:10474000D62AEF00D82AEF001A003700F20AE2005A
:1047500008003200F22AED00DA8ABF00940AB400A1
:10476000DAAAB700E456800060004A00DCAAB7006D
:104770000E003700F20AE2000C003A00F40F2000AD
:10478000945788004300A900DA8ABF00E1568000F0
:104790009257800003002000DA1C02000000000095
:1047A00052AAB700DA2AEF00DC2AEF000100370036
:1047B00000003700A45780006A24E10002003100A5
:1047C000F46AEC0001003700F46AEF000000060014
:1047D000800178000180FD0054C0B3000360ED004B
:1047E0000860ED001900320003007800C419DD00F4
:1047F0004C00DE00F000B20004003A006124E10049
:104800000200320003E0AE00F4FF37000003B00006
:10481000A20320000200E100010039000240B400C0
:10482000811F7800831F7800841F78007AEBB7001F
:104830003C1A0200000000004F027800CF0178000F
:10484000CF00780003E0A800E4FF37000000060076
:1048500001002000010078000160EF00DC0B020085
:10486000000000008100E800811F78007AEBB700AB
:104870003C1A020000000000CF007800B0012000C8
:104880000008E600F3FF37005CC9BF000160EF00DD
:1048900041702200E823020000000000E101200036
:1048A000010078000160EF00DC0B02000000000056
:1048B0008100E800811F78007AEBB7003C1A020003
:1048C00000000000CF007800100220000008E60081
:1048D000F3FF37005DC9BF000160EF0021702200C7
:1048E000E823020000000000A0C3B3007AEBB70089
:1048F0003C1A0200000000005EC9BF000160EF002A
:1049000021702200E823020000000000A0C3B300D1
:104910007AEBB7003C1A0200000000005FC9BF003C
:104920000160EF0021702200E82302000000000077
:10493000A0C3B3007AEBB7003C1A020000000000ED
:1049400060C9BF000160EF0021702200E82302006F
:1049500000000000A0C3B3007AEBB7003C1A0200CD
:104960000000000061C9BF000160EF00217022005B
:10497000E823020000000000A0C0B3007AEBB700FB
:104980003C1A020000000000D0C0B3007AEBB70070
:104990003C1A0200000000000000060063E0A900CD
:1049A00082E0A90001002000010078000160EF0012
:1049B000BC090200000000008100E800811F7800AF
:1049C0007AEBB7003C1A020000000000CF0078002C
:1049D000200220000008E600F3FF37006FE0A90086
:1049E00057E0A800C962A900CD62A900E0C1B300E8
:1049F0003FEAB700388AA800400620003C190200B0
:104A0000000000003F4AE20007003200AE49A80063
:104A1000AC180200000000000060FE007E3E0900AD
:104A200000000000F7FF37006FE0A80057E0A90082
:104A3000C962A900CD62A800C962A800C8E2A800A6
:104A400038AAA800388AA9003F6AEF0001002000B8
:104A5000010078000160EF00EC0902000000000096
:104A60008100E800811F78007AEBB7003C1A020051
:104A700000000000CF007800200220000008E600BF
:104A8000F3FF370063E0A8009660A800386AA90029
:104A9000900120003C190200000000000000060008
:104AA00038EAA800047D200084558800A400200076
:104AB000441A8800E811020000000000B00AE20079
:104AC00014003200B02AED000060FE0098100200D1
:104AD0000000000094AAB700948ABF0064538000CD
:104AE0000020E1000A003600BC10020000000000B7
:104AF00038EAA9007E3E0900000000006A0BA90008
:104B00000000EB006A0BAF000000E8001300370064
:104B1000EAFF3700942AEF0050C0B300AFEAB700B5
:104B200010C0B3009EEAB7009ECABF001CE9B700E0
:104B3000A62AEF00A82AEF00E811020000000000FA
:104B400038EAA9007E3E0900000000006A0BA800B8
:104B50000000EB006A0BAF000000E8000000060058
:104B600060C0B3006EEBB7009218020000000000B6
:104B70000000060088180200000000004006200027
:104B80003C19020000000000B025020000000000F7
:104B9000C962A900CD62A800C962A800401F200018
:104BA0003C1902000000000088180200000000000C
:104BB00000000600B4392000645B88006E2BEF0013
:104BC00004402200845B8800440F2000945B88002E
:104BD000742BEF007C2002000000000090C1B300A5
:104BE0003EEAB700600020009A21B700400620008E
:104BF0003C1902000000000074492000645B88003A
:104C00006E2BEF0004402200845B8800440F2000DC
:104C1000945B8800742BEF007C20020000000000F1
:104C200090C1B3003EEAB700600020009A21B700AF
:104C3000400620003C19020000000000947420008F
:104C4000645B88006E2BEF0004402200845B8800C8
:104C5000440F2000945B8800742BEF007C2002003E
:104C60000000000090C1B3003EEAB70060002000E1
:104C70009A21B700400620003C1902000000000005
:104C80006C2BEF006E2BEF0004402200845B880049
:104C9000440F2000945B8800742BEF007C200200FE
:104CA0000000000090C1B3003EEAB700000006001B
:104CB000D082A900D482A90003A8A90000000600A0
:104CC00094002000441A88009810020000000000A0
:104CD0009AAAB700A4002000441A88009810020085
:104CE0000000000094AAB7006E8ABF00A4548000A0
:104CF0000020E10004003E00728ABF00D45480000E
:104D00000020E100020036006C0BA8000100370013
:104D10006C0BA9000000EB006C0BAF000000E8007A
:104D200000000600851F78000100200001007800C7
:104D30000160EF00560C0200000000008100E80056
:104D4000811F78007AEBB7003C1A020000000000D7
:104D5000CF007800200220000008E600F3FF3700B3
:104D6000561F020000000000AE49A900AE69A9006C
:104D7000AE89A900AC18020000000000341902003E
:104D800000000000600920003C1902000000000043
:104D9000E811020000000000600920003C19020038
:104DA00000000000582602000000000060092000FA
:104DB0003C19020000000000602602000000000014
:104DC000A7E9B70010C0B300ACE9B700341902007E
:104DD00000000000E8110200000000005826020058
:104DE000000000006026020000000000A7E9B700F4
:104DF0000060FE00A0C0B300A6E9B7001021EF00DC
:104E000084252000640888000401280084088800A4
:104E10001221EF00042720007408880004032800F2
:104E2000940888001E21EF00840C2000D40888001C
:104E300004022800F40888002021EF00840C2000E0
:104E4000E4088800040128000409880034190200DD
:104E500000000000E81102000000000058260200D7
:104E600000000000C0E2A800C142A800C102A800E2
:104E7000C122A900C522A800D062A800C8A2A8002B
:104E8000C162A800C8C2A800D082A800D0A2A80011
:104E9000D102A800D122A800C9A2A800C982A800F6
:104EA000C802A800C822A800D0E2A800D0C2A8006A
:104EB000C922A800C902A800C842A800C862A80068
:104EC000C062A800C042A800D042A800D022A8001A
:104ED000D002A800C022A800C002A8009600A90025
:104EE0008600A9009500A9008500A90094E0A9000A
:104EF00084E0A9009580A9008580A9009560A9009B
:104F0000030009002682BF008560A9009BC0A9009C
:104F10008BC0A90063E0A90082E0A90070E0A800AE
:104F200004402000243A88000E00FC00601020009D
:104F30003174200082072000A309200082487800F5
:104F40008348780043E7B7004800DE002174200062
:104F500062042000730520008248780083487800AE
:104F60008048780080FF2F009A21B60080FF2F0034
:104F7000A421B6004187A8004107A900A649E20084
:104F8000290032000040FE00000000005807A90080
:104F90000060FE00AC49E20022003A004427EF0026
:104FA0000E00FC0010102000317420008207200049
:104FB000A3092000824878008348780043E7B700BF
:104FC0004800DE00217420006204200073052000E8
:104FD00082487800834878008048780010C0B30089
:104FE000ACE9B700388AA8000060FE00AC100200EF
:104FF00000000000B410020000000000BC1002001D
:1050000000000000C410020000000000A00F2000FB
:105010003C19020000000000BA2502000000000058
:1050200043003700D5FF370063E0A8009660A80072
:105030006A6BEF00545B80006624E10017003E00BD
:10504000F86AEC00F62AAF0004003700C942A90054
:10505000CD42A800F62AA80005003700F62AAE00C7
:1050600003003700C942A900CD42A900F62AA900D1
:10507000F8CABF000000FB00040420000020E1008B
:1050800001003D00F86AEF00EA0709000000000097
:105090000060FE006A6BEC00E6FF37000060FE0077
:1050A000E024EF0004002C0014278800E424EF0023
:1050B000AC49E2000200320038CAAE0057003700A7
:1050C0004427EF000E00FC00101020003174200077
:1050D00082072000A30920008248780083487800D6
:1050E00043E7B7004800DE0021742000620420007E
:1050F0007305200082487800834878008048780053
:1051000010C0B300ACE9B700388AA8000060FE0008
:10511000AC10020000000000B4100200000000000B
:10512000BC10020000000000C410020000000000DB
:105130001021EF0084252000640888000401280065
:10514000840888001221EF000427200074088800DA
:1051500004032800940888001E21EF00840C20001E
:10516000D408880004022800F40888002021EF00F9
:10517000840C2000E4088800040128000409880049
:105180008200A8009400A80063E0A8009660A80030
:105190009BC0A8009560A8009580A8009460A80016
:1051A00094E0A8009500A8009600A8004220EF0017
:1051B0006FE0A80057E0A900C962A900CD62A8006D
:1051C000900120003C19020000000000DA250200D6
:1051D00000000000F0C0B30070EBB700821A0200BC
:1051E00000000000AEC9AE000400370056C9BF0081
:1051F0006EEBB700781E020000000000AEC9AF00E1
:105200000200370056C9BF00B1E9B700388AA800CC
:10521000AA2AEF00AC69EF0085003700344D80000A
:105220004822DE006124E10006003A006026020008
:10523000000000006104E10002003A00E3FE3700D4
:1052400079003700A749E20066003A0060260200B4
:10525000000000006104E10062003A004427EF0012
:105260000E00FC0010102000317420008207200086
:10527000A3092000824878008348780043E7B700FC
:105280004800DE0021742000620420007305200025
:1052900082487800834878008048780010C0B300C6
:1052A000ACE9B700388AA8000060FE00AC1002002C
:1052B00000000000B410020000000000BC1002005A
:1052C00000000000C4100200000000001021EF00E8
:1052D00084252000640888000401280084088800D0
:1052E0001221EF000427200074088800040328001E
:1052F000940888001E21EF00840C2000D408880048
:1053000004022800F40888002021EF00840C20000B
:10531000E408880004012800040988008200A8002D
:105320009400A80063E0A8009660A8009BC0A800B5
:105330009560A8009580A8009460A80094E0A8005B
:105340009500A8009600A8004220EF006FE0A8009A
:1053500057E0A900C962A900CD62A8009001200011
:105360003C19020000000000DA25020000000000E5
:1053700001002000010078000160EF00860C0200AF
:10538000000000008100E800811F78007AEBB70080
:105390003C1A020000000000CF007800300420001A
:1053A0000008E600F3FF3700AEC9AE000400370086
:1053B00056C9BF006EEBB700781E02000000000067
:1053C000AEC9AF000200370056C9BF00B1E9B7004F
:1053D000388AA800AA2AEF00AC69EF001400370051
:1053E00011003700344D80004822DE006124E100C6
:1053F00006003A0060260200000000000004E00001
:1054000002003A0071FE370007003700A749E200AA
:1054100005003A0060260200000000000004E000E1
:1054200001003A0069FE370071FE370067FE370061
:10543000CF02780000000600851F7800C50020001C
:1054400003000900B51F7800800378008404780009
:1054500004F0A1000400E00006003A0009F0A700F3
:10546000020037000500200017003700050020006B
:1054700015003700E64252001200390000032000F8
:1054800009F0A60000022000801F7800811F78002C
:10549000829FBE00841F78007AEBB7003C1A02009E
:1054A000000000004F0278004F01BE00CF007800DE
:1054B0004F0078008502E900F3FF3B005500200013
:1054C00001003700840278006400200005E0A0009D
:1054D00009F0A70005F0A0000871220011000900E2
:1054E0008883D800B22A02000000000081037800FF
:1054F000883E2000110009008883D800B22A0200EB
:105500000000000081037800480620001100090017
:105510008883D800B22A02000000000081037800CE
:10552000A8002000110009008883D800B22A0200D8
:10553000000000000003200000C04000811F780030
:10554000829FBE00841F78007AEBB7003C1A0200ED
:10555000000000004F0278004F01BE00CF0078002D
:105560001D003700060320000000E0000E003A0096
:1055700005E0A6000D0037000402E9000524E10063
:10558000020032004200AF00000006000000E00010
:1055900005003A0005E0A6000400370005F0A6006B
:1055A000060220000100370005E0A1000040430092
:1055B000811F7800821F7800841F78007AEBB70083
:1055C0003C1A0200000000004F0278004F017800F2
:1055D000CF0078000000060025012000030009002C
:1055E000CF127800CF0278000000060094742000EB
:1055F000645B88006E2BEF0004402200845B88000F
:10560000440F2000945B8800742BEF007C20020084
:105610000000000090C1B3003EEAB7006000200027
:105620009A21B700400620003C190200000000004B
:1056300074492000645B88006E2BEF000440220058
:10564000845B8800440F2000945B8800742BEF007B
:105650007C2002000000000090C1B3003EEAB700C9
:10566000600020009A21B700400620003C1902008B
:1056700000000000B4392000645B88006E2BEF004E
:1056800004402200845B8800440F2000945B880063
:10569000742BEF007C2002000000000090C1B300DA
:1056A0003EEAB700600020009A21B70040062000C3
:1056B0003C190200000000006C2BEF006E2BEF0085
:1056C00004402200845B8800440F2000945B880023
:1056D000742BEF007C2002000000000090C1B3009A
:1056E0003EEAB700000006007160A9000000090052
:1056F00000000000C8A2A8000328A80000000600BF
:1057000001002000010078000160EF00220C02007F
:10571000000000008100E800811F78007AEBB700EC
:105720003C1A020000000000CF0078006001200059
:105730000008E600F3FF3700FCCABF000160EF007D
:1057400021702200E823020000000000A0C3B30083
:105750007AEBB7003C1A020000000000FBCABF0051
:105760000160EF0021702200E82302000000000029
:10577000A0C3B3007AEBB7003C1A0200000000009F
:10578000FACABF000160EF0021702200E823020086
:1057900000000000A0C0B3007AEBB7003C1A020082
:1057A00000000000D0C0B3007AEBB7003C1A020042
:1057B000000000000000060070C0B3006EEBB700F0
:1057C0006E180200000000000308A8000000060098
:1057D00070C0B3006EEBB70092180200000000002A
:1057E0000308A90000000600851F7800C5002000FE
:1057F00003000900B51F78000002780081027800DC
:1058000002037800830378000000EB008000EB00C7
:105810000001EB008001EB000800A10007F0A600EA
:10582000080037000800A0008783EA000683EA002A
:105830008582EA000402EA00E0824A0060034B002D
:10584000E0834B008504720002003A008704730075
:1058500015003200394720000340A7000B00370035
:105860004200A9000482D2008582D2000683D200C1
:105870008783D2000080D2008180D2000281D200D2
:105880008381D2008904E900F3FF3A00C44CDD00B3
:105890004200A90009F0A1000340A10083816C002F
:1058A0000800A70003F0A000250120000300090064
:1058B000CF127800CF02780000000600881F780021
:1058C0002801200004000900B81F78008005EB00C3
:1058D0006066B8000304780087047800FA7F20002F
:1058E0004200A9004220A90044C4DE00080465006B
:1058F0000800E000710032004200A9004220A90027
:10590000C4CCDE00890465000900E0006B003200B1
:105910000884440009B0A70004003700F83FB10034
:105920006600320065003900030037001A4020008D
:105930008542450061003100878669004200A90068
:105940004220A900F300B2000340A000F700B2001B
:105950000740A000881F78000124B800002DB8007F
:105960000A0544008B854C000C80B0000224B8006E
:105970008B0544000C864C00012CB8000005EB00A0
:105980008B0544000C864C000A80B0000034B8003F
:105990008B0544000C864C000A80B0008005EB00AB
:1059A0000324B8000C0644000A854C000B80B000AC
:1059B000022CB8000C0644000A854C000B80B00095
:1059C0000134B8000C0644000A854C000B80B0007E
:1059D000003CB8000C0644000A854C000B80B00067
:1059E0000C0078000006EB00032CB8000A05440008
:1059F0008B854C000C80B0000234B8000A054400CE
:105A00008B854C000C80B0000334B8008B0544003B
:105A10000C864C00013CB8000A0544008B854C0004
:105A20000C80B000023CB8008B0544000C864C0092
:105A3000033CB8000C0644008A0078000B01780093
:105A40008C017800540020004200A9008381D3001B
:105A50000281D3008180D3000080D3000402E900DA
:105A6000F9FF3A004F0478000804E80001037000D1
:105A70000100320002003700030371000800320009
:105A80000340A700060037004200A9000080D200B2
:105A90008180D2000281D2008381D2000804E90013
:105AA0004444DD0003F0A1000DF0A70003F0A000C6
:105AB0000340A10083016C00030037006000B800C0
:105AC0006001B80000003700A801200004000900B0
:105AD0004F1478004F04780000000600851F7800FE
:105AE000861F780003027800030378004200A900B3
:105AF00044A2DE00F57F20000482620003003A0029
:105B00006000B8000001EB00130037000438B1005A
:105B1000F300B200370020004200A9000080D2004C
:105B20008180D2000281D2008381D2008703E90004
:105B3000F9FF3A0001007800820078000370A100AC
:105B40000480FD004200A9000482D30006F0A700F3
:105B500004F0A00003016A004F037800CF02780030
:105B600000000600851F780081027800000178009F
:105B7000640B20008180D2000180FD00F10FB20093
:105B800001425200854178000370A000F30FB2007B
:105B90000000EB008000EB007820E1000F003300F4
:105BA0004200A9008381D3000281D3008180D30009
:105BB0000080D3000402E900F9FF3A0005F0A600D6
:105BC000060037000000EA00020032008180EA008F
:105BD000020037008100EA0000003700CF027800A1
:105BE0000000060070ABEF006A0BF8006C0BF900C8
:105BF0006E2BEF00700BE2002E003200702BED00D8
:105C0000645B8000F37022000418E10002003100A0
:105C100000A0EF0029003700645B8000833E200075
:105C20000418E10008003E00645B8000843EB1007F
:105C3000645B880004002100735B800004804100E5
:105C40006EABB7001A003700645B8000430620008B
:105C50000418E10008003E00645B80004406B100C7
:105C6000645B880004102000735B800004804100A6
:105C70006EABB7000E003700645B80006A20E10065
:105C800007003900645B80006A0052006CABB7000B
:105C9000745B8000700042006EABB70004003700F8
:105CA0006E8BBF006C0BB4006EABB7000100370009
:105CB000D0FF37006E0BF8000000F900000006006E
:105CC000851F7800861F7800E10820000000E000B2
:105CD0001200320000F0A700040037004200A900C3
:105CE0000080D2008100E900FAFF37000180FD004A
:105CF0004200A9008180D30000F0A1000080FD00D7
:105D0000814068000040B200070037000140780081
:105D10000170A0000140B200030037000000EB005A
:105D20008000EB00000037004F037800CF027800BE
:105D300000000600851F7800C5002000040009004F
:105D4000B51F780000027800810278008303780094
:105D5000020378004200A9004220A9008180D200FD
:105D60000180FD00F10FB2000100E0004B003200A5
:105D70004200A9004220A9008381D2000380FD00D7
:105D8000F30FB2000300E000440032000080FB008B
:105D900001C0410004003100F007B1003F003200B3
:105DA0003E003900020037001048B0003B003100CF
:105DB00007856A004200A9004220A900F50FB20041
:105DC0000570A0004200A900F70FB2000770A00004
:105DD0000621B800062CB80083014C008900780029
:105DE0004200AF008100E8004200A900043CB80076
:105DF00083014C0081804C00072CB80081004C00CE
:105E00000000E8000100E0004220AF000100370080
:105E1000030037000300E0004220AF000500370018
:105E200001F0A700030037008381D2008180D200F7
:105E30000000E900010178004200A9000370A600FB
:105E40000900370007F02F00878161000310B000C0
:105E5000600149000200E00003003A000300E00096
:105E600001003A000000E8000080FD004200A900A7
:105E70004220A9008080D3000AF0A70001F0A00012
:105E800002F0A1000280FD00814069000380FD0056
:105E90000341780002007800030037000000200072
:105EA0000100200000003700450120000400090027
:105EB000CF127800CF02780000000600851F78001E
:105EC000C500200003000900B51F78008004EB0026
:105ED000080028004300AF0083016C000000E000D0
:105EE00003003A00FAFF27000A8560004220AE0056
:105EF000010578008A856900010378008303780032
:105F0000030678004220A9004200A9000683D200BF
:105F10000680FD00F60FB2000600E000A10032008E
:105F20004220A9004200A9008783D2000780FD001B
:105F3000F70FB2000700E0009F0032004220A900E6
:105F40004200A9000638E1009C003200A3003300A3
:105F50000900A1000910A00006845300070378007F
:105F6000F10FB2000170A000F30FB2000370A000A7
:105F7000870220000838E100110033004220A90008
:105F80004200A9008180D3000080D3000804E9000A
:105F9000FAFF3A000D003700870220000838E100C0
:105FA000090033004220A9004200A9008381D300E8
:105FB0000281D3000804E900FAFF3A000F0037001D
:105FC0000200780083007800430037000BF0A60041
:105FD000110037000940A7008C0578000000EA0096
:105FE0000200320081C0EA00010037008100EA00AF
:105FF0000940A7002B003700070037000BF0A60070
:10600000050037000201EA000200320083C1EA0005
:10601000010037008301EA00F50FB2004220A90019
:106020004200A9000200400083C048004200AF00C7
:106030000930A0000900A700090037000910A700D7
:10604000010037000B0037000BF0A70015003700E8
:106050000930A700290037000960A0001E003700A2
:106060000BF0A7000F0037000930A700230037000E
:10607000190037000920A1000BF0A7000400370029
:106080008A0578000930A7001C0037003600370069
:106090000940A00001C8B2000170A700CDFF370081
:1060A0008A057800F10FB200810370000A00320007
:1060B0000170A700080037004220A9004200A90093
:1060C0000080D2008180D2000603E9004220AF00A8
:1060D00031003700F6FF37000900A7008A05780075
:1060E0000910A7008C0578000950A6001A00370097
:1060F0000AF0A7000080A0001B0037004200A800A3
:1061000081C0D3000080D3004200AF000950A0003E
:106110000603E800200032000950A60008003700FE
:106120000000E80006003A008140E80004003A0060
:1061300081C0D3000080D3000603E80016003200BF
:106140000900A7008A0578000910A7008C057800CF
:106150004220AF00100037000960A7008A057800D0
:106160000970A7008C05780001017000230032003F
:106170000170A1000680FD004220A9004200A90094
:106180000683D30081006B0001F0A0000BF0A60095
:1061900001F0A100190037000000200001002000DC
:1061A000160037000AF0A70083016C000200780097
:1061B000830078001100370010003700F30FB200A1
:1061C0000370A000F10FB2000170A0000BF0A70057
:1061D0000370A1000920A00088FF370007045300C6
:1061E000F10FB2000170A000F30FB2000370A00025
:1061F0000910A1000900A00067FF37002501200059
:1062000003000900CF127800CF02780000000600DA
:10621000851F7800C500200004000900B51F780024
:106220008004EB008384680001037800800278001A
:1062300003047800820378008180D2000180FD0091
:106240008180FB000100E0004E0032008381D2001B
:106250000380FD008381FB000300E0004900320061
:106260000000EB0003C0500003003900F047B0000D
:1062700044003100030037001048B10041003900EC
:106280004000320085007800060178000270A0000E
:10629000F20FB200F80FB2000870A0009A012000BF
:1062A0008001EB000002EB008780500008015900DC
:1062B000020033000400310004003A0087804000EF
:1062C00008014900010037000400A0000A05E900A8
:1062D000070032004200A9008180D2000281D20072
:1062E0004200A9000482D2008381D200EEFF370071
:1062F0000005EB000380A70001003700060037000F
:106300004200A9008381D3000370A1000482D3005E
:106310000A85D200020037000000E90019003200AF
:106320000AF0A700050039008180D2000281D20066
:106330008780500008015900090039000402E80074
:1063400007003A008301E80005003A000000E80079
:106350000C003200020037000000E90009003200A2
:106360000080FD008080D30001F0A00009F0A600AD
:1063700001F0A1000370A10081C069000400780051
:10638000030037000000200001002000000037005B
:106390004501200004000900CF127800CF027800E8
:1063A00000000600F0CFB3006DEBB7006ACBBF0072
:1063B0006BEBB7006C6BEF006D4BE200120032002C
:1063C0006D6BED00545B80004822DE006A24E10022
:1063D00008003900545B80004822DE006A40520009
:1063E0006BEBB700645B8000704042006CEBB70061
:1063F000040037006CCBBF006B4BB4006CEBB700F4
:1064000001003700ECFF37006CCBBF0000E0B700A5
:1064100000000600851F7800C50020000700090065
:10642000B51F780000037800810378000406780027
:1064300004F0A1000400E00002003A000500200082
:1064400015003700EB425200120039000003200013
:106450000CF0A60000022000801F7800811F780049
:10646000829FBE00841F78007AEBB7003C1A0200BE
:10647000000000004F0278004F01BE00CF007800FE
:106480004F0078008502E900F3FF3B00A5002000E3
:106490000100370084027800080120000900200074
:1064A0001000FA000C377C000884E900FDFF3B0077
:1064B000A400200005E0A0000CF0A70005F0A0005B
:1064C000040F780015079800060078008700780010
:1064D00002A02C00A3B92300087122000DF0A10036
:1064E0000DF0A200AE190200000000000DF0A700A0
:1064F0000700370040079800510798000001780016
:10650000810178002E009000BE009000F4FF37005B
:106510004207980053079800240798003507980011
:106520001E0278009E029000060320000000E0009A
:1065300011003A0005E0A600110037000402E9004E
:10654000040F78000400E0000D0032000524E10093
:106550004200AF0012003700060320000000E000F8
:1065600005003A0005E0A6000500370005F0A6008A
:10657000060220000200370005E0A1001507980080
:1065800000404300821F7800841F78007AEBB70038
:106590003C1A0200000000004F0278004F01780012
:1065A0004E009000DE009000A20020008001EB0071
:1065B0006100E10001003200C9FF37000080FA00ED
:1065C000A501200007000900CF127800CF02780053
:1065D00000000600851F78006B6BEF00E5C9BF0067
:1065E000164AE30008003A006B6BEC00545B800035
:1065F0004822DE006A24E10003003E007E3E0900DE
:1066000000000000F5FF3700B45080000960EF0083
:10661000639E200003004200545B80000042900013
:10662000545B8800B45080000960EF00E102420032
:106630000502780003032000110009000382D8003E
:106640000140780016EAB7006ACBBF0000E0B7004F
:10665000CF02780000000600851F78006A6BEF000B
:10666000545B80007F24E10007003E00545B800003
:106670000960EF00A3B0200083024200804AEB00D3
:106680006A6BEC00F6FF3700CF02780000000600CE
:10669000851F78008A8BBF001004E00019003200CB
:1066A0008A0BF8008E0BF9008C0BF800900BF900A8
:1066B000908BBF001004E0000A0032008E8BBF00F8
:1066C00090427800908BBF00000278001440780060
:1066D000002CE10003003A008E2BEC00902BEC0024
:1066E000F3FF3700908BBF001004E00003003A0076
:1066F0008A0BF8000000F900030037008A2BEC0039
:10670000E4FF37000020EF00CF0278000000060011
:10671000851F7800445880004822DE007420B800AD
:106720008002780005017800A1B620000200780000
:106730001C0A020000000000805878000201E800F6
:106740000004E0004220AE00F8FF370084A12000E2
:10675000545C8800A4B62000645C880048330200C2
:1067600000000000800278000500E0000400320014
:1067700010C0B30000E0B70003003700020037008C
:106780000060EF0000003700CF0278000000060034
:10679000A0C0B3007AEBB7003C1A02000000000072
:1067A000D0C0B3007AEBB7003C1A02000000000032
:1067B00000000600851F78006A6BEF00545B8000C4
:1067C0007F24E10007003100545B80000960EF0086
:1067D00083A1200083024200804AEB006A6BEC0038
:1067E000F6FF3700380AA900176AEF00CF027800D9
:1067F0000000060000000600851F78002C33020010
:1068000000000000096BEF00883302000000000068
:106810006104E10026003A00010020000100780038
:106820000160EF003C0B0200000000008100E80066
:10683000811F78007AEBB7003C1A020000000000CC
:10684000CF007800300220000008E600F3FF370098
:1068500001002000010078000160EF006E0B0200D3
:10686000000000008100E8002302AE00FEFF3700B8
:1068700024A2B700900220000008E600F5FF3700D0
:10688000641F020000000000A00F20003C1902005D
:1068900000000000C942A900CD42A900A0002000CC
:1068A0003C190200000000000000FE00C00037009C
:1068B00010C0B30009EBB7008833020000000000ED
:1068C0006104E10005003A00C83302000000000046
:1068D000DA33020000000000B500370020C0B3002A
:1068E00009EBB70088330200000000006104E100FA
:1068F00007003A00FA33020000000000C83302002B
:1069000000000000DA33020000000000A800370099
:1069100040C0B30009EBB70088330200000000005C
:106920006104E10005003A00C833020000000000E5
:10693000DA330200000000009D003700D0C0B30031
:1069400009EBB70088330200000000006104E10099
:1069500005003A00C833020000000000DA330200EC
:106960000000000092003700E0C0B30009EBB70060
:1069700088330200000000006104E10005003A00D5
:10698000C833020000000000DA33020000000000FB
:106990008700370060C0B30009EBB70088330200FE
:1069A000000000006104E10005003A00C833020065
:1069B00000000000DA330200000000007C00370015
:1069C00050C0B30009EBB70088330200000000009C
:1069D0006104E10005003A00C83302000000000035
:1069E000DA3302000000000071003700A0C0B300DD
:1069F00009EBB70088330200000000006104E100E9
:106A000005003A00C833020000000000DA3302003B
:106A10000000000066003700B0C0B30009EBB7000B
:106A200088330200000000006104E10005003A0024
:106A3000C833020000000000DA330200000000004A
:106A40005B003700F0C0B30009EBB70088330200E9
:106A5000000000006104E10014003A00400620003C
:106A60003C19020000000000010020000100780035
:106A70000160EF00A80B0200000000008100E800A8
:106A8000811F78007AEBB7003C1A0200000000007A
:106A9000CF007800700020000008E600F3FF370008
:106AA000DA330200000000004100370000C1B300EB
:106AB00009EBB70088330200000000006104E10028
:106AC00003003A00DA33020000000000380037000B
:106AD00010C1B30009EBB7008833020000000000CA
:106AE0006104E10003003A00DA3302000000000014
:106AF0002F00370020C1B30009EBB7008833020034
:106B0000000000006104E10003003A00DA330200F3
:106B1000000000002600370030C1B30009EBB700C9
:106B200088330200000000006104E10003003A0025
:106B3000DA330200000000001D00370001002000D1
:106B4000010078000160EF00BE0B020000000000B1
:106B50008100E800811F78007AEBB7003C1A020040
:106B600000000000CF007800D00020000008E60000
:106B7000F3FF370081A120001104E000080032007B
:106B8000811F7800014090007AEBB7003C1A0200A8
:106B900000000000CF0078008100E800F6FF370019
:106BA000C833020000000000DA33020000000000D9
:106BB000CF027800000006000FE62000F0FF200062
:106BC00020A0B700000000004044240020058800F9
:106BD00040442600300588005044240040058800C9
:106BE000704425006005880081E0A9000080200035
:106BF000E13F2000018009000018EB004427EF006E
:106C00000028EF0004002800041188000440200040
:106C1000141188002062A800440420004411880058
:106C2000CD22A90007E2A80007A2A80006C2A8007A
:106C30000762A90006E2A8000702A8000722A80030
:106C40000742A90084062000541088007400200028
:106C5000641088002021EF00F4E72300E408880096
:106C6000040028000409880004F42100040D8800B1
:106C700004C02000D40C8800F4002000E40C88003C
:106C80001E21EF00F4E72300D40888000400280048
:106C9000F408880004F42100540D880004802000CA
:106CA000240D8800E4002000340D8800B369EF0053
:106CB000E469EF00E569EF00166AEF003A2AEF0099
:106CC000F40F2000F4568800F40F200004578800C9
:106CD000F40F200014578800F40F20002457880078
:106CE000F40F200034578800F40F20004457880028
:106CF000F40F200054578800F40F200064578800D8
:106D0000F40F200074578800F40F20008457880087
:106D1000F40F20009457880030C0B30008EBB70090
:106D2000E024EF00E224EF00E424EF006C003700E1
:106D3000C0060800040000004BF03F005C0A580049
:106D4000F63B8F0000C03C008B28AC003CBEF60038
:106D50003FD2D50044168C0015D7BF0069005A00F9
:106D60002E1B8700993F9A005FAD4B0091E4010014
:106D7000C05D11002F92E40081FB3F0038DA9100E2
:106D8000809DC500E0BF6F0012C0B400C309AB0016
:106D90003F6BC100034EC100B545BF00F740050081
:106DA000FF005A00EF3FF300A3E2F700D7FF010016
:106DB00040C0B400FF053C0058FC3F003BD3C0007E
:106DC000B5BA8C00E23F3900D3C73D004179B2002B
:106DD0003F870D003C50D000AF623F00304B8D002C
:106DE000A282AA0004400900A0404A0005760300E0
:106DF00040EC9E003788A60044F03F008F128D00C3
