:080F8000A82E0400000000008F
:080FC800460D040000000000CA
:080FE000FA11040000000000FA
:10100000300F040000000000F20C0400000000009B
:10102000780C040000000000260C04000000000002
:08104800EC130400000000009D
:08106000B40D040000000000C3
:0811B800BE0C04000000000061
:081378003220EF0043102000B9
:101380008301500005003100839D20000080410052
:101390001040BA000160EF0000000600809D2000B0
:1013A00083814100808141001380BA000000060063
:1013B0004046400041434100544F440052593100DF
:1013C000000000000000000000000000000000001D
:1013D00000000000000000004056000045520000E0
:1013E000534900004F4E00000000000000000000C4
:1013F00000000000000000000000000000000000ED
:1014000040534000544141005455440053003200C1
:1014100000000000000000000000000000000000CC
:101420000000000000000000404100004E54000099
:101430004D5000000000000000000000000000000F
:10144000000000000000000000000000000000009C
:10145000405040004D0042000000450000004500A3
:10146000000050000000000000000000000000002C
:101470000000000000000000405200005049000041
:10148000000000000000000000000000000000005C
:10149000000000000000000000000000000000004C
:1014A000404240004154520000004500000044000A
:1014B0000000200000004F0000004E00000000006F
:1014C00000000000000000004050000057520000E3
:1014D000494E0000464F0000204F00004E00000023
:1014E00000000000000000000000000000000000FC
:1014F0004050400057525200494E4500464F44006C
:10150000204F200046464F000000460000004600E5
:101510000000000000000000404C0000505200009D
:1015200053540000410000000000000000000000D3
:1015300000000000000000000000000000000000AB
:1015400040544000494D420045004C000000550009
:10155000000045000000200000004F0000004E0089
:101560000000000000000000404400004154000062
:101570004500000000000000000000000000000026
:10158000000000000000000000000000000000005B
:10159000405240005443420043464C000000550076
:1015A000000045000000200000004F000000460041
:1015B00000004600000000003220EF0083AE200053
:1015C000008041001040BA000160EF0000000600FA
:1015D0000A0D00004261000064200000436F00001B
:1015E0006D6D0000616E0000643A0000257300001C
:1015F000000000003220EF00A30220008301500011
:101600000500310063B12000008041001040BA00A5
:101610000160EF000000060060B1200083814100FE
:10162000808141001380BA00000006000A0D780096
:1016300055503A005320250050493000636F320066
:101640002053780074613A007274250020543000F1
:10165000696D32006520780053743A00616D250091
:10166000703A300025783200202D78003E200A00A4
:1016700025300D00327800003A250000303200009D
:101680003220EF00C3B42000008041001040BA00B7
:101690000160EF00000006000A0D00005550000038
:1016A0005320000050490000636F000020530000E9
:1016B000747200007563000074200000546900001B
:1016C0006D6500003A25000030320000783A0000D5
:1016D00025300000327800003A250000303200004A
:1016E000780A00000D0000003220EF0063022000A5
:1016F000830150000500310003B920000080410043
:101700001040BA000160EF000000060000B92000A0
:1017100083814100808141001380BA0000000600EF
:101720000A0D4C0055506F00532061005049640071
:10173000636F650020487200563320002E3056003B
:101740000A0D65005043720042207300566569001F
:1017500072736F00696F6E006E3A3A002543250080
:101760000A0D4300426F00006F7400003220EF004A
:1017700023BC2000008041001040BA000160EF004F
:10178000000006000A0D0000546900006D650000AD
:10179000642000004653000053440000204600002F
:1017A0005353000044200000555000005320000017
:1017B00050490000636F0000203A0000254C0000F3
:1017C0005520000073650000636F00006E64000028
:1017D000730000003220EF0003022000830150005C
:1017E0000500310063C02000008041001040BA00B5
:1017F0000160EF000000060060C02000838141000E
:10180000808141001380BA00000006000A0D6F00BD
:101810004261200074743A006572250079207500D9
:10182000527520006E6E7300696E6500672063005C
:1018300074696F006D656E002075640070647300DC
:101840006174000065640000207400008580A900B8
:101850004200F8003600F8003200F800801F7800DF
:10186000200020000C000900B01F7800B9C9BF009B
:10187000DA49E3000F003200D44E80000960EF0027
:10188000A39B2000030042009042780005407800AE
:101890002302AE00FEFF370024E2B7002562EF000E
:1018A000D44E80000960EF00E10242007FC0620078
:1018B000DAE9B700A00120000C0009004F10780001
:1018C0004F0078003200F9003600F9004200F900BC
:1018D000004006002202AE00FEFF37002202F800A0
:1018E0000008F900301180002222A9000000060043
:1018F0004200F8003600F8003200F800801F78003F
:10190000200020000C000900B01F7800D44E800099
:101910004822DE00C39D2000830242006A0C0200C0
:1019200000000000804A7800DBC9BF00A2EBB700CE
:10193000D44E80004822DE00E10242007FC06200F7
:10194000DBE9B700DBC9BF00FC49E30002003A0055
:10195000A2CBBF00DBE9B7008560A900A001200091
:101960000C0009004F1078004F0078003200F90099
:101970003600F9004200F900004006004200F8007D
:101980003600F8003200F800801F780020002000A8
:101990000C000900B01F7800000000008BC0A900F7
:1019A000A00120000C0009004F1078004F007800C3
:1019B0003200F9003600F9004200F900004006004C
:1019C000224AE20002003200226AED0004003700E1
:1019D000224AE20002003A0080FF2F009A21B6005E
:1019E000000006004200F8003600F8003200F8005F
:1019F000801F7800200020000C000900B01F780034
:101A0000E00C020000000000304BE2000200320057
:101A1000306BED00140037002B6BEC00274BAF0050
:101A200004003700C942A900CD42A800274BA800F6
:101A300005003700274BAE0003003700C942A9005C
:101A4000CD42A900274BA9002BCBBF000000FB0013
:101A5000040420000020E10001003D002B6BEF009A
:101A600040C1B30030EBB7008500A900A001200001
:101A70000C0009004F1078004F0078003200F90088
:101A80003600F9004200F900004006004200F8006C
:101A90003600F8003200F800801F78002000200097
:101AA0000C000900B01F7800545980006A24E1003E
:101AB0000100310011003700C8E2A800CAE2AE0000
:101AC000020037002A6BEF000C003700944D8000B5
:101AD0006124E10003003A002A6BEF00B269EF00D5
:101AE000060037001E6AAF00030037001ECAAE00B2
:101AF000010037001E6AA8002A6BEF008400A900CD
:101B0000A00120000C0009004F1078004F00780061
:101B10003200F9003600F9004200F90000400600EA
:101B2000851F780062C9BF000160EF00E10260001C
:101B30006128E10001003A00B589A800CF027800D1
:101B400000000600851F780062C9BF000160EF0039
:101B5000E10260006128E10001003A00B589A900B6
:101B6000CF027800000006004200F8003600F800BE
:101B70003200F800801F7800200020000C000900CF
:101B8000B01F7800445980004822DE006A24E1003A
:101B90000100310027003700146BEC0094588000DE
:101BA0006224E1001000320040C0B30026EBB70011
:101BB000270BAF0005003700270BA800B549A80088
:101BC000900D02000000000006003700270BAE0059
:101BD00004003700270BA900B549A900A20D020097
:101BE0000000000011003700945880006224E100DA
:101BF0000E003A00264BE20001003200266BED0099
:101C0000264BE20006003A0040C0B30026EBB700C6
:101C1000B549A800900D0200000000000300370045
:101C2000B549A900A20D020000000000296BEF00D9
:101C3000000000008660A900A00120000C0009003F
:101C40004F1078004F0078003200F9003600F9009C
:101C50004200F90000400600851F7800861F7800CA
:101C600000012000A20BB400104278006624E100BD
:101C700026003100A28BBF009002780020002000D7
:101C8000A20BB40000027800140078000028E100E4
:101C90000500310020002000A20BB4008002780073
:101CA000A28BBF00900A7800A28BBF009002780040
:101CB00040002000A20BB40000027800140078005D
:101CC0000500E1000500310040002000A20BB40037
:101CD00080027800A28BBF00900A7800600020008C
:101CE000A20BB40080027800A28BBF000002780033
:101CF00014007800950A400000012000A20BB400F7
:101D000080027800954AE80030003700600020002B
:101D1000A20BB4008002780020002000A20BB400C7
:101D2000000278001400780015027800800A520042
:101D300060002000A20BB400800278004000200068
:101D4000A20BB4000002780014007800150278009D
:101D5000800A520080002000A20BB40080027800AC
:101D600060002000A20BB400100378004230DE00B7
:101D7000800A780000012000A20BB40080027800E5
:101D8000804AEB0040002000A20BB40080027800E3
:101D9000804AEB0000C0B300904298002000200071
:101DA000A20BB4008002780080CAEB00F0C0B30040
:101DB0009042980060002000A20BB40080027800DE
:101DC000804AEB0000C0B300904298004F037800B7
:101DD000CF0278000000060085A0A9004003A900FA
:101DE0004023A80085A0AE00FEFF37004003AE00F0
:101DF000FEFF37000083BF0000A0B7000000060010
:101E0000C122A900C522A8000348A80000000600BE
:101E1000D0A2A900D4A2A8000368A8000000060070
:101E2000C102A900C502A8000388A800000006009E
:101E3000D082A900D482A80003A8A8000000060050
:101E40005960A9007160A8000000090000000000AE
:101E5000C8A2A900CCA2A8000328A900000006007F
:101E60004200F8003600F8003200F800801F7800C9
:101E7000200020000C000900B01F78005459800099
:101E80007024E100010031002A6BEC00445980000D
:101E90004822DE007024E10001003100296BEC00D3
:101EA0001EEAAE0001003700D7003700272BAE0036
:101EB000090037004003AE00FEFF37000003F800C2
:101EC000940AF90044A92000145D88002C0E020039
:101ED00000000000272BA900314BE2000200320075
:101EE000316BED0004003700314BE20002003A0094
:101EF00070C0B30031EBB7004823EF00EC0E0200D6
:101F00000000000028AAB70084A22000145D880009
:101F10002C0E02000000000014002000441A88006B
:101F2000EC0E0200000000003AAAB700A4A32000B3
:101F3000145D88002C0E02000000000064002000E8
:101F4000441A8800EC0E0200000000004CAAB70002
:101F5000C4A42000145D88002C0E020000000000C4
:101F6000845980004822DE006724E1000B003A001B
:101F7000D062A900D462A90074002000441A88002D
:101F8000EC0E0200000000005EAAB700E4A52000ED
:101F9000145D88002C0E02000000000084598000AF
:101FA0004822DE006624E1000B003A00D062A9005E
:101FB000D462A80074002000441A8800EC0E0200CD
:101FC0000000000070AAB70004A72000145D88007C
:101FD0002C0E020000000000845980004822DE0020
:101FE0006524E1000B003A00D062A900D462A90088
:101FF00084002000441A8800EC0E0200000000005B
:1020000082AAB70024A82000145D88002C0E0200CC
:1020100000000000845980004822DE006424E100B2
:102020000B003A00D062A900D462A800D4002000BE
:10203000441A8800EC0E020000000000A6AAB700B7
:1020400064AA2000145D88002C0E0200000000002D
:10205000845980004822DE006324E1000B003A002E
:10206000D062A900D462A900D4002000441A8800DC
:10207000EC0E020000000000B8AAB70084AB2000FC
:10208000145D88002C0E02000000000084598000BE
:102090004822DE006224E10009003A00940020009A
:1020A000441A8800EC0E020000000000CAAAB70023
:1020B000A4AC2000145D88002C0E0200000000007B
:1020C000845980004822DE006124E10009003A00C2
:1020D000E4002000441A8800EC0E0200000000001A
:1020E000DCAAB700C4AD2000145D88002C0E0200ED
:1020F00000000000314BE20009003A00B40020006B
:10210000441A8800EC0E020000000000EEAAB7009E
:10211000E4AE2000145D88002C0E020000000000D8
:10212000A4002000441A8800EC0E02000000000009
:1021300000ABB70004B02000145D88002C0E020034
:1021400000000000D062A900D462A8008400200032
:10215000441A88004003A9004023A800272BA800A8
:102160001E8AAE000B003700000F020000000000C6
:10217000080F020000000000100F02000000000025
:10218000180F020000000000200F020000000000F5
:102190001D0037000458800043DB20000418E100D4
:1021A00019003900945880006224E10016003200C2
:1021B0001ECAAE0014003700000F0200000000002D
:1021C000080F020000000000100F020000000000D5
:1021D000200F02000000000020C0B30012EBB70087
:1021E00012CBBF0022E9B70050C0B30022EBB7000A
:1021F0001A2BEF001C2BEF00843E200004598800AE
:10220000236BEF00000037000000000084E0A9000D
:10221000A00120000C0009004F1078004F0078004A
:102220003200F9003600F9004200F90000400600D3
:10223000C102A900C502A9000388A9000000060088
:102240001EEAA800449C200024598800A400200015
:10225000441A88001811020000000000240BE2005C
:102260000E003200242BED00EC0E020000000000F6
:1022700000ABB7000060FE000458800043DB200084
:102280000418E10004003600100F020000000000F6
:102290001EEAA9000D003700F0FF3700002BEF0009
:1022A00050C0B30023EBB70010C0B30012EBB7006F
:1022B00012CBBF0022E9B7001A2BEF001C2BEF0056
:1022C00018110200000000001EEAA900000006002C
:1022D000C44D80006A24E100010031002100370074
:1022E000B869ED0010C0B300A2EBB700C162A9004D
:1022F000C562A900C842A900CC42A8003E06090058
:1023000000000000C842A900CC42A9003E06090016
:1023100000000000A24BE2000A003200C162A900E6
:10232000C562A8003E06090000000000C162A900C5
:10233000C562A9003E06090000000000A26BED0086
:10234000F4FF3700C162A900C562A9003E0609007A
:1023500000000000C842A900CC42A8003E060900C7
:102360000000000000000600C44D8000F3032000C0
:10237000041CE10001003E001D003700B869EC00BC
:1023800010C0B300A2EBB700C162A900C562A800EB
:102390003E06090000000000C842A900CC42A90086
:1023A0003E06090000000000A24BE2000A003200D5
:1023B000C162A900C562A8003E0609000000000035
:1023C000C162A900C562A9003E0609000000000024
:1023D000A26BED00F4FF3700C842A900CC42A80070
:1023E0003E06090000000000C162A900C562A80005
:1023F000000006004200F8003600F8003200F80045
:10240000801F7800200020000C000900B01F780019
:10241000A36BEF00A36BEC002706A8002726A800FB
:102420002406F800AC0BF900ACCBBF0038EBB700CA
:10243000ADCBBF00A2EBB7002406F800AC0BF9004F
:10244000ACCBBF0036EBB700ADCBBF0037EBB7006E
:102450002406F800AC0BF900ACCBBF0034EBB7009E
:10246000ADCBBF0035EBB7002406F800AC0BF9008C
:10247000ACCBBF0032EBB700ADCBBF0033EBB70046
:102480002706A8002726A8002406F800AC0BF900B0
:10249000ACCBBF00AAEBB700ADCBBF00A2EBB7003F
:1024A0002406F800AC0BF900ACCBBF00A8EBB700DA
:1024B000ADCBBF00A9EBB7002406F800AC0BF900C8
:1024C000ACCBBF00A6EBB700ADCBBF00A7EBB7000E
:1024D0002406F800AC0BF900ACCBBF00A4EBB700AE
:1024E000ADCBBF00A5EBB700145D80004822DE0035
:1024F0006324E1000100390022003700AACBBF00AD
:10250000384BE30002003200C2FF37001D003700E5
:10251000A8CBBF00364BE30002003200BDFF3700FE
:1025200018003700A9CBBF00374BE3000200320090
:10253000B8FF370013003700A6CBBF00344BE300D1
:1025400002003200B3FF37000E003700A7CBBF00F8
:10255000354BE30002003200AEFF370009003700C0
:10256000A4CBBF00324BE30002003200A9FF3700CA
:1025700004003700A5CBBF00334BE300010032005D
:10258000A4FF3700276BAF0002003700276BA800BD
:1025900003003700276BAE0001003700276BA9004E
:1025A00014CBBF00154BE30003003A001ECAA9007C
:1025B000146BEF000900370014CBBF00154BE3008C
:1025C000060032001ECAA800146BEF001E2BEF009D
:1025D000162BEC004220AF00182BEC0014CBBF00F0
:1025E00015EBB7001ECAAE000600370094588000F5
:1025F0006224E10003003A001A2BEC004220AF00F5
:102600001C2BEC001ECAAF00010037001E2BEC0093
:102610001ECAAE000D003700945880006224E1000D
:102620000A003A00224BE20002003200226BED0069
:1026300006003700224BE20004003A0050C0B3000D
:1026400022EBB7002011020000000000234BE20043
:1026500001003200236BED00234AE200010032004A
:10266000236AED00B049E20004003200944D80007E
:102670006124E10001003A00B069ED00B349E200D5
:10268000030032001ECAAF0001003700B369ED003D
:1026900094568000A33620000418E100170039008A
:1026A0000328AE0014003700945880006224E10033
:1026B000110032004458800013E720000418E100A4
:1026C00007003100C44D8000C3032000041CE1005A
:1026D00002003E0068110200000000000600370002
:1026E0000458800013E720000418E10002003900BC
:1026F000B411020000000000120037000328AE00F1
:1027000010003700945880006224E1000D00320070
:1027100094568000134E20000418E100030031009D
:1027200068110200000000000600370054568000C7
:10273000134E20000418E10002003900B411020019
:10274000000000008460A900A00120000C00090026
:102750004F1078004F0078003200F9003600F90081
:102760004200F90000400600F0FF2F000862AE00B2
:10277000FEFF37000922AF00040037000742AE0019
:10278000020037000902AE00F8FF37000822AE0051
:10279000FEFF37000082BF0008C2AF0008C2A900D8
:1027A0000782A80000000600F0FF2F000862AE00BC
:1027B000080037000842AE00060037000742AE00AE
:1027C000020037000902AE00020037001110880035
:1027D0000782A800000006004200F8003600F8005A
:1027E0003200F800801F7800200020000C00090053
:1027F000B01F780008A2AF0004003700406BEF0064
:102800000842AE000100370040EBA80040CBBF00FB
:102810000160EF00406BEC00ADEBB700645D800041
:102820004822DE0003082000041CE100E600390015
:10283000645D80004822DE0004C8B20003003A0054
:1028400000C2BF00ACEBB70006003700110020004B
:10285000811F7800CF007800B41302000000000050
:10286000ACEBB700AD4BE20004003200645D8000C9
:102870004822DE0004C8B20003003A00ACCBBF001F
:102880003EEBB700D0003700645D80004822DE00D8
:102890006124E10003003A00ACCBBF003FEBB7007E
:1028A000C9003700645D80004822DE006224E10038
:1028B000C5003900645D80004822DE0004C8B20013
:1028C000C1003200F459800004CDB2005D003A002E
:1028D000F45980004822DE006724E1002C003E000D
:1028E0003FCBBF003F6BEC000080FB0024B3200017
:1028F00084024000AC8BBF00804298002966A9008A
:102900002946A9002706A8002726A800871F7800C7
:10291000881F78000500FC0057052000373B880021
:10292000A80A2000383B880027A6A8004F0478009A
:10293000CF03780038CBBF00AEEBB700AF6BEF0032
:10294000AE0BF8002406F90036CBBF00AEEBB700A3
:1029500037CBBF00AFEBB700AE0BF8002406F90091
:1029600034CBBF00AEEBB70035CBBF00AFEBB70049
:10297000AE0BF8002406F90032CBBF00AEEBB70077
:1029800033CBBF00AFEBB700AE0BF8002406F90065
:10299000F45980004822DE006724E10029003A0053
:1029A0002966A9002946A9002706A8002726A8000D
:1029B000871F7800881F78000500FC00570520005D
:1029C000373B8800A80A2000383B880027A6A800CB
:1029D0004F047800CF03780038CBBF00AEEBB700D0
:1029E000AF6BEF00AE0BF8002406F90036CBBF004A
:1029F000AEEBB70037CBBF00AFEBB700AE0BF800C4
:102A00002406F90034CBBF00AEEBB70035CBBF00D6
:102A1000AFEBB700AE0BF8002406F90032CBBF00D5
:102A2000AEEBB70033CBBF00AFEBB700AE0BF80097
:102A30002406F90010C0B3003DEBB70020C0B3007E
:102A40003CEBB700F459800024CDB2000D003A00F1
:102A5000F45980004822DE0073022000041CE100CB
:102A6000070039003FCBBF003F6BEC000080FB004C
:102A70002492200084024000AC8BBF00804298006A
:102A800051003700F459800044CDB20031003A00C3
:102A9000F45980004822DE006824E1002C003E004A
:102AA0003FCBBF003F6BEC000080FB0024B3200055
:102AB00084024000AC8BBF00804298002966A900C8
:102AC0002946A9002706A8002726A800871F780006
:102AD000881F78000500FC0057052000373B880060
:102AE000A80A2000383B880027A6A8004F047800D9
:102AF000CF03780038CBBF00AEEBB700AF6BEF0071
:102B0000AE0BF8002406F90036CBBF00AEEBB700E1
:102B100037CBBF00AFEBB700AE0BF8002406F900CF
:102B200034CBBF00AEEBB70035CBBF00AFEBB70087
:102B3000AE0BF8002406F90032CBBF00AEEBB700B5
:102B400033CBBF00AFEBB700AE0BF8002406F900A3
:102B50001D003700F459800064CDB2000C003A002B
:102B6000F45980004822DE007724E10007003E008F
:102B70003FCBBF003F6BEC000080FB00A494200023
:102B800084024000AC8BBF00804298000E003700EA
:102B9000F459800084CDB2000B003A00F459800053
:102BA0004822DE007724E10007003E003FCBBF0053
:102BB0003F6BEC000080FB00249620008402400064
:102BC000AC8BBF0080429800645D80004822DE002C
:102BD00003082000041CE100A0003E00645D8000AA
:102BE0004822DE0004C8B20002003A0000C2BF0062
:102BF000ACEBB700F459800014CDB20015003A00D8
:102C0000F45980004822DE006824E1000A003E00FA
:102C10003FCBBF003F6BEC000080FB0024B32000E3
:102C2000040040009042780085407800D4130200F0
:102C30000000000007003700F45980004822DE0041
:102C40006824E1000300360080C0EB00D4130200CA
:102C500000000000F459800034CDB2001A003A00A0
:102C6000F45980004822DE0073022000041CE100B9
:102C70000C003900FE000900000000003FCBBF003F
:102C80003F6BEC000080FB00249220000400400019
:102C90009042780085407800D413020000000000C4
:102CA00008003700F45980004822DE00730220003B
:102CB000041CE1000300310080C0EB00D4130200CB
:102CC0000000000065003700F459800054CDB200C8
:102CD00018003A00F45980004822DE006824E10020
:102CE0000C003E00FE000900000000003FCBBF00CA
:102CF0003F6BEC000080FB0024B320000400400088
:102D00009042780085407800D41302000000000053
:102D100007003700F45980004822DE006824E100F3
:102D20000300360080C0EB00D41302000000000056
:102D30004A003700F459800074CDB20018003A0000
:102D4000F45980004822DE007724E1000C003E00A8
:102D5000FE000900000000003FCBBF003F6BEC000D
:102D60000080FB00A4942000040040009042780002
:102D700085407800D41302000000000007003700EF
:102D8000F45980004822DE007724E1000300360079
:102D900080C0EB00D4130200000000002F003700B9
:102DA000F459800094CDB20018003A00F459800024
:102DB0004822DE006624E1000C003E00FE0009000F
:102DC000000000003FCBBF003F6BEC000080FB0029
:102DD000249620000400400090427800854078004E
:102DE000D41302000000000007003700F4598000EF
:102DF0004822DE006624E1000300360080C0EB00BC
:102E0000D41302000000000014003700F4598000C1
:102E1000B4CDB20004003A0080C0EB00D41302002D
:102E2000000000000D003700F4598000D4CDB2003E
:102E300004003A0080C0EB00D41302000000000040
:102E400006003700F4598000F4CDB20003003A00C8
:102E500080C0EB00D413020000000000000000005E
:102E60008600A900A00120000C0009004F10780086
:102E70004F0078003200F9003600F9004200F900F6
:102E800000400600C122A900C522A9000348A900EC
:102E900000000600E70160004300DE000200400081
:102EA0000000A700E88141000000A1000104E0004B
:102EB0001098AD0000000600851F7800D122A900FF
:102EC000D522A900C8C2A900CCC2A90010C0B30075
:102ED0006EEBB700745B80006824E10013003E00D5
:102EE000708BBF00904278000508B2000500E0003A
:102EF00003003A00C162A900C562A90002003700C0
:102F0000C162A900C562A800815B80004200A900DF
:102F100091D8D200D122A900D522A800D122A9009F
:102F2000D522A9006E6BEC00EAFF3700C8C2A900E9
:102F3000CCC2A800C8C2A900CCC2A900CF027800A8
:102F400000000600228020006CCBBF000160EF0073
:102F5000110020004A1702000000000002C8BF0054
:102F60006DEBB700D4B62000845B88005C170200CC
:102F7000000000000000060060C0B3006CEBB7006A
:102F8000A2170200000000000000060022802000BE
:102F90006CCBBF000160EF00010020004A17020067
:102FA0000000000002C8BF006DEBB700D4B62000DF
:102FB000845B88005C17020000000000000006002F
:102FC000851F7800F44A80004822DE006124E10079
:102FD0002C003A00B549AE00040037006C6BEF00DE
:102FE000A21702000000000005003700B549AF003D
:102FF000030037006C6BEF00C617020000000000F2
:10300000B569AE000500370050C0B3006CEBB700E7
:10301000A21702000000000006003700B569AF00EB
:103020000400370050C0B3006CEBB700C6170200B5
:1030300000000000B589AE000500370040C0B300B5
:103040006CEBB700A217020000000000060037007A
:10305000B589AF000400370040C0B3006CEBB70087
:10306000C61702000000000062C9BF000160EF0047
:10307000E10260000500E00001003A00B589A90006
:103080000D0037005F49E2000B003A006C6BEF0067
:10309000C61702000000000050C0B3006CEBB70080
:1030A000C61702000000000040C0B3006CEBB70080
:1030B000C617020000000000CF02780000000600E2
:1030C00010C0B3006CEBB700A217020000000000B4
:1030D0000000060020C0B3006CEBB700A21702008E
:1030E000000000000000060030C0B3006CEBB70029
:1030F000A217020000000000000006006018020095
:10310000000000006A1802000000000074180200AD
:103110000000000000000600D0A2A900D4A2A9006F
:103120000368A900000006000000E0004220AF0094
:10313000040037007B3E0900000000000000E900A9
:10314000FCFF3A0000000600400620009418020030
:103150000000000000000600F400200004278800A2
:1031600004002F0014278800740020002427880002
:10317000F40020000427880004002E001427880093
:10318000740020002427880004002800141A8800F6
:1031900034002100241A880004472800041A8800FB
:1031A000000006001021EF0094042000640888004D
:1031B00004022800840888001221EF000427200060
:1031C0007408880004032800940888001E21EF007A
:1031D000840C2000D408880004022800F408880029
:1031E0002021EF00840C2000E4088800040128005E
:1031F0000409880000000600A00F200094180200B7
:10320000000000000000060001E02F008381400064
:10321000F1072000E0804800910188000500A1002E
:103220000500E00003003200331ABA008582E9008D
:10323000FCFF3A0000000600851F78006A2BEF00B3
:10324000686BEF006A2BEF00545B8000A303200043
:103250000418E1001B0039000060FE00535B800091
:1032600004002000250020000419020000000000D6
:103270006CABB70068CBBF00686BEC000080FB0054
:1032800064972000840240006C8BBF00804298004D
:1032900068CBBF00686BEC000080FB0064972000E7
:1032A000840240006DCBBF00804A78007E3E09005A
:1032B00000000000545B8000620042006AABB7006F
:1032C000E1FF3700CF02780000000600851F78007C
:1032D0006ACBBF006BEBB7006B6BD500545B800013
:1032E0004822DE008447B200044078006BEBB70050
:1032F0006BCBBF000160EF004200DE00545B80003A
:103300004822DE00840240006ACBBF000160EF006B
:103310006F00600005004000CF027800000006004A
:10332000851F7800C500200003000900B51F780044
:103330000202B8000303B8004200A900850243005E
:1033400060844B00020BB80085024B0008844B00E0
:10335000030BB800080443000780B0008701780021
:10336000080178008500780004007800250120001D
:1033700003000900CF127800CF0278000000060099
:10338000851F7800C500200003000900B51F7800E4
:10339000090020004300AF0019002000891F7800B9
:1033A0000002EB008002EB000003EB008003EB0067
:1033B0000304690011003200080220004200A90045
:1033C0000080D2008180D2000482D2008582D200A7
:1033D0000328E10001003A0002A0E10003003900E7
:1033E0000202520083825A004200A8000683D200E3
:1033F0008783D2000804E900F0FF3A0087007800D4
:1034000006007800CF0478000900E00001003200D7
:103410000400BE002501200003000900CF1278003F
:10342000CF02780000000600851F7800C50020004C
:1034300007000900B51F7800762BD50074ABD700C4
:103440008046EB00708BBF00915B80000201200082
:103450000300200090190200000000000001780025
:1034600081017800748BBF00B15B8000C01902003D
:1034700000000000E1025000608358006130E1006C
:103480000500390002003E006028E100020039001A
:10349000F5FF2F0006002000E180420060014B0094
:1034A0000100780082007800020120000300200063
:1034B00090190200000000000001780081017800EE
:1034C000748BBF00B15B8000C019020000000000D7
:1034D000945B80000120E1000500390009003E00F6
:1034E000845B80000020E100010039000500370006
:1034F000845B800084045000945B80000485580045
:1035000004003700845B800080045200945B8000DC
:1035100001055A00708BBF00915B800042002000C3
:103520000300200090190200000000000001780054
:1035300081017800748BBF00B15B8000C01902006C
:1035400000000000E1035000608458006140E10089
:103550000500390002003E006038E1000200390039
:10356000F7FF2F0008002000E180430060014C00BD
:103570000100780082007800420020000300200053
:10358000901902000000000000017800810178001D
:10359000748BBF00B15B8000C01902000000000006
:1035A000945B80000120E1000500390009003E0025
:1035B000845B80000020E100010039000500370035
:1035C000845B800084055000945B80000486580072
:1035D00004003700845B800080055200945B80000B
:1035E00001065A000C50E1000500390002003E00BF
:1035F0000B48E100020039001DC0B30087027800CB
:1036000004002800041188000440200014118800E0
:103610001A00AF002062A80045118800A501200013
:1036200007000900CF127800CF02780000000600E2
:1036300021E2A8002342A80004202C00645B88003B
:1036400014002000745B88007A49E20007003A0009
:10365000D0E2A800D0C2A80021E2A9002342A9001C
:10366000A41802000000000028003700D44B80009E
:103670006124E10003003A00042C2100645B88000F
:103680006E2BEF00D44B80006224E10003003A006F
:1036900004582200645B88006E2BEF00D44B80003E
:1036A0006324E10003003A0004B02400645B880056
:1036B0006E2BEF00D44B80006424E10003003A003D
:1036C00004602900645B88006E2BEF00D44B8000FF
:1036D0006524E10003003A0004102E00645B8800BA
:1036E0006E2BEF006C0BF800700BF9006E0BF800FE
:1036F000720BF90004802400A45B8800841E200063
:10370000B45B8800141A02000000000000000600EC
:103710004200F800801F780014028000040EB300FD
:1037200014028800013B880054052000343B8800C7
:10373000A40A2000343B880061E7A80000000000D4
:103740000000000061E7AF00FEFF37004F00780087
:103750004200F900000006004200F800801F7800D7
:1037600014028000040EB30014028800013B88009C
:1037700054052000343B8800A40A2000343B880014
:1037800061E7A80000000000000000004F00780082
:103790004200F90000000600811F780001E02F00C0
:1037A000008040008000EB00F1072000E08048002E
:1037B00091018800CF0078000200A1000200E00023
:1037C000110032001108BB00811F780001002000A9
:1037D000881B020000000000CF0078003108BB0009
:1037E0000080E80001003A003220EC00811F7800E0
:1037F00041002400AC1B020000000000CF00780054
:103800000281E900EFFF3A0000000600851F780002
:103810006C6BEF006E2BEF00745B8000A303200045
:103820000418E1001D0039000060FE006CCBBF00F1
:103830006C6BEC000080FB006497200004004000EB
:10384000845B800000429000845B88006CCBBF00EA
:103850006C6BEC000080FB006497200004004000CB
:10386000801F78001040780071EBB7004F0078009F
:103870006E8BBF0001B7200022002000CC1B02008D
:10388000000000007E3E090000000000745B800024
:10389000620042006EABB700DFFF3700CF02780056
:1038A0000000060024578000837020000418E10007
:1038B0000400360030C0B30000E0B7001F0037003E
:1038C0001E00370024578000837020000418E10098
:1038D00008003E0024578000638620000418E100A1
:1038E0000400390020C0B30000E0B7001300370027
:1038F0001200370024578000638620000418E1007E
:1039000008003E0024578000239920000418E1009D
:103910000400390010C0B30000E0B7000700370012
:103920000600370024578000239920000418E10086
:10393000020031000060EF000000370000000600C8
:103940000600FC0061762000520520008208780005
:10395000A30A20008308780027A6A800217420006D
:1039600062042000730520008248780083487800B4
:103970004227A8000400280034318800FC22A90056
:1039800027A6A900386BEF0010C0B30037EBB700D3
:1039900010C0B30036EBB70010C0B30035EBB70072
:1039A000346BEF00336BEF00326BEF002966A90038
:1039B0002946A9002706A8002726A800871F780007
:1039C000881F78000500FC0057052000373B880061
:1039D000A80A2000383B880027A6A8004F047800DA
:1039E000CF03780038CBBF00AEEBB700AF6BEF0072
:1039F000AE0BF8002406F90036CBBF00AEEBB700E3
:103A000037CBBF00AFEBB700AE0BF8002406F900D0
:103A100034CBBF00AEEBB70035CBBF00AFEBB70088
:103A2000AE0BF8002406F90032CBBF00AEEBB700B6
:103A300033CBBF00AFEBB700AE0BF8002406F900A4
:103A400000000600861F7800871F7800881F780016
:103A5000891F78000002EB008002EB000003EB00FE
:103A60008003EB000304690011003200080220000B
:103A70004200A9000080D2008180D2000482D200DE
:103A80008582D2000328E10001003A0002A0E10093
:103A9000030039000202520083825A004200A8004B
:103AA0000683D2008783D2000804E900F0FF3A00C1
:103AB0008700780006007800CF0478004F04780073
:103AC000CF0378004F03780000000600821F7800C3
:103AD000831F7800851F78004300A9003200200072
:103AE00003002000221D0200000000004200A90087
:103AF0000080D2008180D20091018800CF0278003E
:103B0000CF0178004F0178000300E000130032007D
:103B1000E3006200050032000000E8008100E900D7
:103B2000070032000000E900080037000300E00051
:103B30000A0032003059BA008301E9000700320060
:103B40002059BA008301E9000400320030D9BA00DC
:103B50000000E8008301E900F4FF370000000600E0
:103B6000851F7800B9C9BF00DA49E30002003200BE
:103B70000040EB000100370010C0B30077EBB70046
:103B8000C44D80004822DE00A39B20008302420037
:103B9000768BBF0080429800C44D80004822DE0032
:103BA000E10242007F80620078ABB700DAC9BF0053
:103BB0000160EF00780BE300FCFF320078CBBF0020
:103BC000B9E9B700774BE200010032008580A80018
:103BD000CF02780000000600851F7800861F78005D
:103BE000871F7800881F78006CCBBF000160EF0052
:103BF0004100DD00A48B2000840240000500780015
:103C000090037800851F78000700780001002000ED
:103C10000201200013002000661D020000000000C9
:103C2000CF02780010C0BF000040B3004220AF00B8
:103C3000070037008703E800760BF800E8FF9F00D5
:103C4000760BF900B01D020000000000EDFF370008
:103C5000A4180200000000004F047800CF03780091
:103C60004F037800CF02780000000600C55B80009B
:103C70004300A900748BBF00B15B8000825B8000B1
:103C8000935B8000C0190200000000000100E0000A
:103C900013003A000000E000110032000500E000CF
:103CA0000E003200823E2000030020009019020026
:103CB000000000000100E00002003A000000E00007
:103CC00062003A004300A900823E20000300200069
:103CD000C019020000000000010037005B0037003F
:103CE0004300A9008200200003002000C019020048
:103CF000000000000100E00013003A000000E000B6
:103D0000110032000500E0000E003200823E20006B
:103D10000300200090190200000000000100E000F4
:103D200002003A000000E00044003A004300A9000D
:103D3000823E200003002000C019020000000000A5
:103D4000010037003D0037004300A9008200200039
:103D500003002000C0190200000000000100E00084
:103D600013003A000000E000110032000500E000FE
:103D70000E003200823E2000030020009019020055
:103D8000000000000100E00002003A000000E00036
:103D900026003A004300A900823E200003002000D4
:103DA000C019020000000000010037001F003700AA
:103DB0004300A9004200200003002000C0190200B7
:103DC000000000000100E00013003A000000E000E5
:103DD000110032000500E0000E003200823E20009B
:103DE0000300200090190200000000000100E00024
:103DF00002003A000000E00008003A004300A90079
:103E0000823E200003002000C019020000000000D4
:103E1000010037000100370000002000800078001A
:103E200004032800F40888000B00370080007800A5
:103E300004022800F408880007003700800078009A
:103E400004012800F408880003003700800078008F
:103E500004002800F40888008100E900D1088800E7
:103E600000000600010020001A81BF000000E800E9
:103E70004220AF008100E800825B80000300200048
:103E80009019020000000000823E20000300200084
:103E9000C019020000000000AAA1B700000006003F
:103EA0006C4BE20003003A0080FF2F00A421B60013
:103EB00032003700645B80007924E10002003100A9
:103EC00090C1B3006CEBB7006E2BEF006CCBBF0062
:103ED0000160EF00004278000960EF006A20B8003E
:103EE000745B80000020E10017003E0024032000E6
:103EF000845B8800722BEF0004402200A45B8800E2
:103F0000440F2000B45B8800782BEF00361E0200BF
:103F1000000000006E0BF800700BF900321F020069
:103F20000000000060002000A421B7003E1F09002F
:103F3000000000000060FE00745B80006D00420025
:103F40006EABB700E1FF3700745B8000633B20007D
:103F50000418E10008003E00843E2000745B8800E5
:103F6000843E2000845B8800321F020000000000B5
:103F700060002000A421B700B5A9A8000000060039
:103F800010C0B3006CEBB700C617020000000000C1
:103F90000000060020C0B3006CEBB700C61702009B
:103FA000000000000000060030C0B3006CEBB7005A
:103FB000C61702000000000000000600C01F02003B
:103FC00000000000CA1F020000000000D41F020011
:103FD00000000000000006007E1802000000000043
:103FE000E0C0B3006CEBB700EC1D02000000000065
:103FF00050C1B3006CEBB700EC1D020000000000E4
:1040000060C1B3006CEBB700EC1D020000000000C3
:10401000682BEF00445B8000032020000418E100BF
:104020000E0039000060FE006A6BEF006B6BEF0062
:10403000688BBF00A1B6200022002000CC1B02002C
:10404000000000007E3E090000000000445B80008C
:104050006200420068ABB700EEFF370070C1B300EA
:104060006CEBB700EC1D02000000000080C1B30043
:104070006CEBB700EC1D020000000000F0CFB300B5
:104080004FE9B700D0C1B3006CEBB700EC1D0200E4
:1040900000000000A01C020000000000D0C2B3001D
:1040A0006CEBB700EC1D0200000000006069EF003F
:1040B00060C9BF0087E9B700E0C2B3006CEBB7008E
:1040C000EC1D02000000000020C3B3005CE9B70053
:1040D0005CC9BF0083E9B7005CC9BF006CEBB700E7
:1040E000501F02000000000020C0B3005BE9B700D1
:1040F0005BC9BF0082E9B700A0C2B3006CEBB70098
:10410000EC1D0200000000005CC9BF006CEBB700B2
:10411000501F02000000000050C3B3005EE9B7006A
:104120005EC9BF0084E9B700B0C2B3006CEBB70052
:10413000EC1D0200000000008569EF0085C9BF008A
:1041400050E9B7005269EF0052C9BF0081E9B700DA
:1041500010C0B3008EE9B7008EC9BF005FE9B70099
:10416000F0C2B3006CEBB700EC1D020000000000D1
:104170004B69EF004BC9BF0079E9B70000C3B3003A
:104180006CEBB700EC1D0200000000004C69EF0072
:104190004CC9BF007AE9B700181B020000000000FC
:1041A00047C9BF0051E9B70051C9BF0080E9B70056
:1041B00040C1B3006CEBB700EC1D02000000000032
:1041C000061C020000000000FC18020000000000B5
:1041D000DE1F020000000000E0C0B3006CEBB7007F
:1041E000EC1D02000000000000000600C162A900F2
:1041F000C562A800C842A900CC42A8003E0609003A
:1042000000000000C842A900CC42A9003E060900F7
:1042100000000000686BEF00445B80000304200096
:10422000041CE1000A003600C162A900C562A800B2
:104230003E06090000000000C162A900C562A90095
:104240003E06090000000000686BEC00F2FF37003A
:10425000C162A900C562A8003E0609000000000076
:10426000C842A900CC42A8003E0609000000000098
:10427000F0C3B300B8E9B70000000600B55B8000EA
:104280004300A900728BBF00A15B8000725B8000BD
:10429000835B8000C0190200000000000100E00004
:1042A00013003A000000E000110032000500E000B9
:1042B0000E003200823E2000030020009019020010
:1042C000000000000100E00002003A000000E000F1
:1042D00062003A004300A900823E20000300200053
:1042E000C019020000000000010037005B00370029
:1042F0004300A9008200200003002000C019020032
:10430000000000000100E00013003A000000E0009F
:10431000110032000500E0000E003200823E200055
:104320000300200090190200000000000100E000DE
:1043300002003A000000E00044003A004300A900F7
:10434000823E200003002000C0190200000000008F
:10435000010037003D0037004300A9008200200023
:1043600003002000C0190200000000000100E0006E
:1043700013003A000000E000110032000500E000E8
:104380000E003200823E200003002000901902003F
:10439000000000000100E00002003A000000E00020
:1043A00026003A004300A900823E200003002000BE
:1043B000C019020000000000010037001F00370094
:1043C0004300A9004200200003002000C0190200A1
:1043D000000000000100E00013003A000000E000CF
:1043E000110032000500E0000E003200823E200085
:1043F0000300200090190200000000000100E0000E
:1044000002003A000000E00008003A004300A90062
:10441000823E200003002000C019020000000000BE
:104420000100370001003700000020008000780004
:1044300004032800040988000B003700800078007E
:104440000402280004098800070037008000780073
:104450000401280004098800030037008000780068
:1044600004002800040988008100E900E1088800B0
:10447000000006006C0BF8006E0BF900702BEF00CB
:1044800004402200945B8800440F2000A45B880055
:10449000762BEF003E210200000000000000060025
:1044A000600020009A21B70000000600800178001B
:1044B0000180FD0054C0B3000360ED000860ED0012
:1044C0001900320003007800C419DD004C00DE0042
:1044D000F000B20004003A006124E1000200320062
:1044E00003E0AE00F4FF37000003B000A203200099
:1044F0000200E100010039000240B400811F780091
:10450000831F7800841F780076EBB700B01D02008F
:10451000000000004F027800CF017800CF00780043
:1045200003E0A800E4FF37000000060001002000BF
:10453000010078000160EF00FA0A020000000000AC
:104540008100E800811F780076EBB700B01D020003
:1045500000000000CF007800B00120000008E60055
:10456000F3FF370062C9BF000160EF004170220015
:104570005622020000000000E10120000100780046
:104580000160EF00FA0A0200000000008100E8006C
:10459000811F780076EBB700B01D0200000000001C
:1045A000CF007800100220000008E600F3FF37007B
:1045B00063C9BF000160EF00217022005622020093
:1045C00000000000A0C3B30076EBB700B01D0200EE
:1045D0000000000064C9BF000160EF0021702200EC
:1045E0005622020000000000A0C3B30076EBB70023
:1045F000B01D02000000000065C9BF000160EF00AF
:10460000217022005622020000000000A0C3B30067
:1046100076EBB700B01D02000000000066C9BF00C5
:104620000160EF002170220056220200000000000D
:10463000A0C3B30076EBB700B01D0200000000007D
:1046400067C9BF000160EF002170220056220200FE
:1046500000000000A0C0B30076EBB700B01D020060
:1046600000000000D0C0B30076EBB700B01D020020
:10467000000000000000060063E0A90082E0A9003D
:1046800010C3B3006CEBB700EC1D0200000000008B
:104690006FE0A90057E0A800C962A900CD62A90097
:1046A000E0C1B30023EAB7001E8AA800A4180200E4
:1046B00000000000234AE20007003200B549A800CC
:1046C000E0170200000000000060FE007E3E0900CE
:1046D00000000000F7FF37006FE0A80057E0A900D6
:1046E000C962A900CD62A800C962A800C8E2A800FA
:1046F0001EAAA8001E8AA900236AEF0020C3B300E7
:104700006CEBB700EC1D02000000000063E0A800A5
:104710009660A8001E6AA90090012000941802006B
:1047200000000000000006001EEAA800449C2000D3
:1047300024598800A4002000441A8800181102009F
:1047400000000000240BE20014003200242BED00D6
:104750000060FE00EC0E02000000000000ABB7009D
:104760000458800043DB20000418E1000A003600F2
:10477000100F0200000000001EEAA9007E3E0900A2
:1047800000000000680BA9000000EB00680BAF0000
:104790000000E80013003700EAFF3700002BEF00AD
:1047A00050C0B30023EBB70010C0B30012EBB7004A
:1047B00012CBBF0022E9B7001A2BEF001C2BEF0031
:1047C00018110200000000001EEAA9007E3E090048
:1047D00000000000680BA8000000EB00680BAF00B1
:1047E0000000E8000000060060C0B3006CEBB700FA
:1047F000C61702000000000000000600BC170200FF
:1048000000000000A418020000000000F4230200D1
:1048100000000000C962A900CD62A800C962A8001A
:10482000FC18020000000000FC180200000000005C
:10483000BC1702000000000000000600B439200090
:10484000645B88003A2202000000000090C1B300BF
:1048500022EAB7005022020000000000A418020063
:104860000000000074492000645B88003A220200C6
:104870000000000090C1B30022EAB70050220200FD
:1048800000000000A4180200000000009474200042
:10489000645B88003A2202000000000090C1B3006F
:1048A00022EAB7005022020000000000A418020013
:1048B000000000006C2BEF003A2202000000000014
:1048C00090C1B30022EAB7000000060080FF2F006D
:1048D000A421B600B5A9A90000000600D082A90055
:1048E000D482A90003A8A9000000060094002000BB
:1048F000441A8800EC0E020000000000CAAAB700AB
:10490000A4002000441A8800EC0E02000000000001
:1049100000ABB7000458800043DB20000418E1001E
:104920000400390054568000A33620000418E1002A
:10493000020031006A0BA800010037006A0BA900D1
:104940000000EB006A0BAF000000E800000006006A
:10495000851F780010C0B3006CEBB700EC1D02009F
:10496000000000006624020000000000A4180200FD
:1049700000000000DE1F020000000000B549A90091
:10498000B569A900B589A900E01702000000000080
:104990005049E20003003A008C18020000000000B9
:1049A00002003700080F020000000000A4180200F7
:1049B000000000001811020000000000A41802000E
:1049C000000000006E24020000000000A418020095
:1049D000000000007624020000000000B1E9B700EA
:1049E00010C0B300B2E9B7005049E20003003A003A
:1049F0008C1802000000000002003700080F0200BF
:104A00000000000018110200000000006E240200E7
:104A1000000000007624020000000000B1E9B700A9
:104A20000060FE0050C0B300B0E9B7001021EF00F5
:104A30009404200064088800040228008408880088
:104A40001221EF00042720007408880004032800C6
:104A5000940888001E21EF00840C2000D4088800F0
:104A600004022800F40888002021EF00840C2000B4
:104A7000E408880004012800040988005049E20085
:104A800003003A008C18020000000000020037000A
:104A9000080F0200000000001811020000000000D2
:104AA0006E24020000000000C0E2A800C142A8007D
:104AB000C102A800C122A900C522A800D062A80096
:104AC000C8A2A800C162A800C8C2A800D082A900DC
:104AD000D482A9005049E20003003A00D0A2A90004
:104AE000D4A2A90002003700D0A2A900D4A2A80035
:104AF000D102A800D122A800C9A2A800C982A8009A
:104B0000C802A800C822A800D0E2A800D0C2A8000D
:104B1000C922A800C902A800C842A800C862A8000B
:104B2000C062A800C042A800D042A800D022A800BD
:104B3000D002A800C022A800C002A8009600A900C8
:104B40008600A9009500A9008500A90094E0A900AD
:104B500084E0A9009580A9008580A9009560A9003E
:104B6000030009002682BF008560A9009BC0A90040
:104B70008BC0A90063E0A90082E0A90070E0A80052
:104B800004402000243A88000E00FC006010200041
:104B90003174200082072000A30920008248780099
:104BA0008348780043E7B7004800DE002174200006
:104BB0006204200073052000824878008348780052
:104BC0008048780080FF2F009A21B60080FF2F00D8
:104BD000A421B6004187A8004107A90000CAB3007C
:104BE00029EBB70000CAB3002AEBB700B049E200D6
:104BF000280032000040FE00000000005807A90015
:104C00000060FE00B249E20021003A004427EF00B4
:104C10000E00FC00101020003174200082072000DC
:104C2000A3092000824878008348780043E7B70052
:104C30004800DE002174200062042000730520007B
:104C400082487800834878008048780010C0B3001C
:104C5000B2E9B7001E8AA8000060FE00000F020043
:104C600000000000080F020000000000100F02000A
:104C700000000000180F020000000000FC180200F5
:104C800000000000FE23020000000000500037007A
:104C9000D6FF3700146BEF0063E0A8009660A80011
:104CA000686BEF00445B80006824E100170031006E
:104CB0002B6BEC00274BAF0004003700C942A90062
:104CC000CD42A800274BA80005003700274BAE00B7
:104CD00003003700C942A900CD42A900274BA90013
:104CE0002BCBBF000000FB00040420000020E100EB
:104CF00001003D002B6BEF00FE03090000000000E7
:104D00000060FE00686BEC00E6FF3700C942A900B6
:104D1000CD42A90032CBBF0069EBB70063E0A90028
:104D200082E0A90069CBBF00324BE30005003A00E6
:104D30000040FE00000000005807A9000060FE00CF
:104D4000F8FF37000060FE00AC1802000000000011
:104D5000B249E200020032001ECAAE003B0037003A
:104D60004427EF000E00FC001010200031742000DA
:104D700082072000A3092000824878008348780039
:104D800043E7B7004800DE002174200062042000E1
:104D900073052000824878008348780080487800B6
:104DA00010C0B300B2E9B7001E8AA8000060FE0080
:104DB000000F020000000000080F020000000000C9
:104DC000100F020000000000180F02000000000099
:104DD000D2180200000000008200A8009400A80081
:104DE00063E0A8009660A8009BC0A8009560A8009A
:104DF0009580A800272BA90094E0A8009500A800A2
:104E00009600A8004220EF006FE0A80057E0A9003C
:104E1000C962A900CD62A800900120009418020088
:104E2000000000001E24020000000000F0C0B300DB
:104E30006CEBB700EC1D0200000000001E8AA80009
:104E40001E2BEF00B269EF005F003700844D800039
:104E50004822DE006124E10006003A0076240200C8
:104E6000000000006104E10002003A00DEFE3700AD
:104E700053003700B149E20040003A0076240200B6
:104E8000000000006104E1003C003A004427EF000C
:104E90000E00FC001010200031742000820720005A
:104EA000A3092000824878008348780043E7B700D0
:104EB0004800DE00217420006204200073052000F9
:104EC00082487800834878008048780010C0B3009A
:104ED000B2E9B7001E8AA8000060FE00000F0200C1
:104EE00000000000080F020000000000100F020088
:104EF00000000000180F020000000000D21802009D
:104F0000000000008200A8009400A80063E0A80050
:104F10009660A8009BC0A8009560A8009580A80096
:104F2000272BA90094E0A8009500A8009600A800EF
:104F30004220EF006FE0A80057E0A900C962A90075
:104F4000CD62A8009001200094180200000000002B
:104F50001E2402000000000020C0B3006CEBB7006C
:104F6000EC1D0200000000001E8AA8001E2BEF00AE
:104F7000B269EF001400370011003700844D800043
:104F80004822DE006124E10006003A007624020097
:104F9000000000000004E00002003A0092FE37002A
:104FA00007003700B149E20005003A00762402000C
:104FB000000000000004E00001003A008AFE370013
:104FC00097FE370088FE3700CF0278000000060009
:104FD000851F7800C500200003000900B51F780078
:104FE000800378008404780004F0A1000400E0004D
:104FF00006003A0009F0A700020037000500200073
:10500000170037000500200015003700E642520067
:10501000120039000003200009F0A6000002200061
:10502000801F7800811F7800829FBE00841F780057
:1050300076EBB700B01D0200000000004F027800C0
:105040004F01BE00CF0078004F0078008502E900D4
:10505000F3FF3B0055002000010037008402780078
:105060006400200005E0A00009F0A70005F0A00002
:1050700008712200110009008883D8007E280200F0
:105080000000000081037800883E20001100090024
:105090008883D8007E280200000000008103780089
:1050A00048062000110009008883D8007E280200ED
:1050B0000000000081037800A80020001100090012
:1050C0008883D8007E280200000000000003200032
:1050D00000C04000811F7800829FBE00841F7800BE
:1050E00076EBB700B01D0200000000004F02780010
:1050F0004F01BE00CF0078001D00370006032000DE
:105100000000E0000E003A0005E0A6000D003700A8
:105110000402E9000524E100020032004200AF0071
:10512000000006000000E00005003A0005E0A600CF
:105130000400370005F0A600060220000100370039
:1051400005E0A10000404300811F7800821F780025
:10515000841F780076EBB700B01D0200000000004D
:105160004F0278004F017800CF0078000000060061
:105170002501200003000900CF127800CF0278003B
:105180000000060094742000645B88003A2202004C
:105190000000000090C1B30022EAB70050220200D4
:1051A00000000000A4180200000000007449200064
:1051B000645B88003A2202000000000090C1B30046
:1051C00022EAB7005022020000000000A4180200EA
:1051D00000000000B4392000645B88003A2202001D
:1051E0000000000090C1B30022EAB7005022020084
:1051F00000000000A4180200000000006C2BEF006B
:105200003A2202000000000090C1B30022EAB70079
:10521000000006000000E0004220AF00040037005C
:105220000B000900000000000000E900FCFF3A004C
:10523000000006005960A9007160A9000000090083
:1052400000000000C8A2A800C8A2A800680BA9001E
:10525000CAA2AF00680BA8000328A800000006003F
:1052600001002000010078000160EF00400B020007
:10527000000000008100E800811F780076EBB70095
:10528000B01D020000000000CF0078006001200087
:105290000008E600F3FF370034CBBF000160EF00E9
:1052A000217022005622020000000000A0C3B300BB
:1052B00076EBB700B01D02000000000033CBBF004A
:1052C0000160EF0021702200562202000000000061
:1052D000A0C3B30076EBB700B01D020000000000D1
:1052E00032CBBF000160EF00217022005622020085
:1052F00000000000A0C0B30076EBB700B01D0200B4
:1053000000000000D0C0B30076EBB700B01D020073
:10531000000000000000060070C0B3006CEBB70096
:10532000A2170200000000000308A8000000060009
:1053300070C0B3006CEBB700C6170200000000009D
:105340000308A90000000600851F7800C5002000A2
:1053500003000900B51F7800090020004300AF00DA
:1053600019002000891F78008384680001F0A600DE
:10537000030037008180EA000000EA00E080480076
:1053800003F0A600030037008381EA000201EA006F
:10539000E081490003026900150032000002EB00C1
:1053A0008002EB000003EB008003EB00080220000A
:1053B0004200A9000080D2008180D2000482D20085
:1053C0008582D2000328E10001003A0002A0E1003A
:1053D000030039000202520083825A004200A800F2
:1053E0000683D2008783D2000804E900F0FF3A0068
:1053F00009F0A600070037000600EA0001003200AD
:1054000002003A008700EA00050037008780EA00C2
:10541000030037008700780006007800000037009E
:10542000CF0478000900E000010032000400BE0053
:105430002501200003000900CF127800CF02780078
:1054400000000600851F7800861F7800C00020003D
:10545000680BB4008002780080002000680BB40064
:105460000002780014007800950A40000400200033
:10547000D50A4A00C0002000680BB400A400200038
:10548000301A7800301A78004300A900050078002F
:10549000860078000204200003002000A4290200F6
:1054A000000000006AABB700C0002000680BB40029
:1054B000800278006A8BBF008000EB0000F0A7003C
:1054C0008080EB0015027800800A520055027800B7
:1054D000810A5A00A0002000680BB4008002780006
:1054E0006A8BBF0000F0A600030037000400200014
:1054F000535B800003005200800A78004F0378005D
:10550000CF02780000000600851F7800445B800011
:10551000E502420005027800A30020001100090006
:105520000382D80068ABB700445B80006A20B800F3
:1055300068ABB700680BF8000000F900CF027800F4
:105540000000060072ABEF006C0BF8006E0BF90068
:10555000702BEF00720BE2002E003200722BED0078
:10556000745B8000F37022000418E1000200310037
:1055700000A0EF0029003700745B8000833E20000C
:105580000418E10008003E00745B8000843EB10016
:10559000745B880004002100835B8000048041006C
:1055A00070ABB7001A003700745B80004306200020
:1055B0000418E10008003E00745B80004406B1005E
:1055C000745B880004102000835B8000048041002D
:1055D00070ABB7000E003700745B80006A20E100FA
:1055E00007003900745B80006A0052006EABB700A0
:1055F000845B80007000420070ABB700040037008D
:10560000708BBF006E0BB40070ABB70001003700A9
:10561000D0FF3700700BF8000000F9000000060012
:10562000851F78002C0BF800680BF900842A020013
:10563000000000002CABB7002E2BEF002C0BF80065
:10564000680BF900842A0200000000008002780044
:10565000655B8800A22A02000000000000A0B700DD
:10566000CF02780000000600851F7800861F7800B2
:10567000C0002000680BB400800278008000200089
:10568000680BB4000002780014007800950A40000E
:1056900004002000D50A4A00C0002000680BB400B6
:1056A000A4002000301A7800301A78004300A900C6
:1056B000050078008600780002102000030020001A
:1056C000A4290200000000006AABB700C00020005F
:1056D000680BB400800278006A8BBF008000EB008A
:1056E00000F0A7008080EB0015027800800A5200CD
:1056F00055027800810A5A00A0002000680BB4000F
:10570000800278006A8BBF0000F0A600030037001B
:1057100004002000535B800003005200800A7800E0
:105720004F037800CF02780000000600851F780044
:10573000C500200003000900B51F78000202B80070
:1057400003F0A600020037000383B9000100370010
:105750000303B8004200A9008502430060844B00A7
:1057600001F0A60002003700028BB90001003700EB
:10577000020BB80085024B0008844B000980B00082
:10578000038BB90008044B0087834C008701780025
:1057900008017800850078000400780025012000C9
:1057A00003000900CF127800CF0278000000060045
:1057B000F0CFB3006BEBB70068CBBF0069EBB7006D
:1057C0006A6BEF006B4BE200120032006B6BED0076
:1057D000445B80004822DE006A24E10008003900B2
:1057E000445B80004822DE006A40520069EBB7004B
:1057F000545B8000704042006AEBB7000400370041
:105800006ACBBF00694BB4006AEBB70001003700F8
:10581000ECFF37006ACBBF0000E0B70000000600D5
:10582000851F7800696BEF00DBC9BF00FC49E3000E
:1058300008003A00696BEC00445B80004822DE00FF
:105840006A24E10003003E007E3E090000000000E3
:10585000F5FF3700E44F80000960EF00C39D200092
:1058600003004200445B800000429000445B8800DB
:10587000E44F80000960EF00E10242007FC0620057
:10588000FCE9B70068CBBF0000E0B700CF027800AA
:1058900000000600851F7800686BEF00445B800005
:1058A0007F24E10007003E00445B80000960EF00B8
:1058B00023B4200083024200804AEB00686BEC00B6
:1058C000F6FF3700CF02780000000600851F780041
:1058D000888BBF001004E00019003200880BF8002C
:1058E0008C0BF9008A0BF8008E0BF9008E8BBF0031
:1058F0001004E0000A0032008C8BBF009042780058
:105900008E8BBF000002780014407800002CE1006C
:1059100003003A008C2BEC008E2BEC00F3FF3700D9
:105920008E8BBF001004E00003003A00880BF800E3
:105930000000F90003003700882BEC00E4FF37007B
:105940000020EF00CF02780000000600851F7800DD
:10595000045A80004822DE007420B80080027800DB
:105960000501780081B6200002007800BC09020021
:1059700000000000805878000201E8000004E00008
:105980004220AE00F8FF3700E49F2000445C88000E
:1059900084B62000545C8800662C020000000000E1
:1059A000800278000500E0000400320010C0B3005F
:1059B00000E0B70003003700020037000060EF008E
:1059C00000003700CF0278000000060030C0B300AE
:1059D0006CEBB700EC1D02000000000000000600A8
:1059E000851F7800686BEF00445B80007F24E10036
:1059F00007003100445B80000960EF00E39F200056
:105A000083024200804AEB00686BEC00F6FF37002F
:105A10001E0AA900FD69EF00CF0278000000060011
:105A200000000600851F78004A2C020000000000DC
:105A3000416BEF00A62C0200000000006104E100B1
:105A40000F003A0030C3B3006CEBB700EC1D02004E
:105A500000000000EC1F020000000000FC18020023
:105A600000000000C942A900CD42A900A00020000A
:105A700094180200000000000000FE00B200370091
:105A800010C0B30041EBB700A62C020000000000DC
:105A90006104E10005003A00E62C0200000000006D
:105AA000F02C020000000000A700370020C0B30067
:105AB00041EBB700A62C0200000000006104E100E9
:105AC00007003A00102D020000000000E62C020042
:105AD00000000000F02C0200000000009A003700D7
:105AE00040C0B30041EBB700A62C0200000000004C
:105AF0006104E10005003A00E62C0200000000000D
:105B0000F02C0200000000008F003700D0C0B3006E
:105B100041EBB700A62C0200000000006104E10088
:105B200005003A00E62C020000000000F02C020004
:105B30000000000084003700E0C0B30041EBB70074
:105B4000A62C0200000000006104E10005003A00FC
:105B5000E62C020000000000F02C02000000000013
:105B60007900370060C0B30041EBB700A62C0200FB
:105B7000000000006104E10005003A00E62C02008C
:105B800000000000F02C0200000000006E00370052
:105B900050C0B30041EBB700A62C0200000000008B
:105BA0006104E10005003A00E62C0200000000005C
:105BB000F02C02000000000063003700A0C0B3001A
:105BC00041EBB700A62C0200000000006104E100D8
:105BD00005003A00E62C020000000000F02C020054
:105BE0000000000058003700B0C0B30041EBB70020
:105BF000A62C0200000000006104E10005003A004C
:105C0000E62C020000000000F02C02000000000062
:105C10004D003700F0C0B30041EBB700A62C0200E6
:105C2000000000006104E10006003A004006200088
:105C30009418020000000000F02C02000000000098
:105C40004100370000C1B30041EBB700A62C0200B1
:105C5000000000006104E10003003A00F02C0200A3
:105C6000000000003800370010C1B30041EBB7005E
:105C7000A62C0200000000006104E10003003A00CD
:105C8000F02C0200000000002F00370020C1B300FC
:105C900041EBB700A62C0200000000006104E10007
:105CA00003003A00F02C020000000000260037003C
:105CB00030C1B30041EBB700A62C02000000000089
:105CC0006104E10003003A00F02C02000000000033
:105CD0001D00370001002000010078000160EF0086
:105CE000DC0A0200000000008100E800811F78004B
:105CF00076EBB700B01D020000000000CF00780076
:105D0000D00020000008E600F3FF3700E19F2000EC
:105D10001104E00008003200811F7800014090006B
:105D200076EBB700B01D020000000000CF00780045
:105D30008100E800F6FF3700E62C020000000000BA
:105D4000F02C020000000000CF02780000000600E6
:105D50000FE52000F0FF200020A0B70000000000A9
:105D60004044240020058800404426003005880077
:105D700050442400400588007044250060058800D8
:105D800081E0A90000802000E13F2000018009009F
:105D90000018EB004427EF000028EF000400280063
:105DA0000411880004402000141188002062A8001B
:105DB0002402200044118800CD22A90007E2A80097
:105DC00007A2A80006C2A8000762A90006E2A80070
:105DD0000702A8000722A8000742A90084062000A5
:105DE0005410880074002000641088002021EF0007
:105DF000F4E72300E4088800040028000409880070
:105E000004F42100040D880004C02000D40C880094
:105E1000F4002000E40C88001E21EF00F4E72300CA
:105E2000D408880004002800F408880004F4210045
:105E3000540D880004802000240D8800E400200018
:105E4000340D8800B969EF00DA69EF00DB69EF0013
:105E5000FC69EF00202AEF0030C0B30040EBB70030
:105E6000E024EF00E224EF00E424EF006E003700AE
:105E7000C0060800040000004BF03F005C0A580018
:105E8000F63B8F0000C03C008B28AC003CBEF60007
:105E90003FD2D50044168C0015D7BF0069005A00C8
:105EA0002E1B8700993F9A005FAD4B0091E40100E3
:105EB000C05D11002F92E40081FB3F0038DA9100B1
:105EC000809DC500E0BF6F0012C0B400C309AB00E5
:105ED0003F6BC100034EC100B545BF00F740050050
:105EE000FF005A00EF3FF300A3E2F700D7FF0100E5
:105EF00040C0B400FF053C0058FC3F003BD3C0004D
:105F0000B5BA8C00E23F3900D3C73D004179B200F9
:105F10003F870D003C50D000AF623F00304B8D00FA
:105F2000A282AA0004400900A0404A0005760300AE
:105F300040EC9E003788A60044F03F008F128D0091
:105F4000299A5B00C73F0E00E0807C00A1D8860044
:105F50003F294B00FB95C200371A3F0080680800BC
:105F6000BA677D00917DB5007DFA7D00FD7D010061
:105F70007E057E00097E0D007E117E00157E1A00D2
:105F80007E1F7E00247E29007E5A7E00A17ED100E5
:105F90007EE47E00E77EEB007E117F00397F5C00AF
:105FA0007F6C7F00927F9A007F9F7F00BB7F5200B3
:105FB000807A80009180DA008026810053818600FB
:105FC00081B08100C381E10081FF81001B82290033
:105FD000823682004882760082CD8200F4820A00F6
:105FE000833E83009283B60083DA830000000000C2
:105FF0000201E8006110E10004003A009101BA00DA
:106000003182BA0006C0BF00000006006210E10045
:1060100002003A0007C0BF000000060008C0BF0031
:106020000001EB0000000600060020000000200038
:106030009001880080F32200800078000001EB00CE
:10604000F82F0200000000000BE0B700F82F02005C
:10605000000000000AE0B7000500E000190032006F
:1060600005F0A60007003700F82F0200000000002E
:106070000DE0B700F82F0200000000000CE0B700B0
:1060800005F0A10005E0A6000800370005E0A1002A
:106090008502E900F82F020000000000804378002C
:1060A00005800900075B7800E5FF3700F82F020044
:1060B00000000000005B78008502E900FBFF3A0069
:1060C000DFFF3700421702000000000070E0A80068
:1060D0006FE0A80057E0A900C962A900CD62A8003E
:1060E000BC17020000000000D082A800C0E2A80097
:1060F000C942A800C962A800C802A800C822A80016
:10610000D0E2A800D0C2A800C922A800C902A800F5
:10611000B549A800B569A800B589A800E017020034
:10612000000000007E180200000000008C18020031
:1061300000000000181102000000000040A7A800A5
:1061400040A7A800A418020000000000BC1702002D
:1061500000000000C962A900CD62A800C962A800C1
:10616000C142A900C542A9003226EF005627EF0020
:1061700041E2A90040C2A9004222EF0041E2A8008A
:106180005627EF00AC18020000000000D2180200F1
:10619000000000000421EF002174200062042000B0
:1061A0007305200082487800834878004227A800C1
:1061B000040820001408880024032C002408880008
:1061C000A4002000441A8800EC0E02000000000029
:1061D00000ABB7000458800073CF20000418E10022
:1061E0001100360042170200000000008C18020067
:1061F000000000001811020000000000200F020043
:10620000000000000060FE00FC180200000000001A
:10621000A4002000441A8800EC0E020000000000D8
:1062200000ABB700EBFF3700000F020000000000DA
:10623000180F0200000000000300200004002000EE
:1062400025002000041902000000000066ABB70022
:1062500066CBBF0046E9B70067CBBF0047E9B70090
:106260001C1902000000000079C9BF004BE9B7000B
:106270007AC9BF004CE9B70085C9BF0050E9B70033
:1062800081C9BF0052E9B70080C9BF0051E9B7001A
:106290008EC9BF005FE9B70083C9BF005CE9B700E2
:1062A00082C9BF005BE9B70084C9BF005EE9B700DF
:1062B0005EC9BF006AEBB70066190200000000006B
:1062C000B7E9B7001E8AA800272BA9002A6BEF00A8
:1062D000296BEF008200A8009400A80063E0A800EA
:1062E0009660A8009BC0A8009560A8009580A800B3
:1062F0009460A800272BA90094E0A8009500A800AE
:106300009600A8004220EF00181B020000000000C9
:106310000600FC006176200052052000820878000B
:10632000A30A20008308780027A6A8002174200073
:1063300062042000730520008248780083487800BA
:106340004227A8000400280034318800FC22A9005C
:1063500027A6A900A418020000000000FC180200F3
:1063600000000000044C8000F4CFB20006003A00A8
:1063700047C9BF0051E9B70051C9BF0080E9B70064
:10638000061C020000000000626BEF00145B80003E
:1063900003042000041CE10005003600521C02002A
:1063A0000000000028EBB700626BEC00F7FF37003D
:1063B000445980006224E1000E003A00A01C020053
:1063C00000000000E0C0B3006CEBB700EC1D020061
:1063D00000000000D0C1B3006CEBB700EC1D020060
:1063E00000000000E0C0B3006CEBB700EC1D020041
:1063F00000000000445980006324E10002003A00DC
:10640000EC1F020000000000F62002000000000067
:106410003C6BEF00000F020000000000080F0200BC
:1064200000000000181102000000000010C0B300BE
:1064300012EBB70012CBBF0022E9B7001A2BEF0016
:106440001C2BEF0050C0B30023EBB700002BEF0074
:1064500018110200000000001EEAA900200F02002F
:1064600000000000A4180200000000001E4AA9005D
:106470001E6AA900C0C1B3006CEBB700EC1D02009E
:10648000000000006C6BEF00EC1D0200000000003B
:1064900001002000010078000160EF00740B020091
:1064A000000000008100E800811F780076EBB70053
:1064B000B01D020000000000CF007800D0012000D5
:1064C0000008E600F3FF370046C9BF0076EBB700CF
:1064D000B01D020000000000010220000100780051
:1064E0000160EF00740B0200000000008100E80072
:1064F000811F780076EBB700B01D0200000000009D
:10650000CF007800400320000008E600F3FF3700CA
:1065100047C9BF0076EBB700B01D020000000000C5
:10652000E0C1B3006CEBB700EC1D020000000000FE
:10653000844A80004822DE0064C4B20004003200B5
:10654000844A80004822DE0014C5B20005003A00EB
:1065500090C1B3006CEBB700EC1D0200000000001E
:1065600004003700A0C1B3006CEBB700EC1D0200C3
:1065700000000000B0C1B3006CEBB700EC1D0200DE
:106580000000000000C3B30048E9B700B269EF00A3
:106590001E2BEF00DE1F020000000000B549A9001D
:1065A000B569A900B589A900E01702000000000044
:1065B000F620020000000000B4202000645B880088
:1065C0003A2202000000000090C1B30022EAB700A6
:1065D0005022020000000000A41802000000000089
:1065E00034292000645B88003A2202000000000089
:1065F00090C1B30022EAB700502202000000000060
:10660000A418020000000000845C2000645B880085
:106610003A2202000000000090C1B30022EAB70055
:106620005022020000000000A41802000000000038
:10663000B4392000645B88003A22020000000000A8
:1066400090C1B30022EAB70050220200000000000F
:10665000A4180200000000000060FE00E017020025
:1066600000000000844A80004822DE0064C4B200BA
:1066700004003200844A80004822DE0014C5B200C3
:1066800002003A00B5E9A80001003700B5E9A90009
:10669000945880006124E10004003200F6200200DA
:1066A00000000000200F020000000000B5E9AE006D
:1066B0000800370084558000038A20000418E10098
:1066C00004003100F620020000000000200F02004C
:1066D00000000000B5E9AE000800370084558000D6
:1066E000036E20000418E10002003900B569A8001B
:1066F00001003700B569A900070037008455800004
:10670000438620000418E10002003900B569A800A2
:1067100001003700B569A90062C9BF000160EF0040
:10672000E10260006128E1001A003A00B5C9AF003B
:1067300018003700B5C9A80096220200000000002A
:106740008D49E2001200320062C9BF0088E9B7003B
:1067500063C9BF0089E9B70064C9BF008AE9B7000F
:1067600065C9BF008BE9B70066C9BF008CE9B700F7
:1067700067C9BF008DE9B700061C020000000000D9
:10678000F0C1B3006CEBB700EC1D0200000000008C
:106790000C00370062C9BF000160EF00E102600039
:1067A0000500E00007003A00B5C9AE00050037005B
:1067B000B5C9A90000C2B3006CEBB700EC1D020024
:1067C000000000004429EC00B5E9AE002F003700BE
:1067D000945880006224E1002B003A001ECAAE00EB
:1067E00029003700E45880006020E10026003900CD
:1067F00003003E00D45880006F20E10022003600E4
:106800001E6AAF002000370084558000236C2000F2
:106810000418E1001C00360010C2B3006CEBB70096
:10682000EC1D0200000000001A2BEF001C2BEF00F3
:106830003C2302000000000094230200000000003E
:106840006104E1000E003A00FC18020000000000A4
:10685000FE230200000000001E24020000000000D1
:1068600020C2B3006CEBB700EC1D0200000000007A
:106870001E8AA8001E2BEF00B269EF002205370028
:10688000A8240200000000002E0037009458800069
:106890006224E1002B003A001ECAAE002900370036
:1068A000E45880006020E1002600390003003E002B
:1068B000D45880006F20E100220036001E6AAF002D
:1068C0002000370084558000D37E20000418E100AA
:1068D0001C00360030C2B3006CEBB700EC1D0200A8
:1068E000000000001A2BEF001C2BEF003C230200DD
:1068F0000000000094230200000000006104E10099
:106900000E003A00FC18020000000000FE23020006
:10691000000000001E2402000000000020C2B3009E
:106920006CEBB700EC1D0200000000001E8AA800FE
:106930001E2BEF00B269EF00F3043700A824020019
:1069400000000000544A80004822DE00E30F2000CF
:10695000041CE10051003900945880006224E100D9
:106960004E003A001ECAAE004C0037004BC9BF00B3
:106970000160EF00C40320000400B800C003B000B1
:10698000E45880006020E1004400390003003E002C
:10699000D45880000020E100400036001E6AAF009D
:1069A0003E0037004BC9BF000160EF00C403200068
:1069B0000400B800C403200084024000010020004D
:1069C000010078000160EF00B60B0200000000003B
:1069D0008100E800811F780076EBB700B01D02004F
:1069E00000000000CF007800B00120000008E600A1
:1069F000F3FF37000500780004002000E8270200BC
:106A000000000000F1012000010078000160EF00AB
:106A1000B60B0200000000008100E800811F780032
:106A200076EBB700B01D020000000000CF00780038
:106A3000600220000008E600F3FF37001A2BEF0089
:106A40001C2BEF003C2302000000000094230200F6
:106A5000000000006104E1000E003A00FC18020092
:106A600000000000FE230200000000001E240200BF
:106A70000000000020C2B3006CEBB700EC1D020068
:106A8000000000001E8AA8001E2BEF00B269EF0074
:106A90009D043700A8240200000000001E6AAE001A
:106AA0000A003700C22802000000000040C2B30004
:106AB0006CEBB700EC1D0200000000003C2302005C
:106AC00000000000A824020000000000F45880002C
:106AD000A30520000418E10006003E0050C2B300E8
:106AE0006CEBB700EC1D020000000000A8240200BF
:106AF000000000001ECAAF0005003700B549A8001D
:106B0000E0170200000000001E8AA8002F003700D6
:106B10001ECAAE002D0037001E8AAE002B003700C3
:106B20001E4AA9001E8AA9007E3E0900000000003E
:106B30001EEAA800449C200024598800A4002000DC
:106B4000441A88001811020000000000240BE20023
:106B500010003200242BED000060FE00EC0E02005D
:106B60000000000000ABB7000458800043DB2000A9
:106B70000418E10006003600100F020000000000BB
:106B80001EEAA9007E3E0900000000000100370057
:106B9000EEFF3700002BEF0050C0B30023EBB7002F
:106BA00010C0B30012EBB70012CBBF0022E9B70050
:106BB0001A2BEF001C2BEF00181102000000000040
:106BC0001EEAA9007E3E09000000000094588000E3
:106BD0006224E1004A003200234BE20048003A0000
:106BE000C45880006020E1004500390003003E00E9
:106BF000B45880006F20E100410036001ECAAE008C
:106C00003F003700B5E9AE000A0037008455800028
:106C1000438620000418E10006003100200F020026
:106C200000000000F6200200000000000060FE00EE
:106C300033003700B5E9AF00090037000328AF0083
:106C40000700370084558000F39820000418E10005
:106C500003003600945880006224E1000B003A00E3
:106C6000B5E9AE00260037000328AF002400370046
:106C700084558000D37E20000418E10020003600F7
:106C8000945880006224E1001D003200F6200200CA
:106C9000000000007E3E09000000000010C0B300AC
:106CA00062EBB700145B8000A30F2000041CE1001E
:106CB0000E00390062CBBF000160EF000A2902001C
:106CC00000000000200F02000000000062CBBF00A7
:106CD0000160EF000A290200000000001A290200EA
:106CE00000000000626BEC00EEFF37001A29020082
:106CF0000000000090012000941802000000000035
:106D00000328AB00640BAF004220AA00150032003C
:106D1000640BA9000328AF00640BA8004269EF00D0
:106D20000328AF004269EC0010C1B3006CEBB70060
:106D3000EC1D0200000000000328AE000500370033
:106D400020C1B3006CEBB700EC1D02000000000096
:106D50000400370030C1B3006CEBB700EC1D02003B
:106D600000000000E45980006224E1000F003A00B6
:106D70003C6BEF00E0C0B3006CEBB700EC1D020011
:106D80000000000000C1B3006CEBB700EC1D020076
:106D9000000000003029020000000000E0C0B30045
:106DA0006CEBB700EC1D02000000000012CBBF002E
:106DB000134BE3002100320012CBBF0013EBB700EE
:106DC000945880006224E1000D003A00B43920009C
:106DD000645B88003A22020000000000A0C0B300FB
:106DE00022EAB700502202000000000060C2B30097
:106DF0006CEBB700EC1D0200000000000F00370034
