:080F8000C42F04000000000072
:080FC800D00D04000000000040
:080FE00084120400000000006F
:10100000BA0F0400000000007C0D04000000000086
:10102000BC0C040000000000260C040000000000BE
:08104800861404000000000002
:081060003E0E04000000000038
:0810B800020D0400000000001D
:0810C0006A0C040000000000AE
:0811B800480D040000000000D6
:081378003220EF0043102000B9
:101380008301500005003100839D20000080410052
:101390001040BA000160EF0000000600809D2000B0
:1013A00083814100808141001380BA000000060063
:1013B0004046400041434100544F440052593100DF
:1013C000000000000000000000000000000000001D
:1013D00000000000000000004056000045520000E0
:1013E000534900004F4E00000000000000000000C4
:1013F00000000000000000000000000000000000ED
:1014000040534000544141005455440053003200C1
:1014100000000000000000000000000000000000CC
:101420000000000000000000404100004E54000099
:101430004D5000000000000000000000000000000F
:10144000000000000000000000000000000000009C
:10145000405040004D0042000000450000004500A3
:10146000000050000000000000000000000000002C
:101470000000000000000000405200005049000041
:10148000000000000000000000000000000000005C
:10149000000000000000000000000000000000004C
:1014A000404240004154520000004500000044000A
:1014B0000000200000004F0000004E00000000006F
:1014C00000000000000000004050000057520000E3
:1014D000494E0000464F0000204F00004E00000023
:1014E00000000000000000000000000000000000FC
:1014F0004050400057525200494E4500464F44006C
:10150000204F200046464F000000460000004600E5
:101510000000000000000000404C0000505200009D
:1015200053540000410000000000000000000000D3
:1015300000000000000000000000000000000000AB
:1015400040544000494D420045004C000000550009
:10155000000045000000200000004F0000004E0089
:101560000000000000000000404400004154000062
:101570004500000000000000000000000000000026
:10158000000000000000000000000000000000005B
:10159000405240005443420043464C000000550076
:1015A000000045000000200000004F000000460041
:1015B00000004600000000003220EF0083AE200053
:1015C000008041001040BA000160EF0000000600FA
:1015D0000A0D00004261000064200000436F00001B
:1015E0006D6D0000616E0000643A0000257300001C
:1015F000000000003220EF00A30220008301500011
:101600000500310063B12000008041001040BA00A5
:101610000160EF000000060060B1200083814100FE
:10162000808141001380BA00000006000A0D780096
:1016300055503A005320250050493000636F320066
:101640002053780074613A007274250020543000F1
:10165000696D32006520780053743A00616D250091
:10166000703A300025783200202D78003E200A00A4
:1016700025300D00327800003A250000303200009D
:101680003220EF00C3B42000008041001040BA00B7
:101690000160EF00000006000A0D00005550000038
:1016A0005320000050490000636F000020530000E9
:1016B000747200007563000074200000546900001B
:1016C0006D6500003A25000030320000783A0000D5
:1016D00025300000327800003A250000303200004A
:1016E000780A00000D0000003220EF0063022000A5
:1016F000830150000500310003B920000080410043
:101700001040BA000160EF000000060000B92000A0
:1017100083814100808141001380BA0000000600EF
:101720000A0D4C0055506F00532061005049640071
:10173000636F650020487200563320002E3056003B
:101740000A0D65005043720042207300566569001F
:1017500072736F00696F6E006E3A3A002543250080
:101760000A0D4300426F00006F7400003220EF004A
:1017700023BC2000008041001040BA000160EF004F
:10178000000006000A0D0000546900006D650000AD
:10179000642000004653000053440000204600002F
:1017A0005353000044200000555000005320000017
:1017B00050490000636F0000203A0000254C0000F3
:1017C0005520000073650000636F00006E64000028
:1017D000730000003220EF0003022000830150005C
:1017E0000500310063C02000008041001040BA00B5
:1017F0000160EF000000060060C02000838141000E
:10180000808141001380BA00000006000A0D6F00BD
:101810004261200074743A006572250079207500D9
:10182000527520006E6E7300696E6500672063005C
:1018300074696F006D656E002075640070647300DC
:101840006174000065640000207400008580A900B8
:101850004200F8003600F8003200F800801F7800DF
:10186000200020000C000900B01F7800B9C9BF009B
:10187000DA49E3000F003200D44E80000960EF0027
:10188000A39B2000030042009042780005407800AE
:101890002302AE00FEFF370024E2B7002562EF000E
:1018A000D44E80000960EF00E10242007FC0620078
:1018B000DAE9B700A00120000C0009004F10780001
:1018C0004F0078003200F9003600F9004200F900BC
:1018D0000040060087E0A9004200F8003600F8004A
:1018E0003200F800801F7800200020000C00090062
:1018F000B01F7800DBC9BF00FC49E3000F003200D5
:10190000E44F80000960EF00C39D20000300420007
:1019100090427800054078002302AE00FEFF3700B9
:1019200024E2B7002562EF00E44F80000960EF0079
:10193000E10242007FC06200FCE9B700A001200084
:101940000C0009004F1078004F0078003200F900B9
:101950003600F9004200F900004006002202AE0005
:10196000FEFF37002202F8000008F9003011800065
:101970002222A900000006004200F8003600F8000C
:101980003200F800801F7800200020000C000900C1
:10199000B01F7800E44F80004822DE00E39F200063
:1019A00083024200AE0C020000000000804A780072
:1019B000FDC9BF00E4EBB700E44F80004822DE0021
:1019C000E10242007FC06200FDE9B700FDC9BF002F
:1019D0001E4AE30002003A00E4CBBF00FDE9B70075
:1019E0008560A900A00120000C0009004F107800BC
:1019F0004F0078003200F9003600F9004200F9008B
:101A0000004006004200F8003600F8003200F800FE
:101A1000801F7800200020000C000900B01F780013
:101A2000F45080004822DE0003A22000830242001E
:101A3000AE0C020000000000804A78001FCABF0000
:101A4000E6EBB700F45080004822DE00E1024200DD
:101A50007FC062001FEAB7001FCABF00404AE30010
:101A600002003A00E6CBBF001FEAB70087C0A9001A
:101A7000A00120000C0009004F1078004F007800F2
:101A80003200F9003600F9004200F900004006007B
:101A90004200F8003600F8003200F800801F78009D
:101AA000200020000C000900B01F7800000000009A
:101AB0008BC0A900A00120000C0009004F10780085
:101AC0004F0078003200F9003600F9004200F900BA
:101AD00000400600664AE20002003200666AED003D
:101AE00004003700664AE20002003A0080FF2F003F
:101AF0009A21B600000006004200F8003600F80007
:101B00003200F800801F7800200020000C0009003F
:101B1000B01F78006A0D020000000000744BE20064
:101B200002003200746BED00140037006F6BEC00A4
:101B30006B4BAF0004003700C942A900CD42A8009A
:101B40006B4BA800050037006B4BAE00030037005D
:101B5000C942A900CD42A9006B4BA9006FCBBF00C1
:101B60000000FB00040420000020E10001003D0013
:101B70006F6BEF0040C1B30074EBB7008500A900A4
:101B8000A00120000C0009004F1078004F007800E1
:101B90003200F9003600F9004200F900004006006A
:101BA0004200F8003600F8003200F800801F78008C
:101BB000200020000C000900B01F7800745B80003A
:101BC0006A24E1000100310011003700C8E2A800DA
:101BD000CAE2AE00020037006E6BEF000C00370067
:101BE000944D80006124E10003003A006E6BEF0029
:101BF000B269EF0006003700626AAF0003003700E9
:101C000062CAAE0001003700626AA8006E6BEF0086
:101C10008400A900A00120000C0009004F107800EA
:101C20004F0078003200F9003600F9004200F90058
:101C300000400600851F780062C9BF000160EF0008
:101C4000E10260006128E10001003A00B589A800C6
:101C5000CF02780000000600851F780062C9BF002F
:101C60000160EF00E10260006128E10001003A003C
:101C7000B589A900CF027800000006004200F800F4
:101C80003600F8003200F800801F780020002000A5
:101C90000C000900B01F7800645B80004822DE0061
:101CA0006A24E1000100310027003700586BEC0086
:101CB000B45A80006224E1001000320040C0B3003A
:101CC0006AEBB7006B0BAF00050037006B0BA80089
:101CD000B549A8001A0E02000000000006003700F7
:101CE0006B0BAE00040037006B0BA900B549A900CF
:101CF0002C0E02000000000011003700B45A8000D2
:101D00006224E1000E003A006A4BE200010032005A
:101D10006A6BED006A4BE20006003A0040C0B30077
:101D20006AEBB700B549A8001A0E020000000000D7
:101D300003003700B549A9002C0E02000000000086
:101D40006D6BEF00000000008660A900A00120007C
:101D50000C0009004F1078004F0078003200F900A5
:101D60003600F9004200F90000400600851F7800A7
:101D7000861F780000012000E80BB40010427800B4
:101D80006624E10026003100E88BBF009002780055
:101D900020002000E80BB400000278001400780056
:101DA0000028E1000500310020002000E80BB4000D
:101DB00080027800E88BBF00900A7800E88BBF00B3
:101DC0009002780040002000E80BB4000002780088
:101DD000140078000500E1000500310040002000FB
:101DE000E80BB40080027800E88BBF00900A78000E
:101DF00060002000E80BB40080027800E88BBF0090
:101E00000002780014007800950A400000012000CC
:101E1000E80BB40080027800954AE80030003700F3
:101E200060002000E80BB400800278002000200051
:101E3000E80BB40000027800140078001502780066
:101E4000800A520060002000E80BB4008002780095
:101E500040002000E80BB400000278001400780075
:101E600015027800800A520080002000E80BB400C0
:101E70008002780060002000E80BB40010037800B6
:101E80004230DE00800A780000012000E80BB40038
:101E900080027800804AEB0040002000E80BB4008C
:101EA00080027800804AEB0000C0B30090429800A6
:101EB00020002000E80BB4008002780080CAEB000C
:101EC000F0C0B3009042980060002000E80BB4001E
:101ED00080027800804AEB0000C0B3009042980076
:101EE0004F037800CF0278000000060085A0A9000B
:101EF0004003A9004023A80085A0AE00FEFF3700E4
:101F00004003AE00FEFF37000083BF0000A0B70013
:101F100000000600C122A900C522A8000348A800AD
:101F200000000600D0A2A900D4A2A8000368A8005F
:101F300000000600C102A900C502A8000388A8008D
:101F400000000600D082A900D482A80003A8A8003F
:101F5000000006005960A9007160A8000000090097
:101F600000000000C8A2A900CCA2A8000328A90074
:101F7000000006004200F8003600F8003200F800C9
:101F8000801F7800200020000C000900B01F78009E
:101F9000745B80007024E100010031006E6BEC0086
:101FA000645B80004822DE007024E1000100310003
:101FB0006D6BEC0062EAAE0001003700D70037001D
:101FC0006B2BAE00090037004003AE00FEFF370068
:101FD0000003F800D80AF90084AD2000445F8800AF
:101FE000B60E0200000000006B2BA900754BE2004A
:101FF00002003200756BED0004003700754BE20003
:1020000002003A0070C0B30075EBB7004823EF0040
:10201000760F0200000000006CAAB700C4A62000E2
:10202000445F8800B60E020000000000140020008B
:10203000441A8800760F0200000000007EAAB70054
:10204000E4A72000445F8800B60E020000000000F4
:1020500064002000441A8800760F0200000000008F
:1020600090AAB70004A92000445F8800B60E0200C1
:1020700000000000A45B80004822DE006724E1002D
:102080000B003A00D062A900D462A90074002000BD
:10209000441A8800760F020000000000A2AAB700D0
:1020A00024AA2000445F8800B60E02000000000051
:1020B000A45B80004822DE006624E1000B003A00A9
:1020C000D062A900D462A80074002000441A8800DD
:1020D000760F020000000000B4AAB70044AB200055
:1020E000445F8800B60E020000000000A45B800080
:1020F0004822DE006524E1000B003A00D062A9000E
:10210000D462A90084002000441A8800760F0200DF
:1021100000000000C6AAB70064AC2000445F88003D
:10212000B60E020000000000A45B80004822DE0022
:102130006424E1000B003A00D062A900D462A80038
:10214000D4002000441A8800760F0200000000002E
:10215000EAAAB700A4AE2000445F8800B60E0200D1
:1021600000000000A45B80004822DE006324E10040
:102170000B003A00D062A900D462A900D40020006C
:10218000441A8800760F020000000000FCAAB70085
:10219000C4AF2000445F8800B60E020000000000BB
:1021A000A45B80004822DE006224E10009003A00BE
:1021B00094002000441A8800760F020000000000FE
:1021C0000EABB700E4B02000445F8800B60E0200FA
:1021D00000000000A45B80004822DE006124E100D2
:1021E00009003A00E4002000441A8800760F02003B
:1021F0000000000020ABB70004B22000445F88005C
:10220000B60E020000000000754BE20009003A0023
:10221000B4002000441A8800760F0200000000007D
:1022200032ABB70024B32000445F8800B60E020032
:1022300000000000A4002000441A8800760F02006D
:102240000000000044ABB70044B42000445F8800A5
:10225000B60E020000000000D062A900D462A800FF
:1022600084002000441A88004003A9004023A800ED
:102270006B2BA800628AAE000B0037008A0F0200A9
:1022800000000000920F0200000000009A0F020000
:1022900000000000A20F020000000000AA0F0200D0
:1022A000000000001D003700245A800043DB20009E
:1022B0000418E10019003900B45A80006224E100DA
:1022C0001600320062CAAE00140037008A0F020006
:1022D00000000000920F0200000000009A0F0200B0
:1022E00000000000AA0F02000000000020C0B300A0
:1022F00056EBB70056CBBF0022E9B70050C0B30081
:1023000066EBB7005E2BEF00602BEF00843E2000F1
:10231000245B8800676BEF000000370000000000BE
:1023200084E0A900A00120000C0009004F107800F3
:102330004F0078003200F9003600F9004200F90041
:1023400000400600C102A900C502A9000388A90037
:102350000000060062EAA800449C2000445B88005C
:10236000A4002000441A8800A2110200000000000E
:10237000680BE2000E003200682BED00760F0200C1
:102380000000000044ABB7000060FE00245A80004B
:1023900043DB20000418E100040036009A0F02001D
:1023A0000000000062EAA9000D003700F0FF3700CE
:1023B000442BEF0050C0B30067EBB70010C0B30070
:1023C00056EBB70056CBBF0022E9B7005E2BEF00FB
:1023D000602BEF00A21102000000000062EAA900D9
:1023E00000000600C44D80006A24E10001003100B5
:1023F00021003700B869ED0010C0B300EAEBB70068
:10240000C162A900C562A900C842A900CC42A800C7
:102410003E06090000000000C842A900CC42A90005
:102420003E06090000000000EA4BE2000A0032000C
:10243000C162A900C562A8003E06090000000000B4
:10244000C162A900C562A9003E06090000000000A3
:10245000EA6BED00F4FF3700C162A900C562A90074
:102460003E06090000000000C842A900CC42A800B6
:102470003E0609000000000000000600C44D800078
:10248000F3032000041CE10001003E001D003700A2
:10249000B869EC0010C0B300EAEBB700C162A90054
:1024A000C562A8003E06090000000000C842A9005D
:1024B000CC42A9003E06090000000000EA4BE20001
:1024C0000A003200C162A900C562A8003E060900E8
:1024D00000000000C162A900C562A9003E06090013
:1024E00000000000EA6BED00F4FF3700C842A900CD
:1024F000CC42A8003E06090000000000C162A9000D
:10250000C562A800000006004200F8003600F8008E
:102510003200F800801F7800200020000C00090025
:10252000B01F7800EB6BEF00EB6BEC002706A80008
:102530002726A8002406F800F40BF900F4CBBF000E
:102540007CEBB700F5CBBF00EAEBB7002406F80040
:10255000F40BF900F4CBBF007AEBB700F5CBBF006A
:102560007BEBB7002406F800F40BF900F4CBBF00B6
:1025700078EBB700F5CBBF0079EBB7002406F80085
:10258000F40BF900F4CBBF0076EBB700F5CBBF003E
:1025900077EBB7002706A8002726A8002406F80036
:1025A000F40BF900F4CBBF00F2EBB700F5CBBF00A2
:1025B000EAEBB7002406F800F40BF900F4CBBF00F7
:1025C000F0EBB700F5CBBF00F1EBB7002406F80045
:1025D000F40BF900F4CBBF00EEEBB700F5CBBF0076
:1025E000EFEBB7002406F800F40BF900F4CBBF00C2
:1025F000ECEBB700F5CBBF00EDEBB700545F80000C
:102600004822DE006324E100010039002200370087
:10261000F2CBBF007C4BE30002003200C2FF370068
:102620001D003700F0CBBF007A4BE3000200320000
:10263000BDFF370018003700F1CBBF007B4BE30034
:1026400002003200B8FF370013003700EECBBF00A6
:10265000784BE30002003200B3FF37000E00370072
:10266000EFCBBF00794BE30002003200AEFF370032
:1026700009003700ECCBBF00764BE30002003200CC
:10268000A9FF370004003700EDCBBF00774BE30014
:1026900001003200A4FF37006B6BAF00020037006F
:1026A0006B6BA800030037006B6BAE0001003700B6
:1026B0006B6BA90058CBBF00594BE30003003A00F5
:1026C00062CAA900586BEF000900370058CBBF0061
:1026D000594BE3000600320062CAA800586BEF00B5
:1026E000622BEF005A2BEC004220AF005C2BEC0079
:1026F00058CBBF0059EBB70062CAAE0006003700E6
:10270000B45A80006224E10003003A005E2BEC0022
:102710004220AF00602BEC0062CAAF00010037001E
:10272000622BEC0062CAAE000D003700B45A800084
:102730006224E1000A003A00664BE2000200320027
:10274000666BED0006003700664BE20004003A00BD
:1027500050C0B30066EBB700AA11020000000000F1
:10276000674BE20001003200676BED00674AE20050
:1027700001003200676AED00B049E2000400320057
:10278000944D80006124E10001003A00B069ED0041
:10279000B349E2000300320062CAAF000100370013
:1027A000B369ED00B4588000A33620000418E1009E
:1027B0001D0039000328AE001A003700B45A80000B
:1027C0006224E100170032009A0F020000000000AE
:1027D00062EAA800645A800013E720000418E100B0
:1027E00007003100C44D8000C3032000041CE10039
:1027F00002003100F2110200000000000600370064
:10280000245A800013E720000418E1000200390078
:102810003E1202000000000062EAA900A2110200BC
:1028200000000000140037000328AE00120037003B
:10283000B45A80006224E1000F00320062EAA8006E
:10284000B4588000134E20000418E100030031004A
:10285000F2110200000000000600370074588000EA
:10286000134E20000418E100020039003E1202005D
:102870000000000062EAA9008460A900A001200015
:102880000C0009004F1078004F0078003200F9006A
:102890003600F9004200F90000400600F0FF2F006A
:1028A0000862AE00FEFF37000922AF0004003700C7
:1028B0000742AE00020037000902AE00F8FF370001
:1028C0000822AE00FEFF37000082BF0008C2AF0042
:1028D00008C2A9000782A80000000600F0FF2F0030
:1028E0000862AE00080037000842AE00060037005C
:1028F0000742AE00020037000902AE0002003700B6
:10290000111088000782A800000006004200F800AD
:102910003600F8003200F800801F78002000200008
:102920000C000900B01F780008A2AF0004003700B7
:10293000846BEF000842AE000100370084EBA80072
:1029400084CBBF000160EF00846BEC00F5EBB700B7
:10295000A45F80004822DE0003082000041CE10080
:10296000E6003900A45F80004822DE0004C8B200FF
:1029700003003A0000C2BF00F4EBB70006003700C6
:1029800011002000811F7800CF0078004E14020053
:1029900000000000F4EBB700F54BE2000400320049
:1029A000A45F80004822DE0004C8B20003003A00A1
:1029B000F4CBBF0082EBB700D0003700A45F8000EB
:1029C0004822DE006124E10003003A00F4CBBF009E
:1029D00083EBB700C9003700A45F80004822DE0007
:1029E0006224E100C5003900A45F80004822DE00B7
:1029F00004C8B200C1003200145C800004CDB200F3
:102A00005D003A00145C80004822DE006724E1008B
:102A10002C003E0083CBBF00836BEC000080FB00EA
:102A200064B7200084024000F48BBF00804298000D
:102A30002966A9002946A9002706A8002726A8007C
:102A4000871F7800881F78000500FC0057052000CC
:102A5000373B8800A80A2000383B880027A6A8003A
:102A60004F047800CF0378007CCBBF00F6EBB700B3
:102A7000F76BEF00F60BF8002406F9007ACBBF00E5
:102A8000F6EBB7007BCBBF00F7EBB700F60BF80017
:102A90002406F90078CBBF00F6EBB70079CBBF0076
:102AA000F7EBB700F60BF8002406F90076CBBF0071
:102AB000F6EBB70077CBBF00F7EBB700F60BF800EB
:102AC0002406F900145C80004822DE006724E1003F
:102AD00029003A002966A9002946A9002706A8006E
:102AE0002726A800871F7800881F78000500FC00B3
:102AF00057052000373B8800A80A2000383B880093
:102B000027A6A8004F047800CF0378007CCBBF0035
:102B1000F6EBB700F76BEF00F60BF8002406F900B0
:102B20007ACBBF00F6EBB7007BCBBF00F7EBB7006B
:102B3000F60BF8002406F90078CBBF00F6EBB700DF
:102B400079CBBF00F7EBB700F60BF8002406F900CD
:102B500076CBBF00F6EBB70077CBBF00F7EBB70043
:102B6000F60BF8002406F90010C0B30081EBB700A3
:102B700020C0B30080EBB700145C800024CDB2000D
:102B80000D003A00145C80004822DE007302200031
:102B9000041CE1000700390083CBBF00836BEC000D
:102BA0000080FB002492200084024000F48BBF00D0
:102BB0008042980051003700145C800044CDB20080
:102BC00031003A00145C80004822DE006824E100F5
:102BD0002C003E0083CBBF00836BEC000080FB0029
:102BE00064B7200084024000F48BBF00804298004C
:102BF0002966A9002946A9002706A8002726A800BB
:102C0000871F7800881F78000500FC00570520000A
:102C1000373B8800A80A2000383B880027A6A80078
:102C20004F047800CF0378007CCBBF00F6EBB700F1
:102C3000F76BEF00F60BF8002406F9007ACBBF0023
:102C4000F6EBB7007BCBBF00F7EBB700F60BF80055
:102C50002406F90078CBBF00F6EBB70079CBBF00B4
:102C6000F7EBB700F60BF8002406F90076CBBF00AF
:102C7000F6EBB70077CBBF00F7EBB700F60BF80029
:102C80002406F9001D003700145C800064CDB200FA
:102C90000C003A00145C80004822DE007724E1003A
:102CA00007003E0083CBBF00836BEC000080FB007D
:102CB000A494200084024000F48BBF00804298005E
:102CC0000E003700145C800084CDB2000B003A0087
:102CD000145C80004822DE007724E10007003E00FB
:102CE00083CBBF00836BEC000080FB0024962000A8
:102CF00084024000F48BBF0080429800A45F8000F3
:102D00004822DE0003082000041CE100A0003E0071
:102D1000A45F80004822DE0004C8B20002003A002E
:102D200000C2BF00F4EBB700145C800014CDB20009
:102D300015003A00145C80004822DE006824E1009F
:102D40000A003E0083CBBF00836BEC000080FB00D9
:102D500064B720000400400090427800854078006D
:102D60006E1402000000000007003700145C8000B1
:102D70004822DE006824E1000300360080C0EB003A
:102D80006E14020000000000145C800034CDB2001C
:102D90001A003A00145C80004822DE007302200012
:102DA000041CE1000C003900FE00090000000000D6
:102DB00083CBBF00836BEC000080FB0024922000DB
:102DC0000400400090427800854078006E140200B4
:102DD0000000000008003700145C80004822DE007C
:102DE00073022000041CE1000300310080C0EB00EE
:102DF0006E1402000000000065003700145C8000C3
:102E000054CDB20018003A00145C80004822DE0065
:102E10006824E1000C003E00FE00090000000000F4
:102E200083CBBF00836BEC000080FB0064B7200005
:102E30000400400090427800854078006E14020043
:102E40000000000007003700145C80004822DE000C
:102E50006824E1000300360080C0EB006E1402001D
:102E6000000000004A003700145C800074CDB200FE
:102E700018003A00145C80004822DE007724E1004C
:102E80000C003E00FE0009000000000083CBBF00E4
:102E9000836BEC000080FB00A49420000400400041
:102EA00090427800854078006E1402000000000017
:102EB00007003700145C80004822DE007724E10020
:102EC0000300360080C0EB006E140200000000001A
:102ED0002F003700145C800094CDB20018003A0037
:102EE000145C80004822DE006624E1000C003E00F5
:102EF000FE0009000000000083CBBF00836BEC00E4
:102F00000080FB00249620000400400090427800DE
:102F1000854078006E1402000000000007003700B2
:102F2000145C80004822DE006624E10003003600C5
:102F300080C0EB006E140200000000001400370097
:102F4000145C8000B4CDB20004003A0080C0EB00F5
:102F50006E140200000000000D003700145C8000B9
:102F6000D4CDB20004003A0080C0EB006E14020021
:102F70000000000006003700145C8000F4CDB200B1
:102F800003003A0080C0EB006E1402000000000055
:102F9000000000008600A900A00120000C0009002C
:102FA0004F1078004F0078003200F9003600F90029
:102FB0004200F90000400600C122A900C522A90074
:102FC0000348A90000000600E70160004300DE009E
:102FD000020040000000A700E88141000000A100BD
:102FE0000104E0001098AD0000000600851F780085
:102FF000D122A900D522A900C8C2A900CCC2A9002B
:1030000010C0B300B2EBB700945D80006824E1000B
:1030100013003E00B48BBF00904278000508B20058
:103020000500E00003003A00C162A900C562A900E2
:1030300002003700C162A900C562A800A15D80003E
:103040004200A90091D8D200D122A900D522A8001F
:10305000D122A900D522A900B26BEC00EAFF37000B
:10306000C8C2A900CCC2A800C8C2A900CCC2A9008D
:10307000CF0278000000060022802000B0CBBF0005
:103080000160EF0011002000E417020000000000C2
:1030900002C8BF00B1EBB70014BB2000A45D8800DC
:1030A000F6170200000000000000060060C0B30038
:1030B000B0EBB7003C180200000000000000060062
:1030C00022802000B0CBBF000160EF000100200093
:1030D000E41702000000000002C8BF00B1EBB70017
:1030E00014BB2000A45D8800F61702000000000059
:1030F00000000600851F7800F44A80004822DE00A8
:103100006124E1002C003A00B549AE00040037000C
:10311000B06BEF003C180200000000000500370013
:10312000B549AF0003003700B06BEF006018020034
:1031300000000000B569AE000500370050C0B300C4
:10314000B0EBB7003C18020000000000060037009A
:10315000B569AF000400370050C0B300B0EBB70052
:103160006018020000000000B589AE0005003700BD
:1031700040C0B300B0EBB7003C18020000000000F4
:1031800006003700B589AF000400370040C0B30027
:10319000B0EBB700601802000000000062C9BF0079
:1031A0000160EF00E10260000500E00001003A006C
:1031B000B589A9000D0037005F49E2000B003A0015
:1031C000B06BEF00601802000000000050C0B300B8
:1031D000B0EBB700601802000000000040C0B30070
:1031E000B0EBB7006018020000000000CF027800CA
:1031F0000000060010C0B300B0EBB7003C1802009E
:10320000000000000000060020C0B300B0EBB700D3
:103210003C180200000000000000060030C0B300AF
:10322000B0EBB7003C1802000000000000000600F0
:10323000FA1802000000000004190200000000005B
:103240000E1902000000000000000600D0A2A90034
:10325000D4A2A9000368A900000006000000E00055
:103260004220AF00040037007B3E09000000000050
:103270000000E900FCFF3A000000060040062000C4
:103280002E1902000000000000000600F4002000DB
:103290000427880004002F001427880074002000F1
:1032A00024278800F40020000427880004002E0052
:1032B00014278800740020002427880004002800B8
:1032C000141A880034002100241A880004472800BA
:1032D000041A8800000006001021EF00940420006A
:1032E0006408880004022800840888001221EF0086
:1032F000042720007408880004032800940888002C
:103300001E21EF00840C2000D4088800040228004D
:10331000F40888002021EF00840C2000E4088800D5
:10332000040128000409880000000600A00F200006
:103330002E190200000000000000060001E02F002E
:1033400083814000F1072000E0804800910188005F
:103350000500A1000500E00003003200331ABA00A6
:103360008582E900FCFF3A0000000600851F780016
:10337000AE2BEF00AC6BEF00AE2BEF00745D800066
:10338000A30320000418E1001B0039000060FE00C8
:10339000735D800004002000250020009E190200BB
:1033A00000000000B0ABB700ACCBBF00AC6BEC00D2
:1033B0000080FB006497200084024000B08BBF00B7
:1033C00080429800ACCBBF00AC6BEC000080FB00EF
:1033D0006497200084024000B1CBBF00804A78008F
:1033E0007E3E090000000000745D80006200420023
:1033F000AEABB700E1FF3700CF0278000000060057
:10340000851F7800AECBBF00AFEBB700AF6BD50028
:10341000745D80004822DE008447B20004407800DA
:10342000AFEBB700AFCBBF000160EF004200DE00A2
:10343000745D80004822DE0084024000AECBBF00F5
:103440000160EF006F00600005004000CF027800CF
:1034500000000600851F7800C50020000300090059
:10346000B51F78000202B8000303B8004200A900AB
:103470008502430060844B00020BB80085024B00BC
:1034800008844B00030BB800080443000780B00019
:103490008701780008017800850078000400780032
:1034A0002501200003000900CF127800CF02780028
:1034B00000000600851F7800C500200003000900F9
:1034C000B51F7800090020004300AF00190020005C
:1034D000891F78000002EB008002EB000003EB0084
:1034E0008003EB0003046900110032000802200091
:1034F0004200A9000080D2008180D2000482D20064
:103500008582D2000328E10001003A0002A0E10018
:10351000030039000202520083825A004200A800D0
:103520000683D2008783D2000804E900F0FF3A0046
:103530008700780006007800CF0478000900E000DA
:10354000010032000400BE00250120000300090034
:10355000CF127800CF02780000000600851F7800A7
:10356000C500200007000900B51F7800BA2BD50060
:10357000B8ABD7008046EB00B48BBF00B15D8000D4
:1035800002012000030020002A1A020000000000AF
:103590000001780081017800B88BBF00D15D800008
:1035A0005A1A020000000000E10250006083580037
:1035B0006130E1000500390002003E006028E100B2
:1035C00002003900F5FF2F0006002000E1804200D4
:1035D00060014B00010078008200780002012000A9
:1035E000030020002A1A02000000000000017800F9
:1035F00081017800B88BBF00D15D80005A1A0200AB
:1036000000000000B45D80000120E10005003900E9
:1036100009003E00A45D80000020E10001003900A7
:1036200005003700A45D800084045000B45D800074
:103630000485580004003700A45D80008004520017
:10364000B45D800001055A00B48BBF00B15D8000FD
:1036500042002000030020002A1A0200000000009F
:103660000001780081017800B88BBF00D15D800037
:103670005A1A020000000000E10350006084580064
:103680006140E1000500390002003E006038E100C1
:1036900002003900F7FF2F0008002000E1804300FE
:1036A00060014C0001007800820078004200200098
:1036B000030020002A1A0200000000000001780028
:1036C00081017800B88BBF00D15D80005A1A0200DA
:1036D00000000000B45D80000120E1000500390019
:1036E00009003E00A45D80000020E10001003900D7
:1036F00005003700A45D800084055000B45D8000A3
:103700000486580004003700A45D80008005520044
:10371000B45D800001065A000C50E100050039003C
:1037200002003E000B48E100020039001DC0B3005A
:10373000870278000400280004118800044020005B
:10374000141188001A00AF002062A80045118800FB
:10375000A501200007000900CF127800CF027800F1
:103760000000060021E2A8002342A80004202C004B
:10377000845D880014002000945D88007A49E2008E
:103780000B003A00D0E2A800D0C2A8007020A90027
:103790005820A9007040A9005840A90021E2A900C2
:1037A0002342A9003E190200000000002800370053
:1037B000D44B80006124E10003003A00042C210076
:1037C000845D8800B22BEF00D44B80006224E100BE
:1037D00003003A0004582200845D8800B22BEF00F9
:1037E000D44B80006324E10003003A0004B02400BD
:1037F000845D8800B22BEF00D44B80006424E1008C
:1038000003003A0004602900845D8800B22BEF00B9
:10381000D44B80006524E10003003A0004102E0020
:10382000845D8800B22BEF00B00BF800B40BF900F8
:10383000B20BF800B60BF90004802400C45D8800C8
:10384000841E2000D45D8800AE1A02000000000033
:10385000000006004200F800801F7800140280007B
:10386000040EB30014028800013B880054052000B8
:10387000343B8800A40A2000343B880061E7A8009C
:10388000000000000000000061E7AF00FEFF37000D
:103890004F0078004200F900000006004200F800E6
:1038A000801F780014028000040EB3001402880008
:1038B000013B880054052000343B8800A40A200006
:1038C000343B880061E7A800000000000000000011
:1038D0004F0078004200F90000000600811F7800C8
:1038E00001E02F00008040008000EB00F107200085
:1038F000E080480091018800CF0078000200A1001C
:103900000200E000110032001108BB00811F7800A6
:10391000010020002A1C020000000000CF007800F7
:103920003108BB000080E80001003A003220EC00C2
:10393000811F7800410024004E1C0200000000009E
:10394000CF0078000281E900EFFF3A000000060096
:10395000851F7800B06BEF00B22BEF00945D800004
:10396000A30320000418E1001D0039000060FE00E0
:10397000B0CBBF00B06BEC000080FB006497200070
:1039800004004000A45D800000429000A45D880017
:10399000B0CBBF00B06BEC000080FB006497200050
:1039A00004004000801F780010407800B5EBB7009D
:1039B0004F007800B28BBF0041BB200022002000E6
:1039C0006E1C0200000000007E3E090000000000A6
:1039D000945D800062004200B2ABB700DFFF3700A9
:1039E000CF02780000000600445980008370200058
:1039F0000418E1000400360030C0B30000E0B70056
:103A00001F0037001E0037004459800083702000DB
:103A10000418E10008003E0044598000638620003D
:103A20000418E1000400390020C0B30000E0B70032
:103A300013003700120037004459800063862000CD
:103A40000418E10008003E0044598000239920003A
:103A50000418E1000400390010C0B30000E0B70012
:103A600007003700060037004459800023992000E2
:103A70000418E100020031000060EF000000370090
:103A8000000006000600FC006176200052052000C0
:103A900082087800A30A20008308780027A6A800DF
:103AA0002174200062042000730520008248780001
:103AB000834878004227A800040028003431880099
:103AC000FC22A90027A6A9007C6BEF0010C0B30060
:103AD0007BEBB70010C0B3007AEBB70010C0B300A7
:103AE00079EBB700786BEF00776BEF00766BEF0048
:103AF0002966A9002946A9002706A8002726A800AC
:103B0000871F7800881F78000500FC0057052000FB
:103B1000373B8800A80A2000383B880027A6A80069
:103B20004F047800CF0378007CCBBF00F6EBB700E2
:103B3000F76BEF00F60BF8002406F9007ACBBF0014
:103B4000F6EBB7007BCBBF00F7EBB700F60BF80046
:103B50002406F90078CBBF00F6EBB70079CBBF00A5
:103B6000F7EBB700F60BF8002406F90076CBBF00A0
:103B7000F6EBB70077CBBF00F7EBB700F60BF8001A
:103B80002406F90000000600861F7800871F7800D1
:103B9000881F7800891F78000002EB008002EB008C
:103BA0000003EB008003EB00030469001100320006
:103BB000080220004200A9000080D2008180D200CB
:103BC0000482D2008582D2000328E10001003A007D
:103BD00002A0E100030039000202520083825A0071
:103BE0004200A8000683D2008783D2000804E900BF
:103BF000F0FF3A008700780006007800CF047800D4
:103C00004F047800CF0378004F03780000000600CF
:103C1000821F7800831F7800851F78004300A90069
:103C20003200200003002000C41D0200000000003C
:103C30004200A9000080D2008180D200910188005A
:103C4000CF027800CF0178004F0178000300E00038
:103C500013003200E3006200050032000000E800BB
:103C60008100E900070032000000E9000800370089
:103C70000300E0000A0032003059BA008301E90075
:103C8000070032002059BA008301E9000400320025
:103C900030D9BA000000E8008301E900F4FF3700E2
:103CA00000000600851F7800B9C9BF00DA49E300AB
:103CB000020032000040EB000100370010C0B300EA
:103CC000BBEBB700C44D80004822DE00A39B200060
:103CD00083024200BA8BBF0080429800C44D80002E
:103CE0004822DE00E10242007F806200BCABB700E8
:103CF000DAC9BF000160EF00BC0BE300FCFF32003B
:103D0000BCCBBF00B9E9B700BB4BE20001003200F9
:103D10008580A800CF02780000000600851F78008B
:103D2000861F7800871F7800881F7800B0CBBF00FF
:103D30000160EF004100DD00A48B20008402400000
:103D40000500780090037800851F78000700780050
:103D5000010020000201200013002000081E0200C4
:103D600000000000CF02780010C0BF000040B30088
:103D70004220AF00070037008703E800BA0BF800C5
:103D8000E8FF9F00BA0BF900521E0200000000007D
:103D9000EDFF37003E190200000000004F047800DC
:103DA000CF0378004F037800CF02780000000600B0
:103DB000E55D80004300A900B88BBF00D15D8000A5
:103DC000A25D8000B35D80005A1A0200000000006E
:103DD0000100E00013003A000000E0001100320092
:103DE0000500E0000E003200823E200003002000AB
:103DF0002A1A0200000000000100E00002003A0060
:103E00000000E00062003A004300A900823E20006A
:103E1000030020005A1A02000000000001003700D1
:103E20005B0037004300A90082002000030020004F
:103E30005A1A0200000000000100E00013003A00DE
:103E40000000E000110032000500E0000E0032002A
:103E5000823E2000030020002A1A02000000000019
:103E60000100E00002003A000000E00044003A00D7
:103E70004300A900823E2000030020005A1A0200DD
:103E800000000000010037003D0037004300A9009A
:103E900082002000030020005A1A020000000000E7
:103EA0000100E00013003A000000E00011003200C1
:103EB0000500E0000E003200823E200003002000DA
:103EC0002A1A0200000000000100E00002003A008F
:103ED0000000E00026003A004300A900823E2000D6
:103EE000030020005A1A0200000000000100370001
:103EF0001F0037004300A9004200200003002000FB
:103F00005A1A0200000000000100E00013003A000D
:103F10000000E000110032000500E0000E00320059
:103F2000823E2000030020002A1A02000000000048
:103F30000100E00002003A000000E00008003A0042
:103F40004300A900823E2000030020005A1A02000C
:103F500000000000010037000100370000002000D1
:103F60008000780004032800F40888000B00370064
:103F70008000780004022800F40888000700370059
:103F80008000780004012800F4088800030037004E
:103F90008000780004002800F40888008100E9000F
:103FA000D108880000000600010020001A81BF002F
:103FB0000000E8004220AF008100E800A25D800020
:103FC000030020002A1A020000000000823E2000A8
:103FD000030020005A1A020000000000AAA1B70046
:103FE00000000600B04BE20003003A0080FF2F0003
:103FF000A421B60032003700845D80007924E100FE
:104000000200310090C1B300B0EBB700B22BEF005B
:10401000B0CBBF000160EF00004278000960EF0004
:104020006A20B800945D80000020E10017003E0087
:1040300024032000A45D8800B62BEF00044022007A
:10404000C45D8800440F2000D45D8800BC2BEF00C5
:10405000D81E020000000000B20BF800B40BF900FB
:10406000D41F02000000000060002000A421B7005F
:104070003E1F0900000000000060FE00945D80000B
:104080006D004200B2ABB700E1FF3700945D8000E5
:10409000633B20000418E10008003E00843E20003D
:1040A000945D8800843E2000A45D8800D41F020037
:1040B0000000000060002000A421B700B5A9A800FE
:1040C0000000060010C0B300B0EBB700601802009B
:1040D000000000000000060020C0B300B0EBB700F5
:1040E00060180200000000000000060030C0B300AD
:1040F000B0EBB700601802000000000000000600EE
:1041000062200200000000006C200200000000009D
:1041100076200200000000000000060018190200CE
:1041200000000000E0C0B300B0EBB7008E1E02003C
:104130000000000050C1B300B0EBB7008E1E0200BB
:104140000000000060C1B300B0EBB7008E1E02009B
:1041500000000000AC2BEF00645D80000320200015
:104160000418E1000E0039000060FE00AE6BEF00A5
:10417000AF6BEF00AC8BBF00E1BA20002200200043
:104180006E1C0200000000007E3E090000000000DE
:10419000645D800062004200ACABB700EEFF370008
:1041A00070C1B300B0EBB7008E1E0200000000002B
:1041B00080C1B300B0EBB7008E1E0200000000000B
:1041C000F0CFB3004FE9B700D0C1B300B0EBB700F8
:1041D0008E1E020000000000421D020000000000D0
:1041E000D0C2B300B0EBB7008E1E0200000000008A
:1041F0006069EF0060C9BF0087E9B700E0C2B300A3
:10420000B0EBB7008E1E02000000000020C3B30018
:104210005CE9B7005CC9BF0083E9B7005CC9BF00B7
:10422000B0EBB700F21F02000000000020C0B30096
:104230005BE9B7005BC9BF0082E9B700A0C2B30069
:10424000B0EBB7008E1E0200000000005CC9BF008A
:10425000B0EBB700F21F02000000000050C3B30033
:104260005EE9B7005EC9BF0084E9B700B0C2B30021
:10427000B0EBB7008E1E0200000000008569EF0061
:1042800085C9BF0050E9B7005269EF0052C9BF00AD
:1042900081E9B70010C0B3008EE9B7008EC9BF0036
:1042A0005FE9B700F0C2B300B0EBB7008E1E0200AA
:1042B000000000004B69EF004BC9BF0079E9B7006F
:1042C00000C3B300B0EBB7008E1E02000000000078
:1042D0004C69EF004CC9BF007AE9B700B21B02007D
:1042E0000000000047C9BF0051E9B70051C9BF0035
:1042F00080E9B70040C1B300B0EBB7008E1E0200EA
:1043000000000000A81C0200000000009619020036
:10431000000000008020020000000000E0C0B300A8
:10432000B0EBB7008E1E0200000000000000060087
:10433000C162A900C562A800C842A900CC42A80079
:104340003E06090000000000C842A900CC42A900B6
:104350003E06090000000000AC6BEF00645D8000C9
:1043600003042000041CE1000A003600C162A90019
:10437000C562A8003E06090000000000C162A90055
:10438000C562A9003E06090000000000AC6BEC000D
:10439000F2FF3700C162A900C562A8003E0609000D
:1043A00000000000C842A900CC42A8003E06090057
:1043B00000000000F0C3B300B8E9B7000000060039
:1043C000D55D80004300A900B68BBF00C15D8000B1
:1043D000925D8000A35D80005A1A02000000000078
:1043E0000100E00013003A000000E000110032007C
:1043F0000500E0000E003200823E20000300200095
:104400002A1A0200000000000100E00002003A0049
:104410000000E00062003A004300A900823E200054
:10442000030020005A1A02000000000001003700BB
:104430005B0037004300A900820020000300200039
:104440005A1A0200000000000100E00013003A00C8
:104450000000E000110032000500E0000E00320014
:10446000823E2000030020002A1A02000000000003
:104470000100E00002003A000000E00044003A00C1
:104480004300A900823E2000030020005A1A0200C7
:1044900000000000010037003D0037004300A90084
:1044A00082002000030020005A1A020000000000D1
:1044B0000100E00013003A000000E00011003200AB
:1044C0000500E0000E003200823E200003002000C4
:1044D0002A1A0200000000000100E00002003A0079
:1044E0000000E00026003A004300A900823E2000C0
:1044F000030020005A1A02000000000001003700EB
:104500001F0037004300A9004200200003002000E4
:104510005A1A0200000000000100E00013003A00F7
:104520000000E000110032000500E0000E00320043
:10453000823E2000030020002A1A02000000000032
:104540000100E00002003A000000E00008003A002C
:104550004300A900823E2000030020005A1A0200F6
:1045600000000000010037000100370000002000BB
:104570008000780004032800040988000B0037003D
:104580008000780004022800040988000700370032
:104590008000780004012800040988000300370027
:1045A0008000780004002800040988008100E900E8
:1045B000E108880000000600B00BF800B20BF9001B
:1045C000B42BEF0004402200B45D8800440F2000AB
:1045D000C45D8800BA2BEF00E0210200000000005B
:1045E00000000600600020009A21B70000000600CD
:1045F000800178000180FD0054C0B3000360ED002D
:104600000860ED001900320003007800C419DD00D5
:104610004C00DE00F000B20004003A006124E1002A
:104620000200320003E0AE00F4FF37000003B000E8
:10463000A20320000200E100010039000240B400A2
:10464000811F7800831F7800841F7800BAEBB700C1
:10465000521E0200000000004F027800CF017800D7
:10466000CF00780003E0A800E4FF37000000060058
:1046700001002000010078000160EF00FA0A02004A
:10468000000000008100E800811F7800BAEBB7004D
:10469000521E020000000000CF007800B001200090
:1046A0000008E600F3FF370062C9BF000160EF00B9
:1046B00041702200F822020000000000E101200009
:1046C000010078000160EF00FA0A0200000000001B
:1046D0008100E800811F7800BAEBB700521E02008B
:1046E00000000000CF007800100220000008E60063
:1046F000F3FF370063C9BF000160EF0021702200A3
:10470000F822020000000000A0C3B300BAEBB7001B
:10471000521E02000000000064C9BF000160EF00EB
:1047200021702200F822020000000000A0C3B300A4
:10473000BAEBB700521E02000000000065C9BF00BE
:104740000160EF0021702200F8220200000000004A
:10475000A0C3B300BAEBB700521E02000000000075
:1047600066C9BF000160EF0021702200F82202003C
:1047700000000000A0C3B300BAEBB700521E020055
:104780000000000067C9BF000160EF002170220037
:10479000F822020000000000A0C0B300BAEBB7008E
:1047A000521E020000000000D0C0B300BAEBB700F8
:1047B000521E0200000000000000060063E0A90095
:1047C00082E0A90010C3B300B0EBB7008E1E020058
:1047D000000000006FE0A90057E0A800C962A9002E
:1047E000CD62A900E0C1B30067EAB700628AA80001
:1047F0003E19020000000000674AE2000700320094
:10480000B549A8007A180200000000000060FE0010
:104810007E3E090000000000F7FF37006FE0A800AF
:1048200057E0A900C962A900CD62A800C962A8002A
:10483000C8E2A80062AAA800628AA900676AEF001D
:1048400020C3B300B0EBB7008E1E020000000000D2
:1048500063E0A8009660A800626AA90090012000A9
:104860002E190200000000000000060062EAA80005
:10487000449C2000445B8800A4002000441A880067
:104880004200F80042E0EF00A21102000000000028
:104890004200F900680BE2001A003200682BED00BC
:1048A0000060FE004200F80042E0EF00760F0200D8
:1048B000000000004200F90044ABB700245A800019
:1048C00043DB20000418E1000D0036004200F80030
:1048D00042E0EF009A0F0200000000004200F900E1
:1048E00062EAA9007E3E090000000000AC0BA900AE
:1048F0000000EB00AC0BAF000000E8001600370032
:10490000E4FF3700442BEF0050C0B30067EBB70063
:1049100010C0B30056EBB70056CBBF0022E9B7007A
:104920005E2BEF00602BEF004200F80042E0EF004A
:10493000A2110200000000004200F90062EAA90092
:104940007E3E090000000000AC0BA8000000EB0058
:10495000AC0BAF000000E8000000060060C0B30030
:10496000B0EBB70060180200000000000000060075
:1049700056180200000000003E190200000000006E
:10498000AE24020000000000C962A900CD62A800A8
:10499000C962A800961902000000000096190200E2
:1049A0000000000056180200000000000000060091
:1049B000B4392000845D8800DC2202000000000081
:1049C00090C1B30066EAB700F222020000000000C6
:1049D0003E1902000000000074492000845D880038
:1049E000DC2202000000000090C1B30066EAB700BC
:1049F000F2220200000000003E1902000000000048
:104A000094742000845D8800DC2202000000000015
:104A100090C1B30066EAB700F22202000000000075
:104A20003E19020000000000B02BEF00DC22020063
:104A30000000000090C1B30066EAB7000000060065
:104A400080FF2F00A421B600B5A9A9000000060030
:104A5000D082A900D482A90003A8A9000000060002
:104A600094002000441A88004200F80042E0EF0061
:104A7000760F0200000000004200F9000EABB70004
:104A8000A4002000441A88004200F80042E0EF0031
:104A9000760F0200000000004200F90044ABB700AE
:104AA000245A800043DB20000418E1000400390090
:104AB00074588000A33620000418E1000200310081
:104AC000AE0BA80001003700AE0BA9000000EB0000
:104AD000AE0BAF000000E80000000600851F780064
:104AE00010C0B300B0EBB7008E1E02000000000043
:104AF00020250200000000003E1902000000000016
:104B00008020020000000000B549A900B569A90095
:104B1000B589A9007A180200000000005049E2009F
:104B200003003A00261902000000000005003700CB
:104B30004200F80042E0EF00920F02000000000087
:104B40004200F9003E190200000000004200F80097
:104B500042E0EF00A2110200000000004200F90054
:104B60003E1902000000000028250200000000009D
:104B70003E19020000000000302502000000000085
:104B8000B1E9B70010C0B300B2E9B7005049E20084
:104B900003003A002619020000000000050037005B
:104BA0004200F80042E0EF00920F02000000000017
:104BB0004200F9004200F80042E0EF00A2110200BA
:104BC000000000004200F90028250200000000005B
:104BD0003025020000000000B1E9B7000060FE00CF
:104BE00050C0B300B0E9B7001021EF0094042000DA
:104BF0006408880004022800840888001221EF005D
:104C00000427200074088800040328009408880002
:104C10001E21EF00840C2000D40888000402280024
:104C2000F40888002021EF00840C2000E4088800AC
:104C300004012800040988005049E20003003A00FA
:104C40002619020000000000050037004200F800AD
:104C500042E0EF00920F0200000000004200F90065
:104C60004200F80042E0EF00A21102000000000044
:104C70004200F9002825020000000000C0E2A80060
:104C8000C142A800C102A800C122A900C522A800F3
:104C9000D062A800C8A2A800C162A800C8C2A8002B
:104CA000D082A900D482A9005049E20003003A0052
:104CB000D0A2A900D4A2A90002003700D0A2A90066
:104CC000D4A2A800D102A800D122A800C9A2A8009D
:104CD000C982A800C802A800C822A800D0E2A80083
:104CE000D0C2A800C922A800C902A800C842A800D2
:104CF000C862A800C062A800C042A800D042A800B4
:104D0000D022A800D002A800C022A800C002A8009B
:104D10009600A9008600A9009500A9008500A900B9
:104D200094E0A90084E0A9009580A9008580A900ED
:104D30009560A900030009002682BF008560A900D4
:104D40009BC0A9008BC0A90063E0A90082E0A90074
:104D500070E0A80004402000243A88000E00FC0007
:104D6000601020003174200082072000A309200079
:104D7000824878008348780043E7B7004800DE00A7
:104D8000217420006204200073052000824878000E
:104D9000834878008048780080FF2F009A21B60071
:104DA00080FF2F00A421B600C142A900C542A9007E
:104DB000D102A900D502A900C062A900C462A9005D
:104DC0004187A8004107A90000CAB3006DEBB700F6
:104DD00000CAB3006EEBB700B049E2003100320008
:104DE0000040FE00000000005807A9000060FE001F
:104DF000B249E2002A003A004427EF000E00FC000E
:104E0000101020003174200082072000A309200028
:104E1000824878008348780043E7B7004800DE0006
:104E2000217420006204200073052000824878006D
:104E3000834878008048780010C0B300B2E9B7001A
:104E4000628AA8000060FE008A0F020000000000D5
:104E50004200F80042E0EF00920F02000000000064
:104E60004200F9004200F80042E0EF009A0F020011
:104E7000000000004200F9004200F80042E0EF00AC
:104E8000A20F0200000000004200F9009619020083
:104E900000000000B82402000000000059003700A4
:104EA000CDFF3700586BEF0063E0A8009660A800C4
:104EB000AC6BEF00645D80006824E10017003100F6
:104EC0006F6BEC006B4BAF0004003700C942A900C8
:104ED000CD42A8006B4BA800050037006B4BAE001D
:104EE00003003700C942A900CD42A9006B4BA900BD
:104EF0006FCBBF000000FB00040420000020E10095
:104F000001003D006F6BEF00FE0309000000000090
:104F10000060FE00AC6BEC00E6FF3700C942A90060
:104F2000CD42A90076CBBF00ADEBB70063E0A9008E
:104F300082E0A900ADCBBF00764BE30005003A004C
:104F40000040FE00000000005807A9000060FE00BD
:104F5000F8FF37000060FE00461902000000000064
:104F6000B249E2000200320062CAAE0044003700DB
:104F70004427EF000E00FC001010200031742000C8
:104F800082072000A3092000824878008348780027
:104F900043E7B7004800DE002174200062042000CF
:104FA00073052000824878008348780080487800A4
:104FB00010C0B300B2E9B700628AA8000060FE002A
:104FC0008A0F0200000000004200F80042E0EF00FB
:104FD000920F0200000000004200F9004200F800B9
:104FE00042E0EF009A0F0200000000004200F900CA
:104FF0004200F80042E0EF00A20F020000000000B3
:105000004200F9006C190200000000008200A800B4
:105010009400A80063E0A8009660A8009BC0A800C8
:105020009560A8009580A8006B2BA90094E0A800CB
:105030009500A8009600A8004220EF006FE0A800AD
:1050400057E0A900C962A900CD62A8009001200024
:105050002E19020000000000D82402000000000009
:10506000F0C0B300B0EBB7008E1E020000000000DD
:10507000628AA800622BEF00B269EF006800370077
:10508000844D80004822DE006124E10006003A00E1
:1050900030250200000000006104E10002003A0037
:1050A000BAFE37005C003700B149E20049003A001F
:1050B00030250200000000006104E10045003A00D4
:1050C0004427EF000E00FC00101020003174200077
:1050D00082072000A30920008248780083487800D6
:1050E00043E7B7004800DE0021742000620420007E
:1050F0007305200082487800834878008048780053
:1051000010C0B300B2E9B700628AA8000060FE00D8
:105110008A0F0200000000004200F80042E0EF00A9
:10512000920F0200000000004200F9004200F80067
:1051300042E0EF009A0F0200000000004200F90078
:105140004200F80042E0EF00A20F02000000000061
:105150004200F9006C190200000000008200A80063
:105160009400A80063E0A8009660A8009BC0A80077
:105170009560A8009580A8006B2BA90094E0A8007A
:105180009500A8009600A8004220EF006FE0A8005C
:1051900057E0A900C962A900CD62A80090012000D3
:1051A0002E19020000000000D824020000000000B8
:1051B00020C0B300B0EBB7008E1E0200000000005C
:1051C000628AA800622BEF00B269EF00140037007A
:1051D00011003700844D80004822DE006124E10088
:1051E00006003A0030250200000000000004E00044
:1051F00002003A0065FE370007003700B149E200BF
:1052000005003A0030250200000000000004E00024
:1052100001003A005DFE370070FE37005BFE37008C
:10522000CF02780000000600851F7800C50020002E
:1052300003000900B51F780080037800840478001B
:1052400004F0A1000400E00006003A0009F0A70005
:10525000020037000500200017003700050020007D
:1052600015003700E642520012003900000320000A
:1052700009F0A60000022000801F7800811F78003E
:10528000829FBE00841F7800BAEBB700521E020056
:10529000000000004F0278004F01BE00CF007800F0
:1052A0004F0078008502E900F3FF3B005500200025
:1052B00001003700840278006400200005E0A000AF
:1052C00009F0A70005F0A0000871220011000900F4
:1052D0008883D800AA29020000000000810378001A
:1052E000883E2000110009008883D800AA29020006
:1052F000000000008103780048062000110009002A
:105300008883D800AA2902000000000081037800E9
:10531000A8002000110009008883D800AA290200F3
:10532000000000000003200000C04000811F780042
:10533000829FBE00841F7800BAEBB700521E0200A5
:10534000000000004F0278004F01BE00CF0078003F
:105350001D003700060320000000E0000E003A00A8
:1053600005E0A6000D0037000402E9000524E10075
:10537000020032004200AF00000006000000E00022
:1053800005003A0005E0A6000400370005F0A6007D
:10539000060220000100370005E0A10000404300A4
:1053A000811F7800821F7800841F7800BAEBB70055
:1053B000521E0200000000004F0278004F017800EA
:1053C000CF0078000000060025012000030009003E
:1053D000CF127800CF0278000000060094742000FD
:1053E000845D8800DC2202000000000090C1B30050
:1053F00066EAB700F2220200000000003E19020037
:105400000000000074492000845D8800DC22020056
:105410000000000090C1B30066EAB700F22202006B
:10542000000000003E19020000000000B439200016
:10543000845D8800DC2202000000000090C1B300FF
:1054400066EAB700F2220200000000003E190200E6
:1054500000000000B02BEF00DC2202000000000082
:1054600090C1B30066EAB700000006005960A900C9
:105470007160A9000000090000000000C8A2A80097
:10548000C8A2A800AC0BA900CAA2AF00AC0BA80030
:105490000328A80000000600010020000100780099
:1054A0000160EF00400B0200000000008100E800F6
:1054B000811F7800BAEBB700521E02000000000006
:1054C000CF007800600120000008E600F3FF3700FD
:1054D00078CBBF000160EF0021702200F8220200AB
:1054E00000000000A0C3B300BAEBB700521E0200D8
:1054F0000000000077CBBF000160EF0021702200A8
:10550000F822020000000000A0C3B300BAEBB7000D
:10551000521E02000000000076CBBF000160EF00C9
:1055200021702200F822020000000000A0C0B30099
:10553000BAEBB700521E020000000000D0C0B3005A
:10554000BAEBB700521E0200000000000000060087
:1055500070C0B300B0EBB7003C18020000000000C0
:105560000308A8000000060070C0B300B0EBB7004D
:1055700060180200000000000308A90000000600F7
:10558000851F7800C500200003000900B51F7800C2
:10559000090020004300AF0019002000891F780097
:1055A0008384680001F0A600030037008180EA00D0
:1055B0000000EA00E080480003F0A6000300370086
:1055C0008381EA000201EA00E081490003026900E8
:1055D000150032000002EB008002EB000003EB003C
:1055E0008003EB00080220004200A9000080D200E6
:1055F0008180D2000482D2008582D2000328E1009B
:1056000001003A0002A0E10003003900020252004A
:1056100083825A004200A8000683D2008783D2000A
:105620000804E900F0FF3A0009F0A600070037007F
:105630000600EA000100320002003A008700EA009A
:10564000050037008780EA000300370087007800F4
:105650000600780000003700CF0478000900E00061
:10566000010032000400BE002501200003000900F3
:10567000CF127800CF02780000000600851F780066
:10568000861F7800C0002000AC0BB40080027800B8
:1056900080002000AC0BB4000002780014007800F9
:1056A000950A400004002000D50A4A00C0002000EE
:1056B000AC0BB400A4002000301A7800301A780037
:1056C0004300A9000500780086007800020420004D
:1056D00003002000C02A020000000000AEABB700AB
:1056E000C0002000AC0BB40080027800AE8BBF007D
:1056F0008000EB0000F0A7008080EB00150278002E
:10570000800A520055027800810A5A00A000200049
:10571000AC0BB40080027800AE8BBF0000F0A60096
:105720000300370004002000735D80000300520076
:10573000800A78004F037800CF027800000006004E
:10574000851F7800645D8000E50242000502780054
:10575000A3002000110009000382D800ACABB70001
:10576000645D80006A20B800ACABB700AC0BF800F9
:105770000000F900CF02780000000600B6ABEF0091
:10578000B00BF800B20BF900B42BEF00B60BE2003F
:105790002E003200B62BED00945D8000F3702200E5
:1057A0000418E1000200310000A0EF0029003700DA
:1057B000945D8000833E20000418E10008003E0054
:1057C000945D8000843EB100945D88000400210057
:1057D000A35D800004804100B4ABB7001A0037001D
:1057E000945D8000430620000418E10008003E009C
:1057F000945D80004406B100945D88000410200090
:10580000A35D800004804100B4ABB7000E003700F8
:10581000945D80006A20E10007003900945D8000FB
:105820006A005200B2ABB700A45D80007000420075
:10583000B4ABB70004003700B48BBF00B20BB400A8
:10584000B4ABB70001003700D0FF3700B40BF8004D
:105850000000F90000000600851F7800700BF800BA
:10586000AC0BF900A02B02000000000070ABB700E9
:10587000722BEF00700BF800AC0BF900A02B0200AC
:105880000000000080027800855D8800BE2B0200C9
:105890000000000000A0B700CF0278000000060062
:1058A000851F7800861F7800C0002000AC0BB40074
:1058B0008002780080002000AC0BB4000002780069
:1058C00014007800950A400004002000D50A4A0020
:1058D000C0002000AC0BB400A4002000301A7800F7
:1058E000301A78004300A90005007800860078008F
:1058F0000210200003002000C02A02000000000067
:10590000AEABB700C0002000AC0BB4008002780042
:10591000AE8BBF008000EB0000F0A7008080EB00A2
:1059200015027800800A520055027800810A5A0058
:10593000A0002000AC0BB40080027800AE8BBF004A
:1059400000F0A6000300370004002000735D800013
:1059500003005200800A78004F037800CF027800DD
:1059600000000600851F7800C50020000300090024
:10597000B51F78000202B80003F0A600020037004D
:105980000383B900010037000303B8004200A900F7
:105990008502430060844B0001F0A600020037003E
:1059A000028BB90001003700020BB80085024B00E2
:1059B00008844B000980B000038BB90008044B0039
:1059C00087834C0087017800080178008500780003
:1059D000040078002501200003000900CF127800A0
:1059E000CF02780000000600F0CFB300AFEBB700A5
:1059F000ACCBBF00ADEBB700AE6BEF00AF4BE2003E
:105A000012003200AF6BED00645D80004822DE00C2
:105A10006A24E10008003900645D80004822DE004D
:105A20006A405200ADEBB700745D800070404200E8
:105A3000AEEBB70004003700AECBBF00AD4BB400F7
:105A4000AEEBB70001003700ECFF3700AECBBF0074
:105A500000E0B70000000600851F7800AD6BEF0086
:105A60001FCABF00404AE30008003A00AD6BEC00DB
:105A7000645D80004822DE006A24E10003003E00ED
:105A80007E3E090000000000F5FF3700F450800062
:105A90000960EF00E39F200003004200645D800086
:105AA00000429000645D8800F45080000960EF00BF
:105AB000E10242007FC062001EEAB700ACCBBF002B
:105AC00000E0B700CF02780000000600851F7800D4
:105AD000AC6BEF00645D80007F24E10007003E00B6
:105AE000645D80000960EF0063B82000830242001B
:105AF000804AEB00AC6BEC00F6FF3700CF02780079
:105B000000000600851F7800CC8BBF001004E00069
:105B100019003200CC0BF800D00BF900CE0BF800C6
:105B2000D20BF900D28BBF001004E0000A00320053
:105B3000D08BBF0090427800D28BBF00000278006B
:105B400014407800002CE10003003A00D02BEC0058
:105B5000D22BEC00F3FF3700D28BBF001004E00023
:105B600003003A00CC0BF8000000F90003003700F6
:105B7000CC2BEC00E4FF37000020EF00CF027800D0
:105B800000000600851F7800245C80004822DE00AB
:105B90007420B8008002780005017800C1BA2000A6
:105BA00002007800BC090200000000008058780064
:105BB0000201E8000004E0004220AE00F8FF3700D8
:105BC00024A42000645E8800C4BA2000745E8800AB
:105BD000822D020000000000800278000500E00035
:105BE0000400320010C0B30000E0B700030037002B
:105BF000020037000060EF0000003700CF0278009D
:105C00000000060030C0B300B0EBB7008E1E0200EB
:105C10000000000000000600851F7800AC6BEF005C
:105C2000645D80007F24E10007003100645D800036
:105C30000960EF0023A4200083024200804AEB00A9
:105C4000AC6BEC00F6FF3700620AA900416AEF0076
:105C5000CF0278000000060000000600851F7800D3
:105C6000662D020000000000856BEF00C22D0200CF
:105C7000000000006104E1000F003A0030C3B300EF
:105C8000B0EBB7008E1E0200000000008E20020064
:105C9000000000009619020000000000C942A9009F
:105CA000CD42A900A00020002E1902000000000033
:105CB0000000FE00B200370010C0B30085EBB70053
:105CC000C22D0200000000006104E10005003A005E
:105CD000022E0200000000000C2E02000000000056
:105CE000A700370020C0B30085EBB700C22D02002B
:105CF000000000006104E10007003A002C2E0200C1
:105D000000000000022E0200000000000C2E020025
:105D1000000000009A00370040C0B30085EBB700D8
:105D2000C22D0200000000006104E10005003A00FD
:105D3000022E0200000000000C2E020000000000F5
:105D40008F003700D0C0B30085EBB700C22D020032
:105D5000000000006104E10005003A00022E02008C
:105D6000000000000C2E020000000000840037003C
:105D7000E0C0B30085EBB700C22D020000000000B8
:105D80006104E10005003A00022E0200000000005C
:105D90000C2E0200000000007900370060C0B30044
:105DA00085EBB700C22D0200000000006104E10095
:105DB00005003A00022E0200000000000C2E020036
:105DC000000000006E00370050C0B30085EBB70044
:105DD000C22D0200000000006104E10005003A004D
:105DE000022E0200000000000C2E02000000000045
:105DF00063003700A0C0B30085EBB700C22D0200DE
:105E0000000000006104E10005003A00022E0200DB
:105E1000000000000C2E02000000000058003700B7
:105E2000B0C0B30085EBB700C22D02000000000037
:105E30006104E10005003A00022E020000000000AB
:105E40000C2E0200000000004D003700F0C0B3002F
:105E500085EBB700C22D0200000000006104E100E4
:105E600006003A00400620002E1902000000000043
:105E70000C2E0200000000004100370000C1B300FA
:105E800085EBB700C22D0200000000006104E100B4
:105E900003003A000C2E020000000000380037001A
:105EA00010C1B30085EBB700C22D02000000000056
:105EB0006104E10003003A000C2E02000000000023
:105EC0002F00370020C1B30085EBB700C22D0200C0
:105ED000000000006104E10003003A000C2E020003
:105EE000000000002600370030C1B30085EBB7008A
:105EF000C22D0200000000006104E10003003A002E
:105F00000C2E0200000000001D00370001002000E0
:105F1000010078000160EF00DC0A020000000000D0
:105F20008100E800811F7800BAEBB700521E020022
:105F300000000000CF007800D00020000008E6003C
:105F4000F3FF370021A420001104E0000800320014
:105F5000811F780001409000BAEBB700521E02008A
:105F600000000000CF0078008100E800F6FF370055
:105F7000022E0200000000000C2E020000000000B3
:105F8000CF027800000006000FE02000F0FF2000A4
:105F900020A0B70000000000404424002005880035
:105FA0004044260030058800504424004005880005
:105FB0007044250060058800404424009005880056
:105FC00081E0A90000802000E13F2000018009005D
:105FD0000018EB004427EF000028EF000400280021
:105FE0000411880004402000141188002062A800D9
:105FF0002402200044118800CD22A90007E2A80055
:1060000007A2A80006C2A8000762A90006E2A8002D
:106010000702A8000722A8000742A9008406200062
:106020005410880074002000641088002021EF00C4
:10603000F4E72300E408880004002800040988002D
:1060400004F42100040D880004C02000D40C880052
:10605000F4002000E40C88001E21EF00F4E7230088
:10606000D408880004002800F408880004F4210003
:10607000540D880004802000240D8800E4002000D6
:10608000340D8800B969EF00DA69EF00DB69EF00D1
:10609000FC69EF00FD69EF001E6AEF001F6AEF0068
:1060A000406AEF00642AEF0030C0B30084EBB70011
:1060B000E024EF00E224EF00E424EF006E0037005C
:1060C000C0060800040000004BF03F005C0A5800C6
:1060D000F63B8F0000C03C008B28AC003CBEF600B5
:1060E0003FD2D50044168C0015D7BF0069005A0076
:1060F0002E1B8700993F9A005FAD4B0091E4010091
:10610000C05D11002F92E40081FB3F0038DA91005E
:10611000809DC500E0BF6F0012C0B400C309AB0092
:106120003F6BC100034EC100B545BF00F7400500FD
:10613000FF005A00EF3FF300A3E2F700D7FF010092
:1061400040C0B400FF053C0058FC3F003BD3C000FA
:10615000B5BA8C00E23F3900D3C73D004179B200A7
:106160003F870D003C50D000AF623F00304B8D00A8
:10617000A282AA0004400900A0404A00057603005C
:1061800040EC9E003788A60044F03F008F128D003F
:10619000299A5B00C73F0E00E0807C00A1D88600F2
:1061A0003F294B00FB95C200371A3F00806808006A
:1061B000BA647D008E7DB2007DF77D00FA7DFE0021
:1061C0007D027E00067E0A007E0E7E00127E170093
:1061D0007E1C7E00217E26007E577E009E7ECE00A5
:1061E0007EE17E00E47EE8007E0E7F00367F59006F
:1061F0007F697F008F7F97007F9C7F00B87F4F0073
:10620000807780008E80D7008023810050818300BA
:1062100081AD8100C081DE0081FC810018822600F2
:10622000823382004582730082CA8200F1820700B5
:10623000833B83009083B40083D883000000000078
:106240000201E8006110E10004003A009101BA0087
:106250003182BA0006C0BF00000006006210E100F3
:1062600002003A0007C0BF000000060008C0BF00DF
:106270000001EB00000006000600200000002000E6
:106280009001880000062300800078000001EB00E8
:1062900020310200000000000BE0B70020310200B6
:1062A000000000000AE0B7000500E000190032001D
:1062B00005F0A600070037002031020000000000B2
:1062C0000DE0B70020310200000000000CE0B70034
:1062D00005F0A10005E0A6000800370005E0A100D8
:1062E0008502E900203102000000000080437800B0
:1062F00005800900075B7800E5FF370020310200C8
:1063000000000000005B78008502E900FBFF3A0016
:10631000DFFF3700DC1702000000000070E0A8007B
:106320006FE0A80057E0A900C962A900CD62A800EB
:106330005618020000000000D082A800C0E2A800A9
:10634000C942A800C962A800C802A800C822A800C3
:10635000D0E2A800D0C2A800C922A800C902A800A3
:10636000B549A800B569A800B589A8007A18020047
:1063700000000000181902000000000026190200A9
:10638000000000004200F80042E0EF00A21102000D
:10639000000000004200F90040A7A80040A7A800A4
:1063A0003E19020000000000561802000000000024
:1063B000C962A900CD62A800C962A800C142A900B3
:1063C000C542A9003226EF005627EF0041E2A9009E
:1063D00040C2A9004222EF0041E2A8005627EF0088
:1063E00046190200000000006C19020000000000C5
:1063F0000421EF00217420006204200073052000B6
:1064000082487800834878004227A80004082000CA
:106410001408880024032C0024088800A40020000D
:10642000441A88004200F80042E0EF00760F0200B4
:10643000000000004200F90044ABB700245A80007D
:1064400073CF20000418E1001A003600DC170200A8
:106450000000000026190200000000004200F800C1
:1064600042E0EF00A2110200000000004200F9002B
:106470004200F80042E0EF00AA0F02000000000016
:106480004200F9000060FE009619020000000000C2
:10649000A4002000441A88004200F80042E0EF0007
:1064A000760F0200000000004200F90044ABB70084
:1064B000E2FF37008A0F0200000000004200F800EF
:1064C00042E0EF00A20F0200000000004200F900CD
:1064D0000300200004002000250020009E19020077
:1064E00000000000AAABB700AACBBF0046E9B70086
:1064F000ABCBBF0047E9B700B619020000000000AF
:1065000079C9BF004BE9B7007AC9BF004CE9B700B1
:1065100085C9BF0050E9B70081C9BF0052E9B70083
:1065200080C9BF0051E9B7008EC9BF005FE9B7005D
:1065300083C9BF005CE9B70082C9BF005BE9B7004F
:1065400084C9BF005EE9B7005EC9BF00AEEBB7000B
:10655000001A020000000000B7E9B700628AA80034
:106560006B2BA9006E6BEF006D6BEF008200A80033
:106570009400A80063E0A8009660A8009BC0A80053
:106580009560A8009580A8009460A8006B2BA900D6
:1065900094E0A8009500A8009600A8004220EF0013
:1065A000B21B0200000000000600FC006176200023
:1065B0005205200082087800A30A20008308780092
:1065C00027A6A80021742000620420007305200083
:1065D00082487800834878004227A80004002800F9
:1065E00034318800FC22A90027A6A9003E19020028
:1065F000000000009619020000000000044C80001A
:10660000F4CFB20006003A0047C9BF0051E9B70015
:1066100051C9BF0080E9B700A81C020000000000BB
:10662000A66BEF00345D800003042000041CE10031
:1066300005003600F41C0200000000006CEBB700FF
:10664000A66BEC00F7FF3700645B80006224E1007A
:106650000E003A00421D020000000000E0C0B3003E
:10666000B0EBB7008E1E020000000000D0C1B300E6
:10667000B0EBB7008E1E020000000000E0C0B300C7
:10668000B0EBB7008E1E020000000000645B8000CB
:106690006324E10002003A008E20020000000000A6
:1066A0009821020000000000806BEF008A0F0200BA
:1066B000000000004200F80042E0EF00920F0200EC
:1066C000000000004200F9004200F80042E0EF0044
:1066D000A2110200000000004200F90010C0B30047
:1066E00056EBB70056CBBF0022E9B7005E2BEF0098
:1066F000602BEF0050C0B30067EBB700442BEF00F6
:106700004200F80042E0EF00A21102000000000089
:106710004200F90062EAA9004200F80042E0EF00FE
:10672000AA0F0200000000004200F9003E1902001A
:1067300000000000624AA900626AA900C0C1B3005B
:10674000B0EBB7008E1E020000000000B06BEF003F
:106750008E1E0200000000000100200001007800F1
:106760000160EF00740B0200000000008100E800EF
:10677000811F7800BAEBB700521E02000000000033
:10678000CF007800D00120000008E600F3FF3700BA
:1067900046C9BF00BAEBB700521E0200000000005D
:1067A00001022000010078000160EF00740B02007C
:1067B000000000008100E800811F7800BAEBB700FC
:1067C000521E020000000000CF00780040032000AD
:1067D0000008E600F3FF370047C9BF00BAEBB70077
:1067E000521E020000000000E0C1B300B0EBB70091
:1067F0008E1E020000000000844A80004822DE0055
:1068000064C4B20004003200844A80004822DE00E2
:1068100014C5B20005003A0090C1B300B0EBB70058
:106820008E1E02000000000004003700A0C1B3006B
:10683000B0EBB7008E1E020000000000B0C1B30034
:10684000B0EBB7008E1E02000000000020C3B300B2
:1068500048E9B700B269EF00622BEF008020020028
:1068600000000000B549A900B569A900B589A900D3
:106870007A180200000000009821020000000000C9
:10688000B4202000845D8800DC22020000000000AB
:1068900090C1B30066EAB700F222020000000000D7
:1068A0003E1902000000000034292000845D8800A9
:1068B000DC2202000000000090C1B30066EAB700CD
:1068C000F2220200000000003E1902000000000059
:1068D000845C2000845D8800DC220200000000004F
:1068E00090C1B30066EAB700F22202000000000087
:1068F0003E19020000000000B4392000845D8800C9
:10690000DC2202000000000090C1B30066EAB7007C
:10691000F2220200000000003E1902000000000008
:106920000060FE007A18020000000000844A800027
:106930004822DE0064C4B20004003200844A8000B1
:106940004822DE0014C5B20002003A00B5E9A800F2
:1069500001003700B5E9A900B45A80006124E100C4
:106960000700320098210200000000004200F800F9
:1069700042E0EF00AA0F0200000000004200F90010
:10698000B5E9AE000B003700A4578000038A200051
:106990000418E10007003100982102000000000007
:1069A0004200F80042E0EF00AA0F020000000000E1
:1069B0004200F900B5E9AE0008003700A457800096
:1069C000036E20000418E10002003900B569A80038
:1069D00001003700B569A90007003700A4578000FF
:1069E000438620000418E10002003900B569A800C0
:1069F00001003700B569A90062C9BF000160EF005E
:106A0000E10260006128E1001A003A00B5C9AF0058
:106A100018003700B5C9A8003823020000000000A4
:106A20008D49E2001200320062C9BF0088E9B70058
:106A300063C9BF0089E9B70064C9BF008AE9B7002C
:106A400065C9BF008BE9B70066C9BF008CE9B70014
:106A500067C9BF008DE9B700A81C02000000000054
:106A6000F0C1B300B0EBB7008E1E020000000000C2
:106A70000C00370062C9BF000160EF00E102600056
:106A80000500E00007003A00B5C9AE000500370078
:106A9000B5C9A90000C2B300B0EBB7008E1E02005A
:106AA000000000004429EC00B5E9AE002F003700DB
:106AB000B45A80006224E1002B003A0062CAAE00A2
:106AC00029003700045B80006020E10026003900C7
:106AD00003003E00F45A80006F20E10022003600DF
:106AE000626AAF0020003700A4578000236C2000AA
:106AF0000418E1001C00360010C2B300B0EBB70070
:106B00008E1E0200000000005E2BEF00602BEF00E5
:106B1000DE23020000000000362402000000000016
:106B20006104E1000E003A00961902000000000026
:106B3000B824020000000000D82402000000000079
:106B400020C2B300B0EBB7008E1E020000000000B0
:106B5000628AA800622BEF00B269EF0029053700B6
:106B60006E250200000000002E003700B45A80009D
:106B70006224E1002B003A0062CAAE00290037000F
:106B8000045B80006020E1002600390003003E0025
:106B9000F45A80006F20E10022003600626AAF00E4
:106BA00020003700A4578000D37E20000418E100A5
:106BB0001C00360030C2B300B0EBB7008E1E0200DE
:106BC000000000005E2BEF00602BEF00DE230200D0
:106BD0000000000036240200000000006104E10013
:106BE0000E003A009619020000000000B8240200CE
:106BF00000000000D82402000000000020C2B30002
:106C0000B0EBB7008E1E020000000000628AA800F0
:106C1000622BEF00B269EF00FA0437006E25020024
:106C200000000000544A80004822DE00E30F2000EC
:106C3000041CE10051003900B45A80006224E100D4
:106C40004E003A0062CAAE004C0037004BC9BF008C
:106C50000160EF00C40320000400B800C003B000CE
:106C6000045B80006020E1004400390003003E0026
:106C7000F45A80000020E10040003600626AAF0054
:106C80003E0037004BC9BF000160EF00C403200085
:106C90000400B800C403200084024000010020006A
:106CA000010078000160EF00B60B02000000000058
:106CB0008100E800811F7800BAEBB700521E020085
:106CC00000000000CF007800B00120000008E600BE
:106CD000F3FF3700050078000400200014290200AB
:106CE00000000000F1012000010078000160EF00C9
:106CF000B60B0200000000008100E800811F780050
:106D0000BAEBB700521E020000000000CF0078006E
:106D1000600220000008E600F3FF37005E2BEF0062
:106D2000602BEF00DE23020000000000362402008A
:106D3000000000006104E1000E003A009619020014
:106D400000000000B824020000000000D824020067
:106D50000000000020C2B300B0EBB7008E1E02009E
:106D600000000000628AA800622BEF00B269EF0009
:106D7000A40437006E25020000000000626AAE0025
:106D80000A003700EE2902000000000040C2B300F4
:106D9000B0EBB7008E1E020000000000DE230200F0
:106DA000000000006E25020000000000145B80005F
:106DB000A30520000418E10006003E0050C2B30005
:106DC000B0EBB7008E1E0200000000006E2502002E
:106DD0000000000062CAAF0005003700B549A800F6
