:080F8000D22F04000000000064
:080FC800D00D04000000000040
:080FE00088120400000000006B
:10100000C00F0400000000007C0D04000000000080
:10102000BC0C040000000000260C040000000000BE
:081048008C14040000000000FC
:08106000400E04000000000036
:0810B800020D0400000000001D
:0810C0006A0C040000000000AE
:0811B800480D040000000000D6
:081378003220EF0043102000B9
:101380008301500005003100839D20000080410052
:101390001040BA000160EF0000000600809D2000B0
:1013A00083814100808141001380BA000000060063
:1013B0004046400041434100544F440052593100DF
:1013C000000000000000000000000000000000001D
:1013D00000000000000000004056000045520000E0
:1013E000534900004F4E00000000000000000000C4
:1013F00000000000000000000000000000000000ED
:1014000040534000544141005455440053003200C1
:1014100000000000000000000000000000000000CC
:101420000000000000000000404100004E54000099
:101430004D5000000000000000000000000000000F
:10144000000000000000000000000000000000009C
:10145000405040004D0042000000450000004500A3
:10146000000050000000000000000000000000002C
:101470000000000000000000405200005049000041
:10148000000000000000000000000000000000005C
:10149000000000000000000000000000000000004C
:1014A000404240004154520000004500000044000A
:1014B0000000200000004F0000004E00000000006F
:1014C00000000000000000004050000057520000E3
:1014D000494E0000464F0000204F00004E00000023
:1014E00000000000000000000000000000000000FC
:1014F0004050400057525200494E4500464F44006C
:10150000204F200046464F000000460000004600E5
:101510000000000000000000404C0000505200009D
:1015200053540000410000000000000000000000D3
:1015300000000000000000000000000000000000AB
:1015400040544000494D420045004C000000550009
:10155000000045000000200000004F0000004E0089
:101560000000000000000000404400004154000062
:101570004500000000000000000000000000000026
:10158000000000000000000000000000000000005B
:10159000405240005443420043464C000000550076
:1015A000000045000000200000004F000000460041
:1015B00000004600000000003220EF0083AE200053
:1015C000008041001040BA000160EF0000000600FA
:1015D0000A0D00004261000064200000436F00001B
:1015E0006D6D0000616E0000643A0000257300001C
:1015F000000000003220EF00A30220008301500011
:101600000500310063B12000008041001040BA00A5
:101610000160EF000000060060B1200083814100FE
:10162000808141001380BA00000006000A0D780096
:1016300055503A005320250050493000636F320066
:101640002053780074613A007274250020543000F1
:10165000696D32006520780053743A00616D250091
:10166000703A300025783200202D78003E200A00A4
:1016700025300D00327800003A250000303200009D
:101680003220EF00C3B42000008041001040BA00B7
:101690000160EF00000006000A0D00005550000038
:1016A0005320000050490000636F000020530000E9
:1016B000747200007563000074200000546900001B
:1016C0006D6500003A25000030320000783A0000D5
:1016D00025300000327800003A250000303200004A
:1016E000780A00000D0000003220EF0063022000A5
:1016F000830150000500310003B920000080410043
:101700001040BA000160EF000000060000B92000A0
:1017100083814100808141001380BA0000000600EF
:101720000A0D4C0055506F00532061005049640071
:10173000636F650020487200563320002E3056003B
:101740000A0D65005043720042207300566569001F
:1017500072736F00696F6E006E3A3A002543250080
:101760000A0D4300426F00006F7400003220EF004A
:1017700023BC2000008041001040BA000160EF004F
:10178000000006000A0D0000546900006D650000AD
:10179000642000004653000053440000204600002F
:1017A0005353000044200000555000005320000017
:1017B00050490000636F0000203A0000254C0000F3
:1017C0005520000073650000636F00006E64000028
:1017D000730000003220EF0003022000830150005C
:1017E0000500310063C02000008041001040BA00B5
:1017F0000160EF000000060060C02000838141000E
:10180000808141001380BA00000006000A0D6F00BD
:101810004261200074743A006572250079207500D9
:10182000527520006E6E7300696E6500672063005C
:1018300074696F006D656E002075640070647300DC
:101840006174000065640000207400008580A900B8
:101850004200F8003600F8003200F800801F7800DF
:10186000200020000C000900B01F7800B9C9BF009B
:10187000DA49E3000F003200D44E80000960EF0027
:10188000A39B2000030042009042780005407800AE
:101890002302AE00FEFF370024E2B7002562EF000E
:1018A000D44E80000960EF00E10242007FC0620078
:1018B000DAE9B700A00120000C0009004F10780001
:1018C0004F0078003200F9003600F9004200F900BC
:1018D0000040060087E0A9004200F8003600F8004A
:1018E0003200F800801F7800200020000C00090062
:1018F000B01F7800DBC9BF00FC49E3000F003200D5
:10190000E44F80000960EF00C39D20000300420007
:1019100090427800054078002302AE00FEFF3700B9
:1019200024E2B7002562EF00E44F80000960EF0079
:10193000E10242007FC06200FCE9B700A001200084
:101940000C0009004F1078004F0078003200F900B9
:101950003600F9004200F900004006002202AE0005
:10196000FEFF37002202F8000008F9003011800065
:101970002222A900000006004200F8003600F8000C
:101980003200F800801F7800200020000C000900C1
:10199000B01F7800E44F80004822DE00E39F200063
:1019A00083024200AE0C020000000000804A780072
:1019B000FDC9BF00E4EBB700E44F80004822DE0021
:1019C000E10242007FC06200FDE9B700FDC9BF002F
:1019D0001E4AE30002003A00E4CBBF00FDE9B70075
:1019E0008560A900A00120000C0009004F107800BC
:1019F0004F0078003200F9003600F9004200F9008B
:101A0000004006004200F8003600F8003200F800FE
:101A1000801F7800200020000C000900B01F780013
:101A2000F45080004822DE0003A22000830242001E
:101A3000AE0C020000000000804A78001FCABF0000
:101A4000E6EBB700F45080004822DE00E1024200DD
:101A50007FC062001FEAB7001FCABF00404AE30010
:101A600002003A00E6CBBF001FEAB70087C0A9001A
:101A7000A00120000C0009004F1078004F007800F2
:101A80003200F9003600F9004200F900004006007B
:101A90004200F8003600F8003200F800801F78009D
:101AA000200020000C000900B01F7800000000009A
:101AB0008BC0A900A00120000C0009004F10780085
:101AC0004F0078003200F9003600F9004200F900BA
:101AD00000400600664AE20002003200666AED003D
:101AE00004003700664AE20002003A0080FF2F003F
:101AF0009A21B600000006004200F8003600F80007
:101B00003200F800801F7800200020000C0009003F
:101B1000B01F78006A0D020000000000744BE20064
:101B200002003200746BED00140037006F6BEC00A4
:101B30006B2BAF0004003700C942A900CD42A800BA
:101B40006B2BA800050037006B2BAE00030037009D
:101B5000C942A900CD42A9006B2BA9006FCBBF00E1
:101B60000000FB00040420000020E10001003D0013
:101B70006F6BEF0040C1B30074EBB7008500A900A4
:101B8000A00120000C0009004F1078004F007800E1
:101B90003200F9003600F9004200F900004006006A
:101BA0004200F8003600F8003200F800801F78008C
:101BB000200020000C000900B01F7800745B80003A
:101BC0006A24E1000100310012003700C8E2A800D9
:101BD000CAE2AE00020037006E6BEF000D00370066
:101BE000944D80004822DE006124E10003003A00A9
:101BF0006E6BEF00B369EF0006003700626AAF005A
:101C00000300370062CAAE0001003700626AA80014
:101C10006E6BEF008400A900A00120000C000900F9
:101C20004F1078004F0078003200F9003600F900BC
:101C30004200F90000400600851F780064C9BF001B
:101C40000160EF00E10260006128E10001003A005C
:101C50000348A800CF02780000000600851F780026
:101C600064C9BF000160EF00E10260006128E1008B
:101C700001003A000348A900CF02780000000600E6
:101C80004200F8003600F8003200F800801F7800AB
:101C9000200020000C000900B01F7800645B800069
:101CA0004822DE006A24E1000100310027003700ED
:101CB000586BEC00B45A80006224E100100032003E
:101CC00040C0B3006AEBB7006B0BAF0005003700F4
:101CD0006B0BA8000308A8001C0E02000000000007
:101CE000060037006B0BAE00040037006B0BA90039
:101CF0000308A9002E0E02000000000011003700AA
:101D0000B45A80006224E1000E003A006A4BE200FF
:101D1000010032006A6BED006A4BE20006003A00F7
:101D200040C0B3006AEBB7000308A8001C0E020015
:101D300000000000030037000308A9002E0E020077
:101D4000000000006D6BEF00000000008660A9003D
:101D5000A00120000C0009004F1078004F0078000F
:101D60003200F9003600F9004200F9000040060098
:101D700085A0A9004003A9004023A80085A0AE00CB
:101D8000FEFF37004003AE00FEFF37000083BF00B8
:101D900000A0B70000000600851F7800861F7800AD
:101DA00000012000EA0BB400104278006624E10034
:101DB00028003100EA8BBF0090027800200020004C
:101DC000EA0BB40000027800140078000028E1005B
:101DD0000600310020002000EA0BB40080027800E9
:101DE000EA8BBF001002780084029800EA8BBF00E3
:101DF0009002780040002000EA0BB4000002780056
:101E0000140078000500E1000600310040002000C9
:101E1000EA0BB40080027800EA8BBF001002780061
:101E20008402980060002000EA0BB4008002780071
:101E3000EA8BBF000002780014007800950A400089
:101E400000012000EA0BB40080027800954AE80007
:101E50003000370060002000EA0BB40080027800F8
:101E600020002000EA0BB400000278001400780083
:101E700015027800800A520060002000EA0BB400CE
:101E80008002780040002000EA0BB40000027800D5
:101E90001400780015027800800A520080002000AB
:101EA000EA0BB4008002780060002000EA0BB40066
:101EB000100378004230DE00800A78000001200024
:101EC000EA0BB40080027800804AEB00400020005A
:101ED000EA0BB40080027800804AEB0000C0B30037
:101EE0009042980020002000EA0BB40080027800A5
:101EF00080CAEB00F0C0B300904298006000200060
:101F0000EA0BB40080027800804AEB0000C0B30006
:101F1000904298004F037800CF027800000006003E
:101F2000C122A900C522A80003C8A800000006001D
:101F3000D0A2A900D4A2A80003E8A80000000600CF
:101F4000C102A900C502A8000408A80000000600FC
:101F5000D082A900D482A8000428A80000000600AE
:101F60005960A9007160A80000000900000000008D
:101F7000C8A2A900CCA2A80003A8A90000000600DE
:101F80004200F8003600F8003200F800801F7800A8
:101F9000200020000C000900B01F7800745B800056
:101FA0007024E100010031006E6BEC00645B800086
:101FB0004822DE007024E100010031006D6BEC006E
:101FC00062EAAE0001003700D6003700754BE20030
:101FD00002003200756BED0004003700754BE20023
:101FE00002003A0080C0B30075EBB7004823EF0051
:101FF000B80E0200000000006CAAB700C4A62000C2
:10200000545F8800CC0E0200000000001400200085
:10201000441A8800B80E0200000000007EAAB70033
:10202000E4A72000545F8800CC0E020000000000EE
:1020300064002000441A8800B80E0200000000006E
:1020400090AAB70004A92000545F8800CC0E0200BB
:1020500000000000A45B80004822DE006824E1004C
:102060000B003A00D062A900D462A80084002000CE
:10207000441A8800B80E020000000000D8AAB70079
:1020800084AD2000545F8800CC0E020000000000E8
:10209000A45B80004822DE006724E1000B003A00C8
:1020A000D062A900D462A90074002000441A8800FC
:1020B000B80E020000000000A2AAB70024AA200067
:1020C000545F8800CC0E020000000000A45B80007A
:1020D0004822DE006624E1000B003A00D062A9002D
:1020E000D462A80074002000441A8800B80E0200D0
:1020F00000000000B4AAB70044AB2000545F880081
:10210000CC0E020000000000A45B80004822DE002C
:102110006524E1000D003A007180A9005980A800F3
:10212000D062A900D462A90084002000441A88006B
:10213000B80E020000000000C6AAB70064AC200080
:10214000545F8800CC0E020000000000A45B8000F9
:102150004822DE006424E1000B003A00D062A900AE
:10216000D462A800D4002000441A8800B80E0200EF
:1021700000000000EAAAB700A4AE2000545F880067
:10218000CC0E020000000000A45B80004822DE00AC
:102190006324E1000B003A00D062A900D462A900D8
:1021A000D4002000441A8800B80E0200000000008D
:1021B000FCAAB700C4AF2000545F8800CC0E020018
:1021C00000000000A45B80004822DE006224E100E1
:1021D00009003A0094002000441A8800B80E02005A
:1021E000000000000EABB700E4B02000545F880090
:1021F000CC0E020000000000A45B80004822DE003C
:102200006124E10009003A00E4002000441A88003B
:10221000B80E02000000000020ABB70004B220009E
:10222000545F8800CC0E020000000000754BE200F5
:1022300009003A00B4002000441A8800B80E0200D9
:102240000000000032ABB70024B32000545F8800C8
:10225000CC0E020000000000A4002000441A8800F8
:10226000B80E02000000000044ABB70044B42000E8
:10227000545F8800CC0E020000000000628AAE00AD
:102280000B003700900F020000000000980F0200C2
:1022900000000000A00F020000000000A80F0200D4
:1022A00000000000B00F0200000000001D00370019
:1022B000245A800043DB20000418E1001900390093
:1022C000B45A80006224E1001600320062CAAE00F7
:1022D00014003700900F020000000000980F020069
:1022E00000000000A00F020000000000B00F02007C
:1022F0000000000020C0B30056EBB70056CBBF0073
:1023000024E9B70050C0B30066EBB7005E2BEF00C6
:10231000602BEF00843E2000245B8800676BEF0099
:10232000000037000000000084E0A900A0012000A8
:102330000C0009004F1078004F0078003200F900BF
:102340003600F9004200F90000400600C102A90071
:10235000C502A9000408A9000000060062EAA8005E
:10236000449C2000445B8800A4002000441A88009C
:10237000A611020000000000680BE2000E0032000F
:10238000682BED00B80E02000000000044ABB7005F
:102390000060FE00245A800043DB20000418E100A6
:1023A00004003600A00F02000000000062EAA9004D
:1023B0000D003700F0FF3700442BEF0050C0B30092
:1023C00067EBB70010C0B30056EBB70056CBBF00A9
:1023D00024E9B7005E2BEF00602BEF00A61102008E
:1023E0000000000062EAA90000000600C44D800061
:1023F0006A24E1000100310021003700B869ED00D6
:1024000010C0B300ECEBB700C162A900C562A9001F
:10241000C842A900CC42A8003E0609000000000006
:10242000C842A900CC42A9003E06090000000000F5
:10243000EC4BE2000A003200C162A900C562A800AC
:102440003E06090000000000C162A900C562A900A3
:102450003E06090000000000EC6BED00F4FF3700C1
:10246000C162A900C562A9003E0609000000000083
:10247000C842A900CC42A8003E06090000000000A6
:1024800000000600C44D8000F3032000041CE1009E
:1024900001003E001D003700B869EC0010C0B30019
:1024A000ECEBB700C162A900C562A8003E060900B6
:1024B00000000000C842A900CC42A9003E06090065
:1024C00000000000EC4BE2000A003200C162A900EB
:1024D000C562A8003E06090000000000C162A90014
:1024E000C562A9003E06090000000000EC6BED008B
:1024F000F4FF3700C842A900CC42A8003E060900FC
:1025000000000000C162A900C562A800000006002A
:102510004200F8003600F8003200F800801F780012
:10252000200020000C000900B01F7800ED6BEF00C8
:10253000ED6BEC002706A8002726A8002406F8006B
:10254000F60BF900F6CBBF007CEBB700F7CBBF0072
:10255000ECEBB7002406F800F60BF900F6CBBF0051
:102560007AEBB700F7CBBF007BEBB7002406F8008F
:10257000F60BF900F6CBBF0078EBB700F7CBBF0046
:1025800079EBB7002406F800F60BF900F6CBBF0094
:1025900076EBB700F7CBBF0077EBB7002706A800B4
:1025A0002726A8002406F800F60BF900F6CBBF009A
:1025B000F4EBB700F7CBBF00ECEBB7002406F80054
:1025C000F60BF900F6CBBF00F2EBB700F7CBBF007C
:1025D000F3EBB7002406F800F60BF900F6CBBF00CA
:1025E000F0EBB700F7CBBF00F1EBB7002406F80023
:1025F000F60BF900F6CBBF00EEEBB700F7CBBF0050
:10260000EFEBB700645F80004822DE006324E10046
:102610000100390022003700F4CBBF007C4BE300FF
:1026200002003200C2FF37001D003700F2CBBF00AE
:102630007A4BE30002003200BDFF3700180037007C
:10264000F3CBBF007B4BE30002003200B8FF370042
:1026500013003700F0CBBF00784BE30002003200DC
:10266000B3FF37000E003700F1CBBF00794BE3001A
:1026700002003200AEFF370009003700EECBBF008A
:10268000764BE30002003200A9FF37000400370058
:10269000EFCBBF00774BE30001003200A4FF37000F
:1026A0006B6BAF00020037006B6BA80003003700B4
:1026B0006B6BAE00010037006B6BA90058CBBF00FD
:1026C000594BE30003003A0062CAA900586BEF00BF
:1026D0000900370058CBBF00594BE3000600320019
:1026E00062CAA800586BEF00622BEF005A2BEC0077
:1026F0004220AF005C2BEC0058CBBF0059EBB70079
:1027000062CAAE0006003700B45A80006224E100BD
:1027100003003A005E2BEC004220AF00602BEC007F
:1027200062CAAF0001003700622BEC0062CAAE0043
:102730000D003700B45A80006224E1000A003A001C
:10274000664BE20002003200666BED0006003700C7
:10275000664BE20004003A0050C0B30066EBB700DD
:10276000AE11020000000000674BE20001003200E1
:10277000676BED00674AE20001003200676AED0016
:102780000548E20005003200944D80004822DE003A
:102790006124E10001003A000568ED00B449E2005F
:1027A0000300320062CAAF0001003700B469ED00D7
:1027B000B4588000A33620000418E1001D00390041
:1027C00003A8AE001A003700B45A80006224E1006A
:1027D00017003200A00F02000000000062EAA8000B
:1027E000645A800013E720000418E100070031005C
:1027F000C44D8000C3032000041CE100020031002E
:10280000F61102000000000006003700245A800084
:1028100013E720000418E100020039004212020010
:102820000000000062EAA900A611020000000000FA
:102830001400370003A8AE0012003700B45A80001D
:102840006224E1000F00320062EAA800B458800060
:10285000134E20000418E10003003100F6110200BD
:10286000000000000600370074588000134E20005E
:102870000418E100020039004212020000000000CA
:1028800062EAA9008460A900A00120000C000900F0
:102890004F1078004F0078003200F9003600F90040
:1028A0004200F90000400600F0FF2F000862AE0071
:1028B000FEFF37000922AF00040037000742AE00D8
:1028C000020037000902AE00F8FF37000822AE0010
:1028D000FEFF37000082BF0008C2AF0008C2A90097
:1028E0000782A80000000600F0FF2F000862AE007B
:1028F000080037000842AE00060037000742AE006D
:10290000020037000902AE000200370011108800F3
:102910000782A800000006004200F8003600F80018
:102920003200F800801F7800200020000C00090011
:10293000B01F780008A2AF0004003700846BEF00DE
:102940000842AE000100370084EBA80084CBBF0032
:102950000160EF00846BEC00F7EBB700B45F800020
:102960004822DE0003082000041CE100E6003900D4
:10297000B45F80004822DE0004C8B20003003A00C1
:1029800000C2BF00F6EBB7000600370011002000C0
:10299000811F7800CF00780054140200000000006E
:1029A000F6EBB700F74BE20004003200B45F8000A2
:1029B0004822DE0004C8B20003003A00F6CBBF0094
:1029C00082EBB700D0003700B45F80004822DE0001
:1029D0006124E10003003A00F6CBBF0083EBB700AF
:1029E000C9003700B45F80004822DE006224E100A5
:1029F000C5003900B45F80004822DE0004C8B20080
:102A0000C1003200145C800004CDB2005D003A00C9
:102A1000145C80004822DE006724E1002C003E00A8
:102A200083CBBF00836BEC000080FB0064B7200009
:102A300084024000F68BBF00804298002966A900FE
:102A40002946A9002706A8002726A800871F780086
:102A5000881F78000500FC0057052000373B8800E0
:102A6000A80A2000383B880027A6A8004F04780059
:102A7000CF0378007CCBBF00F8EBB700F96BEF0019
:102A8000F80BF8002406F9007ACBBF00F8EBB7008A
:102A90007BCBBF00F9EBB700F80BF8002406F90078
:102AA00078CBBF00F8EBB70079CBBF00F9EBB700EC
:102AB000F80BF8002406F90076CBBF00F8EBB7005E
:102AC00077CBBF00F9EBB700F80BF8002406F9004C
:102AD000145C80004822DE006724E10029003A00EF
:102AE0002966A9002946A9002706A8002726A800CC
:102AF000871F7800881F78000500FC00570520001C
:102B0000373B8800A80A2000383B880027A6A80089
:102B10004F047800CF0378007CCBBF00F8EBB70000
:102B2000F96BEF00F80BF8002406F9007ACBBF0030
:102B3000F8EBB7007BCBBF00F9EBB700F80BF80060
:102B40002406F90078CBBF00F8EBB70079CBBF00C3
:102B5000F9EBB700F80BF8002406F90076CBBF00BC
:102B6000F8EBB70077CBBF00F9EBB700F80BF80034
:102B70002406F90010C0B30081EBB70020C0B300F9
:102B800080EBB700145C800024CDB2000D003A0049
:102B9000145C80004822DE0073022000041CE10067
:102BA0000700390083CBBF00836BEC000080FB0083
:102BB0004492200084024000F68BBF0080429800BF
:102BC00051003700145C800044CDB20031003A005F
:102BD000145C80004822DE006824E1002C003E00E6
:102BE00083CBBF00836BEC000080FB0064B7200048
:102BF00084024000F68BBF00804298002966A9003D
:102C00002946A9002706A8002726A800871F7800C4
:102C1000881F78000500FC0057052000373B88001E
:102C2000A80A2000383B880027A6A8004F04780097
:102C3000CF0378007CCBBF00F8EBB700F96BEF0057
:102C4000F80BF8002406F9007ACBBF00F8EBB700C8
:102C50007BCBBF00F9EBB700F80BF8002406F900B6
:102C600078CBBF00F8EBB70079CBBF00F9EBB7002A
:102C7000F80BF8002406F90076CBBF00F8EBB7009C
:102C800077CBBF00F9EBB700F80BF8002406F9008A
:102C90001D003700145C800064CDB2000C003A00C7
:102CA000145C80004822DE007724E10007003E002B
:102CB00083CBBF00836BEC000080FB00C49420003A
:102CC00084024000F68BBF00804298000E0037005F
:102CD000145C800084CDB2000B003A00145C8000CC
:102CE0004822DE007724E10007003E0083CBBF00CE
:102CF000836BEC000080FB004496200084024000BF
:102D0000F68BBF0080429800B45F80004822DE004E
:102D100003082000041CE100A0003E00B45F800016
:102D20004822DE0004C8B20002003A0000C2BF0020
:102D3000F6EBB700145C800014CDB20015003A0029
:102D4000145C80004822DE006824E1000A003E0096
:102D500083CBBF00836BEC000080FB0064B72000D6
:102D6000040040009042780085407800741402000E
:102D70000000000007003700145C80004822DE00DD
:102D80006824E1000300360080C0EB0074140200E8
:102D900000000000145C800034CDB2001A003A003C
:102DA000145C80004822DE0073022000041CE10055
:102DB0000C003900FE0009000000000083CBBF00BA
:102DC000836BEC000080FB00449220000400400074
:102DD00090427800854078007414020000000000E2
:102DE00008003700145C80004822DE0073022000D7
:102DF000041CE1000300310080C0EB0074140200E9
:102E00000000000065003700145C800054CDB20063
:102E100018003A00145C80004822DE006824E100BB
:102E20000C003E00FE0009000000000083CBBF0044
:102E3000836BEC000080FB0064B7200004004000BE
:102E40009042780085407800741402000000000071
:102E500007003700145C80004822DE006824E1008F
:102E60000300360080C0EB00741402000000000074
:102E70004A003700145C800074CDB20018003A009C
:102E8000145C80004822DE007724E1000C003E0044
:102E9000FE0009000000000083CBBF00836BEC0044
:102EA0000080FB00C49420000400400090427800A1
:102EB000854078007414020000000000070037000D
:102EC000145C80004822DE007724E1000300360015
:102ED00080C0EB0074140200000000002F003700D7
:102EE000145C800094CDB20018003A00145C80009D
:102EF0004822DE006624E1000C003E00FE000900CE
:102F00000000000083CBBF00836BEC000080FB005F
:102F100044962000040040009042780085407800EC
:102F2000741402000000000007003700145C8000E9
:102F30004822DE006624E1000300360080C0EB007A
:102F4000741402000000000014003700145C8000BC
:102F5000B4CDB20004003A0080C0EB00741402004B
:102F6000000000000D003700145C8000D4CDB200DA
:102F700004003A0080C0EB0074140200000000005E
:102F800006003700145C8000F4CDB20003003A0064
:102F900080C0EB007414020000000000000000007C
:102FA0008600A900A00120000C0009004F10780045
:102FB0004F0078003200F9003600F9004200F900B5
:102FC00000400600C122A900C522A90003C8A9002B
:102FD00000000600E70160004300DE000200400040
:102FE0000000A700E88141000000A1000104E0000A
:102FF0001098AD0000000600851F7800D122A900BE
:10300000D522A900C8C2A900CCC2A90010C0B30033
:10301000B6EBB700B45D80006824E10013003E0009
:10302000B48BBF00904278000508B2000500E000B4
:1030300003003A00C162A900C562A900020037007E
:10304000C162A900C562A800A15D80004200A9007C
:1030500091D8D200D122A900D522A800D122A9005E
:10306000D522A900B66BEC00EAFF3700C8C2A90060
:10307000CCC2A800C8C2A900CCC2A900CF02780067
:103080000000060022802000B2CBBF000160EF00EC
:1030900011002000EA1702000000000002C8BF0073
:1030A000B3EBB70034BB2000A45D8800FC1702001E
:1030B000000000000000060060C0B300B2EBB700E3
:1030C00042180200000000000000060022802000DC
:1030D000B2CBBF000160EF0001002000EA17020040
:1030E0000000000002C8BF00B3EBB70034BB2000F3
:1030F000A45D8800FC17020000000000000006002C
:10310000851F7800044B80004822DE006124E10026
:103110002C003A000308AE0004003700B26BEF0049
:103120004218020000000000050037000308AF004D
:1031300003003700B26BEF006618020000000000C9
:103140000328AE000500370050C0B300B2EBB70053
:103150004218020000000000060037000328AF00FC
:103160000400370050C0B300B2EBB700661802008D
:10317000000000000348AE000500370040C0B30067
:10318000B2EBB70042180200000000000600370052
:103190000348AF000400370040C0B300B2EBB700F3
:1031A000661802000000000064C9BF000160EF0063
:1031B000E10260000500E00001003A000348A900B8
:1031C0000D0037006149E2000B003A00B26BEF00DE
:1031D000661802000000000050C0B300B2EBB70058
:1031E000661802000000000040C0B300B2EBB70058
:1031F0006618020000000000CF0278000000060000
:1032000010C0B300B2EBB70042180200000000008B
:103210000000060020C0B300B2EBB7004218020065
:10322000000000000000060030C0B300B2EBB700A1
:103230004218020000000000000006000019020011
:10324000000000000A19020000000000141902002A
:103250000000000000000600D0A2A900D4A2A9002E
:1032600003E8A900000006000000E0004220AF00D3
:10327000040037007B3E0900000000000000E90068
:10328000FCFF3A000000060040062000341902004E
:103290000000000000000600F40020000427880061
:1032A00004002F00142788007400200024278800C1
:1032B000F40020000427880004002E001427880052
:1032C000740020002427880004002800141A8800B5
:1032D00034002100241A880004472800041A8800BA
:1032E000000006001021EF0094042000640888000C
:1032F00004022800840888001221EF00042720001F
:103300007408880004032800940888001E21EF0038
:10331000840C2000D408880004022800F4088800E7
:103320002021EF00840C2000E4088800040128001C
:103330000409880000000600A00F200034190200D4
:10334000000000000000060001E02F008381400023
:10335000F1072000E0804800910188000500A100ED
:103360000500E00003003200331ABA008582E9004C
:10337000FCFF3A0000000600851F7800B02BEF002C
:10338000AE6BEF00B02BEF00845D8000A303200044
:103390000418E1001B0039000060FE00835D80001E
:1033A0000400200025002000A419020000000000F5
:1033B000B2ABB700AECBBF00AE6BEC000080FB0041
:1033C0008497200084024000B28BBF0080429800A6
:1033D000AECBBF00AE6BEC000080FB0084972000FA
:1033E00084024000B3CBBF00804A78007E3E0900D3
:1033F00000000000845D800062004200B0ABB700B6
:10340000E1FF3700CF02780000000600851F78003A
:10341000B0CBBF00B1EBB700B16BD500845D8000CD
:103420004822DE008447B20004407800B1EBB700C8
:10343000B1CBBF000160EF004200DE00845D800080
:103440004822DE0084024000B0CBBF000160EF00E4
:103450006F00600005004000CF0278000000060009
:10346000851F7800C500200003000900B51F780003
:103470000202B8000303B8004200A900850243001D
:1034800060844B00020BB80085024B0008844B009F
:10349000030BB800080443000780B00087017800E0
:1034A00008017800850078000400780025012000DC
:1034B00003000900CF127800CF0278000000060058
:1034C000851F7800C500200003000900B51F7800A3
:1034D000090020004300AF0019002000891F780078
:1034E0000002EB008002EB000003EB008003EB0026
:1034F0000304690011003200080220004200A90004
:103500000080D2008180D2000482D2008582D20065
:103510000328E10001003A0002A0E10003003900A5
:103520000202520083825A004200A8000683D200A1
:103530008783D2000804E900F0FF3A008700780092
:1035400006007800CF0478000900E0000100320096
:103550000400BE002501200003000900CF127800FE
:10356000CF02780000000600851F7800C50020000B
:1035700007000900B51F7800BC2BD500BAABD700F7
:103580008046EB00B68BBF00C15D800002012000C9
:1035900003002000301A0200000000000001780043
:1035A00081017800BA8BBF00E15D8000601A0200E3
:1035B00000000000E1025000608358006130E1002B
:1035C0000500390002003E006028E10002003900D9
:1035D000F5FF2F0006002000E180420060014B0053
:1035E0000100780082007800020120000300200022
:1035F000301A02000000000000017800810178000C
:10360000BA8BBF00E15D8000601A0200000000007C
:10361000C45D80000120E1000500390009003E0082
:10362000B45D80000020E100010039000500370092
:10363000B45D800084045000C45D8000048558009F
:1036400004003700B45D800080045200C45D800037
:1036500001055A00B68BBF00C15D8000420020000A
:1036600003002000301A0200000000000001780072
:1036700081017800BA8BBF00E15D8000601A020012
:1036800000000000E1035000608458006140E10048
:103690000500390002003E006038E10002003900F8
:1036A000F7FF2F0008002000E180430060014C007C
:1036B0000100780082007800420020000300200012
:1036C000301A02000000000000017800810178003B
:1036D000BA8BBF00E15D8000601A020000000000AC
:1036E000C45D80000120E1000500390009003E00B2
:1036F000B45D80000020E1000100390005003700C2
:10370000B45D800084055000C45D800004865800CC
:1037100004003700B45D800080055200C45D800065
:1037200001065A000C50E1000500390002003E007D
:103730000B48E100020039001DC0B3008702780089
:10374000040028000411880004402000141188009F
:103750001A00AF002062A80045118800A5012000D2
:1037600007000900CF127800CF02780000000600A1
:1037700021E2A8002342A80004202C00945D8800C8
:1037800014002000A45D88007C49E2000B003A0090
:10379000D0E2A800D0C2A8007020A9005820A9003B
:1037A0007040A9005840A90021E2A9002342A900C5
:1037B000441902000000000028003700E44B80009C
:1037C0006124E10003003A00042C2100945D88008C
:1037D000B42BEF00E44B80006224E10003003A00C8
:1037E00004582200945D8800B42BEF00E44B800065
:1037F0006324E10003003A0004B02400945D8800D3
:10380000B42BEF00E44B80006424E10003003A0095
:1038100004602900945D8800B42BEF00E44B800025
:103820006524E10003003A0004102E00945D880036
:10383000B42BEF00B20BF800B60BF900B40BF80094
:10384000B80BF90004802400D45D8800841E200099
:10385000E45D8800B41A02000000000000000600C9
:103860004200F800801F780014028000040EB300AC
:1038700014028800013B880054052000343B880076
:10388000A40A2000343B880061E7A8000000000083
:103890000000000061E7AF00FEFF37004F00780036
:1038A0004200F900000006004200F800801F780086
:1038B00014028000040EB30014028800013B88004B
:1038C00054052000343B8800A40A2000343B8800C3
:1038D00061E7A80000000000000000004F00780031
:1038E0004200F90000000600811F780001E02F006F
:1038F000008040008000EB00F1072000E0804800DD
:1039000091018800CF0078000200A1000200E000D1
:10391000110032001108BB00811F78000100200057
:10392000301C020000000000CF0078003108BB000E
:103930000080E80001003A003220EC00811F78008E
:1039400041002400541C020000000000CF00780059
:103950000281E900EFFF3A0000000600851F7800B1
:10396000B26BEF00B42BEF00A45D8000A303200036
:103970000418E1001D0039000060FE00B2CBBF005A
:10398000B26BEC000080FB00849720000400400034
:10399000B45D800000429000B45D8800B2CBBF00EF
:1039A000B26BEC000080FB00849720000400400014
:1039B000801F780010407800B7EBB7004F00780008
:1039C000B48BBF0061BB200022002000741C0200E9
:1039D000000000007E3E090000000000A45D8000A1
:1039E00062004200B4ABB700DFFF3700CF027800BF
:1039F0000000060044598000837020000418E10094
:103A00000400360030C0B30000E0B7001F003700EC
:103A10001E00370044598000837020000418E10024
:103A200008003E0044598000638620000418E1002D
:103A30000400390020C0B30000E0B70013003700D5
:103A40001200370044598000638620000418E1000A
:103A500008003E0044598000239920000418E1002A
:103A60000400390010C0B30000E0B70007003700C1
:103A70000600370044598000239920000418E10013
:103A8000020031000060EF00000037000000060077
:103A90000600FC00617620005205200082087800B4
:103AA000A30A20008308780027A6A800217420001C
:103AB0006204200073052000824878008348780063
:103AC0004227A8000400280034318800FC22A90005
:103AD00027A6A9007C6BEF0010C0B3007BEBB700FA
:103AE00010C0B3007AEBB70010C0B30079EBB70099
:103AF000786BEF00776BEF00766BEF002966A9001B
:103B00002946A9002706A8002726A800871F7800B5
:103B1000881F78000500FC0057052000373B88000F
:103B2000A80A2000383B880027A6A8004F04780088
:103B3000CF0378007CCBBF00F8EBB700F96BEF0048
:103B4000F80BF8002406F9007ACBBF00F8EBB700B9
:103B50007BCBBF00F9EBB700F80BF8002406F900A7
:103B600078CBBF00F8EBB70079CBBF00F9EBB7001B
:103B7000F80BF8002406F90076CBBF00F8EBB7008D
:103B800077CBBF00F9EBB700F80BF8002406F9007B
:103B900000000600861F7800871F7800881F7800C5
:103BA000891F78000002EB008002EB000003EB00AD
:103BB0008003EB00030469001100320008022000BA
:103BC0004200A9000080D2008180D2000482D2008D
:103BD0008582D2000328E10001003A0002A0E10042
:103BE000030039000202520083825A004200A800FA
:103BF0000683D2008783D2000804E900F0FF3A0070
:103C00008700780006007800CF0478004F04780021
:103C1000CF0378004F03780000000600821F780071
:103C2000831F7800851F78004300A9003200200020
:103C300003002000CA1D0200000000004200A9008D
:103C40000080D2008180D20091018800CF027800EC
:103C5000CF0178004F0178000300E000130032002C
:103C6000E3006200050032000000E8008100E90086
:103C7000070032000000E900080037000300E00000
:103C80000A0032003059BA008301E900070032000F
:103C90002059BA008301E9000400320030D9BA008B
:103CA0000000E8008301E900F4FF3700000006008F
:103CB000851F7800B9C9BF00DA49E300020032006D
:103CC0000040EB000100370010C0B300BDEBB700AF
:103CD000C44D80004822DE00A39B200083024200E6
:103CE000BC8BBF0080429800C44D80004822DE009B
:103CF000E10242007F806200BEABB700DAC9BF00BC
:103D00000160EF00BE0BE300FCFF3200BECBBF0042
:103D1000B9E9B700BD4BE200010032008580A80080
:103D2000CF02780000000600851F7800861F78000B
:103D3000871F7800881F7800B2CBBF000160EF00BA
:103D40004100DD00C48B20008402400005007800A3
:103D500090037800851F780007007800010020009C
:103D600002012000130020000E1E020000000000CF
:103D7000CF02780010C0BF000040B3004220AF0067
:103D8000070037008703E800BC0BF800E8FF9F003E
:103D9000BC0BF900581E020000000000EDFF3700C8
:103DA00044190200000000004F047800CF0378009F
:103DB0004F037800CF02780000000600F55D800018
:103DC0004300A900BA8BBF00E15D8000B25D8000B6
:103DD000C35D8000601A0200000000000100E000E6
:103DE00013003A000000E000110032000500E0007E
:103DF0000E003200823E200003002000301A020034
:103E0000000000000100E00002003A000000E000B5
:103E100062003A004300A900823E20000300200017
:103E2000601A020000000000010037005B0037004C
:103E30004300A9008200200003002000601A020055
:103E4000000000000100E00013003A000000E00064
:103E5000110032000500E0000E003200823E20001A
:103E600003002000301A0200000000000100E00002
:103E700002003A000000E00044003A004300A900BC
:103E8000823E200003002000601A020000000000B3
:103E9000010037003D0037004300A90082002000E8
:103EA00003002000601A0200000000000100E00092
:103EB00013003A000000E000110032000500E000AD
:103EC0000E003200823E200003002000301A020063
:103ED000000000000100E00002003A000000E000E5
:103EE00026003A004300A900823E20000300200083
:103EF000601A020000000000010037001F003700B8
:103F00004300A9004200200003002000601A0200C4
:103F1000000000000100E00013003A000000E00093
:103F2000110032000500E0000E003200823E200049
:103F300003002000301A0200000000000100E00031
:103F400002003A000000E00008003A004300A90027
:103F5000823E200003002000601A020000000000E2
:103F600001003700010037000000200080007800C9
:103F700004032800F40888000B0037008000780054
:103F800004022800F4088800070037008000780049
:103F900004012800F408880003003700800078003E
:103FA00004002800F40888008100E900D108880096
:103FB00000000600010020001A81BF000000E80098
:103FC0004220AF008100E800B25D800003002000C5
:103FD000301A020000000000823E20000300200092
:103FE000601A020000000000AAA1B700000006004D
:103FF000B24BE20003003A0080FF2F00A421B6007C
:1040000032003700945D80007924E1000200310025
:1040100090C1B300B2EBB700B42BEF00B2CBBF003E
:104020000160EF00004278000960EF006A20B800EC
:10403000A45D80000020E10017003E002403200062
:10404000B45D8800B82BEF0004402200D45D8800E6
:10405000440F2000E45D8800BE2BEF00DE1E02004E
:1040600000000000B40BF800B60BF900DA1F0200E4
:104070000000000060002000A421B7003E1F0900DE
:10408000000000000060FE00A45D80006D004200A2
:10409000B4ABB700E1FF3700A45D8000633B2000B4
:1040A0000418E10008003E00843E2000A45D880062
:1040B000843E2000B45D8800DA1F0200000000008A
:1040C00060002000A421B7000368A80000000600DB
:1040D00010C0B300B2EBB700661802000000000089
:1040E0000000060020C0B300B2EBB7006618020063
:1040F000000000000000060030C0B300B2EBB700C3
:10410000661802000000000000000600682002009F
:104110000000000072200200000000007C2002006D
:1041200000000000000006001E1902000000000050
:10413000E0C0B300B2EBB700941E02000000000024
:1041400050C1B300B2EBB700941E020000000000A3
:1041500060C1B300B2EBB700941E02000000000083
:10416000AE2BEF00745D8000032020000418E100F6
:104170000E0039000060FE00B06BEF00B16BEF0085
:10418000AE8BBF0001BB200022002000741C020087
:10419000000000007E3E090000000000745D800009
:1041A00062004200AEABB700EEFF370070C1B30053
:1041B000B2EBB700941E02000000000080C1B30003
:1041C000B2EBB700941E020000000000F0CFB30075
:1041D00051E9B700D0C1B300B2EBB700941E0200A2
:1041E00000000000481D020000000000D0C2B30023
:1041F000B2EBB700941E0200000000006269EF00FD
:1042000062C9BF0089E9B700E0C2B300B2EBB700F2
:10421000941E02000000000020C3B3005EE9B70056
:104220005EC9BF0085E9B7005EC9BF00B2EBB70049
:10423000F81F02000000000020C0B3005DE9B700D5
:104240005DC9BF0084E9B700A0C2B300B2EBB700FC
:10425000941E0200000000005EC9BF00B2EBB70070
:10426000F81F02000000000050C3B30060E9B7006F
:1042700060C9BF0086E9B700B0C2B300B2EBB700B7
:10428000941E0200000000008769EF0087C9BF008C
:1042900052E9B7005469EF0054C9BF0083E9B70081
:1042A00010C0B30090E9B70090C9BF0061E9B70042
:1042B000F0C2B300B2EBB700941E02000000000091
:1042C0004D69EF004DC9BF007BE9B70000C3B300E3
:1042D000B2EBB700941E02000000000040C0B30023
:1042E0004EE9B7004EC9BF007CE9B700B81B020019
:1042F0000000000049C9BF0053E9B70053C9BF001F
:1043000082E9B70040C1B300B2EBB700941E0200CF
:1043100000000000AE1C0200000000009C1902001A
:10432000000000008620020000000000E0C0B30092
:10433000B2EBB700941E020000000000000006006F
:10434000C162A900C562A800C842A900CC42A80069
:104350003E06090000000000C842A900CC42A900A6
:104360003E06090000000000AE6BEF00745D8000A7
:1043700003042000041CE1000A003600C162A90009
:10438000C562A8003E06090000000000C162A90045
:10439000C562A9003E06090000000000AE6BEC00FB
:1043A000F2FF3700C162A900C562A8003E060900FD
:1043B00000000000C842A900CC42A8003E06090047
:1043C00000000000F0C3B300B8E9B7000000060029
:1043D000E55D80004300A900B88BBF00D15D80007F
:1043E000A25D8000B35D8000601A02000000000042
:1043F0000100E00013003A000000E000110032006C
:104400000500E0000E003200823E20000300200084
:10441000301A0200000000000100E00002003A0033
:104420000000E00062003A004300A900823E200044
:1044300003002000601A02000000000001003700A5
:104440005B0037004300A900820020000300200029
:10445000601A0200000000000100E00013003A00B2
:104460000000E000110032000500E0000E00320004
:10447000823E200003002000301A020000000000ED
:104480000100E00002003A000000E00044003A00B1
:104490004300A900823E200003002000601A0200B1
:1044A00000000000010037003D0037004300A90074
:1044B0008200200003002000601A020000000000BB
:1044C0000100E00013003A000000E000110032009B
:1044D0000500E0000E003200823E200003002000B4
:1044E000301A0200000000000100E00002003A0063
:1044F0000000E00026003A004300A900823E2000B0
:1045000003002000601A02000000000001003700D4
:104510001F0037004300A9004200200003002000D4
:10452000601A0200000000000100E00013003A00E1
:104530000000E000110032000500E0000E00320033
:10454000823E200003002000301A0200000000001C
:104550000100E00002003A000000E00008003A001C
:104560004300A900823E200003002000601A0200E0
:1045700000000000010037000100370000002000AB
:104580008000780004032800040988000B0037002D
:104590008000780004022800040988000700370022
:1045A0008000780004012800040988000300370017
:1045B0008000780004002800040988008100E900D8
:1045C000E108880000000600B20BF800B40BF90007
:1045D000B62BEF0004402200C45D8800440F200089
:1045E000D45D8800BC2BEF00E82102000000000031
:1045F00000000600600020009A21B70000000600BD
:10460000800178000180FD0054C0B3000360ED001C
:104610000860ED001900320003007800C419DD00C5
:104620004C00DE00F000B20004003A006124E1001A
:104630000200320003E0AE00F4FF37000003B000D8
:10464000A20320000200E100010039000240B40092
:10465000811F7800831F7800841F7800BCEBB700AF
:10466000581E0200000000004F027800CF017800C1
:10467000CF00780003E0A800E4FF37000000060048
:1046800001002000010078000160EF00FA0A02003A
:10469000000000008100E800811F7800BCEBB7003B
:1046A000581E020000000000CF007800B00120007A
:1046B0000008E600F3FF370064C9BF000160EF00A7
:1046C000417022000023020000000000E1012000F0
:1046D000010078000160EF00FA0A0200000000000B
:1046E0008100E800811F7800BCEBB700581E020073
:1046F00000000000CF007800100220000008E60053
:10470000F3FF370065C9BF000160EF002170220090
:104710000023020000000000A0C3B300BCEBB70000
:10472000581E02000000000066C9BF000160EF00D3
:10473000217022000023020000000000A0C3B3008B
:10474000BCEBB700581E02000000000067C9BF00A4
:104750000160EF0021702200002302000000000031
:10476000A0C3B300BCEBB700581E0200000000005D
:1047700068C9BF000160EF00217022000023020021
:1047800000000000A0C3B300BCEBB700581E02003D
:104790000000000069C9BF000160EF002170220025
:1047A0000023020000000000A0C0B300BCEBB70073
:1047B000581E020000000000D0C0B300BCEBB700E0
:1047C000581E0200000000000000060063E0A9007F
:1047D00082E0A90010C3B300B2EBB700941E020040
:1047E000000000006FE0A90057E0A800C962A9001E
:1047F000CD62A900E0C1B30067EAB700628AA800F1
:104800004419020000000000674AE200070032007D
:104810000308A80080180200000000000060FE00ED
:104820007E3E090000000000F7FF37006FE0A8009F
:1048300057E0A900C962A900CD62A800C962A8001A
:10484000C8E2A80062AAA800628AA900676AEF000D
:1048500020C3B300B2EBB700941E020000000000BA
:1048600063E0A8009660A800626AA9009001200099
:1048700034190200000000000000060062EAA800EF
:10488000449C2000445B8800A4002000441A880057
:104890004200F80042E0EF00A61102000000000014
:1048A0004200F900680BE2001A003200682BED00AC
:1048B0000060FE004200F80042E0EF00B80E020087
:1048C000000000004200F90044ABB700245A800009
:1048D00043DB20000418E1000D0036004200F80020
:1048E00042E0EF00A00F0200000000004200F900CB
:1048F00062EAA9007E3E090000000000AE0BA9009C
:104900000000EB00AE0BAF000000E800160037001F
:10491000E4FF3700442BEF0050C0B30067EBB70053
:1049200010C0B30056EBB70056CBBF0024E9B70068
:104930005E2BEF00602BEF004200F80042E0EF003A
:10494000A6110200000000004200F90062EAA9007E
:104950007E3E090000000000AE0BA8000000EB0046
:10496000AE0BAF000000E8000000060060C0B3001E
:10497000B2EBB7006618020000000000000006005D
:104980005C18020000000000441902000000000052
:10499000B624020000000000C962A900CD62A80090
:1049A000C962A8009C190200000000009C190200C6
:1049B000000000005C18020000000000000006007B
:1049C000B4392000945D8800E42202000000000059
:1049D00090C1B30066EAB700FA22020000000000AE
:1049E000441902000000000074492000945D880012
:1049F000E42202000000000090C1B30066EAB700A4
:104A0000FA22020000000000441902000000000029
:104A100094742000945D8800E422020000000000ED
:104A200090C1B30066EAB700FA220200000000005D
:104A30004419020000000000B22BEF00E422020043
:104A40000000000090C1B30066EAB7000000060055
:104A500080FF2F00A421B6000368A9000000060013
:104A6000D082A900D482A9000428A9000000060071
:104A700094002000441A88004200F80042E0EF0051
:104A8000B80E0200000000004200F9000EABB700B3
:104A9000A4002000441A88004200F80042E0EF0021
:104AA000B80E0200000000004200F90044ABB7005D
:104AB000245A800043DB20000418E1000400390080
:104AC00074588000A33620000418E1000200310071
:104AD000B00BA80001003700B00BA9000000EB00EC
:104AE000B00BAF000000E80000000600851F780052
:104AF00010C0B300B2EBB700941E0200000000002B
:104B000028250200000000004419020000000000F7
:104B100086200200000000000308A9000328A90065
:104B20000348A90080180200000000002C190200B0
:104B30000000000044190200000000004200F800DC
:104B400042E0EF00A6110200000000004200F90060
:104B5000441902000000000030250200000000009F
:104B60004419020000000000382502000000000087
:104B7000B2E9B70010C0B300B3E9B7005249E20090
:104B800003003A002C190200000000000500370065
:104B90004200F80042E0EF00980F02000000000021
:104BA0004200F9004200F80042E0EF00A6110200C6
:104BB000000000004200F900302502000000000063
:104BC0003825020000000000B2E9B7000060FE00D6
:104BD00050C0B30005E8B7001021EF009404200096
:104BE0006408880004022800840888001221EF006D
:104BF0000427200074088800040328009408880013
:104C00001E21EF00840C2000D40888000402280034
:104C1000F40888002021EF00840C2000E4088800BC
:104C200004012800040988005249E20003003A0008
:104C30002C19020000000000050037004200F800B7
:104C400042E0EF00980F0200000000004200F9006F
:104C50004200F80042E0EF00A61102000000000050
:104C60004200F9003025020000000000C0E2A80068
:104C7000C142A800C102A800C122A900C522A80003
:104C8000D062A800C8A2A800C162A800C8C2A8003B
:104C9000D082A900D482A9005249E20003003A0060
:104CA000D0A2A900D4A2A90002003700D0A2A90076
:104CB000D4A2A800D102A800D122A800C942A9000C
:104CC000CD42A900C962A900CD62A800C9A2A8006E
:104CD000C982A800C802A800C822A800D0E2A80083
:104CE000D0C2A800C922A800C902A800C842A800D2
:104CF000C862A800C062A800C042A800D042A800B4
:104D0000D022A800D002A800C022A800C002A8009B
:104D10009600A9008600A9009500A9008500A900B9
:104D200094E0A90084E0A9009580A9008580A900ED
:104D30009560A900030009002682BF008560A900D4
:104D40009BC0A9008BC0A90063E0A90082E0A90074
:104D500070E0A80004402000243A88000E00FC0007
:104D6000601020003174200082072000A309200079
:104D7000824878008348780043E7B7004800DE00A7
:104D8000217420006204200073052000824878000E
:104D9000834878008048780080FF2F009A21B60071
:104DA00080FF2F00A421B600C142A900C542A9007E
:104DB000D102A900D502A900C062A900C462A9005D
:104DC0004187A8004107A90000CAB3006DEBB700F6
:104DD00000CAB3006EEBB7000548E20031003200B4
:104DE0000040FE00000000005807A9000060FE001F
:104DF000B349E2002A003A004427EF000E00FC000D
:104E0000101020003174200082072000A309200028
:104E1000824878008348780043E7B7004800DE0006
:104E2000217420006204200073052000824878006D
:104E3000834878008048780010C0B300B3E9B70019
:104E4000628AA8000060FE00900F020000000000CF
:104E50004200F80042E0EF00980F0200000000005E
:104E60004200F9004200F80042E0EF00A00F02000B
:104E7000000000004200F9004200F80042E0EF00AC
:104E8000A80F0200000000004200F9009C19020077
:104E900000000000C024020000000000590037009C
:104EA000CDFF3700586BEF0063E0A8009660A800C4
:104EB000AE6BEF00745D80006824E10017003100E4
:104EC0006F6BEC006B2BAF0004003700C942A900E8
:104ED000CD42A8006B2BA800050037006B2BAE005D
:104EE00003003700C942A900CD42A9006B2BA900DD
:104EF0006FCBBF000000FB00040420000020E10095
:104F000001003D006F6BEF00FE0309000000000090
:104F10000060FE00AE6BEC00E6FF3700C942A9005E
:104F2000CD42A90076CBBF00AFEBB70063E0A9008C
:104F300082E0A900AFCBBF00764BE30005003A004A
:104F40000040FE00000000005807A9000060FE00BD
:104F5000F8FF37000060FE004C190200000000005E
:104F6000B349E2000200320062CAAE0043003700DB
:104F70004427EF000E00FC001010200031742000C8
:104F800082072000A3092000824878008348780027
:104F900043E7B7004800DE002174200062042000CF
:104FA00073052000824878008348780080487800A4
:104FB00010C0B300B3E9B700628AA8000060FE0029
:104FC000900F0200000000004200F80042E0EF00F5
:104FD000980F0200000000004200F9004200F800B3
:104FE00042E0EF00A00F0200000000004200F900C4
:104FF0004200F80042E0EF00A80F020000000000AD
:105000004200F90072190200000000008200A800AE
:105010009400A80063E0A8009660A8009BC0A800C8
:105020009560A8009580A80094E0A8009500A800CD
:105030009600A8004220EF006FE0A80057E0A9000A
:10504000C962A900CD62A8009001200034190200B5
:1050500000000000E024020000000000F0C0B300E7
:10506000B2EBB700941E020000000000628AA800A4
:10507000622BEF00B369EF0065003700944D8000AC
:105080006124E10006003A0038250200000000001B
:105090006104E10002003A00B8FE37005A00370010
:1050A000B249E20048003A00382502000000000042
:1050B0006104E10044003A004427EF000E00FC00C8
:1050C000101020003174200082072000A309200066
:1050D000824878008348780043E7B7004800DE0044
:1050E00021742000620420007305200082487800AB
:1050F000834878008048780010C0B300B3E9B70057
:10510000628AA8000060FE00900F0200000000000C
:105110004200F80042E0EF00980F0200000000009B
:105120004200F9004200F80042E0EF00A00F020048
:10513000000000004200F9004200F80042E0EF00E9
:10514000A80F0200000000004200F90072190200DE
:10515000000000008200A8009400A80063E0A800FE
:105160009660A8009BC0A8009560A8009580A80044
:1051700094E0A8009500A8009600A8004220EF0047
:105180006FE0A80057E0A900C962A900CD62A8009D
:10519000900120003419020000000000E024020009
:1051A0000000000020C0B300B2EBB700941E020064
:1051B00000000000628AA800622BEF00B369EF00D4
:1051C0001300370010003700944D80006124E10087
:1051D00006003A0038250200000000000004E0004C
:1051E00002003A0065FE370007003700B249E200CE
:1051F00005003A0038250200000000000004E0002D
:1052000001003A005DFE370070FE37005BFE37009C
:10521000CF02780000000600851F7800C50020003E
:1052200003000900B51F780080037800840478002B
:1052300004F0A1000400E00006003A0009F0A70015
:10524000020037000500200017003700050020008D
:1052500015003700E642520012003900000320001A
:1052600009F0A60000022000801F7800811F78004E
:10527000829FBE00841F7800BCEBB700581E02005E
:10528000000000004F0278004F01BE00CF00780000
:105290004F0078008502E900F3FF3B005500200035
:1052A00001003700840278006400200005E0A000BF
:1052B00009F0A70005F0A000087122001100090004
:1052C0008883D800A2290200000000008103780032
:1052D000883E2000110009008883D800A22902001E
:1052E000000000008103780048062000110009003A
:1052F0008883D800A2290200000000008103780002
:10530000A8002000110009008883D800A22902000B
:10531000000000000003200000C04000811F780052
:10532000829FBE00841F7800BCEBB700581E0200AD
:10533000000000004F0278004F01BE00CF0078004F
:105340001D003700060320000000E0000E003A00B8
:1053500005E0A6000D0037000402E9000524E10085
:10536000020032004200AF00000006000000E00032
:1053700005003A0005E0A6000400370005F0A6008D
:10538000060220000100370005E0A10000404300B4
:10539000811F7800821F7800841F7800BCEBB70063
:1053A000581E0200000000004F0278004F017800F4
:1053B000CF0078000000060025012000030009004E
:1053C000CF127800CF02780000000600947420000D
:1053D000945D8800E42202000000000090C1B30048
:1053E00066EAB700FA220200000000004419020039
:1053F0000000000074492000945D8800E42202004F
:105400000000000090C1B30066EAB700FA22020073
:10541000000000004419020000000000B439200020
:10542000945D8800E42202000000000090C1B300F7
:1054300066EAB700FA2202000000000044190200E8
:1054400000000000B22BEF00E42202000000000088
:1054500090C1B30066EAB700000006005960A900D9
:105460007160A9000000090000000000C8A2A800A7
:10547000C8A2A800AE0BA900CAA2AF00AE0BA8003C
:1054800003A8A80000000600010020000100780029
:105490000160EF00400B0200000000008100E80006
:1054A000811F7800BCEBB700581E0200000000000E
:1054B000CF007800600120000008E600F3FF37000D
:1054C00078CBBF000160EF002170220000230200B2
:1054D00000000000A0C3B300BCEBB700581E0200E0
:1054E0000000000077CBBF000160EF0021702200B8
:1054F0000023020000000000A0C3B300BCEBB70013
:10550000581E02000000000076CBBF000160EF00D3
:10551000217022000023020000000000A0C0B300A0
:10552000BCEBB700581E020000000000D0C0B30062
:10553000BCEBB700581E020000000000000006008F
:1055400070C0B300B2EBB7004218020000000000C8
:105550000388A8000000060070C0B300B2EBB700DB
:1055600066180200000000000388A9000000060081
:10557000851F7800C500200003000900B51F7800D2
:10558000090020004300AF0019002000891F7800A7
:105590008384680001F0A600030037008180EA00E0
:1055A0000000EA00E080480003F0A6000300370096
:1055B0008381EA000201EA00E081490003026900F8
:1055C000150032000002EB008002EB000003EB004C
:1055D0008003EB00080220004200A9000080D200F6
:1055E0008180D2000482D2008582D2000328E100AB
:1055F00001003A0002A0E10003003900020252005B
:1056000083825A004200A8000683D2008783D2001A
:105610000804E900F0FF3A0009F0A600070037008F
:105620000600EA000100320002003A008700EA00AA
:10563000050037008780EA00030037008700780004
:105640000600780000003700CF0478000900E00071
:10565000010032000400BE00250120000300090003
:10566000CF127800CF02780000000600851F780076
:10567000861F7800C0002000AE0BB40080027800C6
:1056800080002000AE0BB400000278001400780007
:10569000950A400004002000D50A4A00C0002000FE
:1056A000AE0BB400A4002000301A7800301A780045
:1056B0004300A9000500780086007800020420005D
:1056C00003002000B82A020000000000B0ABB700C1
:1056D000C0002000AE0BB40080027800B08BBF0089
:1056E0008000EB0000F0A7008080EB00150278003E
:1056F000800A520055027800810A5A00A00020005A
:10570000AE0BB40080027800B08BBF0000F0A600A2
:105710000300370004002000835D80000300520076
:10572000800A78004F037800CF027800000006005E
:10573000851F7800745D8000E50242000502780054
:10574000A3002000110009000382D800AEABB7000F
:10575000745D80006A20B800AEABB700AE0BF800F5
:105760000000F900CF02780000000600B8ABEF009F
:10577000B20BF800B40BF900B62BEF00B80BE20047
:105780002E003200B82BED00A45D8000F3702200E3
:105790000418E1000200310000A0EF0029003700EA
:1057A000A45D8000833E20000418E10008003E0054
:1057B000A45D8000843EB100A45D88000400210047
:1057C000B35D800004804100B6ABB7001A0037001B
:1057D000A45D8000430620000418E10008003E009C
:1057E000A45D80004406B100A45D88000410200080
:1057F000B35D800004804100B6ABB7000E003700F7
:10580000A45D80006A20E10007003900A45D8000EB
:105810006A005200B4ABB700B45D80007000420073
:10582000B6ABB70004003700B68BBF00B40BB400B2
:10583000B6ABB70001003700D0FF3700B60BF80059
:105840000000F90000000600851F7800700BF800CA
:10585000AE0BF900982B02000000000070ABB700FF
:10586000722BEF00700BF800AE0BF900982B0200C2
:105870000000000080027800955D8800B62B0200D1
:105880000000000000A0B700CF0278000000060072
:10589000851F7800861F7800C0002000AE0BB40082
:1058A0008002780080002000AE0BB4000002780077
:1058B00014007800950A400004002000D50A4A0030
:1058C000C0002000AE0BB400A4002000301A780005
:1058D000301A78004300A90005007800860078009F
:1058E0000210200003002000B82A0200000000007F
:1058F000B0ABB700C0002000AE0BB400800278004F
:10590000B08BBF008000EB0000F0A7008080EB00B0
:1059100015027800800A520055027800810A5A0068
:10592000A0002000AE0BB40080027800B08BBF0056
:1059300000F0A6000300370004002000835D800013
:1059400003005200800A78004F037800CF027800ED
:1059500000000600851F7800C50020000300090034
:10596000B51F78000202B80003F0A600020037005D
:105970000383B900010037000303B8004200A90007
:105980008502430060844B0001F0A600020037004E
:10599000028BB90001003700020BB80085024B00F2
:1059A00008844B000980B000038BB90008044B0049
:1059B00087834C0087017800080178008500780013
:1059C000040078002501200003000900CF127800B0
:1059D000CF02780000000600F0CFB300B1EBB700B3
:1059E000AECBBF00AFEBB700B06BEF00B14BE20046
:1059F00012003200B16BED00745D80004822DE00C1
:105A00006A24E10008003900745D80004822DE004D
:105A10006A405200AFEBB700845D800070404200E6
:105A2000B0EBB70004003700B0CBBF00AF4BB40001
:105A3000B0EBB70001003700ECFF3700B0CBBF0080
:105A400000E0B700000006000200E000080032009D
:105A50003118BB00811F780041002400301C020077
:105A600000000000CF0078000281E900F6FF370057
:105A700000000600851F7800AF6BEF001FCABF0053
:105A8000404AE30008003A00AF6BEC00745D800010
:105A90004822DE006A24E10003003E007E3E090049
:105AA00000000000F5FF3700F45080000960EF00AF
:105AB000E39F200003004200745D800000429000DC
:105AC000745D8800F45080000960EF00E10242003C
:105AD0007FC062001EEAB700AECBBF0000E0B70097
:105AE000CF02780000000600851F7800AE6BEF0043
:105AF000745D80007F24E10007003E00745D80003B
:105B00000960EF0063B8200083024200804AEB0086
:105B1000AE6BEC00F6FF3700CF0278000000060005
:105B2000851F7800CE8BBF001004E0001900320002
:105B3000CE0BF800D20BF900D00BF800D40BF90013
:105B4000D48BBF001004E0000A003200D28BBF00EB
:105B500090427800D48BBF00000278001440780097
:105B6000002CE10003003A00D22BEC00D42BEC0017
:105B7000F3FF3700D48BBF001004E00003003A00AD
:105B8000CE0BF8000000F90003003700CE2BEC002C
:105B9000E4FF37000020EF00CF027800000006008D
:105BA000851F7800245C80004822DE007420B80045
:105BB0008002780005017800E1BA20000200780038
:105BC000BC09020000000000805878000201E800D3
:105BD0000004E0004220AE00F8FF370024A42000BB
:105BE000745E8800E4BA2000845E8800902D020074
:105BF00000000000800278000500E0000400320090
:105C000010C0B30000E0B700030037000200370007
:105C10000060EF0000003700CF02780000000600AF
:105C200030C0B300B2EBB700941E020000000000C9
:105C300000000600851F7800AE6BEF00745D8000E9
:105C40007F24E10007003100745D80000960EF00EF
:105C500023A4200083024200804AEB00AE6BEC00DC
:105C6000F6FF3700620AA900416AEF00CF02780010
:105C70000000060000000600851F7800742D020059
:105C800000000000856BEF00D02D02000000000036
:105C90006104E1000F003A0030C3B300B2EBB7007B
:105CA000941E02000000000094200200000000008A
:105CB0009C19020000000000C942A900CD42A900C1
:105CC000A000200034190200000000000000FE00C7
:105CD000B200370010C0B30085EBB700D02D020032
:105CE000000000006104E10005003A00102E0200EF
:105CF000000000001A2E020000000000A70037007C
:105D000020C0B30085EBB700D02D020000000000DA
:105D10006104E10007003A003A2E02000000000092
:105D2000102E0200000000001A2E020000000000E9
:105D30009A00370040C0B30085EBB700D02D0200B9
:105D4000000000006104E10005003A00102E02008E
:105D5000000000001A2E0200000000008F00370033
:105D6000D0C0B30085EBB700D02D020000000000CA
:105D70006104E10005003A00102E0200000000005E
:105D80001A2E02000000000084003700E0C0B300BB
:105D900085EBB700D02D0200000000006104E10097
:105DA00005003A00102E0200000000001A2E02002A
:105DB000000000007900370060C0B30085EBB70039
:105DC000D02D0200000000006104E10005003A004F
:105DD000102E0200000000001A2E02000000000039
:105DE0006E00370050C0B30085EBB700D02D020025
:105DF000000000006104E10005003A00102E0200DE
:105E0000000000001A2E02000000000063003700AE
:105E1000A0C0B30085EBB700D02D02000000000049
:105E20006104E10005003A00102E020000000000AD
:105E30001A2E02000000000058003700B0C0B30066
:105E400085EBB700D02D0200000000006104E100E6
:105E500005003A00102E0200000000001A2E020079
:105E6000000000004D003700F0C0B30085EBB70024
:105E7000D02D0200000000006104E10006003A009D
:105E80004006200034190200000000001A2E020013
:105E9000000000004100370000C1B30085EBB700EF
:105EA000D02D0200000000006104E10003003A0070
:105EB0001A2E0200000000003800370010C1B300A5
:105EC00085EBB700D02D0200000000006104E10066
:105ED00003003A001A2E0200000000002F003700D5
:105EE00020C1B30085EBB700D02D020000000000F8
:105EF0006104E10003003A001A2E020000000000D5
:105F00002600370030C1B30085EBB700D02D02006A
:105F1000000000006104E10003003A001A2E0200B4
:105F2000000000001D003700010020000100780083
:105F30000160EF00DC0A0200000000008100E800C0
:105F4000811F7800BCEBB700581E02000000000063
:105F5000CF007800D00020000008E600F3FF3700F3
:105F600021A420001104E00008003200811F780005
:105F700001409000BCEBB700581E0200000000007A
:105F8000CF0078008100E800F6FF3700102E0200F5
:105F9000000000001A2E020000000000CF0278006E
:105FA000000006000FE02000F0FF200020A0B70056
:105FB00000000000404424002005880040442600E2
:105FC00030058800504424004005880070442500B6
:105FD00060058800404424009005880081E0A90005
:105FE00000802000E13F2000018009000018EB0044
:105FF0004427EF000028EF00040028000411880067
:1060000004402000141188002062A800240220000F
:1060100044118800CD22A90007E2A80007A2A80029
:1060200006C2A8000762A90006E2A8000702A800AD
:106030000722A8000742A900840620005410880007
:1060400074002000641088002021EF00F4E7230092
:10605000E4088800040028000409880004F42100F2
:10606000040D880004C02000D40C8800F400200037
:10607000E40C88001E21EF00F4E72300D408880018
:1060800004002800F408880004F42100540D88005E
:1060900004802000240D8800E4002000340D8800D6
:1060A000B969EF00DA69EF00DB69EF00FC69EF0026
:1060B000FD69EF001E6AEF001F6AEF00406AEF0003
:1060C000642AEF0030C0B30084EBB700E024EF0097
:1060D000E224EF00E424EF006E003700C006080061
:1060E000060000004BF03F005C0A5800F63B8F00B2
:1060F00000C03C008B28AC003CBEF6003FD2D5006F
:1061000044168C0015D7BF0069005A002E1B87006B
:10611000993F9A005FAD4B0091E40100C05D110012
:106120002F92E40081FB3F0038DA9100809DC5008A
:10613000E0BF6F0012C0B400C309AB003F6BC100E9
:10614000034EC100B545BF00F7400500FF005A00EF
:10615000EF3FF300A3E2F700D7FF010040C0B40017
:10616000FF053C0058FC3F003BD3C000B5BA8C0093
:10617000E23F3900D3C73D004179B2003F870D00AF
:106180003C50D000AF623F00304B8D00A282AA008D
:1061900004400900A0404A000576030040EC9E0040
:1061A0003788A60044F03F008F128D00299A5B00CB
:1061B000C73F0E00E0807C00A1D886003F294B003D
:1061C000FB95C200371A3F0080680800BC647D0060
:1061D0008E7DB2007DF77D00FA7DFE007D027E009F
:1061E000067E0A007E0E7E00127E17007E1C7E0058
:1061F000217E26007E577E009E7ECE007EE17E00C0
:10620000E47EE8007E0E7F00367F59007F697F00C4
:106210008F7F97007F9C7F00B87F4F008077800042
:106220008E80D700802381005081830081AD810062
:10623000C081DE0081FC810018822600823382004A
:106240004582730082CA8200F1820700833B83008B
:106250009083B40083D88300000000000201E800AE
:106260006110E10004003A009101BA003182BA00E5
:1062700006C0BF00000006006210E10002003A0004
:1062800007C0BF000000060008C0BF000001EB000F
:106290000000060006002000000020009001880099
:1062A000E0062300800078000001EB002E310200A0
:1062B000000000000BE0B7002E31020000000000DB
:1062C0000AE0B7000500E0001900320005F0A60062
:1062D000070037002E310200000000000DE0B7007B
:1062E0002E310200000000000CE0B70005F0A10014
:1062F00005E0A6000800370005E0A1008502E900DE
:106300002E31020000000000804378000580090063
:10631000075B7800E5FF37002E3102000000000027
:10632000005B78008502E900FBFF3A00DFFF3700E1
:10633000E21702000000000070E0A8006FE0A80073
:1063400057E0A900C962A900CD62A8005C1802004C
:1063500000000000D082A800C0E2A800C942A80046
:10636000C962A800C802A800C822A800D0E2A800FC
:10637000D0C2A800C922A800C902A8000308A8002A
:106380000328A8000348A8008018020000000000AD
:106390001E190200000000002C190200000000007D
:1063A0004200F80042E0EF00A611020000000000E9
:1063B0004200F90040A7A80040A7A8004419020025
:1063C000000000005C18020000000000C962A90083
:1063D000CD62A800C962A800C142A900C542A900B7
:1063E0003226EF005627EF0041E2A90040C2A90083
:1063F0004222EF0041E2A8005627EF004C190200AC
:106400000000000072190200000000000421EF00EB
:106410002174200062042000730520008248780067
:10642000834878004227A800040820001408880048
:1064300024032C0024088800A4002000441A8800AB
:106440004200F80042E0EF00B80E02000000000039
:106450004200F90044ABB700245A800073CF2000FB
:106460000418E1001A003600E217020000000000E4
:106470002C190200000000004200F80042E0EF008A
:10648000A6110200000000004200F9004200F800DE
:1064900042E0EF00B00F0200000000004200F900EF
:1064A0000060FE009C19020000000000A400200013
:1064B000441A88004200F80042E0EF00B80E0200E3
:1064C000000000004200F90044ABB700E2FF3700D3
:1064D000900F0200000000004200F80042E0EF00D0
:1064E000A80F0200000000004200F9000300200095
:1064F0000400200025002000A41902000000000074
:10650000AAABB700AACBBF0048E9B700ABCBBF002E
:1065100049E9B700BC190200000000007BC9BF00B8
:106520004DE9B7007CC9BF004EE9B70087C9BF007D
:1065300052E9B70083C9BF0054E9B70082C9BF0060
:1065400053E9B70090C9BF0061E9B70085C9BF0032
:106550005EE9B70084C9BF005DE9B70086C9BF0026
:1065600060E9B70060C9BF00B0EBB700061A0200CF
:1065700000000000B7E9B700628AA8006E6BEF0068
:106580006D6BEF008200A8009400A80063E0A800F3
:106590009660A8009BC0A8009560A8009580A80000
:1065A0009460A80094E0A8009500A8009600A800B8
:1065B0004220EF00B81B0200000000000600FC00B3
:1065C000617620005205200082087800A30A20008E
:1065D0008308780027A6A800217420006204200008
:1065E0007305200082487800834878004227A8007D
:1065F0000400280034318800FC22A90027A6A90045
:1066000044190200000000009C1902000000000074
:10661000144C8000F4CFB20006003A0049C9BF0014
:1066200053E9B70053C9BF0082E9B700AE1C0200AE
:1066300000000000A66BEF00345D80000304200022
:10664000041CE10005003600FA1C020000000000F6
:106650006CEBB700A66BEC00F7FF3700645B8000C3
:106660006224E1000E003A00481D02000000000014
:10667000E0C0B300B2EBB700941E020000000000BF
:10668000D0C1B300B2EBB700941E020000000000BE
:10669000E0C0B300B2EBB700941E0200000000009F
:1066A000645B80006324E10002003A009420020051
:1066B00000000000A021020000000000806BEF003D
:1066C000900F0200000000004200F80042E0EF00DE
:1066D000980F0200000000004200F9004200F8009C
:1066E00042E0EF00A6110200000000004200F900A5
:1066F00010C0B30056EBB70056CBBF0024E9B7007B
:106700005E2BEF00602BEF0050C0B30067EBB700CB
:10671000442BEF004200F80042E0EF00A611020017
:10672000000000004200F90062EAA9004200F800FF
:1067300042E0EF00B00F0200000000004200F9004C
:106740004419020000000000624AA900626AA90020
:10675000C0C1B300B2EBB700941E020000000000FD
:10676000B26BEF00941E0200000000000100200048
:10677000010078000160EF00740B020000000000CF
:106780008100E800811F7800BCEBB700581E0200B2
:1067900000000000CF007800D00120000008E600D3
:1067A000F3FF370048C9BF00BCEBB700581E02001A
:1067B0000000000001022000010078000160EF00ED
:1067C000740B0200000000008100E800811F7800C7
:1067D000BCEBB700581E020000000000CF0078009C
:1067E000400320000008E600F3FF370049C9BF005E
:1067F000BCEBB700581E020000000000E0C1B3006F
:10680000B2EBB700941E020000000000944A800022
:106810004822DE0064C4B20004003200944A8000C2
:106820004822DE0014C5B20005003A0090C1B30052
:10683000B2EBB700941E0200000000000400370015
:10684000A0C1B300B2EBB700941E0200000000002C
:10685000B0C1B300B2EBB700941E0200000000000C
:1068600030C3B3004AE9B700B369EF00622BEF0011
:1068700086200200000000000308A9000328A900E8
:106880000348A9008018020000000000A0210200B7
:1068900000000000B4202000945D8800E422020083
:1068A0000000000090C1B30066EAB700FA220200BF
:1068B00000000000441902000000000034292000FC
:1068C000945D8800E42202000000000090C1B30043
:1068D00066EAB700FA220200000000004419020034
:1068E00000000000845C2000945D8800E422020027
:1068F0000000000090C1B30066EAB700FA2202006F
:10690000000000004419020000000000B43920001B
:10691000945D8800E42202000000000090C1B300F2
:1069200066EAB700FA2202000000000044190200E3
:10693000000000000060FE0080180200000000005F
:10694000944A80004822DE0064C4B2000400320091
:10695000944A80004822DE0014C5B20002003A00CA
:1069600004E8A8000100370004E8A900B45A800038
:106970006124E10007003200A021020000000000B5
:106980004200F80042E0EF00B00F020000000000FB
:106990004200F90004E8AE000B003700A457800065
:1069A000038A20000418E10007003100A021020042
:1069B000000000004200F80042E0EF00B00F0200CB
:1069C000000000004200F90004E8AE0008003700B3
:1069D000A4578000036E20000418E1000200390073
:1069E0000328A800010037000328A900070037008A
:1069F000A4578000438620000418E10002003900FB
:106A00000328A800010037000328A90064C9BF00BB
:106A10000160EF00E10260006128E1001A003A0025
:106A200004C8AF001800370004C8A80040230200C3
:106A3000000000008F49E2001200320064C9BF006C
:106A40008AE9B70065C9BF008BE9B70066C9BF0016
:106A50008CE9B70067C9BF008DE9B70068C9BF00FE
:106A60008EE9B70069C9BF008FE9B700AE1C02000C
:106A700000000000F0C1B300B2EBB700941E0200AA
:106A8000000000000C00370064C9BF000160EF0087
:106A9000E10260000500E00007003A0004C8AE0013
:106AA0000500370004C8A90000C2B300B2EBB7006C
:106AB000941E0200000000004629EC0004E8AE002D
:106AC0002F003700B45A80006224E1002B003A0006
:106AD00062CAAE0029003700045B80006020E1003C
:106AE0002600390003003E00F45A80006F20E100C8
:106AF00022003600626AAF0020003700A4578000F1
:106B0000236C20000418E1001C00360010C2B30002
:106B1000B2EBB700941E0200000000005E2BEF00F5
:106B2000602BEF00E6230200000000003E2402007C
:106B3000000000006104E1000E003A009C19020010
:106B400000000000C024020000000000E024020059
:106B50000000000020C2B300B2EBB700941E020098
:106B600000000000628AA800622BEF00B369EF000A
:106B70003605370076250200000000002E003700A1
:106B8000B45A80006224E1002B003A0062CAAE00D1
:106B900029003700045B80006020E10026003900F6
:106BA00003003E00F45A80006F20E100220036000E
:106BB000626AAF0020003700A4578000D37E200017
:106BC0000418E1001C00360030C2B300B2EBB7007D
:106BD000941E0200000000005E2BEF00602BEF000F
:106BE000E6230200000000003E2402000000000036
:106BF0006104E1000E003A009C1902000000000050
:106C0000C024020000000000E02402000000000098
:106C100020C2B300B2EBB700941E020000000000D7
:106C2000628AA800622BEF00B369EF000705370006
:106C30007625020000000000644A80004822DE0041
:106C4000E30F2000041CE10051003900B45A800019
:106C50006224E1004E003A0062CAAE004C003700E8
:106C60004DC9BF000160EF00C40320000400B8005C
:106C7000C003B000045B80006020E10044003900E4
:106C800003003E00F45A80000020E100400036007E
:106C9000626AAF003E0037004DC9BF000160EF00DF
:106CA000C40320000400B800C40320008402400094
:106CB00001002000010078000160EF00B60B020027
:106CC000000000008100E800811F7800BCEBB700E5
:106CD000581E020000000000CF007800B001200024
:106CE0000008E600F3FF37000500780004002000EC
:106CF0000C29020000000000F101200001007800D2
:106D00000160EF00B60B0200000000008100E80007
:106D1000811F7800BCEBB700581E02000000000085
:106D2000CF007800600220000008E600F3FF370083
:106D30005E2BEF00602BEF00E62302000000000056
:106D40003E240200000000006104E1000E003A0051
:106D50009C19020000000000C02402000000000096
:106D6000E02402000000000020C2B300B2EBB70034
:106D7000941E020000000000628AA800622BEF004F
:106D8000B369EF00B104370076250200000000006F
:106D9000626AAE000A003700E62902000000000027
:106DA00040C2B300B2EBB700941E02000000000026
:106DB000E62302000000000076250200000000002B
:106DC000145B8000A30520000418E10006003E00CB
:106DD00050C2B300B2EBB700941E020000000000E6
