:080F80005430040000000000E1
:080FC800D00D04000000000040
:080FE0008E1204000000000065
:10100000C60F0400000000007C0D0400000000007A
:10102000BC0C040000000000260C040000000000BE
:08104800CE14040000000000BA
:08106000460E04000000000030
:0810B800020D0400000000001D
:0810C0006A0C040000000000AE
:0811B800480D040000000000D6
:081378003220EF0043102000B9
:101380008301500005003100839D20000080410052
:101390001040BA000160EF0000000600809D2000B0
:1013A00083814100808141001380BA000000060063
:1013B0004046400041434100544F440052593100DF
:1013C000000000000000000000000000000000001D
:1013D00000000000000000004056000045520000E0
:1013E000534900004F4E00000000000000000000C4
:1013F00000000000000000000000000000000000ED
:1014000040534000544141005455440053003200C1
:1014100000000000000000000000000000000000CC
:101420000000000000000000404100004E54000099
:101430004D5000000000000000000000000000000F
:10144000000000000000000000000000000000009C
:10145000405040004D0042000000450000004500A3
:10146000000050000000000000000000000000002C
:101470000000000000000000405200005049000041
:10148000000000000000000000000000000000005C
:10149000000000000000000000000000000000004C
:1014A000404240004154520000004500000044000A
:1014B0000000200000004F0000004E00000000006F
:1014C00000000000000000004050000057520000E3
:1014D000494E0000464F0000204F00004E00000023
:1014E00000000000000000000000000000000000FC
:1014F0004050400057525200494E4500464F44006C
:10150000204F200046464F000000460000004600E5
:101510000000000000000000404C0000505200009D
:1015200053540000410000000000000000000000D3
:1015300000000000000000000000000000000000AB
:1015400040544000494D420045004C000000550009
:10155000000045000000200000004F0000004E0089
:101560000000000000000000404400004154000062
:101570004500000000000000000000000000000026
:10158000000000000000000000000000000000005B
:10159000405240005443420043464C000000550076
:1015A000000045000000200000004F000000460041
:1015B00000004600000000003220EF0083AE200053
:1015C000008041001040BA000160EF0000000600FA
:1015D0000A0D00004261000064200000436F00001B
:1015E0006D6D0000616E0000643A0000257300001C
:1015F000000000003220EF00A30220008301500011
:101600000500310063B12000008041001040BA00A5
:101610000160EF000000060060B1200083814100FE
:10162000808141001380BA00000006000A0D780096
:1016300055503A005320250050493000636F320066
:101640002053780074613A007274250020543000F1
:10165000696D32006520780053743A00616D250091
:10166000703A300025783200202D78003E200A00A4
:1016700025300D00327800003A250000303200009D
:101680003220EF00C3B42000008041001040BA00B7
:101690000160EF00000006000A0D00005550000038
:1016A0005320000050490000636F000020530000E9
:1016B000747200007563000074200000546900001B
:1016C0006D6500003A25000030320000783A0000D5
:1016D00025300000327800003A250000303200004A
:1016E000780A00000D0000003220EF0063022000A5
:1016F000830150000500310003B920000080410043
:101700001040BA000160EF000000060000B92000A0
:1017100083814100808141001380BA0000000600EF
:101720000A0D4C0055506F00532061005049640071
:10173000636F650020487200563320002E3056003B
:101740000A0D65005043720042207300566569001F
:1017500072736F00696F6E006E3A3A002543250080
:101760000A0D4300426F00006F7400003220EF004A
:1017700023BC2000008041001040BA000160EF004F
:10178000000006000A0D0000546900006D650000AD
:10179000642000004653000053440000204600002F
:1017A0005353000044200000555000005320000017
:1017B00050490000636F0000203A0000254C0000F3
:1017C0005520000073650000636F00006E64000028
:1017D000730000003220EF0003022000830150005C
:1017E0000500310063C02000008041001040BA00B5
:1017F0000160EF000000060060C02000838141000E
:10180000808141001380BA00000006000A0D6F00BD
:101810004261200074743A006572250079207500D9
:10182000527520006E6E7300696E6500672063005C
:1018300074696F006D656E002075640070647300DC
:101840006174000065640000207400008580A900B8
:101850004200F8003600F8003200F800801F7800DF
:10186000200020000C000900B01F7800B9C9BF009B
:10187000DA49E3000F003200D44E80000960EF0027
:10188000A39B2000030042009042780005407800AE
:101890002302AE00FEFF370024E2B7002562EF000E
:1018A000D44E80000960EF00E10242007FC0620078
:1018B000DAE9B700A00120000C0009004F10780001
:1018C0004F0078003200F9003600F9004200F900BC
:1018D0000040060087E0A9004200F8003600F8004A
:1018E0003200F800801F7800200020000C00090062
:1018F000B01F7800DBC9BF00FC49E3000F003200D5
:10190000E44F80000960EF00C39D20000300420007
:1019100090427800054078002302AE00FEFF3700B9
:1019200024E2B7002562EF00E44F80000960EF0079
:10193000E10242007FC06200FCE9B700A001200084
:101940000C0009004F1078004F0078003200F900B9
:101950003600F9004200F900004006002202AE0005
:10196000FEFF37002202F8000008F9003011800065
:101970002222A900000006004200F8003600F8000C
:101980003200F800801F7800200020000C000900C1
:10199000B01F7800E44F80004822DE00E39F200063
:1019A00083024200AE0C020000000000804A780072
:1019B000FDC9BF00EAEBB700E44F80004822DE001B
:1019C000E10242007FC06200FDE9B700FDC9BF002F
:1019D0001E4AE30002003A00EACBBF00FDE9B7006F
:1019E0008560A900A00120000C0009004F107800BC
:1019F0004F0078003200F9003600F9004200F9008B
:101A0000004006004200F8003600F8003200F800FE
:101A1000801F7800200020000C000900B01F780013
:101A2000F45080004822DE0003A22000830242001E
:101A3000AE0C020000000000804A78001FCABF0000
:101A4000EAEBB700F45080004822DE00E1024200D9
:101A50007FC062001FEAB7001FCABF00404AE30010
:101A600002003A00EACBBF001FEAB70087C0A90016
:101A7000A00120000C0009004F1078004F007800F2
:101A80003200F9003600F9004200F900004006007B
:101A90004200F8003600F8003200F800801F78009D
:101AA000200020000C000900B01F7800000000009A
:101AB0008BC0A900A00120000C0009004F10780085
:101AC0004F0078003200F9003600F9004200F900BA
:101AD00000400600664AE20002003200666AED003D
:101AE00004003700664AE20002003A0080FF2F003F
:101AF0009A21B600000006004200F8003600F80007
:101B00003200F800801F7800200020000C0009003F
:101B1000B01F78006A0D020000000000744BE20064
:101B200002003200746BED00140037006F6BEC00A4
:101B3000644BAF0004003700C942A900CD42A800A1
:101B4000644BA80005003700644BAE00030037006B
:101B5000C942A900CD42A900644BA9006FCBBF00C8
:101B60000000FB00040420000020E10001003D0013
:101B70006F6BEF0040C1B30074EBB7008500A900A4
:101B8000A00120000C0009004F1078004F007800E1
:101B90003200F9003600F9004200F900004006006A
:101BA0004200F8003600F8003200F800801F78008C
:101BB000200020000C000900B01F7800745B80003A
:101BC0006A24E1000100310015003700C8E2A800D6
:101BD000CAE2AE00020037006E6BEF001000370063
:101BE000944D80004822DE006124E10003003A00A9
:101BF0006E6BEF00B369EF0009003700626AAF0057
:101C00000300370062EAAE0001003700626AA800F4
:101C1000628AAF0001003700628AA8006E6BEF0095
:101C20008400A900A00120000C0009004F107800DA
:101C30004F0078003200F9003600F9004200F90048
:101C400000400600851F780064C9BF000160EF00F6
:101C5000E10260006128E10001003A000348A800A9
:101C6000CF02780000000600851F780064C9BF001D
:101C70000160EF00E10260006128E10001003A002C
:101C80000348A900CF027800000006004200F800D7
:101C90003600F8003200F800801F78002000200095
:101CA0000C000900B01F7800645B80004822DE0051
:101CB0006A24E1000100310027003700586BEC0076
:101CC000B45A80006224E1001000320040C0B3002A
:101CD0006BEBB700642BAF0005003700642BA80046
:101CE0000308A800220E02000000000006003700D2
:101CF000642BAE0004003700642BA9000308A90080
:101D0000340E02000000000011003700B45A8000B9
:101D10006224E1000E003A006B4BE2000100320049
:101D20006B6BED006B4BE20006003A0040C0B30065
:101D30006BEBB7000308A800220E020000000000B1
:101D4000030037000308A900340E02000000000061
:101D50006D6BEF00000000008660A900A00120006C
:101D60000C0009004F1078004F0078003200F90095
:101D70003600F9004200F9000040060085A0A900E5
:101D80004003A9004023A80085A0AE00FEFF370055
:101D90004003AE00FEFF37000083BF0000A0B70085
:101DA00000000600851F7800861F780000012000D3
:101DB000EA0BB400104278006624E10028003100EC
:101DC000EA8BBF009002780020002000EA0BB400EC
:101DD00000027800140078000028E10006003100BD
:101DE00020002000EA0BB40080027800EA8BBF00DC
:101DF0001002780084029800EA8BBF0090027800FD
:101E000040002000EA0BB4000002780014007800C3
:101E10000500E1000600310040002000EA0BB4009C
:101E200080027800EA8BBF001002780084029800DC
:101E300060002000EA0BB40080027800EA8BBF004B
:101E40000002780014007800950A4000000120008C
:101E5000EA0BB40080027800954AE80030003700B1
:101E600060002000EA0BB40080027800200020000F
:101E7000EA0BB40000027800140078001502780024
:101E8000800A520060002000EA0BB4008002780053
:101E900040002000EA0BB400000278001400780033
:101EA00015027800800A520080002000EA0BB4007E
:101EB0008002780060002000EA0BB4001003780074
:101EC0004230DE00800A780000012000EA0BB400F6
:101ED00080027800804AEB0040002000EA0BB4004A
:101EE00080027800804AEB0000C0B3009042980066
:101EF00020002000EA0BB4008002780080CAEB00CA
:101F0000F0C0B3009042980060002000EA0BB400DB
:101F100080027800804AEB0000C0B3009042980035
:101F20004F037800CF02780000000600C122A9000C
:101F3000C522A80003C8A80000000600D0A2A9007E
:101F4000D4A2A80003E8A80000000600C102A9006E
:101F5000C502A8000408A80000000600D082A9005D
:101F6000D482A8000428A800000006005960A90037
:101F70007160A8000000090000000000C8A2A900CC
:101F8000CCA2A80003A8A900000006004200F800A7
:101F90003600F8003200F800801F78002000200092
:101FA0000C000900B01F7800745B80007024E10011
:101FB000010031006E6BEC00645B80004822DE00A3
:101FC0007024E100010031006D6BEC00640BAE0089
:101FD00001003700D6003700754BE20002003200E6
:101FE000756BED0004003700754BE20002003A000B
:101FF00080C0B30075EBB7004823EF00BE0E0200AF
:10200000000000006CAAB700C4A62000545F88003E
:10201000D20E02000000000014002000441A8800C4
:10202000BE0E0200000000007EAAB700E4A7200058
:10203000545F8800D20E02000000000064002000FF
:10204000441A8800BE0E02000000000090AAB700EB
:1020500004A92000545F8800D20E02000000000096
:10206000A45B80004822DE006824E1000B003A00F7
:10207000D062A900D462A80084002000441A88001D
:10208000BE0E020000000000D8AAB70084AD2000F8
:10209000545F8800D20E020000000000A45B8000A4
:1020A0004822DE006724E1000B003A00D062A9005C
:1020B000D462A90074002000441A8800BE0E0200F9
:1020C00000000000A2AAB70024AA2000545F8800E4
:1020D000D20E020000000000A45B80004822DE0057
:1020E0006624E1000B003A00D062A900D462A80087
:1020F00074002000441A8800BE0E02000000000098
:10210000B4AAB70044AB2000545F8800D20E02008E
:1021100000000000A45B80004822DE006524E1008E
:102120000D003A007180A9005980A800D062A90072
:10213000D462A90084002000441A8800BE0E020068
:1021400000000000C6AAB70064AC2000545F8800FD
:10215000D20E020000000000A45B80004822DE00D6
:102160006424E1000B003A00D062A900D462A80008
:10217000D4002000441A8800BE0E020000000000B7
:10218000EAAAB700A4AE2000545F8800D20E020075
:1021900000000000A45B80004822DE006324E10010
:1021A0000B003A00D062A900D462A900D40020003C
:1021B000441A8800BE0E020000000000FCAAB7000E
:1021C000C4AF2000545F8800D20E0200000000005F
:1021D000A45B80004822DE006224E10009003A008E
:1021E00094002000441A8800BE0E02000000000087
:1021F0000EABB700E4B02000545F8800D20E02009E
:1022000000000000A45B80004822DE006124E100A1
:1022100009003A00E4002000441A8800BE0E0200C3
:102220000000000020ABB70004B22000545F88001B
:10223000D20E020000000000754BE20009003A00D7
:10224000B4002000441A8800BE0E02000000000006
:1022500032ABB70024B32000545F8800D20E0200D6
:1022600000000000A4002000441A8800BE0E0200F6
:102270000000000044ABB70044B42000545F880065
:10228000D20E02000000000062AAAE000B00370070
:10229000960F0200000000009E0F020000000000E8
:1022A000A60F020000000000AE0F020000000000B8
:1022B000B60F0200000000001D003700245A800005
:1022C00043DB20000418E10019003900B45A8000F3
:1022D0006224E1001600320062EAAE00140037000A
:1022E000960F0200000000009E0F02000000000098
:1022F000A60F020000000000B60F02000000000060
:1023000020C0B30056EBB70056CBBF0024E9B7009E
:1023100050C0B30065EBB7005E2BEF00602BEF0001
:10232000843E2000345B88006A6BEF0000003700B9
:102330000000000084E0A900A00120000C000900BA
:102340004F1078004F0078003200F9003600F90095
:102350004200F90000400600C102A900C502A90020
:102360000408A90000000600640BA800449C20009B
:10237000445B8800A4002000441A8800AC110200CD
:1023800000000000680BE2000E003200682BED0038
:10239000BE0E02000000000044ABB7000060FE006B
:1023A000245A800043DB20000418E10004003600BA
:1023B000A60F020000000000640BA9000D0037000A
:1023C000F0FF3700442BEF0050C0B3006AEBB700BA
:1023D00010C0B30056EBB70056CBBF0024E9B700DE
:1023E0005E2BEF00602BEF00AC110200000000003C
:1023F000640BA90000000600C44D80006A24E100BF
:102400000100310021003700B869ED0010C0B300B1
:10241000ECEBB700C162A900C562A900C842A900DF
:10242000CC42A8003E06090000000000C842A900F6
:10243000CC42A9003E06090000000000EC4BE2007F
:102440000A003200C162A900C562A8003E06090068
:1024500000000000C162A900C562A9003E06090093
:1024600000000000EC6BED00F4FF3700C162A90032
:10247000C562A9003E06090000000000C842A9008C
:10248000CC42A8003E060900000000000000060043
:10249000C44D8000F3032000041CE10001003E0055
:1024A0001D003700B869EC0010C0B300ECEBB700BA
:1024B000C162A900C562A8003E0609000000000034
:1024C000C842A900CC42A9003E0609000000000055
:1024D000EC4BE2000A003200C162A900C562A8000C
:1024E0003E06090000000000C162A900C562A90003
:1024F0003E06090000000000EC6BED00F4FF370021
:10250000C842A900CC42A8003E0609000000000015
:10251000C162A900C562A800000006004200F800E0
:102520003600F8003200F800801F780020002000FC
:102530000C000900B01F7800ED6BEF00ED6BEC00B4
:102540002706A8002726A8002406F800F60BF900A5
:10255000F6CBBF007CEBB700F7CBBF00ECEBB700CE
:102560002406F800F60BF900F6CBBF007AEBB700B3
:10257000F7CBBF007BEBB7002406F800F60BF900A1
:10258000F6CBBF0078EBB700F7CBBF0079EBB70015
:102590002406F800F60BF900F6CBBF0076EBB70087
:1025A000F7CBBF0077EBB7002706A8002726A800C7
:1025B0002406F800F60BF900F6CBBF00F4EBB700E9
:1025C000F7CBBF00ECEBB7002406F800F60BF900E0
:1025D000F6CBBF00F2EBB700F7CBBF00F3EBB700D1
:1025E0002406F800F60BF900F6CBBF00F0EBB700BD
:1025F000F7CBBF00F1EBB7002406F800F60BF900AB
:10260000F6CBBF00EEEBB700F7CBBF00EFEBB700A8
:10261000645F80004822DE006324E100010039008D
:1026200022003700F4CBBF007C4BE30002003200F5
:10263000C2FF37001D003700F2CBBF007A4BE3002A
:1026400002003200BDFF370018003700F3CBBF0097
:102650007B4BE30002003200B8FF37001300370065
:10266000F0CBBF00784BE30002003200B3FF37002D
:102670000E003700F1CBBF00794BE30002003200BF
:10268000AEFF370009003700EECBBF00764BE3000A
:1026900002003200A9FF370004003700EFCBBF0073
:1026A000774BE30001003200A4FF3700646BAF00FA
:1026B00002003700646BA80003003700646BAE00B3
:1026C00001003700646BA900944D80004822DE00B1
:1026D0006124E10019003A000548E20005003200DB
:1026E000944D80004822DE006124E10001003A00A0
:1026F0000568ED0058CBBF00594BE30003003A00DA
:1027000062EAA900586BEF000900370058CBBF0000
:10271000594BE3000600320062EAA800586BEF0054
:10272000622BEF005A2BEC004220AF005C2BEC0038
:1027300058CBBF0059EBB70072003700844A8000C5
:102740004822DE00F4CFB200030032005149E2001B
:10275000010032005169ED0058CBBF00594BE30036
:1027600003003A0062EAA900586BEF000900370045
:1027700058CBBF00594BE3000600320062EAA800C4
:10278000586BEF00622BEF005A2BEC004220AF0099
:102790005C2BEC0058CBBF0059EBB70062EAAE00EF
:1027A00006003700B45A80006224E10003003A00BA
:1027B0005E2BEC004220AF00602BEC0062EAAF0021
:1027C00001003700622BEC0062EAAE000D0037001A
:1027D000B45A80006224E1000A003A00654BE2002E
:1027E00002003200656BED0006003700654BE20029
:1027F00004003A0050C0B30065EBB700B41102000A
:10280000000000006A4BE200010032006A6BED003C
:10281000674AE20001003200676AED00B449E20055
:102820000300320062EAAF0001003700B469ED0036
:10283000B4588000A33620000418E1001D003900C0
:1028400003A8AE001A003700B45A80006224E100E9
:1028500017003200A60F020000000000640BA80061
:10286000645A800013E720000418E10007003100DB
:10287000C44D8000C3032000041CE10002003100AD
:10288000FC1102000000000006003700245A8000FE
:1028900013E720000418E10002003900481202008A
:1028A00000000000640BA900AC1102000000000051
:1028B0001400370003A8AE0012003700B45A80009D
:1028C0006224E1000F003200640BA800B4588000BD
:1028D000134E20000418E10003003100FC11020037
:1028E000000000000600370074588000134E2000DE
:1028F0000418E10002003900481202000000000044
:10290000640BA900000000008460A900A001200061
:102910000C0009004F1078004F0078003200F900D9
:102920003600F9004200F90000400600F0FF2F00D9
:102930000862AE00FEFF37000922AF000400370036
:102940000742AE00020037000902AE00F8FF370070
:102950000822AE00FEFF37000082BF0008C2AF00B1
:1029600008C2A9000782A80000000600F0FF2F009F
:102970000862AE00080037000842AE0006003700CB
:102980000742AE00020037000902AE000200370025
:10299000111088000782A800000006004200F8001D
:1029A0003600F8003200F800801F78002000200078
:1029B0000C000900B01F780008A2AF000400370027
:1029C000846BEF000842AE000100370084EBA800E2
:1029D00084CBBF000160EF00846BEC00F9EBB70023
:1029E000C45F80004822DE0003082000041CE100D0
:1029F000F5003900C45F80004822DE0004C8B20040
:102A000003003A0000C2BF00F8EBB7000600370031
:102A100011002000811F7800CF007800961402007A
:102A200000000000F8EBB700F94BE20004003200B0
:102A3000C45F80004822DE0004C8B20003003A00F0
:102A4000F8CBBF0082EBB700DF003700C45F800027
:102A50004822DE006124E10003003A00F8CBBF0009
:102A600083EBB700D8003700C45F80004822DE0047
:102A70006224E100D4003900C45F80004822DE00F7
:102A800004C8B200D0003200145C800004CDB20053
:102A900003003200145C800004CBB2005D003A00F9
:102AA000145C80004822DE006724E1002C003E0018
:102AB00083CBBF00836BEC000080FB0064B7200079
:102AC00084024000F88BBF00804298002966A9006C
:102AD0002946A9002706A8002726A800871F7800F6
:102AE000881F78000500FC0057052000373B880050
:102AF000A80A2000383B880027A6A8004F047800C9
:102B0000CF0378007CCBBF00FAEBB700FB6BEF0084
:102B1000FA0BF8002406F9007ACBBF00FAEBB700F5
:102B20007BCBBF00FBEBB700FA0BF8002406F900E3
:102B300078CBBF00FAEBB70079CBBF00FBEBB70057
:102B4000FA0BF8002406F90076CBBF00FAEBB700C9
:102B500077CBBF00FBEBB700FA0BF8002406F900B7
:102B6000145C80004822DE006724E10029003A005E
:102B70002966A9002946A9002706A8002726A8003B
:102B8000871F7800881F78000500FC00570520008B
:102B9000373B8800A80A2000383B880027A6A800F9
:102BA0004F047800CF0378007CCBBF00FAEBB7006E
:102BB000FB6BEF00FA0BF8002406F9007ACBBF009C
:102BC000FAEBB7007BCBBF00FBEBB700FA0BF800CA
:102BD0002406F90078CBBF00FAEBB70079CBBF0031
:102BE000FBEBB700FA0BF8002406F90076CBBF0028
:102BF000FAEBB70077CBBF00FBEBB700FA0BF8009E
:102C00002406F90010C0B30081EBB70020C0B30068
:102C100080EBB700145C800024CDB20003003200CA
:102C2000145C800024CBB2000D003A00145C8000DC
:102C30004822DE0073022000041CE1000700390076
:102C400083CBBF00836BEC000080FB00449220002C
:102C500084024000F88BBF00804298005A00370081
:102C6000145C800044CDB20003003200145C80008C
:102C700044CBB20031003A00145C80004822DE00F0
:102C80006824E1002C003E0083CBBF00836BEC0086
:102C90000080FB0064B7200084024000F88BBF0076
:102CA000804298002966A9002946A9002706A800A5
:102CB0002726A800871F7800881F78000500FC00E1
:102CC00057052000373B8800A80A2000383B8800C1
:102CD00027A6A8004F047800CF0378007CCBBF0064
:102CE000FAEBB700FB6BEF00FA0BF8002406F900D3
:102CF0007ACBBF00FAEBB7007BCBBF00FBEBB70092
:102D0000FA0BF8002406F90078CBBF00FAEBB70005
:102D100079CBBF00FBEBB700FA0BF8002406F900F3
:102D200076CBBF00FAEBB70077CBBF00FBEBB70069
:102D3000FA0BF8002406F90023003700145C800029
:102D400064CDB20003003200145C800064CBB2009A
:102D50000C003A00145C80004822DE007724E10079
:102D600007003E0083CBBF00836BEC000080FB00BC
:102D7000C494200084024000F88BBF008042980079
:102D800011003700145C800084CDB20003003200D3
:102D9000145C800084CBB2000B003A00145C80000D
:102DA0004822DE007724E10007003E0083CBBF000D
:102DB000836BEC000080FB004496200084024000FE
:102DC000F88BBF0080429800C45F80004822DE007C
:102DD00003082000041CE100B2003E00C45F800034
:102DE0004822DE0004C8B20002003A0000C2BF0060
:102DF000F8EBB700145C800014CDB2000300320081
:102E0000145C800014CBB20015003A00145C800002
:102E10004822DE006824E1000A003E0083CBBF00A8
:102E2000836BEC000080FB0064B7200004004000CE
:102E30009042780085407800B6140200000000003F
:102E400007003700145C80004822DE006824E1009F
:102E50000300360080C0EB00B61402000000000042
:102E6000145C800034CDB20003003200145C80009A
:102E700034CBB20019003A00145C80004822DE0016
:102E800073022000041CE1000C003900FE00090060
:102E90000000000083CBBF00836BEC000080FB00D0
:102EA0004492200004004000904278008540780061
:102EB000B61402000000000008003700145C800017
:102EC0004822DE0073022000041CE10003003100F0
:102ED00080C0EB00B614020000000000145C80000B
:102EE00054CDB20003003200145C800054CBB20019
:102EF00017003A00145C80004822DE006824E100DC
:102F00000C003E00FE0009000000000083CBBF0063
:102F1000836BEC000080FB0064B7200004004000DD
:102F20009042780085407800B6140200000000004E
:102F300007003700145C80004822DE006824E100AE
:102F40000300360080C0EB00B61402000000000051
:102F5000145C800074CDB20003003200145C800069
:102F600074CBB20017003A00145C80004822DE00E7
:102F70007724E1000C003E00FE0009000000000084
:102F800083CBBF00836BEC000080FB00C494200067
:102F9000040040009042780085407800B61402009A
:102FA0000000000007003700145C80004822DE00AB
:102FB0007724E1000300360080C0EB00B614020065
:102FC00000000000145C800094CDB20003003200C9
:102FD000145C800094CBB20017003A00145C8000AF
:102FE0004822DE006624E1000C003E00FE000900DD
:102FF0000000000083CBBF00836BEC000080FB006F
:1030000044962000040040009042780085407800FB
:10301000B61402000000000007003700145C8000B6
:103020004822DE006624E1000300360080C0EB0089
:10303000B614020000000000145C8000B4CDB200A1
:1030400003003200145C8000B4CBB20003003A00ED
:1030500080C0EB00B614020000000000145C800089
:10306000D4CDB20003003200145C8000D4CBB20097
:1030700003003A0080C0EB00B6140200000000001C
:10308000145C8000F4CDB20003003200145C8000B8
:10309000F4CBB20003003A0080C0EB00B61402008B
:1030A00000000000000000008600A900A001200030
:1030B0000C0009004F1078004F0078003200F90032
:1030C0003600F9004200F90000400600C122A900C4
:1030D000C522A90003C8A90000000600E70160009E
:1030E0004300DE00020040000000A700E88141002C
:1030F0000000A1000104E0001098AD0000000600EF
:10310000851F7800D122A900D522A900C8C2A90034
:10311000CCC2A90010C0B300B8EBB700C45D8000FA
:103120006824E10013003E00B68BBF009042780097
:103130000508B2000500E00003003A00C162A900E2
:10314000C562A90002003700C162A900C562A800DB
:10315000B15D80004200A90091D8D200D122A9001F
:10316000D522A800D122A900D522A900B86BEC0075
:10317000EAFF3700C8C2A900CCC2A800C8C2A90093
:10318000CCC2A900CF0278000000060022802000F7
:10319000B4CBBF000160EF00110020006E180200E8
:1031A0000000000002C8BF00B5EBB70054BB200010
:1031B000B45D8800801802000000000000000600D6
:1031C00060C0B300B4EBB700C618020000000000F6
:1031D0000000060022802000B4CBBF000160EF0099
:1031E000010020006E1802000000000002C8BF00AD
:1031F000B5EBB70054BB2000B45D88008018020016
:103200000000000000000600851F7800044B8000CD
:103210004822DE006124E1002C003A000308AE00E1
:1032200004003700B46BEF00C61802000000000075
:10323000050037000308AF0003003700B46BEF0050
:10324000EA180200000000000328AE000500370065
:1032500050C0B300B4EBB700C61802000000000075
:10326000060037000328AF000400370050C0B30049
:10327000B4EBB700EA180200000000000348AE00FB
:103280000500370040C0B300B4EBB700C618020019
:1032900000000000060037000348AF0004003700BC
:1032A00040C0B300B4EBB700EA1802000000000011
:1032B00064C9BF000160EF00E10260000500E000AA
:1032C00001003A000348A9000D0037006149E200FF
:1032D0000B003A00B46BEF00EA1802000000000097
:1032E00050C0B300B4EBB700EA18020000000000C1
:1032F00040C0B300B4EBB700EA18020000000000C1
:10330000CF0278000000060010C0B300B4EBB70095
:10331000C6180200000000000000060020C0B30034
:10332000B4EBB700C6180200000000000000060061
:1033300030C0B300B4EBB700C618020000000000B4
:103340000000060084190200000000008E1902002F
:1033500000000000981902000000000000000600B4
:10336000D0A2A900D4A2A90003E8A9000000060089
:103370000000E0004220AF00040037007B3E09005F
:10338000000000000000E900FCFF3A000000060019
:1033900040062000B81902000000000000000600EE
:1033A000F40020000427880004002F001427880060
:1033B0007400200024278800F400200004278800DF
:1033C00004002E00142788007400200024278800A1
:1033D00004002800141A880034002100241A8800F0
:1033E00004472800041A8800000006001021EF009E
:1033F00094042000640888000402280084088800DF
:103400001221EF000427200074088800040328001C
:10341000940888001E21EF00840C2000D408880046
:1034200004022800F40888002021EF00840C20000A
:10343000E408880004012800040988000000060050
:10344000A00F2000B81902000000000000000600D4
:1034500001E02F0083814000F1072000E080480058
:10346000910188000500A1000500E0000300320082
:10347000331ABA008582E900FCFF3A00000006001A
:10348000851F7800B02BEF00AE6BEF00B02BEF0084
:10349000845D8000A30320000418E1001B003900B4
:1034A0000060FE00835D80000400200025002000F5
:1034B000281A020000000000B2ABB700AECBBF007C
:1034C000AE6BEC000080FB0084972000840240007B
:1034D000B28BBF0080429800AECBBF00AE6BEC0059
:1034E0000080FB008497200084024000B3CBBF0023
:1034F000804A78007E3E090000000000845D800064
:1035000062004200B0ABB700E1FF3700CF027800A5
:10351000000006007AC9BF000160EF00008AB20017
:10352000050032001080B200080032003080B20086
:103530000B0032000F003700840620005410880072
:1035400074002000641088000F00370094062000EB
:103550005410880024002000641088000A003700FE
:103560008405200054108800740020006410880036
:1035700005003700840620005410880074002000E5
:10358000641088000000370000000600851F7800E6
:10359000B0CBBF00B1EBB700B16BD500845D80004C
:1035A0004822DE008447B20004407800B1EBB70047
:1035B000B1CBBF000160EF004200DE00845D8000FF
:1035C0004822DE0084024000B0CBBF000160EF0063
:1035D0006F00600005004000CF0278000000060088
:1035E000851F7800C500200003000900B51F780082
:1035F0000202B8000303B8004200A900850243009C
:1036000060844B00020BB80085024B0008844B001D
:10361000030BB800080443000780B000870178005E
:10362000080178008500780004007800250120005A
:1036300003000900CF127800CF02780000000600D6
:10364000851F7800C500200003000900B51F780021
:10365000090020004300AF0019002000891F7800F6
:103660000002EB008002EB000003EB008003EB00A4
:103670000304690011003200080220004200A90082
:103680000080D2008180D2000482D2008582D200E4
:103690000328E10001003A0002A0E1000300390024
:1036A0000202520083825A004200A8000683D20020
:1036B0008783D2000804E900F0FF3A008700780011
:1036C00006007800CF0478000900E0000100320015
:1036D0000400BE002501200003000900CF1278007D
:1036E000CF02780000000600851F7800C50020008A
:1036F00007000900B51F7800BE2BD500BCABD70072
:103700008046EB00B88BBF00D15D80000201200035
:1037100003002000F01A0200000000000001780001
:1037200081017800BC8BBF00F15D8000201B02008E
:1037300000000000E1025000608358006130E100A9
:103740000500390002003E006028E1000200390057
:10375000F5FF2F0006002000E180420060014B00D1
:1037600001007800820078000201200003002000A0
:10377000F01A0200000000000001780081017800CA
:10378000BC8BBF00F15D8000201B02000000000028
:10379000D45D80000120E1000500390009003E00F1
:1037A000C45D80000020E100010039000500370001
:1037B000C45D800084045000D45D800004855800FE
:1037C00004003700C45D800080045200D45D800096
:1037D00001055A00B88BBF00D15D80004200200077
:1037E00003002000F01A0200000000000001780031
:1037F00081017800BC8BBF00F15D8000201B0200BE
:1038000000000000E1035000608458006140E100C6
:103810000500390002003E006038E1000200390076
:10382000F7FF2F0008002000E180430060014C00FA
:103830000100780082007800420020000300200090
:10384000F01A0200000000000001780081017800F9
:10385000BC8BBF00F15D8000201B02000000000057
:10386000D45D80000120E1000500390009003E0020
:10387000C45D80000020E100010039000500370030
:10388000C45D800084055000D45D8000048658002B
:1038900004003700C45D800080055200D45D8000C4
:1038A00001065A000C50E1000500390002003E00FC
:1038B0000B48E100020039001DC0B3008702780008
:1038C000040028000411880004402000141188001E
:1038D0001A00AF002062A80045118800A501200051
:1038E00007000900CF127800CF0278000000060020
:1038F00021E2A8002342A80004202C00A45D880037
:1039000014002000B45D88007C49E2000B003A00FE
:10391000D0E2A800D0C2A8007020A9005820A900B9
:103920007040A9005840A90021E2A9002342A90043
:10393000C81902000000000028003700E44B800096
:103940006124E10003003A00042C2100A45D8800FA
:10395000B62BEF00E44B80006224E10003003A0044
:1039600004582200A45D8800B62BEF00E44B8000D1
:103970006324E10003003A0004B02400A45D880041
:10398000B62BEF00E44B80006424E10003003A0012
:1039900004602900A45D8800B62BEF00E44B800092
:1039A0006524E10003003A0004102E00A45D8800A5
:1039B000B62BEF00B40BF800B80BF900B60BF8000B
:1039C000BA0BF90004802400E45D8800841E200006
:1039D000F45D8800741B0200000000000000060077
:1039E0004200F800801F780014028000040EB3002B
:1039F00014028800013B880054052000343B8800F5
:103A0000A40A2000343B880061E7A8000000000001
:103A10000000000061E7AF00FEFF37004F007800B4
:103A20004200F900000006004200F800801F780004
:103A300014028000040EB30014028800013B8800C9
:103A400054052000343B8800A40A2000343B880041
:103A500061E7A80000000000000000004F007800AF
:103A60004200F90000000600811F780001E02F00ED
:103A7000008040008000EB00F1072000E08048005B
:103A800091018800CF0078000200A1000200E00050
:103A9000110032001108BB00811F780001002000D6
:103AA000F01C020000000000CF0078003108BB00CD
:103AB0000080E80001003A003220EC00811F78000D
:103AC00041002400141D020000000000CF00780017
:103AD0000281E900EFFF3A0000000600851F780030
:103AE000B46BEF00B62BEF00B45D8000A3032000A1
:103AF0000418E1001D0039000060FE00B4CBBF00D7
:103B0000B46BEC000080FB008497200004004000B0
:103B1000C45D800000429000C45D8800B4CBBF004B
:103B2000B46BEC000080FB00849720000400400090
:103B3000801F780010407800B9EBB7004F00780084
:103B4000B68BBF0081BB200022002000341D020084
:103B5000000000007E3E090000000000B45D80000F
:103B600062004200B6ABB700DFFF3700CF0278003B
:103B70000000060044598000C35D20000418E100E5
:103B80000400360030C0B30000E0B7001F0037006B
:103B90001E00370044598000C35D20000418E10076
:103BA00008003E0044598000439C20000418E100B6
:103BB0000400390020C0B30000E0B7001300370054
:103BC0001200370044598000439C20000418E10093
:103BD00008003E004459800083ED20000418E100F5
:103BE0000400390010C0B30000E0B7000700370040
:103BF000060037004459800083ED20000418E100DE
:103C0000020031000060EF000000370000000600F5
:103C10000600FC0061762000520520008208780032
:103C2000A30A20008308780027A6A800217420009A
:103C300062042000730520008248780083487800E1
:103C40004227A8000400280034318800FC22A90083
:103C500027A6A9007C6BEF0010C0B3007BEBB70078
:103C600010C0B3007AEBB70010C0B30079EBB70017
:103C7000786BEF00776BEF00766BEF002966A90099
:103C80002946A9002706A8002726A800871F780034
:103C9000881F78000500FC0057052000373B88008E
:103CA000A80A2000383B880027A6A8004F04780007
:103CB000CF0378007CCBBF00FAEBB700FB6BEF00C3
:103CC000FA0BF8002406F9007ACBBF00FAEBB70034
:103CD0007BCBBF00FBEBB700FA0BF8002406F90022
:103CE00078CBBF00FAEBB70079CBBF00FBEBB70096
:103CF000FA0BF8002406F90076CBBF00FAEBB70008
:103D000077CBBF00FBEBB700FA0BF8002406F900F5
:103D100000000600861F7800871F7800881F780043
:103D2000891F78000002EB008002EB000003EB002B
:103D30008003EB0003046900110032000802200038
:103D40004200A9000080D2008180D2000482D2000B
:103D50008582D2000328E10001003A0002A0E100C0
:103D6000030039000202520083825A004200A80078
:103D70000683D2008783D2000804E900F0FF3A00EE
:103D80008700780006007800CF0478004F047800A0
:103D9000CF0378004F03780000000600821F7800F0
:103DA000831F7800851F78004300A900320020009F
:103DB000030020008A1E0200000000004200A9004B
:103DC0000080D2008180D20091018800CF0278006B
:103DD000CF0178004F0178000300E00013003200AB
:103DE000E3006200050032000000E8008100E90005
:103DF000070032000000E900080037000300E0007F
:103E00000A0032003059BA008301E900070032008D
:103E10002059BA008301E9000400320030D9BA0009
:103E20000000E8008301E900F4FF3700000006000D
:103E3000851F7800B9C9BF00DA49E30002003200EB
:103E40000040EB000100370010C0B300BFEBB7002B
:103E5000C44D80004822DE00A39B20008302420064
:103E6000BE8BBF0080429800C44D80004822DE0017
:103E7000E10242007F806200C0ABB700DAC9BF0038
:103E80000160EF00C00BE300FCFF3200C0CBBF00BD
:103E9000B9E9B700BF4BE200010032008580A800FD
:103EA000CF02780000000600851F7800861F78008A
:103EB000871F7800881F7800B4CBBF000160EF0037
:103EC0004100DD00C48B2000840240000500780022
:103ED00090037800851F780007007800010020001B
:103EE0000201200013002000CE1E0200000000008E
:103EF000CF02780010C0BF000040B3004220AF00E6
:103F0000070037008703E800BE0BF800E8FF9F00BA
:103F1000BE0BF900181F020000000000EDFF370083
:103F2000C8190200000000004F047800CF03780099
:103F30004F037800CF0278000000060010C0B300E5
:103F4000B4EBB700EA180200000000000000060011
:103F500020C0B300B4EBB700EA1802000000000074
:103F60000000060030C0B300B4EBB700EA1802004E
:103F700000000000000006009E1F0200000000007C
:103F8000A81F020000000000B21F02000000000095
:103F900000000600055E80004300A900BC8BBF0046
:103FA000F15D8000C25D8000D35D8000201B0200B7
:103FB000000000000100E00013003A000000E000F3
:103FC000110032000500E0000E003200823E2000A9
:103FD00003002000F01A0200000000000100E000D1
:103FE00002003A000000E00062003A004300A9002D
:103FF000823E200003002000201B02000000000081
:10400000010037005B0037004300A9008200200058
:1040100003002000201B0200000000000100E0005F
:1040200013003A000000E000110032000500E0003B
:104030000E003200823E200003002000F01A020031
:10404000000000000100E00002003A000000E00073
:1040500044003A004300A900823E200003002000F3
:10406000201B020000000000010037003D00370067
:104070004300A9008200200003002000201B020052
:10408000000000000100E00013003A000000E00022
:10409000110032000500E0000E003200823E2000D8
:1040A00003002000F01A0200000000000100E00000
:1040B00002003A000000E00026003A004300A90098
:1040C000823E200003002000201B020000000000B0
:1040D000010037001F0037004300A9004200200004
:1040E00003002000201B0200000000000100E0008F
:1040F00013003A000000E000110032000500E0006B
:104100000E003200823E200003002000F01A020060
:10411000000000000100E00002003A000000E000A2
:1041200008003A004300A900823E2000030020005E
:10413000201B0200000000000100370001003700D2
:10414000000020008000780004032800F4088800A4
:104150000B0037008000780004022800F408880073
:10416000070037008000780004012800F408880068
:10417000030037008000780004002800F40888005D
:104180008100E900D108880000000600010020003D
:104190001A81BF000000E8004220AF008100E80063
:1041A000C25D800003002000F01A02000000000041
:1041B000823E200003002000201B020000000000BF
:1041C000AAA1B70000000600B44BE20003003A00C9
:1041D00080FF2F00A421B60032003700A45D8000CC
:1041E0007924E1000200310090C1B300B4EBB700C4
:1041F000B62BEF00B4CBBF000160EF0000427800A7
:104200000960EF006A20B800B45D80000020E10082
:1042100017003E0024032000C45D8800BA2BEF0085
:1042200004402200E45D8800440F2000F45D880013
:10423000C02BEF00CA1F020000000000B60BF80000
:10424000B80BF900C620020000000000600020004A
:10425000A421B7003E1F0900000000000060FE001E
:10426000B45D80006D004200B6ABB700E1FF3700DF
:10427000B45D8000633B20000418E10008003E00AC
:10428000843E2000B45D8800843E2000C45D880028
:10429000C62002000000000060002000A421B7003A
:1042A0000368A80000000600AE6BEF00745D80009C
:1042B0006924E1000A003E00A2190200000000008B
:1042C000201A020000000000BC1F020000000000D5
:1042D000201A020000000000AE6BEC00F3FF370074
:1042E000E0C0B300B4EBB700541F020000000000B0
:1042F00050C1B300B4EBB700541F0200000000002F
:1043000060C1B300B4EBB700541F0200000000000E
:10431000B02BEF00845D8000032020000418E10032
:104320000E0039000060FE00B26BEF00B36BEF00CF
:10433000B08BBF0021BB200022002000341D0200F2
:10434000000000007E3E090000000000845D800047
:1043500062004200B0ABB700EEFF370070C1B3009F
:10436000B4EBB700541F02000000000080C1B3008E
:10437000B4EBB700541F020000000000F0CFB30000
:1043800051E9B700D0C1B300B4EBB700541F02002D
:1043900000000000081E020000000000D0C2B300B0
:1043A000B4EBB700541F0200000000006269EF0088
:1043B00062C9BF0089E9B700E0C2B300B4EBB7003F
:1043C000541F02000000000020C3B3005EE9B700E4
:1043D0005EC9BF0085E9B7005EC9BF00B4EBB70096
:1043E000E42002000000000020C0B3005DE9B70037
:1043F0005DC9BF0084E9B700A0C2B300B4EBB70049
:10440000541F0200000000005EC9BF00B4EBB700FB
:10441000E42002000000000050C3B30060E9B700D0
:1044200060C9BF0086E9B700B0C2B300B4EBB70003
:10443000541F0200000000008769EF0087C9BF0019
:1044400052E9B7005469EF0054C9BF0083E9B700CF
:1044500010C0B30090E9B70090C9BF0061E9B70090
:10446000F0C2B300B4EBB700541F0200000000001C
:104470004D69EF004DC9BF007BE9B70000C3B30031
:10448000B4EBB700541F0200000000004E69EF00BB
:104490004EC9BF007CE9B700781C02000000000094
:1044A00040C0B300B4EBB700541F0200000000008E
:1044B00000CAB3007AE9B7008A1A020000000000BF
:1044C00049C9BF0053E9B70053C9BF0082E9B7002B
:1044D00040C1B300B4EBB700541F0200000000005D
:1044E0006E1D020000000000201A02000000000003
:1044F000BC1F020000000000E0C0B300B4EBB70036
:10450000541F02000000000000000600C162A90064
:10451000C562A800C842A900CC42A8003E06090016
:1045200000000000C842A900CC42A9003E060900D4
:1045300000000000AE6BEF00745D800003042000FB
:10454000041CE1000A003600C162A900C562A8008F
:104550003E06090000000000C162A900C562A90072
:104560003E06090000000000AE6BEC00F2FF3700D1
:10457000C162A900C562A8003E0609000000000053
:10458000C842A900CC42A8003E0609000000000075
:10459000F0C3B300B8E9B70000000600E55D800095
:1045A0004300A900B88BBF00D15D8000A25D8000F0
:1045B000B35D8000201B0200000000000100E0004D
:1045C00013003A000000E000110032000500E00096
:1045D0000E003200823E200003002000F01A02008C
:1045E000000000000100E00002003A000000E000CE
:1045F00062003A004300A900823E20000300200030
:10460000201B020000000000010037005B003700A3
:104610004300A9008200200003002000201B0200AC
:10462000000000000100E00013003A000000E0007C
:10463000110032000500E0000E003200823E200032
:1046400003002000F01A0200000000000100E0005A
:1046500002003A000000E00044003A004300A900D4
:10466000823E200003002000201B0200000000000A
:10467000010037003D0037004300A9008200200000
:1046800003002000201B0200000000000100E000E9
:1046900013003A000000E000110032000500E000C5
:1046A0000E003200823E200003002000F01A0200BB
:1046B000000000000100E00002003A000000E000FD
:1046C00026003A004300A900823E2000030020009B
:1046D000201B020000000000010037001F0037000F
:1046E0004300A9004200200003002000201B02001C
:1046F000000000000100E00013003A000000E000AC
:10470000110032000500E0000E003200823E200061
:1047100003002000F01A0200000000000100E00089
:1047200002003A000000E00008003A004300A9003F
:10473000823E200003002000201B02000000000039
:1047400001003700010037000000200080007800E1
:1047500004032800040988000B003700800078005B
:104760000402280004098800070037008000780050
:104770000401280004098800030037008000780045
:1047800004002800040988008100E900E10888008D
:1047900000000600B20BF800B40BF900B62BEF00D6
:1047A00004402200C45D8800440F2000D45D8800CE
:1047B000BC2BEF00CE22020000000000000006002B
:1047C000600020009A21B7000000060080017800F8
:1047D0000180FD0054C0B3000360ED000860ED00EF
:1047E0001900320003007800C419DD004C00DE001F
:1047F000F000B20004003A006124E100020032003F
:1048000003E0AE00F4FF37000003B000A203200075
:104810000200E100010039000240B400811F78006D
:10482000831F7800841F7800BEEBB700181F0200BA
:10483000000000004F027800CF017800CF00780020
:1048400003E0A800E4FF370000000600010020009C
:10485000010078000160EF00FA0A02000000000089
:104860008100E800811F7800BEEBB700181F02002E
:1048700000000000CF007800B00120000008E60032
:10488000F3FF370064C9BF000160EF0041702200F0
:10489000E623020000000000E10120000100780092
:1048A0000160EF00FA0A0200000000008100E80049
:1048B000811F7800BEEBB700181F02000000000047
:1048C000CF007800100220000008E600F3FF370058
:1048D00065C9BF000160EF0021702200E6230200DD
:1048E00000000000A0C3B300BEEBB700181F020019
:1048F0000000000066C9BF000160EF0021702200C7
:10490000E623020000000000A0C3B300BEEBB70026
:10491000181F02000000000067C9BF000160EF001F
:1049200021702200E623020000000000A0C3B300B3
:10493000BEEBB700181F02000000000068C9BF00EE
:104940000160EF0021702200E62302000000000059
:10495000A0C3B300BEEBB700181F020000000000A8
:1049600069C9BF000160EF0021702200E623020048
:1049700000000000A0C0B300BEEBB700181F02008B
:1049800000000000D0C0B300BEEBB700181F02004B
:10499000000000000000060063E0A90082E0A9001A
:1049A00010C3B300B4EBB700541F020000000000B6
:1049B0006FE0A90057E0A800C962A900CD62A90074
:1049C000E0C1B30067EAB70062AAA800C8190200F4
:1049D00000000000674AE200070032000308A80058
:1049E00004190200000000000060FE007E3E090085
:1049F00000000000F7FF37006FE0A80057E0A900B3
:104A0000C962A900CD62A800C962A800C8E2A800D6
:104A100062CAA80062AAA900676AEF0020C3B300B7
:104A2000B4EBB700541F02000000000063E0A800D0
:104A30009660A800626AA90090012000B8190200DF
:104A40000000000000000600640BA800449C200049
:104A5000445B8800A4002000441A8800AC110200C6
:104A600000000000680BE20014003200682BED002B
:104A70000060FE00BE0E02000000000044ABB70064
:104A8000245A800043DB20000418E1000A003600AD
:104A9000A60F020000000000640BA9007E3E090082
:104AA00000000000B00BA9000000EB00B00BAF004D
:104AB0000000E80013003700EAFF3700442BEF0046
:104AC00050C0B3006AEBB70010C0B30056EBB7009C
:104AD00056CBBF0024E9B7005E2BEF00602BEF0040
:104AE000AC11020000000000640BA9007E3E09002A
:104AF00000000000B00BA8000000EB00B00BAF00FE
:104B00000000E8000000060060C0B300B4EBB7008E
:104B1000EA1802000000000000000600E018020091
:104B200000000000C81902000000000084250200F7
:104B300000000000C962A900CD62A800C962A800F7
:104B4000201A020000000000201A020000000000ED
:104B5000E01802000000000000000600B439200048
:104B6000945D8800CA2302000000000090C1B300D9
:104B700066EAB700E023020000000000C819020046
:104B80000000000074492000945D8800CA230200E0
:104B90000000000090C1B30066EAB700E023020005
:104BA00000000000C81902000000000094742000FA
:104BB000945D8800CA2302000000000090C1B30089
:104BC00066EAB700E023020000000000C8190200F6
:104BD00000000000B22BEF00CA230200000000001A
:104BE00090C1B30066EAB70000000600A0002000F4
:104BF000B8190200000000000000060080FF2F002E
:104C0000A421B6000368A90000000600D082A90014
:104C1000D482A9000428A90000000600640BA800A3
:104C200094002000441A8800BE0E0200000000001C
:104C30000EABB700A4002000441A8800BE0E02008C
:104C40000000000044ABB700245A800043DB200082
:104C50000418E1000400390074588000A3362000D5
:104C60000418E10002003100B00BA8000100370079
:104C7000B00BA900640BA9000000EB00B00BAF0063
:104C80000000E80000000600851F7800628AAE0080
:104C900002003700628AA9001B0037000060FE0096
:104CA00024250200000000006104E10010003A0029
:104CB000628AA900F625020000000000628AAE00A8
:104CC00006003700628AA900201A020000000000D6
:104CD0008E250200000000001501370062EAAE00D8
:104CE000020037000060FE001101370005003700A8
:104CF00024250200000000000004E00001003A004A
:104D000001003700E5FF370010C0B300B4EBB70077
:104D1000541F020000000000FE25020000000000F9
:104D2000BC1F0200000000000308A9000328A9001E
:104D30000348A9000419020000000000AC110200A1
:104D400000000000062602000000000010C0B300B2
:104D5000B3E9B700B269EF00030037000E26020086
:104D600000000000B2E9B7005249E20003003A0037
:104D7000B019020000000000020037009E0F020080
:104D800000000000AC110200000000000626020036
:104D90000000000080C0B30005E8B7000060FE001E
:104DA0001021EF0094042000640888000402280009
:104DB000840888001221EF0004272000740888006E
:104DC00004032800940888001E21EF00840C2000B2
:104DD000D408880004022800F40888002021EF008D
:104DE000840C2000E40888000401280004098800DD
:104DF000AC110200000000000626020000000000C6
:104E0000C0E2A900C4E2A900C142A900C542A900AC
:104E1000C102A900C502A900C122A900C522A8009B
:104E2000D062A900D462A900C8A2A900CCA2A9009E
:104E3000C162A900C562A900C8C2A900CCC2A9006C
:104E4000D082A900D482A900D102A900D502A9006C
:104E5000D122A900D522A900C942A800C962A80090
:104E6000C9A2A900CDA2A900C982A900CD82A9002A
:104E7000C802A800C822A800D0E2A800D0C2A8009A
:104E8000C922A800C902A800C842A800C862A80098
:104E9000C062A800C042A800C9C2A800C9E2A80018
:104EA000D042A800D022A800D002A800C022A800AA
:104EB000C002A8009600A9008600A9009500A900DC
:104EC0008500A90094E0A90084E0A9009BC0A90086
:104ED0008BC0A90063E0A90082E0A90070E0A800EF
:104EE00004402000243A88000E00FC0060102000DE
:104EF0003174200082072000A30920008248780036
:104F00008348780043E7B7004800DE0021742000A2
:104F100062042000730520008248780083487800EE
:104F20008048780080FF2F009A21B60080FF2F0074
:104F3000A421B6004187A8004107A90000CAB30018
:104F40006DEBB70000CAB3006EEBB7000548E20096
:104F5000280032000040FE00000000005807A900B1
:104F60000060FE00B349E20021003A004427EF0050
:104F70000E00FC0010102000317420008207200079
:104F8000A3092000824878008348780043E7B700EF
:104F90004800DE0021742000620420007305200018
:104FA00082487800834878008048780010C0B300B9
:104FB000B3E9B70062AAA8000060FE00960F0200E5
:104FC000000000009E0F020000000000A60F02007B
:104FD00000000000AE0F020000000000201A0200D6
:104FE000000000008E250200000000005000370085
:104FF000D6FF3700586BEF0063E0A8009660A8006A
:10500000AE6BEF00745D80006824E1001700310092
:105010006F6BEC00644BAF0004003700C942A9007D
:10502000CD42A800644BA80005003700644BAE00D9
:1050300003003700C942A900CD42A900644BA90072
:105040006FCBBF000000FB00040420000020E10043
:1050500001003D006F6BEF00FE030900000000003F
:105060000060FE00AE6BEC00E6FF3700C942A9000D
:10507000CD42A90076CBBF00AFEBB70063E0A9003B
:1050800082E0A900AFCBBF00764BE30005003A00F9
:105090000040FE00000000005807A9000060FE006C
:1050A000F8FF37000060FE00D01902000000000089
:1050B000B349E2000200320062EAAE003A00370073
:1050C0004427EF000E00FC00101020003174200077
:1050D00082072000A30920008248780083487800D6
:1050E00043E7B7004800DE0021742000620420007E
:1050F0007305200082487800834878008048780053
:1051000010C0B300B3E9B70062AAA8000060FE00B7
:10511000960F0200000000009E0F02000000000039
:10512000A60F020000000000AE0F02000000000009
:10513000F6190200000000008200A8009400A800F8
:1051400063E0A8009660A8009BC0A8009560A80036
:105150009580A80094E0A8009500A8009600A800FB
:105160004220EF006FE0A80057E0A900C962A90043
:10517000CD62A80090012000B819020000000000D4
:10518000AE25020000000000F0C0B300B4EBB70091
:10519000541F02000000000062AAA800622BEF006A
:1051A000B369EF005B003700944D80006124E1009B
:1051B00005003A000E260200000000006104E10034
:1051C00001003A00E5FE3700B249E2003F003A0034
:1051D0000E260200000000006104E1003B003A00DE
:1051E0004427EF000E00FC00101020003174200056
:1051F00082072000A30920008248780083487800B5
:1052000043E7B7004800DE0021742000620420005C
:105210007305200082487800834878008048780031
:1052200010C0B300B3E9B70062AAA8000060FE0096
:10523000960F0200000000009E0F02000000000018
:10524000A60F020000000000AE0F020000000000E8
:10525000F6190200000000008200A8009400A800D7
:1052600063E0A8009660A8009BC0A8009560A80015
:105270009580A80094E0A8009500A8009600A800DA
:105280004220EF006FE0A80057E0A900C962A90022
:10529000CD62A80090012000B819020000000000B3
:1052A000AE2502000000000020C0B300B4EBB70040
:1052B000541F02000000000062AAA800622BEF0049
:1052C000B369EF001300370010003700944D8000E1
:1052D0006124E10006003A000E26020000000000F2
:1052E0000004E00002003A009CFE3700070037008F
:1052F000B249E20005003A000E260200000000005C
:105300000004E00001003A0094FE3700A1FE3700DF
:1053100092FE3700CF02780000000600851F78005B
:10532000C500200003000900B51F78008003780045
:105330008404780004F0A1000400E00006003A00B4
:1053400009F0A70002003700050020001700370011
:105350000500200015003700E64252001200390017
:105360000003200009F0A60000022000801F780042
:10537000811F7800829FBE00841F7800BEEBB700BB
:10538000181F0200000000004F0278004F01BE000D
:10539000CF0078004F0078008502E900F3FF3B0062
:1053A00055002000010037008402780064002000CE
:1053B00005E0A00009F0A70005F0A0000871220098
:1053C000110009008883D800242A02000000000090
:1053D00081037800883E2000110009008883D800EE
:1053E000242A020000000000810378004806200003
:1053F000110009008883D800242A02000000000060
:1054000081037800A8002000110009008883D800DB
:10541000242A0200000000000003200000C0400019
:10542000811F7800829FBE00841F7800BEEBB7000A
:10543000181F0200000000004F0278004F01BE005C
:10544000CF0078001D003700060320000000E000B8
:105450000E003A0005E0A6000D0037000402E90046
:105460000524E100020032004200AF000000060007
:105470000000E00005003A0005E0A6000400370047
:1054800005F0A600060220000100370005E0A1009B
:1054900000404300811F7800821F7800841F78003D
:1054A000BEEBB700181F0200000000004F0278009A
:1054B0004F017800CF007800000006002501200091
:1054C00003000900CF127800CF0278000000060028
:1054D00094742000945D8800CA230200000000003C
:1054E00090C1B30066EAB700E023020000000000AC
:1054F000C81902000000000074492000945D880073
:10550000CA2302000000000090C1B30066EAB700A1
:10551000E023020000000000C819020000000000A3
:10552000B4392000945D8800CA2302000000000006
:1055300090C1B30066EAB700E0230200000000005B
:10554000C819020000000000B22BEF00CA230200BD
:105550000000000090C1B30066EAB700000006003A
:105560005960A9007160A900000009000000000056
:10557000C8A2A800C8A2A800AE0BA900CAA2AF008A
:10558000AE0BA80003A8A800000006000100200040
:10559000010078000160EF00400B020000000000F5
:1055A0008100E800811F7800BEEBB700181F0200E1
:1055B00000000000CF007800600120000008E60035
:1055C000F3FF370078CBBF000160EF0021702200AD
:1055D000E623020000000000A0C3B300BEEBB7004A
:1055E000181F02000000000077CBBF000160EF0031
:1055F00021702200E623020000000000A0C3B300D7
:10560000BEEBB700181F02000000000076CBBF0001
:105610000160EF0021702200E6230200000000007C
:10562000A0C0B300BEEBB700181F020000000000CE
:10563000D0C0B300BEEBB700181F0200000000008E
:105640000000060070C0B300B4EBB700C61802003B
:10565000000000000388A8000000060070C0B3002E
:10566000B4EBB700EA180200000000000388A900AC
:1056700000000600851F7800C50020000300090017
:10568000B51F7800090020004300AF00190020007A
:10569000891F78008384680001F0A60003003700AA
:1056A0008180EA000000EA00E080480003F0A600E4
:1056B000030037008381EA000201EA00E08149002B
:1056C00003026900150032000002EB008002EB00CB
:1056D0000003EB008003EB00080220004200A90059
:1056E0000080D2008180D2000482D2008582D20064
:1056F0000328E10001003A0002A0E10003003900A4
:105700000202520083825A004200A8000683D2009F
:105710008783D2000804E900F0FF3A0009F0A600F0
:10572000070037000600EA000100320002003A00DC
:105730008700EA00050037008780EA000300370091
:10574000870078000600780000003700CF0478005A
:105750000900E000010032000400BE002501200025
:1057600003000900CF127800CF0278000000060085
:10577000851F7800861F7800C0002000AE0BB400A3
:105780008002780080002000AE0BB4000002780098
:1057900014007800950A400004002000D50A4A0051
:1057A000C0002000AE0BB400A4002000301A780026
:1057B000301A78004300A9000500780086007800C0
:1057C00002042000030020003A2B02000000000029
:1057D000B0ABB700C0002000AE0BB4008002780070
:1057E000B08BBF008000EB0000F0A7008080EB00D2
:1057F00015027800800A520055027800810A5A008A
:10580000A0002000AE0BB40080027800B08BBF0077
:1058100000F0A6000300370004002000835D800034
:1058200003005200800A78004F037800CF0278000E
:1058300000000600851F7800745D8000E5024200CC
:1058400005027800A3002000110009000382D8009F
:10585000AEABB700745D80006A20B800AEABB70095
:10586000AE0BF8000000F900CF027800000006003F
:10587000B8ABEF00B20BF800B40BF900B62BEF0099
:10588000B80BE2002E003200B82BED00A45D8000C2
:10589000F37022000418E1000200310000A0EF00C4
:1058A00029003700A45D8000833E20000418E10039
:1058B00008003E00A45D8000843EB100A45D880025
:1058C00004002100B35D800004804100B6ABB70046
:1058D0001A003700A45D8000430620000418E10090
:1058E00008003E00A45D80004406B100A45D88006D
:1058F00004102000B35D800004804100B6ABB70007
:105900000E003700A45D80006A20E1000700390026
:10591000A45D80006A005200B4ABB700B45D8000A3
:1059200070004200B6ABB70004003700B68BBF0072
:10593000B40BB400B6ABB70001003700D0FF37009E
:10594000B60BF8000000F90000000600851F780083
:10595000700BF800AE0BF9001A2C020000000000DA
:1059600070ABB700722BEF00700BF800AE0BF900B4
:105970001A2C02000000000080027800955D88006B
:10598000382C02000000000000A0B700CF02780011
:1059900000000600851F7800861F7800C0002000E8
:1059A000AE0BB4008002780080002000AE0BB40083
:1059B0000002780014007800950A400004002000DE
:1059C000D50A4A00C0002000AE0BB400A40020009D
:1059D000301A7800301A78004300A90005007800DA
:1059E0008600780002002100030020003A2B02000C
:1059F00000000000B0ABB700C0002000AE0BB40048
:105A000080027800B08BBF008000EB0000F0A700A0
:105A10008080EB0015027800800A52005502780061
:105A2000810A5A00A0002000AE0BB400800278006A
:105A3000B08BBF0000F0A600030037000400200078
:105A4000835D800003005200800A78004F037800D5
:105A5000CF02780000000600851F7800C5002000F6
:105A600003000900B51F78000202B80003F0A60089
:105A7000020037000383B900010037000303B800B8
:105A80004200A9008502430060844B0001F0A6009B
:105A900002003700028BB90001003700020BB8008A
:105AA00085024B0008844B000980B000038BB900CD
:105AB00008044B0087834C008701780008017800B8
:105AC000850078000400780025012000030009000B
:105AD000CF127800CF02780000000600F0CFB300AC
:105AE000B1EBB700AECBBF00AFEBB700B06BEF00D0
:105AF000B14BE20012003200B16BED00745D80002A
:105B00004822DE006A24E10008003900745D80004C
:105B10004822DE006A405200AFEBB700845D80008F
:105B200070404200B0EBB70004003700B0CBBF00BC
:105B3000AF4BB400B0EBB70001003700ECFF37000B
:105B4000B0CBBF0000E0B700000006000200E0009C
:105B5000080032003118BB00811F7800410024008A
:105B6000F01C020000000000CF0078000281E90074
:105B7000F6FF370000000600851F7800AF6BEF00CE
:105B80001FCABF00404AE30008003A00AF6BEC00B8
:105B9000745D80004822DE006A24E10003003E00BC
:105BA0007E3E090000000000F5FF3700F450800041
:105BB0000960EF00E39F200003004200745D800055
:105BC00000429000745D8800F45080000960EF008E
:105BD000E10242007FC062001EEAB700AECBBF0008
:105BE00000E0B700CF02780000000600851F7800B3
:105BF000AE6BEF00745D80007F24E10007003E0083
:105C0000745D80000960EF0063B8200083024200E9
:105C1000804AEB00AE6BEC00F6FF3700CF02780055
:105C200000000600851F7800CE8BBF001004E00046
:105C300019003200CE0BF800D20BF900D00BF8009F
:105C4000D40BF900D48BBF001004E0000A0032002E
:105C5000D28BBF0090427800D48BBF000002780046
:105C600014407800002CE10003003A00D22BEC0035
:105C7000D42BEC00F3FF3700D48BBF001004E000FE
:105C800003003A00CE0BF8000000F90003003700D3
:105C9000CE2BEC00E4FF37000020EF00CF027800AD
:105CA00000000600851F7800245C80004822DE008A
:105CB0007420B8008002780005017800E1BA200065
:105CC00002007800BC090200000000008058780043
:105CD0000201E8000004E0004220AE00F8FF3700B7
:105CE00024A42000745E8800E4BA2000845E88004A
:105CF000122E020000000000800278000500E00083
:105D00000400320010C0B30000E0B7000300370009
:105D1000020037000060EF0000003700CF0278007B
:105D20000000060030C0B300B4EBB700541F0200FF
:105D30000000000000000600851F7800AE6BEF0039
:105D4000745D80007F24E10007003100745D8000F5
:105D50000960EF0023A4200083024200804AEB0088
:105D6000AE6BEC00F6FF3700620AA900416AEF0053
:105D7000CF0278000000060000000600851F7800B2
:105D8000F62D020000000000856BEF00522E02008D
:105D9000000000006104E1000F003A0030C3B300CE
:105DA000B4EBB700541F02000000000054210200B1
:105DB00000000000201A020000000000C942A900F3
:105DC000CD42A900A0002000B81902000000000088
:105DD0000000FE00B200370010C0B30085EBB70032
:105DE000522E0200000000006104E10005003A00AC
:105DF000922E0200000000009C2E02000000000015
:105E0000A700370020C0B30085EBB700522E020078
:105E1000000000006104E10007003A00BC2E02000F
:105E200000000000922E0200000000009C2E0200E4
:105E3000000000009A00370040C0B30085EBB700B7
:105E4000522E0200000000006104E10005003A004B
:105E5000922E0200000000009C2E020000000000B4
:105E60008F003700D0C0B30085EBB700522E020080
:105E7000000000006104E10005003A00922E0200DB
:105E8000000000009C2E020000000000840037008B
:105E9000E0C0B30085EBB700522E02000000000006
:105EA0006104E10005003A00922E020000000000AB
:105EB0009C2E0200000000007900370060C0B30093
:105EC00085EBB700522E0200000000006104E100E3
:105ED00005003A00922E0200000000009C2E0200F5
:105EE000000000006E00370050C0B30085EBB70023
:105EF000522E0200000000006104E10005003A009B
:105F0000922E0200000000009C2E02000000000003
:105F100063003700A0C0B30085EBB700522E02002B
:105F2000000000006104E10005003A00922E02002A
:105F3000000000009C2E0200000000005800370006
:105F4000B0C0B30085EBB700522E02000000000085
:105F50006104E10005003A00922E020000000000FA
:105F60009C2E0200000000004D003700F0C0B3007E
:105F700085EBB700522E0200000000006104E10032
:105F800006003A0040062000B81902000000000098
:105F90009C2E0200000000004100370000C1B30049
:105FA00085EBB700522E0200000000006104E10002
:105FB00003003A009C2E0200000000003800370069
:105FC00010C1B30085EBB700522E020000000000A4
:105FD0006104E10003003A009C2E02000000000072
:105FE0002F00370020C1B30085EBB700522E02000E
:105FF000000000006104E10003003A009C2E020052
:10600000000000002600370030C1B30085EBB70068
:10601000522E0200000000006104E10003003A007B
:106020009C2E0200000000001D003700010020002F
:10603000010078000160EF00DC0A020000000000AF
:106040008100E800811F7800BEEBB700181F020036
:1060500000000000CF007800D00020000008E6001B
:10606000F3FF370021A420001104E00008003200F3
:10607000811F780001409000BEEBB700181F02009E
:1060800000000000CF0078008100E800F6FF370034
:10609000922E0200000000009C2E02000000000072
:1060A000CF027800000006000FE02000F0FF200083
:1060B00020A0B70000000000404424002005880014
:1060C00040442600300588005044240040058800E4
:1060D0007044250060058800404424009005880035
:1060E00081E0A90000802000E13F2000018009003C
:1060F0000018EB004427EF000028EF000400280000
:106100000411880004402000141188002062A800B7
:106110002402200044118800CD22A90007E2A80033
:1061200007A2A80006C2A8000762A90006E2A8000C
:106130000702A8000722A8000742A9008406200041
:106140005410880074002000641088002021EF00A3
:10615000F4E72300E408880004002800040988000C
:1061600004F42100040D880004C02000D40C880031
:10617000F4002000E40C88001E21EF00F4E7230067
:10618000D408880004002800F408880004F42100E2
:10619000540D880004802000240D8800E4002000B5
:1061A000340D8800B969EF00DA69EF00DB69EF00B0
:1061B000FC69EF00FD69EF001E6AEF001F6AEF0047
:1061C000406AEF00642AEF0030C0B30084EBB700F0
:1061D000E024EF00E224EF00E424EF006E0037003B
:1061E000C0060800060000004BF03F005C0A5800A3
:1061F000F63B8F0000C03C008B28AC003CBEF60094
:106200003FD2D50044168C0015D7BF0069005A0054
:106210002E1B8700993F9A005FAD4B0091E401006F
:10622000C05D11002F92E40081FB3F0038DA91003D
:10623000809DC500E0BF6F0012C0B400C309AB0071
:106240003F6BC100034EC100B545BF00F7400500DC
:10625000FF005A00EF3FF300A3E2F700D7FF010071
:1062600040C0B400FF053C0058FC3F003BD3C000D9
:10627000B5BA8C00E23F3900D3C73D004179B20086
:106280003F870D003C50D000AF623F00304B8D0087
:10629000A282AA0004400900A0404A00057603003B
:1062A00040EC9E003788A60044F03F008F128D001E
:1062B000299A5B00C73F0E00E0807C00A1D88600D1
:1062C0003F294B00FB95C200371A3F008068080049
:1062D000BC167D00407D64007DA97D00AC7DD500AD
:1062E0007D037E00077E0B007E0F7E00137E18006C
:1062F0007E1D7E00227E27007E587E009F7ECF007E
:106300007EE27E00E57EE9007E0F7F00377F5A0047
:106310007F6A7F00907F98007F9D7F00B97F50004B
:10632000807880008F80D800802481005181840093
:1063300081AE8100C181DF0081FD810019822700CB
:10634000823482004682740082CB8200F28208008E
:10635000833C83009183B50083D983000000000053
:106360000201E8006110E10004003A009101BA0066
:106370003182BA0006C0BF00000006006210E100D2
:1063800002003A0007C0BF000000060008C0BF00BE
:106390000001EB00000006000600200000002000C5
:1063A00090018800000F2300800078000001EB00BE
:1063B000B0310200000000000BE0B700B031020075
:1063C000000000000AE0B7000500E00019003200FC
:1063D00005F0A60007003700B03102000000000001
:1063E0000DE0B700B0310200000000000CE0B70083
:1063F00005F0A10005E0A6000800370005E0A100B7
:106400008502E900B03102000000000080437800FE
:1064100005800900075B7800E5FF3700B031020016
:1064200000000000005B78008502E900FBFF3A00F5
:10643000DFFF3700661802000000000070E0A800CF
:106440006FE0A80057E0A900C962A900CD62A800CA
:10645000E018020000000000D082A800C0E2A800FE
:10646000C942A800C962A800C802A800C822A800A2
:10647000D0E2A800D0C2A800C922A800C902A80082
:106480000308A8000328A8000348A8000419020074
:1064900000000000A219020000000000B019020074
:1064A00000000000AC1102000000000040A7A8009E
:1064B00040A7A800C819020000000000E018020070
:1064C00000000000C962A900CD62A800C962A8004E
:1064D000C142A900C542A9003226EF005627EF00AD
:1064E00041E2A90040C2A9004222EF0041E2A80017
:1064F0005627EF00D019020000000000F619020034
:10650000000000000421EF0021742000620420003C
:106510007305200082487800834878004227A8004D
:10652000040820001408880024032C002408880094
:10653000A4002000441A8800BE0E020000000000E3
:1065400044ABB700245A800073CF20000418E10048
:10655000110036006618020000000000B0190200A9
:1065600000000000AC11020000000000B60F0200A5
:10657000000000000060FE00201A02000000000081
:10658000A4002000441A8800BE0E02000000000093
:1065900044ABB700EBFF37007240A800960F020033
:1065A00000000000AE0F0200000000000300200009
:1065B0000400200025002000281A0200000000002E
:1065C000AAABB700AACBBF0048E9B700ABCBBF006E
:1065D00049E9B700401A02000000000090012000C5
:1065E000B8190200000000008A1A02000000000032
:1065F0007BC9BF004DE9B7007CC9BF004EE9B700B9
:1066000087C9BF0052E9B70083C9BF0054E9B7008A
:1066100082C9BF0053E9B70090C9BF0061E9B70064
:1066200085C9BF005EE9B70084C9BF005DE9B70056
:1066300086C9BF0060E9B70060C9BF00B0EBB70012
:10664000C61A020000000000B7E9B700F0CFB3009F
:1066500051E9B70062AAA8006E6BEF006D6BEF0006
:106660008200A8009400A80063E0A8009660A8003B
:106670009BC0A8009560A8009580A8009460A80021
:1066800094E0A8009500A8009600A8004220EF0022
:10669000781C0200000000000600FC00617620006B
:1066A0005205200082087800A30A200083087800A1
:1066B00027A6A80021742000620420007305200092
:1066C00082487800834878004227A8000400280008
:1066D00034318800FC22A90027A6A900C8190200AD
:1066E00000000000201A020000000000144C80008E
:1066F000F4CFB20006003A0049C9BF0053E9B70021
:1067000053C9BF0082E9B7006E1D020000000000FF
:10671000A66BEF00345D800003042000041CE10040
:1067200005003600BA1D0200000000006CEBB70047
:10673000A66BEC00F7FF3700645B80006224E10089
:106740000E003A00081E020000000000E0C0B30086
:10675000B4EBB700541F020000000000D0C1B3002A
:10676000B4EBB700541F020000000000E0C0B3000B
:10677000B4EBB700541F020000000000645B80000F
:106780006324E10002003A005421020000000000EE
:106790008622020000000000806BEF00960F0200CE
:1067A000000000009E0F020000000000AC1102007B
:1067B0000000000010C0B30056EBB70056CBBF007E
:1067C00024E9B7005E2BEF00602BEF0050C0B30050
:1067D0006AEBB700442BEF00AC1102000000000090
:1067E000640BA900B60F020000000000C8190200E7
:1067F00000000000624AA900626AA900628AA9003A
:10680000C0C1B300B4EBB700541F02000000000089
:10681000B46BEF00541F02000000000001002000D4
:10682000010078000160EF00740B0200000000001E
:106830008100E800811F7800BEEBB700181F02003E
:1068400000000000CF007800D00120000008E60022
:10685000F3FF370048C9BF00BEEBB700181F0200A6
:106860000000000001022000010078000160EF003C
:10687000740B0200000000008100E800811F780016
:10688000BEEBB700181F020000000000CF00780028
:10689000400320000008E600F3FF370049C9BF00AD
:1068A000BEEBB700181F020000000000E0C1B300FB
:1068B000B4EBB700541F020000000000944A8000AF
:1068C0004822DE0064C4B20004003200944A800012
:1068D0004822DE0014C5B20005003A0090C1B300A2
:1068E000B4EBB700541F02000000000004003700A2
:1068F000A0C1B300B4EBB700541F020000000000B9
:10690000B0C1B300B4EBB700541F02000000000098
:1069100080C3B3004AE9B700B369EF00622BEF0010
:10692000BC1F0200000000000308A9000328A90002
:106930000348A9000419020000000000862202009A
:1069400000000000B4202000945D8800CA230200EB
:106950000000000090C1B30066EAB700E023020027
:1069600000000000C81902000000000034292000C7
:10697000945D8800CA2302000000000090C1B300AB
:1069800066EAB700E023020000000000C819020018
:1069900000000000845C2000945D8800CA2302008F
:1069A0000000000090C1B30066EAB700E0230200D7
:1069B00000000000C819020000000000B4392000E7
:1069C000945D8800CA2302000000000090C1B3005B
:1069D00066EAB700E023020000000000C8190200C8
:1069E000000000000060FE0004190200000000002A
:1069F000944A80004822DE0064C4B20004003200E1
:106A0000944A80004822DE0014C5B20002003A0019
:106A100004E8A8000100370004E8A900B45A800087
:106A20006124E10004003200862202000000000020
:106A3000B60F02000000000004E8AE0008003700B6
:106A4000A4578000038A20000418E10004003100EC
:106A50008622020000000000B60F020000000000C5
:106A600004E8AE0008003700A4578000036E200041
:106A70000418E100020039000328A80001003700D3
:106A80000328A90007003700A45780004386200090
:106A90000418E100020039000328A80001003700B3
:106AA0000328A90064C9BF000160EF00E102600093
:106AB0006128E1001A003A0004C8AF00180037004E
:106AC00004C8A80026240200000000008F49E2004C
:106AD0001200320064C9BF008AE9B70065C9BF006F
:106AE0008BE9B70066C9BF008CE9B70067C9BF0072
:106AF0008DE9B70068C9BF008EE9B70069C9BF005A
:106B00008FE9B7006E1D020000000000F0C1B30065
:106B1000B4EBB700541F0200000000000C00370067
:106B200064C9BF000160EF00E10260000500E00001
:106B300007003A0004C8AE000500370004C8A900E9
:106B400000C2B300B4EBB700541F02000000000005
:106B50004629EC0004E8AE002F003700B45A80004C
:106B60006224E1002B003A0062EAAE0029003700FF
:106B7000045B80006020E1002600390003003E0035
:106B8000F45A80006F20E10022003600626AAF00F4
:106B900020003700A4578000236C20000418E10077
:106BA0001C00360010C2B300B4EBB700541F020043
:106BB000000000005E2BEF00602BEF00CC240200F1
:106BC0000000000024250200000000006104E10034
:106BD0000E003A00201A0200000000008E2502007C
:106BE00000000000AE2502000000000020C2B3003B
:106BF000B4EBB700541F02000000000062AAA80016
:106C0000622BEF00B369EF00500537004426020005
:106C1000000000002E003700B45A80006224E1001A
:106C20002B003A0062EAAE0029003700045B8000C6
:106C30006020E1002600390003003E00F45A800085
:106C40006F20E10022003600626AAF0020003700AA
:106C5000A4578000D37E20000418E1001C003600F9
:106C600030C2B300B4EBB700541F020000000000B4
:106C70005E2BEF00602BEF00CC2402000000000030
:106C800024250200000000006104E1000E003A002B
:106C9000201A0200000000008E2502000000000003
:106CA000AE2502000000000020C2B300B4EBB70024
:106CB000541F02000000000062AAA800622BEF002F
:106CC000B369EF00210537004426020000000000F0
:106CD0005149E20012003A00AE2502000000000017
:106CE000F0CFB30051E9B7005E2BEF00602BEF004F
:106CF0008E25020000000000AE250200000000000A
:106D000050C0B300B4EBB700541F020000000000F5
:106D100062AAA800622BEF00B369EF000B053700F1
:106D2000644A80004822DE00E30F2000041CE100DA
:106D300051003900B45A80006224E1004E003A004C
:106D400062EAAE004C0037004DC9BF000160EF00A1
:106D5000C40320000400B800C003B000045B80003E
:106D60006020E1004400390003003E00F45A800036
:106D70000020E10040003600626AAF003E003700AC
:106D80004DC9BF000160EF00C40320000400B8003B
:106D9000C4032000840240000100200001007800AC
:106DA0000160EF00B60B0200000000008100E80067
:106DB000811F7800BEEBB700181F02000000000022
:106DC000CF007800B00120000008E600F3FF370094
:106DD00005007800040020008E2902000000000059
