:080F80008C2E040000000000AB
:080FC800460D040000000000CA
:080FE000821104000000000072
:101000008A0E040000000000F20C04000000000042
:10102000780C040000000000260C04000000000002
:081048006C130400000000001D
:08106000B20D040000000000C5
:0811B800BE0C04000000000061
:081378003220EF0043102000B9
:101380008301500005003100839D20000080410052
:101390001040BA000160EF0000000600809D2000B0
:1013A00083814100808141001380BA000000060063
:1013B0004046400041434100544F440052593100DF
:1013C000000000000000000000000000000000001D
:1013D00000000000000000004056000045520000E0
:1013E000534900004F4E00000000000000000000C4
:1013F00000000000000000000000000000000000ED
:1014000040534000544141005455440053003200C1
:1014100000000000000000000000000000000000CC
:101420000000000000000000404100004E54000099
:101430004D5000000000000000000000000000000F
:10144000000000000000000000000000000000009C
:10145000405040004D0042000000450000004500A3
:10146000000050000000000000000000000000002C
:101470000000000000000000405200005049000041
:10148000000000000000000000000000000000005C
:10149000000000000000000000000000000000004C
:1014A000404240004154520000004500000044000A
:1014B0000000200000004F0000004E00000000006F
:1014C00000000000000000004050000057520000E3
:1014D000494E0000464F0000204F00004E00000023
:1014E00000000000000000000000000000000000FC
:1014F0004050400057525200494E4500464F44006C
:10150000204F200046464F000000460000004600E5
:101510000000000000000000404C0000505200009D
:1015200053540000410000000000000000000000D3
:1015300000000000000000000000000000000000AB
:1015400040544000494D420045004C000000550009
:10155000000045000000200000004F0000004E0089
:101560000000000000000000404400004154000062
:101570004500000000000000000000000000000026
:10158000000000000000000000000000000000005B
:10159000405240005443420043464C000000550076
:1015A000000045000000200000004F000000460041
:1015B00000004600000000003220EF0083AE200053
:1015C000008041001040BA000160EF0000000600FA
:1015D0000A0D00004261000064200000436F00001B
:1015E0006D6D0000616E0000643A0000257300001C
:1015F000000000003220EF00A30220008301500011
:101600000500310063B12000008041001040BA00A5
:101610000160EF000000060060B1200083814100FE
:10162000808141001380BA00000006000A0D780096
:1016300055503A005320250050493000636F320066
:101640002053780074613A007274250020543000F1
:10165000696D32006520780053743A00616D250091
:10166000703A300025783200202D78003E200A00A4
:1016700025300D00327800003A250000303200009D
:101680003220EF00C3B42000008041001040BA00B7
:101690000160EF00000006000A0D00005550000038
:1016A0005320000050490000636F000020530000E9
:1016B000747200007563000074200000546900001B
:1016C0006D6500003A25000030320000783A0000D5
:1016D00025300000327800003A250000303200004A
:1016E000780A00000D0000003220EF0063022000A5
:1016F000830150000500310003B920000080410043
:101700001040BA000160EF000000060000B92000A0
:1017100083814100808141001380BA0000000600EF
:101720000A0D4C0055506F00532061005049640071
:10173000636F650020487200563320002E3056003B
:101740000A0D65005043720042207300566569001F
:1017500072736F00696F6E006E3A3A002543250080
:101760000A0D4300426F00006F7400003220EF004A
:1017700023BC2000008041001040BA000160EF004F
:10178000000006000A0D0000546900006D650000AD
:10179000642000004653000053440000204600002F
:1017A0005353000044200000555000005320000017
:1017B00050490000636F0000203A0000254C0000F3
:1017C0005520000073650000636F00006E64000028
:1017D000730000003220EF0003022000830150005C
:1017E0000500310063C02000008041001040BA00B5
:1017F0000160EF000000060060C02000838141000E
:10180000808141001380BA00000006000A0D6F00BD
:101810004261200074743A006572250079207500D9
:10182000527520006E6E7300696E6500672063005C
:1018300074696F006D656E002075640070647300DC
:101840006174000065640000207400008580A900B8
:101850004200F8003600F8003200F800801F7800DF
:10186000200020000C000900B01F7800DAC9BF007A
:10187000DB49E3000F003200D44E80004822DE0036
:10188000A39B2000030042009042780005407800AE
:101890002302AE00FEFF370024E2B7002562EF000E
:1018A000D44E80004822DE00E10242007FC0620088
:1018B000DBE9B700A00120000C0009004F10780000
:1018C0004F0078003200F9003600F9004200F900BC
:1018D000004006002202AE00FEFF37002202F800A0
:1018E0000008F900301180002222A9000000060043
:1018F0004200F8003600F8003200F800801F78003F
:10190000200020000C000900B01F7800E44F800088
:101910000960EF00C39D2000830242006A0C0200B0
:1019200000000000804A7800FCC9BF0086EBB700C9
:10193000E44F80000960EF00E10242007FC06200D6
:10194000FCE9B700FCC9BF00FD49E30002003A0012
:1019500086CBBF00FCE9B7008560A900A00120008C
:101960000C0009004F1078004F0078003200F90099
:101970003600F9004200F900004006004200F8007D
:101980003600F8003200F800801F780020002000A8
:101990000C000900B01F7800000000008BC0A900F7
:1019A000A00120000C0009004F1078004F007800C3
:1019B0003200F9003600F9004200F900004006004C
:1019C000244AE20002003200246AED0004003700DD
:1019D000244AE20002003A0080FF2F009A21B6005C
:1019E000000006004200F8003600F8003200F8005F
:1019F000801F7800200020000C000900B01F780034
:101A0000E00C020000000000DF4AE20002003200A9
:101A1000DF6AED0014003700DE6AEC00984AAF0080
:101A200004003700C942A900CD42A800984AA80086
:101A300005003700984AAE0003003700C942A900EC
:101A4000CD42A900984AA900DECABF000000FB00F1
:101A5000040420000020E10001003D00DE6AEF00E8
:101A600040C1B300DFEAB7008500A900A001200053
:101A70000C0009004F1078004F0078003200F90088
:101A80003600F9004200F900004006004200F8006C
:101A90003600F8003200F800801F78002000200097
:101AA0000C000900B01F7800F40F2000345C88009F
:101AB000860BE20002003200862BED00FCFF3700AF
:101AC000C8E2A800CAE2AE00010037000A003700F1
:101AD000944D80006124E10002003A00B269EF00F9
:101AE00005003700B989AF0003003700B9E9AE003F
:101AF00001003700B989A8008400A900A0012000D6
:101B00000C0009004F1078004F0078003200F900F7
:101B10003600F9004200F90000400600851F7800F9
:101B200062C9BF000160EF00E10260006128E100CE
:101B300001003A00B589A800CF0278000000060035
:101B4000851F780062C9BF000160EF00E1026000FC
:101B50006128E10001003A00B589A900CF027800B0
:101B6000000006004200F8003600F8003200F800DD
:101B7000801F7800200020000C000900B01F7800B2
:101B8000F40F2000345C8800860BE2000200320073
:101B9000862BED00FCFF37008C6AEC00545480006B
:101BA0006224E1001000320040C0B300DCEAB7005C
:101BB000982AAF0005003700982AA800B549A80068
:101BC0008E0D02000000000006003700982AAE00CB
:101BD00004003700982AA900B549A900A00D020009
:101BE0000000000011003700545480006224E1001E
:101BF0000E003A00DC4AE20001003200DC6AED002F
:101C0000DC4AE20006003A0040C0B300DCEAB7005C
:101C1000B549A8008E0D0200000000000300370047
:101C2000B549A900A00D0200000000008660A900CF
:101C3000A00120000C0009004F1078004F00780030
:101C40003200F9003600F9004200F90000400600B9
:101C5000851F7800E45680004822DE006724E100FA
:101C600001003600DD6AEF00DDCABF00DD6AEC006E
:101C70000160EF004100DD0004A620008402400066
:101C80003454800084029800CF02780000000600DF
:101C900085A0A9004003A9004023A80085A0AE00AC
:101CA000FEFF37004003AE00FEFF37000083BF0099
:101CB00000A0B70000000600C122A900C522A800AC
:101CC0000348A80000000600D0A2A900D4A2A800E2
:101CD0000368A80000000600C102A900C502A80010
:101CE0000388A80000000600D082A900D482A800C2
:101CF00003A8A800000006007160A8000000090009
:101D000000000000C8A2A900CCA2A8000328A900D6
:101D1000000006004200F8003600F8003200F8002B
:101D2000801F7800200020000C000900B01F780000
:101D3000980AAE0001003700F2003700DB4AE200EB
:101D400009003A009F4AE200070032009F6AED0056
:101D5000A08ABF00700AB400A0AAB7001455800082
:101D600060004A00A2AAB700D45680004822DE00D4
:101D70006124E10009003A00D04AE2000700320085
:101D8000D06AED00A48ABF00720AB400A4AAB7000A
:101D90003455800060004A00A6AAB700D4568000DF
:101DA0004822DE006224E10009003A00D14AE20044
:101DB00007003200D16AED00A88ABF00740AB4009F
:101DC000A8AAB7005455800060004A00AAAAB7002C
:101DD000D45680004822DE006524E10009003A0064
:101DE000D44AE20007003200D46AED00B48ABF0092
:101DF0007A0AB400B4AAB700B455800060004A0063
:101E0000B6AAB700D45680004822DE006624E1005E
:101E100009003A00D54AE20007003200D56AED0019
:101E2000B88ABF007C0AB400B8AAB700D4558000B5
:101E300060004A00BAAAB700D45680004822DE00EB
:101E40006724E10009003A00D64AE20007003200A8
:101E5000D66AED00BC8ABF00800AB400BCAAB700F5
:101E6000F455800060004A00BEAAB700D456800036
:101E70004822DE006924E10009003A00D84AE20065
:101E800007003200D86AED00C48ABF00840AB4009B
:101E9000C4AAB7003456800060004A00C6AAB70042
:101EA000D45680004822DE006A24E10009003A008E
:101EB000D94AE20007003200D96AED00C88ABF00A3
:101EC0007E0AB400C8AAB7005456800060004A00D9
:101ED000CAAAB700D45680004822DE006B24E10075
:101EE00009003A00DA4AE20007003200DA6AED003F
:101EF000CC8ABF00880AB400CCAAB7007456800010
:101F000060004A00CEAAB700D45680004822DE0006
:101F10006B24E10002003100DB6AEC0001003700B5
:101F2000DB6AEF00280E0200000000004823EF00EB
:101F3000480E02000000000070AAB7001400200044
:101F4000441A8800480E02000000000072AAB70080
:101F500064002000441A8800480E020000000000BF
:101F600074AAB700D062A900D462A900740020004E
:101F7000441A8800480E02000000000076AAB7004C
:101F8000D062A900D462A80074002000441A88001E
:101F9000480E02000000000078AAB700D062A90035
:101FA000D462A90084002000441A8800480E020070
:101FB000000000007AAAB700D062A900D462A8008D
:101FC00084002000441A8800480E0200000000002F
:101FD0007CAAB700D062A900D462A800D400200077
:101FE000441A8800480E02000000000080AAB700D2
:101FF000D062A900D462A900D4002000441A88004D
:10200000480E02000000000082AAB70094002000E1
:10201000441A8800480E02000000000084AAB7009D
:10202000E4002000441A8800480E0200000000006E
:1020300086AAB700A4002000441A8800480E0200B7
:10204000000000007EAAB700B4002000441A8800F7
:10205000480E02000000000088AAB700B9A9AE002F
:102060000B0037005C0E020000000000640E02004E
:10207000000000006C0E020000000000740E020060
:10208000000000007C0E0200000000001D00370070
:102090007E8ABF00C45280000020E1001900390090
:1020A000545480006224E10016003200B9E9AE0009
:1020B000140037005C0E020000000000640E0200F5
:1020C000000000006C0E0200000000007C0E020008
:1020D0000000000020C0B3008AEAB7008ACABF002F
:1020E00022E9B70050C0B30099EAB700922AEF0086
:1020F000942AEF00843E2000D45488009E6AEF00AA
:10210000000037000000000084E0A900A0012000CA
:102110000C0009004F1078004F0078003200F900E1
:102120003600F9004200F90000400600C102A90093
:10213000C502A9000388A90000000600980AA800AB
:10214000449C2000E4548800A4002000441A880025
:1021500096100200000000009C0AE2000E0032000F
:102160009C2AED00480E0200000000007EAAB70085
:102170000060FE007E8ABF00C45280000020E100A3
:10218000040036006C0E020000000000980AA9004E
:102190000D003700F0FF37007E2AEF0050C0B3007B
:1021A0009EEAB70010C0B3008AEAB7008ACABF002F
:1021B00022E9B700922AEF00942AEF00961002005D
:1021C00000000000980AA900000006003E06090071
:1021D0000000000000000600F45080004822DE00ED
:1021E0006A24E10001003100210037001F6AED0080
:1021F00010C0B30086EBB700C162A900C562A90098
:10220000C842A900CC42A800E6100200000000006D
:10221000C842A900CC42A900E6100200000000005C
:10222000864BE2000A003200C162A900C562A80024
:10223000E610020000000000C162A900C562A9000A
:10224000E610020000000000866BED00F4FF37008E
:10225000C162A900C562A900E610020000000000EA
:10226000C842A900CC42A800E6100200000000000D
:1022700000000600F45080004822DE00F303200036
:10228000041CE10001003E001D0037001F6AEC0045
:1022900010C0B30086EBB700C162A900C562A800F8
:1022A000E610020000000000C842A900CC42A900CC
:1022B000E610020000000000864BE2000A00320037
:1022C000C162A900C562A800E6100200000000007B
:1022D000C162A900C562A900E6100200000000006A
:1022E000866BED00F4FF3700C842A900CC42A8007D
:1022F000E610020000000000C162A900C562A8004B
:10230000000006004200F8003600F8003200F80035
:10231000801F7800200020000C000900B01F78000A
:10232000876BEF00876BEC002706A8002726A80024
:102330002406F800900BF90090CBBF00E6EAB70046
:1023400091CBBF0086EBB7002406F800900BF90094
:1023500090CBBF00E4EAB70091CBBF00E5EAB7003D
:102360002406F800900BF90090CBBF00E2EAB7001A
:1023700091CBBF00E3EAB7002406F800900BF90008
:1023800090CBBF00E0EAB70091CBBF00E1EAB70015
:102390002706A8002726A8002406F800900BF900BD
:1023A00090CBBF008EEBB70091CBBF0086EBB700A0
:1023B0002406F800900BF90090CBBF008CEBB7001F
:1023C00091CBBF008DEBB7002406F800900BF9000D
:1023D00090CBBF008AEBB70091CBBF008BEBB7006F
:1023E0002406F800900BF90090CBBF0088EBB700F3
:1023F00091CBBF0089EBB700345C80004822DE003F
:102400006324E10001003900220037008ECBBF00B9
:10241000E64AE30002003200C2FF37001D00370029
:102420008CCBBF00E44AE30002003200BDFF37005E
:10243000180037008DCBBF00E54AE30002003200F0
:10244000B8FF3700130037008ACBBF00E24AE30031
:1024500002003200B3FF37000E0037008BCBBF0005
:10246000E34AE30002003200AEFF37000900370004
:1024700088CBBF00E04AE30002003200A9FF37002A
:102480000400370089CBBF00E14AE30001003200BD
:10249000A4FF3700986AAF0002003700986AA800CE
:1024A00003003700986AAE0001003700986AA9005F
:1024B0008CCABF008D4AE30003003A00B9E9A900C5
:1024C0008C6AEF00090037008CCABF008D4AE30018
:1024D00006003200B9E9A8008C6AEF00962AEF00E6
:1024E0008E2AEC004220AF00902AEC008CCABF007C
:1024F0008DEAB700B9E9AE000600370054548000F9
:102500006224E10003003A00922AEC004220AF006E
:10251000942AEC00B9E9AF0001003700962AEC00DC
:10252000B9E9AE000D003700545480006224E10088
:102530000A003A00994AE20002003200996AED006E
:1025400006003700994AE20004003A0050C0B30088
:1025500099EAB7009E100200000000009E4AE200C7
:10256000010032009E6AED00254AE20001003200BF
:10257000256AED00AC49E20004003200944D800071
:102580006124E10001003A00AC69ED00B349E200CA
:1025900003003200B9E9AF0001003700B369ED0074
:1025A000848ABF00E45280000020E100130039005B
:1025B0000328AE0010003700545480006224E1006C
:1025C0000D003200568ABF00F45380000020E10065
:1025D00003003600EC100200000000000600370087
:1025E0007E8ABF00B45280000020E1000200390062
:1025F0003A11020000000000120037000328AE006C
:1026000010003700545480006224E1000D003200B5
:102610005E8ABF00245480000020E10003003600E1
:10262000EC1002000000000006003700848ABF00A2
:10263000F45280000020E100020039003A1102004B
:10264000000000008460A900A00120000C00090027
:102650004F1078004F0078003200F9003600F90082
:102660004200F90000400600F0FF2F000862AE00B3
:10267000FEFF37000922AF00040037000742AE001A
:10268000020037000902AE00F8FF37000822AE0052
:10269000FEFF37000082BF0008C2AF0008C2A900D9
:1026A0000782A80000000600F0FF2F000862AE00BD
:1026B000080037000842AE00060037000742AE00AF
:1026C000020037000902AE00020037001110880036
:1026D0000782A800000006004200F8003600F8005B
:1026E0003200F800801F7800200020000C00090054
:1026F000B01F780008A2AF0004003700EE6AEF00B8
:102700000842AE0001003700EEEAA800EECABF00A2
:102710000160EF00EE6AEC0087EBB700FE000900F5
:1027200000000000345C80004822DE000308200026
:10273000041CE100E7003900345C80004822DE0020
:1027400004C8B20003003A0000C2BF0086EBB70025
:102750000600370011002000811F7800CF007800AC
:10276000341302000000000086EBB700874BE20044
:1027700004003200345C80004822DE0004C8B2004D
:1027800003003A0086CBBF00EDEAB700D100370066
:10279000345C80004822DE006124E10003003A003E
:1027A00086CBBF00EAEAB700CA003700345C80007D
:1027B0004822DE006224E100C6003900345C80005B
:1027C0004822DE0004C8B200C20032006457800014
:1027D0004822DE0004CDB2005B003A00545780006E
:1027E0006724E1002C003E00EACABF00EA6AEC0060
:1027F0000080FB0004AE200084024000868BBF00F6
:10280000804298002966A9002946A9002706A80049
:102810002726A800871F7800881F78000500FC0085
:1028200057052000373B8800A80A2000383B880065
:1028300027A6A8004F047800CF037800E6CABF009F
:1028400088EBB700896BEF00880BF8002406F900CD
:10285000E4CABF0088EBB700E5CABF0089EBB70048
:10286000880BF8002406F900E2CABF0088EBB70025
:10287000E3CABF0089EBB700880BF8002406F90013
:10288000E0CABF0088EBB700E1CABF0089EBB70020
:10289000880BF8002406F900545780006724E100F3
:1028A00029003A002966A9002946A9002706A800A0
:1028B0002726A800871F7800881F78000500FC00E5
:1028C00057052000373B8800A80A2000383B8800C5
:1028D00027A6A8004F047800CF037800E6CABF00FF
:1028E00088EBB700896BEF00880BF8002406F9002D
:1028F000E4CABF0088EBB700E5CABF0089EBB700A8
:10290000880BF8002406F900E2CABF0088EBB70084
:10291000E3CABF0089EBB700880BF8002406F90072
:10292000E0CABF0088EBB700E1CABF0089EBB7007F
:10293000880BF8002406F90010C0B300ECEAB700D9
:1029400020C0B300EBEAB700645780004822DE00E5
:1029500024CDB2000C003A005457800073022000CE
:10296000041CE10007003900EACABF00EA6AEC0073
:102970000080FB002492200084024000868BBF0070
:102980008042980053003700645780004822DE00E0
:1029900044CDB20030003A00545780006824E10072
:1029A0002C003E00EACABF00EA6AEC000080FB008F
:1029B00004AE200084024000868BBF008042980055
:1029C0002966A9002946A9002706A8002726A800ED
:1029D000871F7800881F78000500FC00570520003D
:1029E000373B8800A80A2000383B880027A6A800AB
:1029F0004F047800CF037800E6CABF0088EBB70029
:102A0000896BEF00880BF8002406F900E4CABF00C8
:102A100088EBB700E5CABF0089EBB700880BF80068
:102A20002406F900E2CABF0088EBB700E3CABF0082
:102A300089EBB700880BF8002406F900E0CABF0054
:102A400088EBB700E1CABF0089EBB700880BF8003C
:102A50002406F9001F003700645780004822DE007A
:102A600064CDB2000B003A00545780007724E10097
:102A700007003E00EACABF00EA6AEC000080FB00E3
:102A8000A494200084024000868BBF0080429800FE
:102A900010003700645780004822DE0084CDB20069
:102AA0000B003A00545780007724E10007003E00F5
:102AB000EACABF00EA6AEC000080FB00249620000E
:102AC00084024000868BBF008042980001003700DE
:102AD00000000000345C80004822DE000308200073
:102AE000041CE1009E003E00345C80004822DE00B1
:102AF00004C8B20002003A0000C2BF0086EBB70073
:102B0000645780004822DE0014CDB20014003A0061
:102B1000545780006824E1000A003E00EACABF0062
:102B2000EA6AEC000080FB0004AE200004004000D4
:102B300090427800854078005413020000000000A5
:102B400007003700545780006824E1000400360075
:102B500080C0EB00541302000000000000000000E1
:102B6000645780004822DE0034CDB20017003A00DE
:102B70005457800073022000041CE1000A00390051
:102B8000EACABF00EA6AEC000080FB002492200041
:102B90000400400090427800854078005413020001
:102BA0000000000008003700545780007302200026
:102BB000041CE1000400310080C0EB00541302004B
:102BC000000000000000000065003700645780002E
:102BD0004822DE0054CDB20015003A005457800060
:102BE0006824E1000A003E00EACABF00EA6AEC007D
:102BF0000080FB0004AE20000400400090427800FA
:102C000085407800541302000000000007003700E0
:102C1000545780006824E1000400360080C0EB00B7
:102C20005413020000000000000000004C003700B8
:102C3000645780004822DE0074CDB20015003A00CF
:102C4000545780007724E1000A003E00EACABF0022
:102C5000EA6AEC000080FB00A4942000040040001D
:102C60009042780085407800541302000000000074
:102C700007003700545780007724E1000400360035
:102C800080C0EB00541302000000000000000000B0
:102C900033003700645780004822DE0094CDB20034
:102CA00015003A00545780006624E1000A003E00F7
:102CB000EACABF00EA6AEC000080FB00249620000C
:102CC00004004000904278008540780054130200D0
:102CD0000000000007003700545780006624E10020
:102CE0000400360080C0EB00541302000000000016
:102CF000000000001A003700645780004822DE0000
:102D0000B4CDB20005003A0080C0EB0054130200BD
:102D10000000000000000000110037006457800030
:102D20004822DE00D4CDB20005003A0080C0EB009E
:102D300054130200000000000000000008003700EB
:102D4000645780004822DE00F4CDB20004003A004F
:102D500080C0EB00541302000000000000000000DF
:102D6000000000008600A900A00120000C0009005E
:102D70004F1078004F0078003200F9003600F9005B
:102D80004200F90000400600C122A900C522A900A6
:102D90000348A90000000600E70160004300DE00D0
:102DA000020040000000A700E88141000000A100EF
:102DB0000104E0001098AD0000000600851F7800B7
:102DC000D122A900D522A900C8C2A900CCC2A9005D
:102DD00010C0B3004AEBB700545A80006824E100E9
:102DE00013003E00488BBF00904278000508B200F7
:102DF0000500E00003003A00C162A900C562A90015
:102E000002003700C162A900C562A800415A8000D3
:102E10004200A90091D8D200D122A900D522A80051
:102E2000D122A900D522A9004A6BEC00EAFF3700A5
:102E3000C8C2A900CCC2A800C8C2A900CCC2A900BF
:102E4000CF027800000006002280200044CBBF00A3
:102E50000160EF0011002000CC160200000000000D
:102E600002C8BF0045EBB70054B42000445A8800A4
:102E7000DE160200000000000000060060C0B30083
:102E800044EBB70024170200000000000000060019
:102E90002280200044CBBF000160EF000100200031
:102EA000CC1602000000000002C8BF0045EBB700CE
:102EB00054B42000445A8800DE16020000000000CE
:102EC00000000600851F7800B549AE0004003700F9
:102ED000446BEF00241702000000000005003700DB
:102EE000B549AF0003003700446BEF0048170200FC
:102EF00000000000B569AE000500370050C0B30007
:102F000044EBB70024170200000000000600370061
:102F1000B569AF000400370050C0B30044EBB70000
:102F20004817020000000000B589AE000500370018
:102F300040C0B30044EBB7002417020000000000BB
:102F400006003700B589AF000400370040C0B30069
:102F500044EBB700481702000000000062C9BF0040
:102F60000160EF00E10260000500E00001003A00AE
:102F7000B589A900CF0278000000060010C0B30098
:102F800044EBB70024170200000000000000060018
:102F900020C0B30044EBB70024170200000000007B
:102FA0000000060030C0B30044EBB7002417020055
:102FB0000000000000000600BE1702000000000034
:102FC000C817020000000000D21702000000000035
:102FD00000000600D0A2A900D4A2A9000368A9009D
:102FE000000006000000E0004220AF0004003700AF
:102FF0007B3E0900000000000000E900FCFF3A00F1
:103000000000060040062000F21702000000000049
:10301000000006001021EF0064042000640888000E
:1030200004022800840888001221EF0004272000F1
:103030007408880004032800940888001E21EF000B
:10304000840C2000D408880004022800F4088800BA
:103050002021EF00840C2000E408880004012800EF
:103060000409880000000600A00F2000F2170200EB
:10307000000000000000060001E02F0083814000F6
:10308000F1072000E0804800910188000500A100C0
:103090000500E00003003200331ABA008582E9001F
:1030A000FCFF3A0000000600851F7800402BEF006F
:1030B000426BEF00402BEF00045A800053032000C6
:1030C0000418E1001B0039000060FE00035A800074
:1030D00004002000250020003C1802000000000031
:1030E00044ABB70042CBBF00426BEC000080FB005A
:1030F0006497200084024000448BBF008042980007
:1031000042CBBF00426BEC000080FB0064972000C4
:103110008402400045CBBF00804A78007E3E090013
:1031200000000000045A80006200420040ABB7007B
:10313000E1FF3700CF02780000000600851F78000D
:10314000C500200003000900B51F78000202B80086
:103150000303B8004200A9008502430060844B00CD
:10316000020BB80085024B0008844B00030BB8002B
:10317000080443000780B000870178000801780048
:103180008500780004007800250120000300090074
:10319000CF127800CF02780000000600851F78006B
:1031A000C500200003000900B51F780009002000B9
:1031B0004300AF0019002000891F78000002EB00D7
:1031C0008002EB000003EB008003EB0003046900C6
:1031D00011003200080220004200A9000080D20045
:1031E0008180D2000482D2008582D2000328E100CF
:1031F00001003A0002A0E10003003900020252007F
:1032000083825A004200A8000683D2008783D2003E
:103210000804E900F0FF3A00870078000600780013
:10322000CF0478000900E000010032000400BE0075
:103230002501200003000900CF127800CF0278009A
:1032400000000600851F7800C50020000700090067
:10325000B51F78004E2BD5004CABD7008046EB0055
:10326000488BBF00515A800002012000030020005B
:103270009E18020000000000000178008101780023
:103280004C8BBF00715A8000CE1802000000000075
:10329000E1025000608358006130E1000500390010
:1032A00002003E006028E10002003900F5FF2F0017
:1032B00006002000E180420060014B000100780020
:1032C0008200780002012000030020009E18020006
:1032D0000000000000017800810178004C8BBF00E5
:1032E000715A8000CE18020000000000545A80007D
:1032F0000120E1000500390009003E00445A800029
:103300000020E1000100390005003700445A800028
:1033100084045000545A800004855800040037008B
:10332000445A800080045200545A800001055A001B
:10333000488BBF00515A800042002000030020004B
:103340009E18020000000000000178008101780052
:103350004C8BBF00715A8000CE18020000000000A4
:10336000E1035000608458006140E100050039002D
:1033700002003E006038E10002003900F7FF2F0034
:1033800008002000E180430060014C00010078004B
:103390008200780042002000030020009E180200F6
:1033A0000000000000017800810178004C8BBF0014
:1033B000715A8000CE18020000000000545A8000AC
:1033C0000120E1000500390009003E00445A800058
:1033D0000020E1000100390005003700445A800058
:1033E00084055000545A80000486580004003700B9
:1033F000445A800080055200545A800001065A0049
:103400000C50E1000500390002003E000B48E100CD
:10341000020039001DC0B3008702780004002800B4
:103420000411880004402000141188001A00AF0025
:103430002062A80045118800A501200007000900AE
:10344000CF127800CF0278000000060021E2A80029
:103450002342A80004202C00245A880014002000D5
:10346000345A88007A49E20005003A0021E2A900B6
:103470002342A900D0E2A800D0C2A800280037004B
:10348000D44B80006124E10003003A00042C2100A9
:10349000245A8800462BEF00D44B80006224E100C0
:1034A00003003A0004582200245A8800462BEF00FB
:1034B000D44B80006324E10003003A0004B02400F0
:1034C000245A8800462BEF00D44B80006424E1008E
:1034D00003003A0004602900245A8800462BEF00BC
:1034E000D44B80006524E10003003A0004102E0054
:1034F000245A8800462BEF00440BF800480BF900D3
:10350000460BF8004A0BF90004802400645A880036
:10351000841E2000745A8800221902000000000056
:10352000000006004200F800801F780014028000AE
:10353000040EB30014028800013B880054052000EB
:10354000343B8800A40A2000343B880061E7A800CF
:10355000000000000000000061E7AF00FEFF370040
:103560004F0078004200F900000006004200F80019
:10357000801F780014028000040EB300140288003B
:10358000013B880054052000343B8800A40A200039
:10359000343B880061E7A800000000000000000044
:1035A0004F0078004200F90000000600811F7800FB
:1035B00001E02F00008040008000EB00F1072000B8
:1035C000E080480091018800CF0078000200A1004F
:1035D0000200E000110032001108BB00811F7800DA
:1035E00001002000921A020000000000CF007800C5
:1035F0003108BB000080E80001003A003220EC00F6
:10360000811F780041002400B61A0200000000006B
:10361000CF0078000281E900EFFF3A0000000600C9
:10362000851F7800466BEF00442BEF00245A800082
:10363000530320000418E1001D0039000060FE0063
:1036400046CBBF00466BEC000080FB006497200077
:1036500004004000445A800000429000445A880010
:1036600046CBBF00466BEC000080FB006497200057
:1036700004004000801F78001040780049EBB7003C
:103680004F007800448BBF0081B42000220020004E
:10369000D61A0200000000007E3E09000000000073
:1036A000245A80006200420044ABB700DFFF3700BD
:1036B000CF02780000000600422BEF00446BEF00C1
:1036C000245A80006724E1000A003E0044CBBF007A
:1036D0000160EF004100DD0004A62000040040006E
:1036E0000002780014007800422BB400446BEC0018
:1036F000F3FF3700420BF800400BF900402BD500D8
:10370000402BD500402BD500045A80008370200048
:103710000418E1000400360030C0B30000E0B70038
:103720001F0037001E003700045A800083702000FD
:103730000418E10008003E00045A8000638620005F
:103740000418E1000400390020C0B30000E0B70015
:103750001300370012003700045A800063862000EF
:103760000418E10008003E00045A8000239920005C
:103770000418E1000400390010C0B30000E0B700F5
:103780000700370006003700045A80002399200004
:103790000418E100020031000060EF000000370073
:1037A000000006000600FC006176200052052000A3
:1037B00082087800A30A20008308780027A6A800C2
:1037C00021742000620420007305200082487800E4
:1037D000834878004227A80004002800343188007C
:1037E000FC22A90027A6A900E66AEF0010C0B300DA
:1037F000E5EAB70010C0B300E4EAB70010C0B300B8
:10380000E3EAB700E26AEF00E16AEF00E06AEF0086
:103810002966A9002946A9002706A8002726A8008E
:10382000871F7800881F78000500FC0057052000DE
:10383000373B8800A80A2000383B880027A6A8004C
:103840004F047800CF037800E6CABF0088EBB700CA
:10385000896BEF00880BF8002406F900E4CABF006A
:1038600088EBB700E5CABF0089EBB700880BF8000A
:103870002406F900E2CABF0088EBB700E3CABF0024
:1038800089EBB700880BF8002406F900E0CABF00F6
:1038900088EBB700E1CABF0089EBB700880BF800DE
:1038A0002406F90000000600861F7800871F7800B4
:1038B000881F7800891F78000002EB008002EB006F
:1038C0000003EB008003EB000304690011003200E9
:1038D000080220004200A9000080D2008180D200AE
:1038E0000482D2008582D2000328E10001003A0060
:1038F00002A0E100030039000202520083825A0054
:103900004200A8000683D2008783D2000804E900A1
:10391000F0FF3A008700780006007800CF047800B6
:103920004F047800CF0378004F03780000000600B2
:10393000821F7800831F7800851F78004300A9004C
:103940003200200003002000541C02000000000090
:103950004200A9000080D2008180D200910188003D
:10396000CF027800CF0178004F0178000300E0001B
:1039700013003200E3006200050032000000E8009E
:103980008100E900070032000000E900080037006C
:103990000300E0000A0032003059BA008301E90058
:1039A000070032002059BA008301E9000400320008
:1039B00030D9BA000000E8008301E900F4FF3700C5
:1039C00000000600851F7800DAC9BF00DB49E3006C
:1039D000020032000040EB000100370010C0B300CD
:1039E0004FEBB700D44E80000960EF00A39B20008E
:1039F000830242004E8BBF0080429800D44E80006C
:103A00000960EF00E10242007F80620050ABB70026
:103A1000DBC9BF000160EF00500BE300FCFF320088
:103A200050CBBF00DAE9B7004F4BE2000100320093
:103A30008580A800CF02780000000600851F78006E
:103A4000861F7800871F7800881F780044CBBF004E
:103A50000160EF004100DD00A48B200084024000E3
:103A60000500780090037800851F78000700780033
:103A7000010020000201200013002000981C020019
:103A800000000000CF02780010C0BF000040B3006B
:103A90004220AF00070037008703E8004E0BF80014
:103AA000E8FF9F004E0BF900E21C0200000000003E
:103AB000EDFF370002180200000000004F047800FC
:103AC000CF0378004F037800CF0278000000060093
:103AD000955A80004300A9004E8BBF00815A800098
:103AE000525A8000635A8000CE1802000000000085
:103AF0000100E00013003A000000E0001100320075
:103B00000500E0000E003200823E2000030020008D
:103B10009E180200000000000100E00002003A00D0
:103B20000000E00062003A004300A900823E20004D
:103B300003002000CE180200000000000100370042
:103B40005B0037004300A900820020000300200032
:103B5000CE180200000000000100E00013003A004F
:103B60000000E000110032000500E0000E0032000D
:103B7000823E2000030020009E180200000000008A
:103B80000100E00002003A000000E00044003A00BA
:103B90004300A900823E200003002000CE1802004E
:103BA00000000000010037003D0037004300A9007D
:103BB0008200200003002000CE1802000000000058
:103BC0000100E00013003A000000E00011003200A4
:103BD0000500E0000E003200823E200003002000BD
:103BE0009E180200000000000100E00002003A0000
:103BF0000000E00026003A004300A900823E2000B9
:103C000003002000CE180200000000000100370071
:103C10001F0037004300A9004200200003002000DD
:103C2000CE180200000000000100E00013003A007E
:103C30000000E000110032000500E0000E0032003C
:103C4000823E2000030020009E18020000000000B9
:103C50000100E00002003A000000E00008003A0025
:103C60004300A900823E200003002000CE1802007D
:103C700000000000010037000100370000002000B4
:103C80008000780004032800F40888000B00370047
:103C90008000780004022800F4088800070037003C
:103CA0008000780004012800F40888000300370031
:103CB0008000780004002800F40888008100E900F2
:103CC000D108880000000600010020001A81BF0012
:103CD0000000E8004220AF008100E800525A800056
:103CE000030020009E18020000000000823E200019
:103CF00003002000CE18020000000000AAA1B700B7
:103D000000000600444BE20003003A0080FF2F0051
:103D1000A421B60032003700245A80007924E10043
:103D20000200310090C1B30044EBB700462BEF0016
:103D300044CBBF000160EF00004278000960EF0053
:103D40006A20B800345A80000020E10017003E00CD
:103D500024032000545A88004C2BEF00044022001A
:103D6000745A8800440F2000845A8800522BEF00B8
:103D7000681D020000000000460BF8004A0BF90025
:103D8000641E02000000000060002000A421B700B3
:103D90003E1F0900000000000060FE00345A800051
:103DA0006D00420046ABB700E1FF3700345A800097
:103DB000633B20000418E10008003E00843E200020
:103DC000345A8800843E2000545A8800641E020041
:103DD0000000000060002000A421B700B5C9A800C1
:103DE0000000060080FF2F00A421B600B5C9A9007D
:103DF0000000060010C0B30044EBB70048170200F3
:103E0000000000000000060020C0B30044EBB70033
:103E100048170200000000000000060030C0B30098
:103E200044EBB70048170200000000000000060045
:103E3000FA1E020000000000041F02000000000043
:103E40000E1F02000000000000000600DC17020048
:103E500000000000E0C0B30044EBB7001E1D0200EC
:103E60000000000050C1B30044EBB7001E1D02006B
:103E70000000000060C1B30044EBB7001E1D02004B
:103E800000000000402BEF00045A800003202000B7
:103E90000418E1000E0039000060FE00426BEF00E4
:103EA000436BEF00408BBF0021B4200022002000B4
:103EB000D61A0200000000007E3E0900000000004B
:103EC000045A80006200420040ABB700EEFF3700AA
:103ED00070C1B30044EBB7001E1D020000000000DB
:103EE00080C1B30044EBB7001E1D020000000000BB
:103EF000F0CFB3004FE9B700D0C1B30044EBB70037
:103F00001E1D020000000000D21B02000000000085
:103F1000D0C2B30044EBB7001E1D02000000000039
:103F20005F69EF005FC9BF0083E9B700E0C2B3007B
:103F300044EBB7001E1D02000000000020C3B300C8
:103F4000B8E9B700B8C9BF005CE9B7005CC9BF00F9
:103F500044EBB700821E02000000000010C0B30056
:103F6000B7E9B700B7C9BF005BE9B70080C2B300CB
:103F700044EBB7001E1D020000000000F21E02000C
:103F800000000000F0C2B30044EBB7001E1D0200A9
:103F9000000000004B69EF004BC9BF0079E9B70092
:103FA00000C3B30044EBB7001E1D02000000000078
:103FB0004CE9EF004CC9BF007AE9B700261A0200AD
:103FC0000000000047C9BF0051E9B70051C9BF0058
:103FD00080E9B70040C1B30044EBB7001E1D0200EA
:103FE00000000000101B0200000000003418020056
:103FF00000000000181F020000000000E0C0B30035
:1040000044EBB7001E1D0200000000000000060087
:10401000C162A900C562A800C842A900CC42A8009C
:10402000E610020000000000C842A900CC42A9002E
:10403000E610020000000000406BEF00045A800010
:1040400003042000041CE1000A003600C162A9003C
:10405000C562A800E610020000000000C162A900CD
:10406000C562A900E610020000000000406BEC00F1
:10407000F2FF3700C162A900C562A800E610020085
:1040800000000000C842A900CC42A800E6100200CF
:1040900000000000F0C3B3001FEAB70000000600F4
:1040A000855A80004300A9004C8BBF00715A8000E4
:1040B000425A8000535A8000CE18020000000000CF
:1040C0000100E00013003A000000E000110032009F
:1040D0000500E0000E003200823E200003002000B8
:1040E0009E180200000000000100E00002003A00FB
:1040F0000000E00062003A004300A900823E200078
:1041000003002000CE18020000000000010037006C
:104110005B0037004300A90082002000030020005C
:10412000CE180200000000000100E00013003A0079
:104130000000E000110032000500E0000E00320037
:10414000823E2000030020009E18020000000000B4
:104150000100E00002003A000000E00044003A00E4
:104160004300A900823E200003002000CE18020078
:1041700000000000010037003D0037004300A900A7
:104180008200200003002000CE1802000000000082
:104190000100E00013003A000000E00011003200CE
:1041A0000500E0000E003200823E200003002000E7
:1041B0009E180200000000000100E00002003A002A
:1041C0000000E00026003A004300A900823E2000E3
:1041D00003002000CE18020000000000010037009C
:1041E0001F0037004300A900420020000300200008
:1041F000CE180200000000000100E00013003A00A9
:104200000000E000110032000500E0000E00320066
:10421000823E2000030020009E18020000000000E3
:104220000100E00002003A000000E00008003A004F
:104230004300A900823E200003002000CE180200A7
:1042400000000000010037000100370000002000DE
:104250008000780004032800040988000B00370060
:104260008000780004022800040988000700370055
:10427000800078000401280004098800030037004A
:104280008000780004002800040988008100E9000B
:10429000E108880000000600440BF800480BF90014
:1042A0004A2BEF0004402200645A8800440F20008B
:1042B000745A8800502BEF005020020000000000CC
:1042C00000000600600020009A21B70000000600F0
:1042D0009F4AE2000F003A0000C4B3009FEAB70013
:1042E000640020000960EF00A08ABF001155800023
:1042F0000402E8000402E900030032008100D1005A
:104300000080D300FBFF37002AAAB700A02AEF00E5
:10431000A22AEF00D04AE2000F003A0000C4B30026
:10432000D0EAB700640020000960EF00A48ABF0053
:10433000315580000402E8000402E9000300320065
:104340008100D1000080D300FBFF37002CAAB7000A
:10435000A42AEF00A62AEF00D14AE2000F003A009B
:1043600000C4B300D1EAB700640020000960EF0088
:10437000A88ABF00515580000402E8000402E90049
:10438000030032008100D1000080D300FBFF370022
:104390002EAAB700A82AEF00AA2AEF00D24AE2000C
:1043A0000F003A0000C4B300D2EAB7006400200056
:1043B0000960EF00AC8ABF00715580000402E8007C
:1043C0000402E900030032008100D1000080D30024
:1043D000FBFF370030AAB700AC2AEF00AE2AEF008F
:1043E000D34AE2000F003A0000C4B300D3EAB7009A
:1043F000640020000960EF00B08ABF009155800082
:104400000402E8000402E900030032008100D10048
:104410000080D300FBFF370032AAB700B02AEF00BC
:10442000B22AEF00D44AE2000F003A0000C4B30001
:10443000D4EAB700640020000960EF00B48ABF002E
:10444000B15580000402E8000402E90003003200D4
:104450008100D1000080D300FBFF370034AAB700F1
:10446000B42AEF00B62AEF00D54AE2000F003A0066
:1044700000C4B300D5EAB700640020000960EF0073
:10448000B88ABF00D15580000402E8000402E900A8
:10449000030032008100D1000080D300FBFF370011
:1044A00036AAB700B82AEF00BA2AEF00D64AE200CF
:1044B0000F003A0000C4B300D6EAB7006400200041
:1044C0000960EF00BC8ABF00F15580000402E800DB
:1044D0000402E900030032008100D1000080D30013
:1044E000FBFF37003AAAB700BC2AEF00BE2AEF0054
:1044F000D74AE2000F003A0000C4B300D7EAB70081
:10450000640020000960EF00C08ABF0011568000DF
:104510000402E8000402E900030032008100D10037
:104520000080D300FBFF37003CAAB700C02AEF0091
:10453000C22AEF00D84AE2000F003A0000C4B300DC
:10454000D8EAB700640020000960EF00C48ABF0009
:10455000315680000402E8000402E9000300320042
:104560008100D1000080D300FBFF37003EAAB700D6
:10457000C42AEF00C62AEF00D94AE2000F003A0031
:1045800000C4B300D9EAB700640020000960EF005E
:10459000C88ABF00515680000402E8000402E90006
:1045A000030032008100D1000080D300FBFF370000
:1045B00038AAB700C82AEF00CA2AEF00DA4AE20098
:1045C0000F003A0000C4B300DAEAB700640020002C
:1045D0000960EF00CC8ABF00715680000402E80039
:1045E0000402E900030032008100D1000080D30002
:1045F000FBFF370040AAB700CC2AEF00CE2AEF001D
:1046000000000600800178000180FD0054C0B30066
:104610000360ED000860ED0019003200030078002F
:10462000C419DD004C00DE00F000B20004003A00C6
:104630006124E1000200320003E0AE00F4FF370025
:104640000003B000A20320000200E10001003900D5
:104650000240B400811F7800831F7800841F780017
:104660004EEBB700E21C0200000000004F02780091
:10467000CF017800CF00780003E0A800E4FF370006
:104680000000060001002000010078000160EF003A
:10469000FA0A0200000000008100E800811F780093
:1046A0004EEBB700E21C020000000000CF007800D3
:1046B000B00120000008E600F3FF370062C9BF0028
:1046C0000160EF00417022000223020000000000A0
:1046D000E1012000010078000160EF00FA0A020009
:1046E000000000008100E800811F78004EEBB70059
:1046F000E21C020000000000CF0078001002200041
:104700000008E600F3FF370063C9BF000160EF0057
:10471000217022000223020000000000A0C3B300A9
:104720004EEBB700E21C02000000000064C9BF00AD
:104730000160EF002170220002230200000000004F
:10474000A0C3B3004EEBB700E21C02000000000063
:1047500065C9BF000160EF00217022000223020042
:1047600000000000A0C3B3004EEBB700E21C020043
:104770000000000066C9BF000160EF002170220048
:104780000223020000000000A0C3B3004EEBB700FC
:10479000E21C02000000000067C9BF000160EF00DA
:1047A000217022000223020000000000A0C0B3001C
:1047B0004EEBB700E21C020000000000D0C0B300C6
:1047C0004EEBB700E21C02000000000000000600F3
:1047D00063E0A90082E0A90010C3B30044EBB70076
:1047E0001E1D0200000000006FE0A90057E0A800B5
:1047F000C962A900CD62A900E0C1B30025EAB700F3
:10480000B9A9A8000218020000000000254AE20031
:1048100007003200B549A80062170200000000003E
:104820000060FE007E3E090000000000F7FF370038
:104830006FE0A80057E0A900C962A900CD62A800F6
:10484000C962A800C8E2A800B9C9A800B9A9A9000E
:10485000256AEF0020C3B30044EBB7001E1D020021
:104860000000000063E0A8009660A800B989A900D4
:1048700090012000F2170200000000000000060076
:10488000980AA800449C2000E4548800A40020005A
:10489000441A880096100200000000009C0AE20002
:1048A000140032009C2AED000060FE00480E020059
:1048B000000000007EAAB7007E8ABF00C4528000BC
:1048C0000020E1000A0036006C0E0200000000002B
:1048D000980AA9007E3E090000000000400BA900D4
:1048E0000000EB00400BAF000000E80013003700B1
:1048F000EAFF37007E2AEF0050C0B3009EEAB700FF
:1049000010C0B3008AEAB7008ACABF0022E9B70024
:10491000922AEF00942AEF00961002000000000097
:10492000980AA9007E3E090000000000400BA80084
:104930000000EB00400BAF000000E80000000600A4
:1049400060C0B30044EBB70048170200000000004D
:10495000000006003E1702000000000002180200DE
:1049600000000000A024020000000000C962A900AD
:10497000CD62A800C962A80034180200000000003F
:1049800034180200000000003E1702000000000082
:1049900000000600B4392000245A88004C2102008F
:1049A0000000000090C1B30024EAB70062210200B9
:1049B00000000000021802000000000074492000FE
:1049C000245A88004C2102000000000090C1B3006E
:1049D00024EAB70062210200000000000218020071
:1049E0000000000094742000245A88004C2102002A
:1049F0000000000090C1B30024EAB7006221020069
:104A0000000000000218020000000000442BEF002C
:104A10004C2102000000000090C1B30024EAB7005E
:104A200000000600D082A900D482A90003A8A90032
:104A30000000060094002000441A8800480E02007E
:104A40000000000084AAB700A4002000441A8800D7
:104A5000480E0200000000007EAAB700588ABF007E
:104A6000F45380000020E10004003E005C8ABF0097
:104A7000245480000020E10002003600420BA80010
:104A800001003700420BA9000000EB00420BAF0011
:104A90000000E80000000600851F780010C0B30089
:104AA00044EBB7001E1D02000000000002180200C7
:104AB00000000000181F020000000000B549A90016
:104AC000B569A900B589A9006217020000000000BD
:104AD000EA170200000000000218020000000000B7
:104AE0009610020000000000021802000000000002
:104AF0001225020000000000021802000000000061
:104B00001A25020000000000ADE9B70010C0B30094
:104B1000B2E9B700EA170200000000009610020098
:104B20000000000012250200000000001A2502000B
:104B300000000000ADE9B7000060FE00A0C0B300B7
:104B4000ACE9B7001021EF0064042000640888007D
:104B500004022800840888001221EF0004272000A6
:104B60007408880004032800940888001E21EF00C0
:104B7000840C2000D408880004022800F40888006F
:104B80002021EF00840C2000E408880004012800A4
:104B900004098800EA1702000000000096100200D5
:104BA000000000001225020000000000C0E2A80082
:104BB000C142A800C102A800C122A900C522A800C4
:104BC000D062A800C8A2A800C162A800C8C2A800FC
:104BD000D082A800D0A2A800D102A800D122A800AB
:104BE000C9A2A800C982A800C802A800C822A800BB
:104BF000D0E2A800D0C2A800C922A800C902A8001B
:104C0000C842A800C862A800C062A800C042A800AC
:104C1000D042A800D022A800D002A800C022A8003C
:104C2000C002A8009600A9008600A9009500A9006E
:104C30008500A90094E0A90084E0A9009580A9005E
:104C40008580A9009560A900030009002682BF00A5
:104C50008560A9009BC0A9008BC0A90063E0A900E2
:104C600082E0A90070E0A80004402000243A8800F7
:104C70000E00FC006010200031742000820720002C
:104C8000A3092000824878008348780043E7B700F2
:104C90004800DE002174200062042000730520001B
:104CA00082487800834878008048780080FF2F0091
:104CB0009A21B60080FF2F00A421B6004187A800EA
:104CC0004107A900AC49E200280032000040FE0084
:104CD000000000005807A9000060FE00B249E20091
:104CE00021003A004427EF000E00FC0010102000C5
:104CF0003174200082072000A30920008248780038
:104D00008348780043E7B7004800DE0021742000A4
:104D100062042000730520008248780083487800F0
:104D20008048780010C0B300B2E9B700B9A9A80064
:104D30000060FE005C0E020000000000640E020035
:104D4000000000006C0E020000000000740E020063
:104D5000000000003418020000000000AA24020035
:104D60000000000043003700D6FF370063E0A800D2
:104D70009660A800406BEF00045A80006624E100B2
:104D800017003E00DE6AEC00984AAF0004003700CE
:104D9000C942A900CD42A800984AA80005003700E2
:104DA000984AAE0003003700C942A900CD42A900CD
:104DB000984AA900DECABF000000FB0004042000DE
:104DC0000020E10001003D00DE6AEF00EA07090073
:104DD000000000000060FE00406BEC00E6FF3700C2
:104DE0000060FE00E024EF0004002C00142788007F
:104DF000E424EF00B249E20002003200B9E9AE005B
:104E0000450037004427EF000E00FC001010200082
:104E10003174200082072000A30920008248780016
:104E20008348780043E7B7004800DE002174200083
:104E300062042000730520008248780083487800CF
:104E40008048780010C0B300B2E9B700B9A9A80043
:104E50000060FE005C0E020000000000640E020014
:104E6000000000006C0E020000000000740E020042
:104E7000000000000A180200000000008200A800E4
:104E80009400A80063E0A8009660A8009BC0A8005A
:104E90009560A8009580A8009460A80094E0A80000
:104EA0009500A8009600A8004220EF006FE0A8003F
:104EB00057E0A900C962A900CD62A80090012000B6
:104EC000F217020000000000CA24020000000000E7
:104ED000F0C0B30044EBB7001E1D0200000000004C
:104EE000B5C9AE00040037005CC9BF0044EBB70091
:104EF000821E020000000000B5C9AF0002003700AA
:104F00005CC9BF00B8E9B700B9A9A800962AEF00AC
:104F1000B269EF0069003700644D80004822DE006E
:104F20006124E10006003A001A250200000000009A
:104F30006104E10002003A00F6FE37005D00370030
:104F4000AD49E2004A003A001A25020000000000C4
:104F50006104E10046003A004427EF000E00FC0027
:104F6000101020003174200082072000A3092000C7
:104F7000824878008348780043E7B7004800DE00A5
:104F8000217420006204200073052000824878000C
:104F9000834878008048780010C0B300B2E9B700B9
:104FA000B9A9A8000060FE005C0E0200000000002D
:104FB000640E0200000000006C0E02000000000001
:104FC000740E0200000000000A1802000000000039
:104FD0008200A8009400A80063E0A8009660A800E2
:104FE0009BC0A8009560A8009580A8009460A800C8
:104FF00094E0A8009500A8009600A8004220EF00C9
:105000006FE0A80057E0A900C962A900CD62A8001E
:1050100090012000F217020000000000CA240200E4
:105020000000000020C0B30044EBB7001E1D0200CA
:1050300000000000B5C9AE00040037005CC9BF0025
:1050400044EBB700821E020000000000B5C9AF00AB
:10505000020037005CC9BF00B8E9B700B9A9A800D1
:10506000962AEF00B269EF001400370011003700F4
:10507000644D80004822DE006124E10006003A0011
:105080001A250200000000000004E00002003A00BF
:10509000A0FE370007003700AD49E20005003A00E6
:1050A0001A250200000000000004E00001003A00A0
:1050B00098FE3700A0FE370096FE3700CF0278003A
:1050C00000000600851F7800C500200003000900CD
:1050D000B51F7800800378008404780004F0A100F4
:1050E0000400E00006003A0009F0A70002003700C3
:1050F00005002000170037000500200015003700CC
:10510000E6425200120039000003200009F0A60018
:1051100000022000801F7800811F7800829FBE005F
:10512000841F78004EEBB700E21C02000000000074
:105130004F0278004F01BE00CF0078004F0078008A
:105140008502E900F3FF3B00550020000100370015
:10515000840278006400200005E0A00009F0A700A8
:1051600005F0A00008712200110009008883D80012
:10517000F82802000000000081037800883E20002B
:10518000110009008883D800F82802000000000000
:105190008103780048062000110009008883D800A8
:1051A000F82802000000000081037800A800200019
:1051B000110009008883D800F828020000000000D0
:1051C0000003200000C04000811F7800829FBE00C5
:1051D000841F78004EEBB700E21C020000000000C4
:1051E0004F0278004F01BE00CF0078001D0037004D
:1051F000060320000000E0000E003A0005E0A600D3
:105200000D0037000402E9000524E100020032002D
:105210004200AF00000006000000E00005003A0078
:1052200005E0A6000400370005F0A60006022000F5
:105230000100370005E0A10000404300811F780015
:10524000821F7800841F78004EEBB700E21C02003A
:10525000000000004F0278004F017800CF00780076
:10526000000006002501200003000900CF1278008D
:10527000CF0278000000060094742000245A8800B1
:105280004C2102000000000090C1B30024EAB700E6
:10529000622102000000000002180200000000006D
:1052A00074492000245A88004C21020000000000AC
:1052B00090C1B30024EAB7006221020000000000A0
:1052C0000218020000000000B4392000245A8800AF
:1052D0004C2102000000000090C1B30024EAB70096
:1052E000622102000000000002180200000000001D
:1052F000442BEF004C2102000000000090C1B300DD
:1053000024EAB700000006000000E0004220AF00E1
:10531000040037000B000900000000000000E90055
:10532000FCFF3A00000006007160A90000000900BF
:1053300000000000C8A2A8000328A8000000060082
:1053400001002000010078000160EF00400B020026
:10535000000000008100E800811F78004EEBB700DC
:10536000E21C020000000000CF0078006001200075
:105370000008E600F3FF3700E2CABF000160EF005B
:10538000217022000223020000000000A0C3B3002D
:105390004EEBB700E21C020000000000E1CABF00B3
:1053A0000160EF00217022000223020000000000D3
:1053B000A0C3B3004EEBB700E21C020000000000E7
:1053C000E0CABF000160EF0021702200022302004A
:1053D00000000000A0C0B3004EEBB700E21C0200CA
:1053E00000000000D0C0B3004EEBB700E21C02008A
:1053F000000000000000060070C0B30044EBB700DE
:1054000024170200000000000308A80000000600A6
:1054100070C0B30044EBB700481702000000000062
:105420000308A90000000600851F7800C5002000C1
:1054300003000900B51F78000202B80003F0A600BF
:10544000020037000383B900010037000303B800EE
:105450004200A9008502430060844B0001F0A600D1
:1054600002003700028BB90001003700020BB800C0
:1054700085024B0008844B000980B000038BB90003
:1054800008044B0087834C008701780008017800EE
:105490008500780004007800250120000300090041
:1054A000CF127800CF02780000000600851F780038
:1054B000C500200003000900B51F78000900200086
:1054C0004300AF0019002000891F78008384680022
:1054D00001F0A600030037008180EA000000EA0026
:1054E000E080480003F0A600030037008381EA0053
:1054F0000201EA00E0814900030269001500320060
:105500000002EB008002EB000003EB008003EB00E5
:10551000080220004200A9000080D2008180D20051
:105520000482D2008582D2000328E10001003A0003
:1055300002A0E100030039000202520083825A00F7
:105540004200A8000683D2008783D2000804E90045
:10555000F0FF3A0009F0A600070037000600EA0055
:105560000100320002003A008700EA00050037001F
:105570008780EA0003003700870078000600780083
:1055800000003700CF0478000900E000010032007D
:105590000400BE002501200003000900CF1278009E
:1055A000CF0278000000060046ABEF00400BF80089
:1055B000420BF900442BEF00460BE2002E003200B4
:1055C000462BED00145A8000F37022000418E1000D
:1055D0000200310000A0EF0029003700145A8000BB
:1055E000833E20000418E10008003E00145A8000A9
:1055F000843EB100145A880004002100235A800020
:105600000480410044ABB7001A003700145A8000F0
:10561000430620000418E10008003E00145A8000F0
:105620004406B100145A880004102000235A800058
:105630000480410044ABB7000E003700145A8000CC
:105640006A20E10007003900145A80006A00520005
:1056500042ABB700245A80007000420044ABB70050
:1056600004003700448BBF00420BB40044ABB700CA
:1056700001003700D0FF3700440BF8000000F900AC
:1056800000000600F0CFB30043EBB70040CBBF00F3
:1056900041EBB700426BEF00434BE20012003200D7
:1056A000436BED00045A80004822DE006A24E100CA
:1056B00008003900045A80004822DE006A40520087
:1056C00041EBB700145A80007040420042EBB70033
:1056D0000400370042CBBF00414BB40042EBB7009F
:1056E00001003700ECFF370042CBBF0000E0B700FD
:1056F00000000600851F7800861F7800E108200062
:105700000000E0001200320000F0A70004003700A3
:105710004200A9000080D2008100E900FAFF3700B2
:105720000180FD004200A9008180D30000F0A100AB
:105730000080FD00814068000040B2000700370093
:10574000014078000170A0000140B2000300370062
:105750000000EB008000EB00000037004F037800F2
:10576000CF02780000000600851F780081027800D3
:1057700000017800640B20008180D2000180FD00D0
:10578000F10FB20001425200854178000370A00081
:10579000F30FB2000000EB008000EB007820E10086
:1057A0000F0033004200A9008381D3000281D3009F
:1057B0008180D3000080D3000402E900F9FF3A00A1
:1057C00005F0A600060037000000EA0002003200E3
:1057D0008180EA00020037008100EA000000370003
:1057E000CF02780000000600851F7800416BEF00B3
:1057F000FCC9BF00FD49E30008003A00416BEC0022
:10580000045A80004822DE006A24E10003003E00C2
:105810007E3E090000000000F5FF3700E44F8000E5
:105820004822DE00C39D200003004200045A80008D
:1058300000429000045A8800E44F80004822DE00B5
:10584000E10242007FC06200FDE9B70040CBBF002B
:1058500000E0B700CF02780000000600851F780046
:10586000406BEF00045A80007F24E10007003E00F7
:10587000045A80000960EF0003AF20008302420059
:10588000804AEB00406BEC00F6FF3700CF02780057
:1058900000000600851F7800608BBF001004E00048
:1058A00019003200600BF800640BF900620BF8007D
:1058B000660BF900668BBF001004E0000A0032009E
:1058C000648BBF0090427800668BBF0000027800B6
:1058D00014407800002CE10003003A00642BEC0037
:1058E000662BEC00F3FF3700668BBF001004E0006E
:1058F00003003A00600BF8000000F90003003700D5
:10590000602BEC00E4FF37000020EF00CF027800AE
:1059100000000600851F7800745780004822DE00D2
:105920007420B800800278000501780001B42000DE
:1059300002007800BC0902000000000080587800D6
:105940000201E8000004E0004220AE00F8FF37004A
:10595000E49F2000045B880004B42000145B8800EE
:105960004A2C020000000000800278000500E000E0
:105970000400320010C0B30000E0B700030037009D
:10598000020037000060EF0000003700CF0278000F
:105990000000060030C0B30044EBB7001E1D02003B
:1059A0000000000000000600851F7800406BEF003B
:1059B000045A80007F24E10007003100045A80006F
:1059C0000960EF00E39F200083024200804AEB0061
:1059D000406BEC00F6FF3700B929A9001E6AEF0002
:1059E000CF0278000000060000000600851F780046
:1059F0002E2C020000000000EF6AEF008A2C02004B
:105A0000000000006104E1000F003A0030C3B30061
:105A100044EBB7001E1D020000000000261F02001C
:105A2000000000003418020000000000C942A90074
:105A3000CD42A900A0002000F217020000000000E3
:105A40000000FE00B200370010C0B300EFEAB7005C
:105A50008A2C0200000000006104E10005003A0009
:105A6000CA2C020000000000D42C0200000000003C
:105A7000A700370020C0B300EFEAB7008A2C02006D
:105A8000000000006104E10007003A00F42C02006D
:105A900000000000CA2C020000000000D42C02000C
:105AA000000000009A00370040C0B300EFEAB700E2
:105AB0008A2C0200000000006104E10005003A00A9
:105AC000CA2C020000000000D42C020000000000DC
:105AD0008F003700D0C0B300EFEAB7008A2C020075
:105AE000000000006104E10005003A00CA2C020039
:105AF00000000000D42C02000000000084003700E9
:105B0000E0C0B300EFEAB7008A2C020000000000FA
:105B10006104E10005003A00CA2C02000000000008
:105B2000D42C0200000000007900370060C0B300F0
:105B3000EFEAB7008A2C0200000000006104E100D7
:105B400005003A00CA2C020000000000D42C02001C
:105B5000000000006E00370050C0B300EFEAB7004D
:105B60008A2C0200000000006104E10005003A00F8
:105B7000CA2C020000000000D42C0200000000002B
:105B800063003700A0C0B300EFEAB7008A2C020020
:105B9000000000006104E10005003A00CA2C020088
:105BA00000000000D42C0200000000005800370064
:105BB000B0C0B300EFEAB7008A2C0200000000007A
:105BC0006104E10005003A00CA2C02000000000058
:105BD000D42C0200000000004D003700F0C0B300DC
:105BE000EFEAB7008A2C0200000000006104E10027
:105BF00006003A0040062000F217020000000000F4
:105C0000D42C0200000000004100370000C1B300A6
:105C1000EFEAB7008A2C0200000000006104E100F6
:105C200003003A00D42C02000000000038003700C6
:105C300010C1B300EFEAB7008A2C02000000000098
:105C40006104E10003003A00D42C020000000000CF
:105C50002F00370020C1B300EFEAB7008A2C020002
:105C6000000000006104E10003003A00D42C0200AF
:105C7000000000002600370030C1B300EFEAB70093
:105C80008A2C0200000000006104E10003003A00D9
:105C9000D42C0200000000001D003700010020008D
:105CA000010078000160EF00DC0A02000000000043
:105CB0008100E800811F78004EEBB700E21C020073
:105CC00000000000CF007800D00020000008E600AF
:105CD000F3FF3700E19F20001104E00008003200CC
:105CE000811F7800014090004EEBB700E21C0200DB
:105CF00000000000CF0078008100E800F6FF3700C8
:105D0000CA2C020000000000D42C02000000000099
:105D1000CF027800000006000FE52000F0FF200011
:105D200020A0B700000000004044240020058800A7
:105D30004044260030058800504424004005880077
:105D4000704425006005880081E0A90000802000E3
:105D5000E13F2000018009000018EB004427EF001C
:105D60000028EF00040028000411880004402000EF
:105D7000141188002062A800240220004411880029
:105D8000CD22A90007E2A80007A2A80006C2A80029
:105D90000762A90006E2A8000702A8000722A800DF
:105DA0000742A900840620005410880074002000D7
:105DB000641088002021EF00F4E72300E408880045
:105DC000040028000409880004F42100040D880060
:105DD00004C02000D40C8800F4002000E40C8800EB
:105DE0001E21EF00F4E72300D408880004002800F7
:105DF000F408880004F42100540D88000480200079
:105E0000240D8800E4002000340D8800DA69EF00DA
:105E1000DB69EF00FC69EF00FD69EF00202AEF006D
:105E200000C4B3009FEAB70000C4B300D0EAB700D3
:105E300000C4B300D1EAB70000C4B300D2EAB7008F
:105E400000C4B300D3EAB70000C4B300D4EAB7007B
:105E500000C4B300D5EAB70000C4B300D6EAB70067
:105E600000C4B300D7EAB70000C4B300D8EAB70053
:105E700000C4B300D9EAB70000C4B300DAEAB7003F
:105E800030C0B300EEEAB700E024EF00E224EF00F8
:105E9000E424EF006E003700C00608000400000094
:105EA0004BF03F005C0A5800F63B8F0000C03C00FE
:105EB0008B28AC003CBEF6003FD2D50044168C00C7
:105EC00015D7BF0069005A002E1B8700993F9A0022
:105ED0005FAD4B0091E40100C05D11002F92E40022
:105EE00081FB3F0038DA9100809DC500E0BF6F0064
:105EF00012C0B400C309AB003F6BC100034EC10028
:105F0000B545BF00F7400500FF005A00EF3FF30022
:105F1000A3E2F700D7FF010040C0B400FF053C003A
:105F200058FC3F003BD3C000B5BA8C00E23F3900BB
:105F3000D3C73D004179B2003F870D003C50D000EF
:105F4000AF623F00304B8D00A282AA0004400900DE
:105F5000A0404A000576030040EC9E003788A6006A
:105F600044F03F008F128D00299A5B00C73F0E005E
:105F7000E0807C00A1D886003F294B00FB95C20041
:105F8000371A3F0080680800BAA07D00CA7DEE0085
:105F90007D337E00367E3A007E3E7E00427E4600A5
:105FA0007E4A7E004E7E53007E587E005D7E6200FB
:105FB0007E937E00DA7E0A007F1D7F00207F240012
:105FC0007F4A7F00727F95007FA57F00CB7FD30043
:105FD0007FD87F00F47F890080B18000C8801100E5
:105FE000815D81008A81BD0081E78100FA8118000E
:105FF0008236820052826000826D82007282770057
:1060000082CE8200F5820B00833F83009383B7002A
:1060100083DB8300000000000201E8006110E10062
:1060200004003A009101BA003182BA0006C0BF00F4
:10603000000006006210E10002003A0007C0BF0045
:106040000000060008C0BF000001EB0000000600D1
:10605000060020000000200090018800C0F422000B
:10606000800078000001EB000C300200000000000E
:106070000BE0B7000C300200000000000AE0B7009F
:106080000500E0001900320005F0A6000700370007
:106090000C300200000000000DE0B7000C300200E0
:1060A000000000000CE0B70005F0A10005E0A6002C
:1060B0000800370005E0A1008502E9000C3002006D
:1060C000000000008043780005800900075B78002D
:1060D000E5FF37000C30020000000000005B780094
:1060E0008502E900FBFF3A00DFFF3700C41602001B
:1060F0000000000070E0A8006FE0A80057E0A900D1
:10610000C962A900CD62A8003E170200000000008D
:10611000D082A800C0E2A800C942A800C962A800B5
:10612000C802A800C822A800D0E2A800D0C2A800D7
:10613000C922A800C902A800B549A800B569A800ED
:10614000B589A8006217020000000000DC170200F9
:1061500000000000EA170200000000009610020094
:106160000000000040A7A80040A7A80002180200F5
:10617000000000003E17020000000000246C200018
:1061800014528800046E200024528800E46F20001E
:1061900034528800A473200044528800D47E20002A
:1061A0005452880094822000745288004486200053
:1061B00064528800048A200084528800F4982000E9
:1061C0009452880014E72000A452880004E02000C4
:1061D000B452880044DB2000C452880074CF2000F1
:1061E000D4528800A4362000E4528800144E2000C7
:1061F000F45288003E17020000000000C962A900A6
:10620000CD62A800C962A800C142A900C542A90088
:106210003226EF005627EF0041E2A90040C2A90054
:106220004222EF0041E2A8005627EF00F4002000D0
:106230000427880004002F00142788007400200021
:1062400024278800F40020000427880004002E0082
:1062500014278800740020002427880004002800E8
:10626000141A880014002100241A8800044728000A
:10627000041A88000A180200000000000421EF0040
:1062800021742000240020006204200073052000F7
:106290008248780083487800844878000408200009
:1062A0001408880024032C0024088800A40020007F
:1062B000441A8800480E0200000000007EAAB700C1
:1062C0007E8ABF00D45280000020E1001100360019
:1062D000C416020000000000EA17020000000000DF
:1062E00096100200000000007C0E0200000000007A
:1062F0000060FE003418020000000000A40020002E
:10630000441A8800480E0200000000007EAAB70070
:10631000EBFF37005C0E020000000000740E02006C
:1063200000000000030020000400200025002000E1
:106330003C1802000000000010ABB70010CBBF00FB
:1063400046E9B70011CBBF0047E9B7005418020077
:106350000000000079C9BF004BE9B700B9A9A80047
:106360007AC9BF004CE9B700261A020000000000FD
:1063700002180200000000008200A8009400A8009B
:1063800063E0A8009660A8009BC0A8009560A800E4
:106390009580A8009460A80094E0A8009500A8004B
:1063A0009600A8004220EF000600FC006176200065
:1063B0005205200082087800A30A20008308780094
:1063C00027A6A80021742000620420007305200085
:1063D00082487800834878004227A80004002800FB
:1063E00034318800FC22A90027A6A9000218020067
:1063F000000000003418020000000000044C80007F
:10640000F4CFB20006003A0047C9BF0051E9B70017
:1064100051C9BF0080E9B700101B02000000000056
:1064200080C9BF0051E9B7005C1B020000000000FA
:1064300022EAB700145180006224E1000E003A0005
:10644000D21B020000000000E0C0B30044EBB70024
:106450001E1D020000000000D0C1B30044EBB700D5
:106460001E1D020000000000E0C0B30044EBB700B6
:106470001E1D020000000000145180006324E10092
:1064800002003A00261F020000000000082002005F
:1064900000000000EB6AEF005C0E0200000000004C
:1064A000640E0200000000009610020000000000D0
:1064B00010C0B3008AEAB7008ACABF0022E9B70059
:1064C000922AEF00942AEF0050C0B3009EEAB70072
:1064D0007E2AEF009610020000000000980AA90032
:1064E0007C0E0200000000007E3E0900000000005B
:1064F00000C4B3009FEAB70000C4B300D0EAB700FD
:1065000000C4B300D1EAB70000C4B300D2EAB700B8
:1065100000C4B300D3EAB70000C4B300D4EAB700A4
:1065200000C4B300D5EAB70000C4B300D6EAB70090
:1065300000C4B300D8EAB70000C4B300D9EAB7007A
:10654000A02AEF00A22AEF00A42AEF00A62AEF005B
:10655000A82AEF00AA2AEF00AC2AEF00AE2AEF002B
:10656000B02AEF00B22AEF00B42AEF00B62AEF00FB
:10657000B82AEF00BA2AEF00BC2AEF00BE2AEF00CB
:10658000C42AEF00C62AEF00C82AEF00CA2AEF008B
:106590000218020000000000B969A900B989A90029
:1065A000C0C1B30044EBB7001E1D02000000000094
:1065B000446BEF001E1D02000000000001002000DF
:1065C000010078000160EF00740B02000000000081
:1065D0008100E800811F78004EEBB700E21C02004A
:1065E00000000000CF007800D00120000008E60085
:1065F000F3FF370046C9BF004EEBB700E21C0200B4
:106600000000000001022000010078000160EF009E
:10661000740B0200000000008100E800811F780078
:106620004EEBB700E21C020000000000CF00780033
:10663000400320000008E600F3FF370047C9BF0011
:106640004EEBB700E21C020000000000E0C1B30006
:1066500044EBB7001E1D020000000000844A8000C9
:106660004822DE0064C4B20004003200844A800084
:106670004822DE0014C5B20005003A0090C1B30004
:1066800044EBB7001E1D02000000000004003700AC
:10669000A0C1B30044EBB7001E1D020000000000C3
:1066A000B0C1B30044EBB7001E1D020000000000A3
:1066B00040C2B30048E9B700B269EF00962AEF0084
:1066C000226AEF00B8C9BF005CE9B700B769EF0004
:1066D000B7C9BF005BE9B700181F02000000000047
:1066E000B549A900B569A900B589A90062170200DA
:1066F000000000000820020000000000B42020007C
:10670000245A88004C2102000000000090C1B30010
:1067100024EAB70062210200000000000218020013
:106720000000000034292000245A88004C21020077
:106730000000000090C1B30024EAB700622102000B
:10674000000000000218020000000000845C20002D
:10675000245A88004C2102000000000090C1B300C0
:1067600024EAB700622102000000000002180200C3
:1067700000000000B4392000245A88004C21020097
:106780000000000090C1B30024EAB70062210200BB
:10679000000000000218020000000000C0E2A90092
:1067A000C4E2A9000060FE006217020000000000C1
:1067B0006821020000000000844A80004822DE00B8
:1067C00064C4B20004003200844A80004822DE0023
:1067D00014C5B20002003A00B909A8000100370050
:1067E000B909A900545480006124E100020032007C
:1067F0007C0E020000000000B909AE000600370060
:10680000508ABF00D45180000020E1000200360011
:106810007C0E020000000000B909AE00080037003D
:106820003A8ABF00245280000020E10002003900B3
:10683000B569A80001003700B569A9000700370055
:106840003A8ABF00745280000020E1000200390043
:10685000B569A80001003700B569A90062C9BF0089
:106860000160EF00E10260006128E1001A003A00D7
:10687000B5E9AF0018003700B5E9A80042230200CF
:10688000000000008949E2001200320062C9BF0026
:1068900084E9B70063C9BF0085E9B70064C9BF00D8
:1068A00086E9B70065C9BF0087E9B70066C9BF00C0
:1068B00088E9B70067C9BF0089E9B700101B02006B
:1068C00000000000F0C1B30044EBB7001E1D020041
:1068D000000000000C00370062C9BF000160EF003B
:1068E000E10260000500E00007003A00B5E9AE00F3
:1068F00005003700B5E9A90000C2B30044EBB700BA
:106900001E1D0200000000004429EC00B909AE0081
:106910002F003700545480006224E1002B003A001D
:10692000B9E9AE0029003700A45480006020E100DE
:106930002600390003003E00945480006F20E100DF
:1069400022003600B989AF00200037003A8ABF0024
:10695000145280000020E1001C00360010C2B30079
:1069600044EBB7001E1D020000000000922AEF0059
:10697000942AEF00E82302000000000040240200F7
:10698000000000006104E1000E003A00341802002B
:1069900000000000AA24020000000000CA24020037
:1069A0000000000020C2B30044EBB7001E1D02002F
:1069B00000000000B9A9A800962AEF00B269EF0014
:1069C0000D0437004C250200000000002E003700A7
:1069D000545480006224E1002B003A00B9E9AE0073
:1069E00029003700A45480006020E100260039000F
:1069F00003003E00945480006F20E1002200360026
:106A0000B989AF00200037003A8ABF005452800095
:106A10000020E1001C00360030C2B30044EBB70098
:106A20001E1D020000000000922AEF00942AEF00D1
:106A3000E8230200000000004024020000000000E3
:106A40006104E1000E003A0034180200000000006A
:106A5000AA24020000000000CA2402000000000076
:106A600020C2B30044EBB7001E1D0200000000006E
:106A7000B9A9A800962AEF00B269EF00DE0337003B
:106A80004C25020000000000544A80004822DE002D
:106A9000E30F2000041CE100510039005454800031
:106AA0006224E1004E003A00B9E9AE004C00370024
:106AB0004BC9BF000160EF00C40320000400B80010
:106AC000C003B000A45480006020E10044003900FD
:106AD00003003E00945480000020E1004000360096
:106AE000B989AF003E0037004BC9BF000160EF001D
:106AF000C40320000400B800C40320008402400046
:106B000001002000010078000160EF00B60B0200D8
:106B1000000000008100E800811F78004EEBB70004
:106B2000E21C020000000000CF007800B00120004D
:106B30000008E600F3FF370005007800040020009D
:106B40006228020000000000F1012000010078002E
:106B50000160EF00B60B0200000000008100E800B9
:106B6000811F78004EEBB700E21C0200000000001D
:106B7000CF007800600220000008E600F3FF370035
:106B8000922AEF00942AEF00E823020000000000A0
:106B900040240200000000006104E1000E003A0001
:106BA0003418020000000000AA24020000000000C7
:106BB000CA2402000000000020C2B30044EBB7006A
:106BC0001E1D020000000000B9A9A800962AEF00CF
:106BD000B269EF00880337004C2502000000000076
:106BE000B989AE000A0037003C290200000000000D
:106BF00040C2B30044EBB7001E1D020000000000BD
:106C0000E8230200000000004C2502000000000004
:106C1000B4548000C31220000418E10006003E00B6
:106C200050C2B30044EBB7001E1D0200000000007C
:106C30004C25020000000000B9E9AF000500370054
:106C4000B549A8006217020000000000B9A9A80019
:106C50002F003700B9E9AE002D003700B9A9AE000A
:106C60002B003700B969A900B9A9A9007E3E090027
:106C700000000000980AA800449C2000E45488000A
:106C8000A4002000441A88009610020000000000B2
:106C90009C0AE200100032009C2AED000060FE0019
:106CA000480E0200000000007EAAB7007E8ABF00E6
:106CB000C45280000020E100060036006C0E020085
:106CC00000000000980AA9007E3E090000000000B4
:106CD00001003700EEFF37007E2AEF0050C0B300FE
:106CE0009EEAB70010C0B3008AEAB7008ACABF00A4
:106CF00022E9B700922AEF00942AEF0096100200D2
:106D000000000000980AA9007E3E09000000000073
:106D1000545480006224E100500032009E4AE20098
:106D20004E003A00845480006020E1004B0039009E
:106D300003003E00745480006F20E10047003600DD
:106D4000B9E9AE0045003700B909AE0008003700C8
:106D5000508ABF00D45180000020E10004003600BA
:106D60007C0E0200000000000060FE003B003700C7
:106D7000B909AF00060037000328AF000400370050
:106D80003A8ABF00945280000020E10008003E00D3
:106D9000B909AE00310037000328AF002F003700DB
:106DA0003A8ABF00645280000020E1002B003600C8
:106DB000082002000000000020C0B3008AEAB700EB
:106DC0006C0E0200000000007E3E09000000000082
:106DD000344A80004822DE0004C5B20016003200AA
:106DE000344A80004822DE0014C5B200120032008E
:106DF000140020009458880094588000A30F2000AD
